{
	"ultimate-solidity-course-for-complete-beginners-main/Exercises/24-Twitter-GetTotalLikes-Exercise.sol": {
		"Twitter": {
			"abi": [
				{
					"inputs": [],
					"stateMutability": "nonpayable",
					"type": "constructor"
				},
				{
					"anonymous": false,
					"inputs": [
						{
							"indexed": false,
							"internalType": "uint256",
							"name": "id",
							"type": "uint256"
						},
						{
							"indexed": false,
							"internalType": "address",
							"name": "author",
							"type": "address"
						},
						{
							"indexed": false,
							"internalType": "string",
							"name": "content",
							"type": "string"
						},
						{
							"indexed": false,
							"internalType": "uint256",
							"name": "timestamp",
							"type": "uint256"
						}
					],
					"name": "TweetCreated",
					"type": "event"
				},
				{
					"anonymous": false,
					"inputs": [
						{
							"indexed": false,
							"internalType": "address",
							"name": "liker",
							"type": "address"
						},
						{
							"indexed": false,
							"internalType": "address",
							"name": "tweetAuthor",
							"type": "address"
						},
						{
							"indexed": false,
							"internalType": "uint256",
							"name": "tweetId",
							"type": "uint256"
						},
						{
							"indexed": false,
							"internalType": "uint256",
							"name": "newLikeCount",
							"type": "uint256"
						}
					],
					"name": "TweetLiked",
					"type": "event"
				},
				{
					"anonymous": false,
					"inputs": [
						{
							"indexed": false,
							"internalType": "address",
							"name": "unliker",
							"type": "address"
						},
						{
							"indexed": false,
							"internalType": "address",
							"name": "tweetAuthor",
							"type": "address"
						},
						{
							"indexed": false,
							"internalType": "uint256",
							"name": "tweetId",
							"type": "uint256"
						},
						{
							"indexed": false,
							"internalType": "uint256",
							"name": "newLikeCount",
							"type": "uint256"
						}
					],
					"name": "TweetUnliked",
					"type": "event"
				},
				{
					"inputs": [],
					"name": "MAX_TWEET_LENGTH",
					"outputs": [
						{
							"internalType": "uint16",
							"name": "",
							"type": "uint16"
						}
					],
					"stateMutability": "view",
					"type": "function"
				},
				{
					"inputs": [
						{
							"internalType": "uint16",
							"name": "newTweetLength",
							"type": "uint16"
						}
					],
					"name": "changeTweetLength",
					"outputs": [],
					"stateMutability": "nonpayable",
					"type": "function"
				},
				{
					"inputs": [
						{
							"internalType": "string",
							"name": "_tweet",
							"type": "string"
						}
					],
					"name": "createTweet",
					"outputs": [],
					"stateMutability": "nonpayable",
					"type": "function"
				},
				{
					"inputs": [
						{
							"internalType": "address",
							"name": "_owner",
							"type": "address"
						}
					],
					"name": "getAllTweets",
					"outputs": [
						{
							"components": [
								{
									"internalType": "uint256",
									"name": "id",
									"type": "uint256"
								},
								{
									"internalType": "address",
									"name": "author",
									"type": "address"
								},
								{
									"internalType": "string",
									"name": "content",
									"type": "string"
								},
								{
									"internalType": "uint256",
									"name": "timestamp",
									"type": "uint256"
								},
								{
									"internalType": "uint256",
									"name": "likes",
									"type": "uint256"
								}
							],
							"internalType": "struct Twitter.Tweet[]",
							"name": "",
							"type": "tuple[]"
						}
					],
					"stateMutability": "view",
					"type": "function"
				},
				{
					"inputs": [
						{
							"internalType": "address",
							"name": "_author",
							"type": "address"
						}
					],
					"name": "getTotalLikes",
					"outputs": [
						{
							"internalType": "uint256",
							"name": "",
							"type": "uint256"
						}
					],
					"stateMutability": "view",
					"type": "function"
				},
				{
					"inputs": [
						{
							"internalType": "uint256",
							"name": "_i",
							"type": "uint256"
						}
					],
					"name": "getTweet",
					"outputs": [
						{
							"components": [
								{
									"internalType": "uint256",
									"name": "id",
									"type": "uint256"
								},
								{
									"internalType": "address",
									"name": "author",
									"type": "address"
								},
								{
									"internalType": "string",
									"name": "content",
									"type": "string"
								},
								{
									"internalType": "uint256",
									"name": "timestamp",
									"type": "uint256"
								},
								{
									"internalType": "uint256",
									"name": "likes",
									"type": "uint256"
								}
							],
							"internalType": "struct Twitter.Tweet",
							"name": "",
							"type": "tuple"
						}
					],
					"stateMutability": "view",
					"type": "function"
				},
				{
					"inputs": [
						{
							"internalType": "address",
							"name": "author",
							"type": "address"
						},
						{
							"internalType": "uint256",
							"name": "id",
							"type": "uint256"
						}
					],
					"name": "likeTweet",
					"outputs": [],
					"stateMutability": "nonpayable",
					"type": "function"
				},
				{
					"inputs": [],
					"name": "owner",
					"outputs": [
						{
							"internalType": "address",
							"name": "",
							"type": "address"
						}
					],
					"stateMutability": "view",
					"type": "function"
				},
				{
					"inputs": [
						{
							"internalType": "address",
							"name": "",
							"type": "address"
						},
						{
							"internalType": "uint256",
							"name": "",
							"type": "uint256"
						}
					],
					"name": "tweets",
					"outputs": [
						{
							"internalType": "uint256",
							"name": "id",
							"type": "uint256"
						},
						{
							"internalType": "address",
							"name": "author",
							"type": "address"
						},
						{
							"internalType": "string",
							"name": "content",
							"type": "string"
						},
						{
							"internalType": "uint256",
							"name": "timestamp",
							"type": "uint256"
						},
						{
							"internalType": "uint256",
							"name": "likes",
							"type": "uint256"
						}
					],
					"stateMutability": "view",
					"type": "function"
				},
				{
					"inputs": [
						{
							"internalType": "address",
							"name": "author",
							"type": "address"
						},
						{
							"internalType": "uint256",
							"name": "id",
							"type": "uint256"
						}
					],
					"name": "unlikeTweet",
					"outputs": [],
					"stateMutability": "nonpayable",
					"type": "function"
				}
			],
			"devdoc": {
				"kind": "dev",
				"methods": {},
				"version": 1
			},
			"evm": {
				"assembly": "    /* \"ultimate-solidity-course-for-complete-beginners-main/Exercises/24-Twitter-GetTotalLikes-Exercise.sol\":267:2801  contract Twitter {... */\n  mstore(0x40, 0x80)\n    /* \"ultimate-solidity-course-for-complete-beginners-main/Exercises/24-Twitter-GetTotalLikes-Exercise.sol\":324:327  280 */\n  0x0118\n    /* \"ultimate-solidity-course-for-complete-beginners-main/Exercises/24-Twitter-GetTotalLikes-Exercise.sol\":291:327  uint16 public MAX_TWEET_LENGTH = 280 */\n  0x00\n  exp(0x0100, 0x00)\n  dup2\n  sload\n  dup2\n  0xffff\n  mul\n  not\n  and\n  swap1\n  dup4\n  0xffff\n  and\n  mul\n  or\n  swap1\n  sstore\n  pop\n    /* \"ultimate-solidity-course-for-complete-beginners-main/Exercises/24-Twitter-GetTotalLikes-Exercise.sol\":863:912  constructor() {... */\n  callvalue\n  dup1\n  iszero\n  tag_1\n  jumpi\n  revert(0x00, 0x00)\ntag_1:\n  pop\n    /* \"ultimate-solidity-course-for-complete-beginners-main/Exercises/24-Twitter-GetTotalLikes-Exercise.sol\":895:905  msg.sender */\n  caller\n    /* \"ultimate-solidity-course-for-complete-beginners-main/Exercises/24-Twitter-GetTotalLikes-Exercise.sol\":887:892  owner */\n  0x02\n  0x00\n    /* \"ultimate-solidity-course-for-complete-beginners-main/Exercises/24-Twitter-GetTotalLikes-Exercise.sol\":887:905  owner = msg.sender */\n  0x0100\n  exp\n  dup2\n  sload\n  dup2\n  0xffffffffffffffffffffffffffffffffffffffff\n  mul\n  not\n  and\n  swap1\n  dup4\n  0xffffffffffffffffffffffffffffffffffffffff\n  and\n  mul\n  or\n  swap1\n  sstore\n  pop\n    /* \"ultimate-solidity-course-for-complete-beginners-main/Exercises/24-Twitter-GetTotalLikes-Exercise.sol\":267:2801  contract Twitter {... */\n  dataSize(sub_0)\n  dup1\n  dataOffset(sub_0)\n  0x00\n  codecopy\n  0x00\n  return\nstop\n\nsub_0: assembly {\n        /* \"ultimate-solidity-course-for-complete-beginners-main/Exercises/24-Twitter-GetTotalLikes-Exercise.sol\":267:2801  contract Twitter {... */\n      mstore(0x40, 0x80)\n      callvalue\n      dup1\n      iszero\n      tag_1\n      jumpi\n      revert(0x00, 0x00)\n    tag_1:\n      pop\n      jumpi(tag_2, lt(calldatasize, 0x04))\n      shr(0xe0, calldataload(0x00))\n      dup1\n      0x6eb10797\n      gt\n      tag_13\n      jumpi\n      dup1\n      0x6eb10797\n      eq\n      tag_8\n      jumpi\n      dup1\n      0x7c9cd2bc\n      eq\n      tag_9\n      jumpi\n      dup1\n      0x820785cc\n      eq\n      tag_10\n      jumpi\n      dup1\n      0x8da5cb5b\n      eq\n      tag_11\n      jumpi\n      dup1\n      0xc3ad5ecb\n      eq\n      tag_12\n      jumpi\n      jump(tag_2)\n    tag_13:\n      dup1\n      0x05a1b4a9\n      eq\n      tag_3\n      jumpi\n      dup1\n      0x12e7ee1c\n      eq\n      tag_4\n      jumpi\n      dup1\n      0x3d9b569f\n      eq\n      tag_5\n      jumpi\n      dup1\n      0x58bfa4ab\n      eq\n      tag_6\n      jumpi\n      dup1\n      0x63378216\n      eq\n      tag_7\n      jumpi\n    tag_2:\n      revert(0x00, 0x00)\n        /* \"ultimate-solidity-course-for-complete-beginners-main/Exercises/24-Twitter-GetTotalLikes-Exercise.sol\":477:519  mapping(address => Tweet[] ) public tweets */\n    tag_3:\n      tag_14\n      0x04\n      dup1\n      calldatasize\n      sub\n      dup2\n      add\n      swap1\n      tag_15\n      swap2\n      swap1\n      tag_16\n      jump\t// in\n    tag_15:\n      tag_17\n      jump\t// in\n    tag_14:\n      mload(0x40)\n      tag_18\n      swap6\n      swap5\n      swap4\n      swap3\n      swap2\n      swap1\n      tag_19\n      jump\t// in\n    tag_18:\n      mload(0x40)\n      dup1\n      swap2\n      sub\n      swap1\n      return\n        /* \"ultimate-solidity-course-for-complete-beginners-main/Exercises/24-Twitter-GetTotalLikes-Exercise.sol\":2436:2549  function getAllTweets(address _owner) public view returns (Tweet[] memory ){... */\n    tag_4:\n      tag_20\n      0x04\n      dup1\n      calldatasize\n      sub\n      dup2\n      add\n      swap1\n      tag_21\n      swap2\n      swap1\n      tag_22\n      jump\t// in\n    tag_21:\n      tag_23\n      jump\t// in\n    tag_20:\n      mload(0x40)\n      tag_24\n      swap2\n      swap1\n      tag_25\n      jump\t// in\n    tag_24:\n      mload(0x40)\n      dup1\n      swap2\n      sub\n      swap1\n      return\n        /* \"ultimate-solidity-course-for-complete-beginners-main/Exercises/24-Twitter-GetTotalLikes-Exercise.sol\":1987:2315  function unlikeTweet(address author, uint256 id) external {... */\n    tag_5:\n      tag_26\n      0x04\n      dup1\n      calldatasize\n      sub\n      dup2\n      add\n      swap1\n      tag_27\n      swap2\n      swap1\n      tag_16\n      jump\t// in\n    tag_27:\n      tag_28\n      jump\t// in\n    tag_26:\n      stop\n        /* \"ultimate-solidity-course-for-complete-beginners-main/Exercises/24-Twitter-GetTotalLikes-Exercise.sol\":1027:1144  function changeTweetLength(uint16 newTweetLength) public onlyOwner {... */\n    tag_6:\n      tag_29\n      0x04\n      dup1\n      calldatasize\n      sub\n      dup2\n      add\n      swap1\n      tag_30\n      swap2\n      swap1\n      tag_31\n      jump\t// in\n    tag_30:\n      tag_32\n      jump\t// in\n    tag_29:\n      stop\n        /* \"ultimate-solidity-course-for-complete-beginners-main/Exercises/24-Twitter-GetTotalLikes-Exercise.sol\":1696:1981  function likeTweet(address author, uint256 id) external {  ... */\n    tag_7:\n      tag_33\n      0x04\n      dup1\n      calldatasize\n      sub\n      dup2\n      add\n      swap1\n      tag_34\n      swap2\n      swap1\n      tag_16\n      jump\t// in\n    tag_34:\n      tag_35\n      jump\t// in\n    tag_33:\n      stop\n        /* \"ultimate-solidity-course-for-complete-beginners-main/Exercises/24-Twitter-GetTotalLikes-Exercise.sol\":291:327  uint16 public MAX_TWEET_LENGTH = 280 */\n    tag_8:\n      tag_36\n      tag_37\n      jump\t// in\n    tag_36:\n      mload(0x40)\n      tag_38\n      swap2\n      swap1\n      tag_39\n      jump\t// in\n    tag_38:\n      mload(0x40)\n      dup1\n      swap2\n      sub\n      swap1\n      return\n        /* \"ultimate-solidity-course-for-complete-beginners-main/Exercises/24-Twitter-GetTotalLikes-Exercise.sol\":1150:1690  function createTweet(string memory _tweet) public {... */\n    tag_9:\n      tag_40\n      0x04\n      dup1\n      calldatasize\n      sub\n      dup2\n      add\n      swap1\n      tag_41\n      swap2\n      swap1\n      tag_42\n      jump\t// in\n    tag_41:\n      tag_43\n      jump\t// in\n    tag_40:\n      stop\n        /* \"ultimate-solidity-course-for-complete-beginners-main/Exercises/24-Twitter-GetTotalLikes-Exercise.sol\":2555:2799  function getTotalLikes(address _author) external view returns(uint){... */\n    tag_10:\n      tag_44\n      0x04\n      dup1\n      calldatasize\n      sub\n      dup2\n      add\n      swap1\n      tag_45\n      swap2\n      swap1\n      tag_22\n      jump\t// in\n    tag_45:\n      tag_46\n      jump\t// in\n    tag_44:\n      mload(0x40)\n      tag_47\n      swap2\n      swap1\n      tag_48\n      jump\t// in\n    tag_47:\n      mload(0x40)\n      dup1\n      swap2\n      sub\n      swap1\n      return\n        /* \"ultimate-solidity-course-for-complete-beginners-main/Exercises/24-Twitter-GetTotalLikes-Exercise.sol\":525:545  address public owner */\n    tag_11:\n      tag_49\n      tag_50\n      jump\t// in\n    tag_49:\n      mload(0x40)\n      tag_51\n      swap2\n      swap1\n      tag_52\n      jump\t// in\n    tag_51:\n      mload(0x40)\n      dup1\n      swap2\n      sub\n      swap1\n      return\n        /* \"ultimate-solidity-course-for-complete-beginners-main/Exercises/24-Twitter-GetTotalLikes-Exercise.sol\":2321:2430  function getTweet( uint _i) public view returns (Tweet memory) {... */\n    tag_12:\n      tag_53\n      0x04\n      dup1\n      calldatasize\n      sub\n      dup2\n      add\n      swap1\n      tag_54\n      swap2\n      swap1\n      tag_55\n      jump\t// in\n    tag_54:\n      tag_56\n      jump\t// in\n    tag_53:\n      mload(0x40)\n      tag_57\n      swap2\n      swap1\n      tag_58\n      jump\t// in\n    tag_57:\n      mload(0x40)\n      dup1\n      swap2\n      sub\n      swap1\n      return\n        /* \"ultimate-solidity-course-for-complete-beginners-main/Exercises/24-Twitter-GetTotalLikes-Exercise.sol\":477:519  mapping(address => Tweet[] ) public tweets */\n    tag_17:\n      mstore(0x20, 0x01)\n      dup2\n      0x00\n      mstore\n      keccak256(0x00, 0x40)\n      dup2\n      dup2\n      sload\n      dup2\n      lt\n      tag_59\n      jumpi\n      0x00\n      dup1\n      revert\n    tag_59:\n      swap1\n      0x00\n      mstore\n      keccak256(0x00, 0x20)\n      swap1\n      0x05\n      mul\n      add\n      0x00\n      swap2\n      pop\n      swap2\n      pop\n      pop\n      dup1\n      0x00\n      add\n      sload\n      swap1\n      dup1\n      0x01\n      add\n      0x00\n      swap1\n      sload\n      swap1\n      0x0100\n      exp\n      swap1\n      div\n      0xffffffffffffffffffffffffffffffffffffffff\n      and\n      swap1\n      dup1\n      0x02\n      add\n      dup1\n      sload\n      tag_61\n      swap1\n      tag_62\n      jump\t// in\n    tag_61:\n      dup1\n      0x1f\n      add\n      0x20\n      dup1\n      swap2\n      div\n      mul\n      0x20\n      add\n      mload(0x40)\n      swap1\n      dup2\n      add\n      0x40\n      mstore\n      dup1\n      swap3\n      swap2\n      swap1\n      dup2\n      dup2\n      mstore\n      0x20\n      add\n      dup3\n      dup1\n      sload\n      tag_63\n      swap1\n      tag_62\n      jump\t// in\n    tag_63:\n      dup1\n      iszero\n      tag_64\n      jumpi\n      dup1\n      0x1f\n      lt\n      tag_65\n      jumpi\n      0x0100\n      dup1\n      dup4\n      sload\n      div\n      mul\n      dup4\n      mstore\n      swap2\n      0x20\n      add\n      swap2\n      jump(tag_64)\n    tag_65:\n      dup3\n      add\n      swap2\n      swap1\n      0x00\n      mstore\n      keccak256(0x00, 0x20)\n      swap1\n    tag_66:\n      dup2\n      sload\n      dup2\n      mstore\n      swap1\n      0x01\n      add\n      swap1\n      0x20\n      add\n      dup1\n      dup4\n      gt\n      tag_66\n      jumpi\n      dup3\n      swap1\n      sub\n      0x1f\n      and\n      dup3\n      add\n      swap2\n    tag_64:\n      pop\n      pop\n      pop\n      pop\n      pop\n      swap1\n      dup1\n      0x03\n      add\n      sload\n      swap1\n      dup1\n      0x04\n      add\n      sload\n      swap1\n      pop\n      dup6\n      jump\t// out\n        /* \"ultimate-solidity-course-for-complete-beginners-main/Exercises/24-Twitter-GetTotalLikes-Exercise.sol\":2436:2549  function getAllTweets(address _owner) public view returns (Tweet[] memory ){... */\n    tag_23:\n        /* \"ultimate-solidity-course-for-complete-beginners-main/Exercises/24-Twitter-GetTotalLikes-Exercise.sol\":2495:2509  Tweet[] memory */\n      0x60\n        /* \"ultimate-solidity-course-for-complete-beginners-main/Exercises/24-Twitter-GetTotalLikes-Exercise.sol\":2528:2534  tweets */\n      0x01\n        /* \"ultimate-solidity-course-for-complete-beginners-main/Exercises/24-Twitter-GetTotalLikes-Exercise.sol\":2528:2542  tweets[_owner] */\n      0x00\n        /* \"ultimate-solidity-course-for-complete-beginners-main/Exercises/24-Twitter-GetTotalLikes-Exercise.sol\":2535:2541  _owner */\n      dup4\n        /* \"ultimate-solidity-course-for-complete-beginners-main/Exercises/24-Twitter-GetTotalLikes-Exercise.sol\":2528:2542  tweets[_owner] */\n      0xffffffffffffffffffffffffffffffffffffffff\n      and\n      0xffffffffffffffffffffffffffffffffffffffff\n      and\n      dup2\n      mstore\n      0x20\n      add\n      swap1\n      dup2\n      mstore\n      0x20\n      add\n      0x00\n      keccak256\n        /* \"ultimate-solidity-course-for-complete-beginners-main/Exercises/24-Twitter-GetTotalLikes-Exercise.sol\":2521:2542  return tweets[_owner] */\n      dup1\n      sload\n      dup1\n      0x20\n      mul\n      0x20\n      add\n      mload(0x40)\n      swap1\n      dup2\n      add\n      0x40\n      mstore\n      dup1\n      swap3\n      swap2\n      swap1\n      dup2\n      dup2\n      mstore\n      0x20\n      add\n      0x00\n      swap1\n    tag_68:\n      dup3\n      dup3\n      lt\n      iszero\n      tag_69\n      jumpi\n      dup4\n      dup3\n      swap1\n      0x00\n      mstore\n      keccak256(0x00, 0x20)\n      swap1\n      0x05\n      mul\n      add\n      mload(0x40)\n      dup1\n      0xa0\n      add\n      0x40\n      mstore\n      swap1\n      dup2\n      0x00\n      dup3\n      add\n      sload\n      dup2\n      mstore\n      0x20\n      add\n      0x01\n      dup3\n      add\n      0x00\n      swap1\n      sload\n      swap1\n      0x0100\n      exp\n      swap1\n      div\n      0xffffffffffffffffffffffffffffffffffffffff\n      and\n      0xffffffffffffffffffffffffffffffffffffffff\n      and\n      0xffffffffffffffffffffffffffffffffffffffff\n      and\n      dup2\n      mstore\n      0x20\n      add\n      0x02\n      dup3\n      add\n      dup1\n      sload\n      tag_71\n      swap1\n      tag_62\n      jump\t// in\n    tag_71:\n      dup1\n      0x1f\n      add\n      0x20\n      dup1\n      swap2\n      div\n      mul\n      0x20\n      add\n      mload(0x40)\n      swap1\n      dup2\n      add\n      0x40\n      mstore\n      dup1\n      swap3\n      swap2\n      swap1\n      dup2\n      dup2\n      mstore\n      0x20\n      add\n      dup3\n      dup1\n      sload\n      tag_72\n      swap1\n      tag_62\n      jump\t// in\n    tag_72:\n      dup1\n      iszero\n      tag_73\n      jumpi\n      dup1\n      0x1f\n      lt\n      tag_74\n      jumpi\n      0x0100\n      dup1\n      dup4\n      sload\n      div\n      mul\n      dup4\n      mstore\n      swap2\n      0x20\n      add\n      swap2\n      jump(tag_73)\n    tag_74:\n      dup3\n      add\n      swap2\n      swap1\n      0x00\n      mstore\n      keccak256(0x00, 0x20)\n      swap1\n    tag_75:\n      dup2\n      sload\n      dup2\n      mstore\n      swap1\n      0x01\n      add\n      swap1\n      0x20\n      add\n      dup1\n      dup4\n      gt\n      tag_75\n      jumpi\n      dup3\n      swap1\n      sub\n      0x1f\n      and\n      dup3\n      add\n      swap2\n    tag_73:\n      pop\n      pop\n      pop\n      pop\n      pop\n      dup2\n      mstore\n      0x20\n      add\n      0x03\n      dup3\n      add\n      sload\n      dup2\n      mstore\n      0x20\n      add\n      0x04\n      dup3\n      add\n      sload\n      dup2\n      mstore\n      pop\n      pop\n      dup2\n      mstore\n      0x20\n      add\n      swap1\n      0x01\n      add\n      swap1\n      jump(tag_68)\n    tag_69:\n      pop\n      pop\n      pop\n      pop\n      swap1\n      pop\n        /* \"ultimate-solidity-course-for-complete-beginners-main/Exercises/24-Twitter-GetTotalLikes-Exercise.sol\":2436:2549  function getAllTweets(address _owner) public view returns (Tweet[] memory ){... */\n      swap2\n      swap1\n      pop\n      jump\t// out\n        /* \"ultimate-solidity-course-for-complete-beginners-main/Exercises/24-Twitter-GetTotalLikes-Exercise.sol\":1987:2315  function unlikeTweet(address author, uint256 id) external {... */\n    tag_28:\n        /* \"ultimate-solidity-course-for-complete-beginners-main/Exercises/24-Twitter-GetTotalLikes-Exercise.sol\":2088:2090  id */\n      dup1\n        /* \"ultimate-solidity-course-for-complete-beginners-main/Exercises/24-Twitter-GetTotalLikes-Exercise.sol\":2063:2069  tweets */\n      0x01\n        /* \"ultimate-solidity-course-for-complete-beginners-main/Exercises/24-Twitter-GetTotalLikes-Exercise.sol\":2063:2077  tweets[author] */\n      0x00\n        /* \"ultimate-solidity-course-for-complete-beginners-main/Exercises/24-Twitter-GetTotalLikes-Exercise.sol\":2070:2076  author */\n      dup5\n        /* \"ultimate-solidity-course-for-complete-beginners-main/Exercises/24-Twitter-GetTotalLikes-Exercise.sol\":2063:2077  tweets[author] */\n      0xffffffffffffffffffffffffffffffffffffffff\n      and\n      0xffffffffffffffffffffffffffffffffffffffff\n      and\n      dup2\n      mstore\n      0x20\n      add\n      swap1\n      dup2\n      mstore\n      0x20\n      add\n      0x00\n      keccak256\n        /* \"ultimate-solidity-course-for-complete-beginners-main/Exercises/24-Twitter-GetTotalLikes-Exercise.sol\":2078:2080  id */\n      dup3\n        /* \"ultimate-solidity-course-for-complete-beginners-main/Exercises/24-Twitter-GetTotalLikes-Exercise.sol\":2063:2081  tweets[author][id] */\n      dup2\n      sload\n      dup2\n      lt\n      tag_77\n      jumpi\n      tag_78\n      tag_79\n      jump\t// in\n    tag_78:\n    tag_77:\n      swap1\n      0x00\n      mstore\n      keccak256(0x00, 0x20)\n      swap1\n      0x05\n      mul\n      add\n        /* \"ultimate-solidity-course-for-complete-beginners-main/Exercises/24-Twitter-GetTotalLikes-Exercise.sol\":2063:2084  tweets[author][id].id */\n      0x00\n      add\n      sload\n        /* \"ultimate-solidity-course-for-complete-beginners-main/Exercises/24-Twitter-GetTotalLikes-Exercise.sol\":2063:2090  tweets[author][id].id == id */\n      eq\n        /* \"ultimate-solidity-course-for-complete-beginners-main/Exercises/24-Twitter-GetTotalLikes-Exercise.sol\":2055:2115  require(tweets[author][id].id == id, \"TWEET DOES NOT EXIST\") */\n      tag_81\n      jumpi\n      mload(0x40)\n      0x08c379a000000000000000000000000000000000000000000000000000000000\n      dup2\n      mstore\n      0x04\n      add\n      tag_82\n      swap1\n      tag_83\n      jump\t// in\n    tag_82:\n      mload(0x40)\n      dup1\n      swap2\n      sub\n      swap1\n      revert\n    tag_81:\n        /* \"ultimate-solidity-course-for-complete-beginners-main/Exercises/24-Twitter-GetTotalLikes-Exercise.sol\":2160:2161  0 */\n      0x00\n        /* \"ultimate-solidity-course-for-complete-beginners-main/Exercises/24-Twitter-GetTotalLikes-Exercise.sol\":2133:2139  tweets */\n      0x01\n        /* \"ultimate-solidity-course-for-complete-beginners-main/Exercises/24-Twitter-GetTotalLikes-Exercise.sol\":2133:2147  tweets[author] */\n      0x00\n        /* \"ultimate-solidity-course-for-complete-beginners-main/Exercises/24-Twitter-GetTotalLikes-Exercise.sol\":2140:2146  author */\n      dup5\n        /* \"ultimate-solidity-course-for-complete-beginners-main/Exercises/24-Twitter-GetTotalLikes-Exercise.sol\":2133:2147  tweets[author] */\n      0xffffffffffffffffffffffffffffffffffffffff\n      and\n      0xffffffffffffffffffffffffffffffffffffffff\n      and\n      dup2\n      mstore\n      0x20\n      add\n      swap1\n      dup2\n      mstore\n      0x20\n      add\n      0x00\n      keccak256\n        /* \"ultimate-solidity-course-for-complete-beginners-main/Exercises/24-Twitter-GetTotalLikes-Exercise.sol\":2148:2150  id */\n      dup3\n        /* \"ultimate-solidity-course-for-complete-beginners-main/Exercises/24-Twitter-GetTotalLikes-Exercise.sol\":2133:2151  tweets[author][id] */\n      dup2\n      sload\n      dup2\n      lt\n      tag_84\n      jumpi\n      tag_85\n      tag_79\n      jump\t// in\n    tag_85:\n    tag_84:\n      swap1\n      0x00\n      mstore\n      keccak256(0x00, 0x20)\n      swap1\n      0x05\n      mul\n      add\n        /* \"ultimate-solidity-course-for-complete-beginners-main/Exercises/24-Twitter-GetTotalLikes-Exercise.sol\":2133:2157  tweets[author][id].likes */\n      0x04\n      add\n      sload\n        /* \"ultimate-solidity-course-for-complete-beginners-main/Exercises/24-Twitter-GetTotalLikes-Exercise.sol\":2133:2161  tweets[author][id].likes > 0 */\n      gt\n        /* \"ultimate-solidity-course-for-complete-beginners-main/Exercises/24-Twitter-GetTotalLikes-Exercise.sol\":2125:2184  require(tweets[author][id].likes > 0, \"TWEET HAS NO LIKES\") */\n      tag_87\n      jumpi\n      mload(0x40)\n      0x08c379a000000000000000000000000000000000000000000000000000000000\n      dup2\n      mstore\n      0x04\n      add\n      tag_88\n      swap1\n      tag_89\n      jump\t// in\n    tag_88:\n      mload(0x40)\n      dup1\n      swap2\n      sub\n      swap1\n      revert\n    tag_87:\n        /* \"ultimate-solidity-course-for-complete-beginners-main/Exercises/24-Twitter-GetTotalLikes-Exercise.sol\":2203:2209  tweets */\n      0x01\n        /* \"ultimate-solidity-course-for-complete-beginners-main/Exercises/24-Twitter-GetTotalLikes-Exercise.sol\":2203:2217  tweets[author] */\n      0x00\n        /* \"ultimate-solidity-course-for-complete-beginners-main/Exercises/24-Twitter-GetTotalLikes-Exercise.sol\":2210:2216  author */\n      dup4\n        /* \"ultimate-solidity-course-for-complete-beginners-main/Exercises/24-Twitter-GetTotalLikes-Exercise.sol\":2203:2217  tweets[author] */\n      0xffffffffffffffffffffffffffffffffffffffff\n      and\n      0xffffffffffffffffffffffffffffffffffffffff\n      and\n      dup2\n      mstore\n      0x20\n      add\n      swap1\n      dup2\n      mstore\n      0x20\n      add\n      0x00\n      keccak256\n        /* \"ultimate-solidity-course-for-complete-beginners-main/Exercises/24-Twitter-GetTotalLikes-Exercise.sol\":2218:2220  id */\n      dup2\n        /* \"ultimate-solidity-course-for-complete-beginners-main/Exercises/24-Twitter-GetTotalLikes-Exercise.sol\":2203:2221  tweets[author][id] */\n      dup2\n      sload\n      dup2\n      lt\n      tag_90\n      jumpi\n      tag_91\n      tag_79\n      jump\t// in\n    tag_91:\n    tag_90:\n      swap1\n      0x00\n      mstore\n      keccak256(0x00, 0x20)\n      swap1\n      0x05\n      mul\n      add\n        /* \"ultimate-solidity-course-for-complete-beginners-main/Exercises/24-Twitter-GetTotalLikes-Exercise.sol\":2203:2227  tweets[author][id].likes */\n      0x04\n      add\n      0x00\n        /* \"ultimate-solidity-course-for-complete-beginners-main/Exercises/24-Twitter-GetTotalLikes-Exercise.sol\":2203:2229  tweets[author][id].likes-- */\n      dup2\n      sload\n      dup1\n      swap3\n      swap2\n      swap1\n      tag_93\n      swap1\n      tag_94\n      jump\t// in\n    tag_93:\n      swap2\n      swap1\n      pop\n      sstore\n      pop\n        /* \"ultimate-solidity-course-for-complete-beginners-main/Exercises/24-Twitter-GetTotalLikes-Exercise.sol\":2245:2308  TweetUnliked(msg.sender, author, id, tweets[author][id].likes ) */\n      0x762c2616349603ac16eba0de8e6141b79129a07ab63bd99e0a80b3a471716943\n        /* \"ultimate-solidity-course-for-complete-beginners-main/Exercises/24-Twitter-GetTotalLikes-Exercise.sol\":2258:2268  msg.sender */\n      caller\n        /* \"ultimate-solidity-course-for-complete-beginners-main/Exercises/24-Twitter-GetTotalLikes-Exercise.sol\":2270:2276  author */\n      dup4\n        /* \"ultimate-solidity-course-for-complete-beginners-main/Exercises/24-Twitter-GetTotalLikes-Exercise.sol\":2278:2280  id */\n      dup4\n        /* \"ultimate-solidity-course-for-complete-beginners-main/Exercises/24-Twitter-GetTotalLikes-Exercise.sol\":2282:2288  tweets */\n      0x01\n        /* \"ultimate-solidity-course-for-complete-beginners-main/Exercises/24-Twitter-GetTotalLikes-Exercise.sol\":2282:2296  tweets[author] */\n      0x00\n        /* \"ultimate-solidity-course-for-complete-beginners-main/Exercises/24-Twitter-GetTotalLikes-Exercise.sol\":2289:2295  author */\n      dup8\n        /* \"ultimate-solidity-course-for-complete-beginners-main/Exercises/24-Twitter-GetTotalLikes-Exercise.sol\":2282:2296  tweets[author] */\n      0xffffffffffffffffffffffffffffffffffffffff\n      and\n      0xffffffffffffffffffffffffffffffffffffffff\n      and\n      dup2\n      mstore\n      0x20\n      add\n      swap1\n      dup2\n      mstore\n      0x20\n      add\n      0x00\n      keccak256\n        /* \"ultimate-solidity-course-for-complete-beginners-main/Exercises/24-Twitter-GetTotalLikes-Exercise.sol\":2297:2299  id */\n      dup6\n        /* \"ultimate-solidity-course-for-complete-beginners-main/Exercises/24-Twitter-GetTotalLikes-Exercise.sol\":2282:2300  tweets[author][id] */\n      dup2\n      sload\n      dup2\n      lt\n      tag_95\n      jumpi\n      tag_96\n      tag_79\n      jump\t// in\n    tag_96:\n    tag_95:\n      swap1\n      0x00\n      mstore\n      keccak256(0x00, 0x20)\n      swap1\n      0x05\n      mul\n      add\n        /* \"ultimate-solidity-course-for-complete-beginners-main/Exercises/24-Twitter-GetTotalLikes-Exercise.sol\":2282:2306  tweets[author][id].likes */\n      0x04\n      add\n      sload\n        /* \"ultimate-solidity-course-for-complete-beginners-main/Exercises/24-Twitter-GetTotalLikes-Exercise.sol\":2245:2308  TweetUnliked(msg.sender, author, id, tweets[author][id].likes ) */\n      mload(0x40)\n      tag_98\n      swap5\n      swap4\n      swap3\n      swap2\n      swap1\n      tag_99\n      jump\t// in\n    tag_98:\n      mload(0x40)\n      dup1\n      swap2\n      sub\n      swap1\n      log1\n        /* \"ultimate-solidity-course-for-complete-beginners-main/Exercises/24-Twitter-GetTotalLikes-Exercise.sol\":1987:2315  function unlikeTweet(address author, uint256 id) external {... */\n      pop\n      pop\n      jump\t// out\n        /* \"ultimate-solidity-course-for-complete-beginners-main/Exercises/24-Twitter-GetTotalLikes-Exercise.sol\":1027:1144  function changeTweetLength(uint16 newTweetLength) public onlyOwner {... */\n    tag_32:\n        /* \"ultimate-solidity-course-for-complete-beginners-main/Exercises/24-Twitter-GetTotalLikes-Exercise.sol\":971:976  owner */\n      0x02\n      0x00\n      swap1\n      sload\n      swap1\n      0x0100\n      exp\n      swap1\n      div\n      0xffffffffffffffffffffffffffffffffffffffff\n      and\n        /* \"ultimate-solidity-course-for-complete-beginners-main/Exercises/24-Twitter-GetTotalLikes-Exercise.sol\":957:976  msg.sender == owner */\n      0xffffffffffffffffffffffffffffffffffffffff\n      and\n        /* \"ultimate-solidity-course-for-complete-beginners-main/Exercises/24-Twitter-GetTotalLikes-Exercise.sol\":957:967  msg.sender */\n      caller\n        /* \"ultimate-solidity-course-for-complete-beginners-main/Exercises/24-Twitter-GetTotalLikes-Exercise.sol\":957:976  msg.sender == owner */\n      0xffffffffffffffffffffffffffffffffffffffff\n      and\n      eq\n        /* \"ultimate-solidity-course-for-complete-beginners-main/Exercises/24-Twitter-GetTotalLikes-Exercise.sol\":949:1003  require(msg.sender == owner, \"YOU ARE NOT THE OWNER!\") */\n      tag_101\n      jumpi\n      mload(0x40)\n      0x08c379a000000000000000000000000000000000000000000000000000000000\n      dup2\n      mstore\n      0x04\n      add\n      tag_102\n      swap1\n      tag_103\n      jump\t// in\n    tag_102:\n      mload(0x40)\n      dup1\n      swap2\n      sub\n      swap1\n      revert\n    tag_101:\n        /* \"ultimate-solidity-course-for-complete-beginners-main/Exercises/24-Twitter-GetTotalLikes-Exercise.sol\":1123:1137  newTweetLength */\n      dup1\n        /* \"ultimate-solidity-course-for-complete-beginners-main/Exercises/24-Twitter-GetTotalLikes-Exercise.sol\":1104:1120  MAX_TWEET_LENGTH */\n      0x00\n      0x00\n        /* \"ultimate-solidity-course-for-complete-beginners-main/Exercises/24-Twitter-GetTotalLikes-Exercise.sol\":1104:1137  MAX_TWEET_LENGTH = newTweetLength */\n      0x0100\n      exp\n      dup2\n      sload\n      dup2\n      0xffff\n      mul\n      not\n      and\n      swap1\n      dup4\n      0xffff\n      and\n      mul\n      or\n      swap1\n      sstore\n      pop\n        /* \"ultimate-solidity-course-for-complete-beginners-main/Exercises/24-Twitter-GetTotalLikes-Exercise.sol\":1027:1144  function changeTweetLength(uint16 newTweetLength) public onlyOwner {... */\n      pop\n      jump\t// out\n        /* \"ultimate-solidity-course-for-complete-beginners-main/Exercises/24-Twitter-GetTotalLikes-Exercise.sol\":1696:1981  function likeTweet(address author, uint256 id) external {  ... */\n    tag_35:\n        /* \"ultimate-solidity-course-for-complete-beginners-main/Exercises/24-Twitter-GetTotalLikes-Exercise.sol\":1797:1799  id */\n      dup1\n        /* \"ultimate-solidity-course-for-complete-beginners-main/Exercises/24-Twitter-GetTotalLikes-Exercise.sol\":1772:1778  tweets */\n      0x01\n        /* \"ultimate-solidity-course-for-complete-beginners-main/Exercises/24-Twitter-GetTotalLikes-Exercise.sol\":1772:1786  tweets[author] */\n      0x00\n        /* \"ultimate-solidity-course-for-complete-beginners-main/Exercises/24-Twitter-GetTotalLikes-Exercise.sol\":1779:1785  author */\n      dup5\n        /* \"ultimate-solidity-course-for-complete-beginners-main/Exercises/24-Twitter-GetTotalLikes-Exercise.sol\":1772:1786  tweets[author] */\n      0xffffffffffffffffffffffffffffffffffffffff\n      and\n      0xffffffffffffffffffffffffffffffffffffffff\n      and\n      dup2\n      mstore\n      0x20\n      add\n      swap1\n      dup2\n      mstore\n      0x20\n      add\n      0x00\n      keccak256\n        /* \"ultimate-solidity-course-for-complete-beginners-main/Exercises/24-Twitter-GetTotalLikes-Exercise.sol\":1787:1789  id */\n      dup3\n        /* \"ultimate-solidity-course-for-complete-beginners-main/Exercises/24-Twitter-GetTotalLikes-Exercise.sol\":1772:1790  tweets[author][id] */\n      dup2\n      sload\n      dup2\n      lt\n      tag_106\n      jumpi\n      tag_107\n      tag_79\n      jump\t// in\n    tag_107:\n    tag_106:\n      swap1\n      0x00\n      mstore\n      keccak256(0x00, 0x20)\n      swap1\n      0x05\n      mul\n      add\n        /* \"ultimate-solidity-course-for-complete-beginners-main/Exercises/24-Twitter-GetTotalLikes-Exercise.sol\":1772:1793  tweets[author][id].id */\n      0x00\n      add\n      sload\n        /* \"ultimate-solidity-course-for-complete-beginners-main/Exercises/24-Twitter-GetTotalLikes-Exercise.sol\":1772:1799  tweets[author][id].id == id */\n      eq\n        /* \"ultimate-solidity-course-for-complete-beginners-main/Exercises/24-Twitter-GetTotalLikes-Exercise.sol\":1764:1824  require(tweets[author][id].id == id, \"TWEET DOES NOT EXIST\") */\n      tag_109\n      jumpi\n      mload(0x40)\n      0x08c379a000000000000000000000000000000000000000000000000000000000\n      dup2\n      mstore\n      0x04\n      add\n      tag_110\n      swap1\n      tag_83\n      jump\t// in\n    tag_110:\n      mload(0x40)\n      dup1\n      swap2\n      sub\n      swap1\n      revert\n    tag_109:\n        /* \"ultimate-solidity-course-for-complete-beginners-main/Exercises/24-Twitter-GetTotalLikes-Exercise.sol\":1835:1841  tweets */\n      0x01\n        /* \"ultimate-solidity-course-for-complete-beginners-main/Exercises/24-Twitter-GetTotalLikes-Exercise.sol\":1835:1849  tweets[author] */\n      0x00\n        /* \"ultimate-solidity-course-for-complete-beginners-main/Exercises/24-Twitter-GetTotalLikes-Exercise.sol\":1842:1848  author */\n      dup4\n        /* \"ultimate-solidity-course-for-complete-beginners-main/Exercises/24-Twitter-GetTotalLikes-Exercise.sol\":1835:1849  tweets[author] */\n      0xffffffffffffffffffffffffffffffffffffffff\n      and\n      0xffffffffffffffffffffffffffffffffffffffff\n      and\n      dup2\n      mstore\n      0x20\n      add\n      swap1\n      dup2\n      mstore\n      0x20\n      add\n      0x00\n      keccak256\n        /* \"ultimate-solidity-course-for-complete-beginners-main/Exercises/24-Twitter-GetTotalLikes-Exercise.sol\":1850:1852  id */\n      dup2\n        /* \"ultimate-solidity-course-for-complete-beginners-main/Exercises/24-Twitter-GetTotalLikes-Exercise.sol\":1835:1853  tweets[author][id] */\n      dup2\n      sload\n      dup2\n      lt\n      tag_111\n      jumpi\n      tag_112\n      tag_79\n      jump\t// in\n    tag_112:\n    tag_111:\n      swap1\n      0x00\n      mstore\n      keccak256(0x00, 0x20)\n      swap1\n      0x05\n      mul\n      add\n        /* \"ultimate-solidity-course-for-complete-beginners-main/Exercises/24-Twitter-GetTotalLikes-Exercise.sol\":1835:1859  tweets[author][id].likes */\n      0x04\n      add\n      0x00\n        /* \"ultimate-solidity-course-for-complete-beginners-main/Exercises/24-Twitter-GetTotalLikes-Exercise.sol\":1835:1861  tweets[author][id].likes++ */\n      dup2\n      sload\n      dup1\n      swap3\n      swap2\n      swap1\n      tag_114\n      swap1\n      tag_115\n      jump\t// in\n    tag_114:\n      swap2\n      swap1\n      pop\n      sstore\n      pop\n        /* \"ultimate-solidity-course-for-complete-beginners-main/Exercises/24-Twitter-GetTotalLikes-Exercise.sol\":1914:1974  TweetLiked(msg.sender, author, id, tweets[author][id].likes) */\n      0xe8a76fc0f16d11a00d1e93b689b63d76cf60af914dd3d915375dc41d01a0c3c8\n        /* \"ultimate-solidity-course-for-complete-beginners-main/Exercises/24-Twitter-GetTotalLikes-Exercise.sol\":1925:1935  msg.sender */\n      caller\n        /* \"ultimate-solidity-course-for-complete-beginners-main/Exercises/24-Twitter-GetTotalLikes-Exercise.sol\":1937:1943  author */\n      dup4\n        /* \"ultimate-solidity-course-for-complete-beginners-main/Exercises/24-Twitter-GetTotalLikes-Exercise.sol\":1945:1947  id */\n      dup4\n        /* \"ultimate-solidity-course-for-complete-beginners-main/Exercises/24-Twitter-GetTotalLikes-Exercise.sol\":1949:1955  tweets */\n      0x01\n        /* \"ultimate-solidity-course-for-complete-beginners-main/Exercises/24-Twitter-GetTotalLikes-Exercise.sol\":1949:1963  tweets[author] */\n      0x00\n        /* \"ultimate-solidity-course-for-complete-beginners-main/Exercises/24-Twitter-GetTotalLikes-Exercise.sol\":1956:1962  author */\n      dup8\n        /* \"ultimate-solidity-course-for-complete-beginners-main/Exercises/24-Twitter-GetTotalLikes-Exercise.sol\":1949:1963  tweets[author] */\n      0xffffffffffffffffffffffffffffffffffffffff\n      and\n      0xffffffffffffffffffffffffffffffffffffffff\n      and\n      dup2\n      mstore\n      0x20\n      add\n      swap1\n      dup2\n      mstore\n      0x20\n      add\n      0x00\n      keccak256\n        /* \"ultimate-solidity-course-for-complete-beginners-main/Exercises/24-Twitter-GetTotalLikes-Exercise.sol\":1964:1966  id */\n      dup6\n        /* \"ultimate-solidity-course-for-complete-beginners-main/Exercises/24-Twitter-GetTotalLikes-Exercise.sol\":1949:1967  tweets[author][id] */\n      dup2\n      sload\n      dup2\n      lt\n      tag_116\n      jumpi\n      tag_117\n      tag_79\n      jump\t// in\n    tag_117:\n    tag_116:\n      swap1\n      0x00\n      mstore\n      keccak256(0x00, 0x20)\n      swap1\n      0x05\n      mul\n      add\n        /* \"ultimate-solidity-course-for-complete-beginners-main/Exercises/24-Twitter-GetTotalLikes-Exercise.sol\":1949:1973  tweets[author][id].likes */\n      0x04\n      add\n      sload\n        /* \"ultimate-solidity-course-for-complete-beginners-main/Exercises/24-Twitter-GetTotalLikes-Exercise.sol\":1914:1974  TweetLiked(msg.sender, author, id, tweets[author][id].likes) */\n      mload(0x40)\n      tag_119\n      swap5\n      swap4\n      swap3\n      swap2\n      swap1\n      tag_99\n      jump\t// in\n    tag_119:\n      mload(0x40)\n      dup1\n      swap2\n      sub\n      swap1\n      log1\n        /* \"ultimate-solidity-course-for-complete-beginners-main/Exercises/24-Twitter-GetTotalLikes-Exercise.sol\":1696:1981  function likeTweet(address author, uint256 id) external {  ... */\n      pop\n      pop\n      jump\t// out\n        /* \"ultimate-solidity-course-for-complete-beginners-main/Exercises/24-Twitter-GetTotalLikes-Exercise.sol\":291:327  uint16 public MAX_TWEET_LENGTH = 280 */\n    tag_37:\n      0x00\n      0x00\n      swap1\n      sload\n      swap1\n      0x0100\n      exp\n      swap1\n      div\n      0xffff\n      and\n      dup2\n      jump\t// out\n        /* \"ultimate-solidity-course-for-complete-beginners-main/Exercises/24-Twitter-GetTotalLikes-Exercise.sol\":1150:1690  function createTweet(string memory _tweet) public {... */\n    tag_43:\n        /* \"ultimate-solidity-course-for-complete-beginners-main/Exercises/24-Twitter-GetTotalLikes-Exercise.sol\":1242:1258  MAX_TWEET_LENGTH */\n      0x00\n      0x00\n      swap1\n      sload\n      swap1\n      0x0100\n      exp\n      swap1\n      div\n      0xffff\n      and\n        /* \"ultimate-solidity-course-for-complete-beginners-main/Exercises/24-Twitter-GetTotalLikes-Exercise.sol\":1218:1258  bytes(_tweet).length <= MAX_TWEET_LENGTH */\n      0xffff\n      and\n        /* \"ultimate-solidity-course-for-complete-beginners-main/Exercises/24-Twitter-GetTotalLikes-Exercise.sol\":1224:1230  _tweet */\n      dup2\n        /* \"ultimate-solidity-course-for-complete-beginners-main/Exercises/24-Twitter-GetTotalLikes-Exercise.sol\":1218:1238  bytes(_tweet).length */\n      mload\n        /* \"ultimate-solidity-course-for-complete-beginners-main/Exercises/24-Twitter-GetTotalLikes-Exercise.sol\":1218:1258  bytes(_tweet).length <= MAX_TWEET_LENGTH */\n      gt\n      iszero\n        /* \"ultimate-solidity-course-for-complete-beginners-main/Exercises/24-Twitter-GetTotalLikes-Exercise.sol\":1210:1286  require(bytes(_tweet).length <= MAX_TWEET_LENGTH, \"Tweet is too long bro!\" ) */\n      tag_121\n      jumpi\n      mload(0x40)\n      0x08c379a000000000000000000000000000000000000000000000000000000000\n      dup2\n      mstore\n      0x04\n      add\n      tag_122\n      swap1\n      tag_123\n      jump\t// in\n    tag_122:\n      mload(0x40)\n      dup1\n      swap2\n      sub\n      swap1\n      revert\n    tag_121:\n        /* \"ultimate-solidity-course-for-complete-beginners-main/Exercises/24-Twitter-GetTotalLikes-Exercise.sol\":1297:1318  Tweet memory newTweet */\n      0x00\n        /* \"ultimate-solidity-course-for-complete-beginners-main/Exercises/24-Twitter-GetTotalLikes-Exercise.sol\":1321:1504  Tweet({... */\n      mload(0x40)\n      dup1\n      0xa0\n      add\n      0x40\n      mstore\n      dup1\n        /* \"ultimate-solidity-course-for-complete-beginners-main/Exercises/24-Twitter-GetTotalLikes-Exercise.sol\":1345:1351  tweets */\n      0x01\n        /* \"ultimate-solidity-course-for-complete-beginners-main/Exercises/24-Twitter-GetTotalLikes-Exercise.sol\":1345:1363  tweets[msg.sender] */\n      0x00\n        /* \"ultimate-solidity-course-for-complete-beginners-main/Exercises/24-Twitter-GetTotalLikes-Exercise.sol\":1352:1362  msg.sender */\n      caller\n        /* \"ultimate-solidity-course-for-complete-beginners-main/Exercises/24-Twitter-GetTotalLikes-Exercise.sol\":1345:1363  tweets[msg.sender] */\n      0xffffffffffffffffffffffffffffffffffffffff\n      and\n      0xffffffffffffffffffffffffffffffffffffffff\n      and\n      dup2\n      mstore\n      0x20\n      add\n      swap1\n      dup2\n      mstore\n      0x20\n      add\n      0x00\n      keccak256\n        /* \"ultimate-solidity-course-for-complete-beginners-main/Exercises/24-Twitter-GetTotalLikes-Exercise.sol\":1345:1370  tweets[msg.sender].length */\n      dup1\n      sload\n      swap1\n      pop\n        /* \"ultimate-solidity-course-for-complete-beginners-main/Exercises/24-Twitter-GetTotalLikes-Exercise.sol\":1321:1504  Tweet({... */\n      dup2\n      mstore\n      0x20\n      add\n        /* \"ultimate-solidity-course-for-complete-beginners-main/Exercises/24-Twitter-GetTotalLikes-Exercise.sol\":1392:1402  msg.sender */\n      caller\n        /* \"ultimate-solidity-course-for-complete-beginners-main/Exercises/24-Twitter-GetTotalLikes-Exercise.sol\":1321:1504  Tweet({... */\n      0xffffffffffffffffffffffffffffffffffffffff\n      and\n      dup2\n      mstore\n      0x20\n      add\n        /* \"ultimate-solidity-course-for-complete-beginners-main/Exercises/24-Twitter-GetTotalLikes-Exercise.sol\":1425:1431  _tweet */\n      dup4\n        /* \"ultimate-solidity-course-for-complete-beginners-main/Exercises/24-Twitter-GetTotalLikes-Exercise.sol\":1321:1504  Tweet({... */\n      dup2\n      mstore\n      0x20\n      add\n        /* \"ultimate-solidity-course-for-complete-beginners-main/Exercises/24-Twitter-GetTotalLikes-Exercise.sol\":1456:1471  block.timestamp */\n      timestamp\n        /* \"ultimate-solidity-course-for-complete-beginners-main/Exercises/24-Twitter-GetTotalLikes-Exercise.sol\":1321:1504  Tweet({... */\n      dup2\n      mstore\n      0x20\n      add\n        /* \"ultimate-solidity-course-for-complete-beginners-main/Exercises/24-Twitter-GetTotalLikes-Exercise.sol\":1492:1493  0 */\n      0x00\n        /* \"ultimate-solidity-course-for-complete-beginners-main/Exercises/24-Twitter-GetTotalLikes-Exercise.sol\":1321:1504  Tweet({... */\n      dup2\n      mstore\n      pop\n        /* \"ultimate-solidity-course-for-complete-beginners-main/Exercises/24-Twitter-GetTotalLikes-Exercise.sol\":1297:1504  Tweet memory newTweet = Tweet({... */\n      swap1\n      pop\n        /* \"ultimate-solidity-course-for-complete-beginners-main/Exercises/24-Twitter-GetTotalLikes-Exercise.sol\":1515:1521  tweets */\n      0x01\n        /* \"ultimate-solidity-course-for-complete-beginners-main/Exercises/24-Twitter-GetTotalLikes-Exercise.sol\":1515:1533  tweets[msg.sender] */\n      0x00\n        /* \"ultimate-solidity-course-for-complete-beginners-main/Exercises/24-Twitter-GetTotalLikes-Exercise.sol\":1522:1532  msg.sender */\n      caller\n        /* \"ultimate-solidity-course-for-complete-beginners-main/Exercises/24-Twitter-GetTotalLikes-Exercise.sol\":1515:1533  tweets[msg.sender] */\n      0xffffffffffffffffffffffffffffffffffffffff\n      and\n      0xffffffffffffffffffffffffffffffffffffffff\n      and\n      dup2\n      mstore\n      0x20\n      add\n      swap1\n      dup2\n      mstore\n      0x20\n      add\n      0x00\n      keccak256\n        /* \"ultimate-solidity-course-for-complete-beginners-main/Exercises/24-Twitter-GetTotalLikes-Exercise.sol\":1539:1547  newTweet */\n      dup2\n        /* \"ultimate-solidity-course-for-complete-beginners-main/Exercises/24-Twitter-GetTotalLikes-Exercise.sol\":1515:1548  tweets[msg.sender].push(newTweet) */\n      swap1\n      dup1\n      0x01\n      dup2\n      sload\n      add\n      dup1\n      dup3\n      sstore\n      dup1\n      swap2\n      pop\n      pop\n      0x01\n      swap1\n      sub\n      swap1\n      0x00\n      mstore\n      keccak256(0x00, 0x20)\n      swap1\n      0x05\n      mul\n      add\n      0x00\n      swap1\n      swap2\n      swap1\n      swap2\n      swap1\n      swap2\n      pop\n      0x00\n      dup3\n      add\n      mload\n      dup2\n      0x00\n      add\n      sstore\n      0x20\n      dup3\n      add\n      mload\n      dup2\n      0x01\n      add\n      exp(0x0100, 0x00)\n      dup2\n      sload\n      dup2\n      0xffffffffffffffffffffffffffffffffffffffff\n      mul\n      not\n      and\n      swap1\n      dup4\n      0xffffffffffffffffffffffffffffffffffffffff\n      and\n      mul\n      or\n      swap1\n      sstore\n      pop\n      0x40\n      dup3\n      add\n      mload\n      dup2\n      0x02\n      add\n      swap1\n      dup2\n      tag_125\n      swap2\n      swap1\n      tag_126\n      jump\t// in\n    tag_125:\n      pop\n      0x60\n      dup3\n      add\n      mload\n      dup2\n      0x03\n      add\n      sstore\n      0x80\n      dup3\n      add\n      mload\n      dup2\n      0x04\n      add\n      sstore\n      pop\n      pop\n        /* \"ultimate-solidity-course-for-complete-beginners-main/Exercises/24-Twitter-GetTotalLikes-Exercise.sol\":1603:1683  TweetCreated(newTweet.id, newTweet.author, newTweet.content, newTweet.timestamp) */\n      0x16fd3c13e9d46923e0a8bce11c7b473ec508a72e6c96cd2404b29ce972afc29e\n        /* \"ultimate-solidity-course-for-complete-beginners-main/Exercises/24-Twitter-GetTotalLikes-Exercise.sol\":1616:1624  newTweet */\n      dup2\n        /* \"ultimate-solidity-course-for-complete-beginners-main/Exercises/24-Twitter-GetTotalLikes-Exercise.sol\":1616:1627  newTweet.id */\n      0x00\n      add\n      mload\n        /* \"ultimate-solidity-course-for-complete-beginners-main/Exercises/24-Twitter-GetTotalLikes-Exercise.sol\":1629:1637  newTweet */\n      dup3\n        /* \"ultimate-solidity-course-for-complete-beginners-main/Exercises/24-Twitter-GetTotalLikes-Exercise.sol\":1629:1644  newTweet.author */\n      0x20\n      add\n      mload\n        /* \"ultimate-solidity-course-for-complete-beginners-main/Exercises/24-Twitter-GetTotalLikes-Exercise.sol\":1646:1654  newTweet */\n      dup4\n        /* \"ultimate-solidity-course-for-complete-beginners-main/Exercises/24-Twitter-GetTotalLikes-Exercise.sol\":1646:1662  newTweet.content */\n      0x40\n      add\n      mload\n        /* \"ultimate-solidity-course-for-complete-beginners-main/Exercises/24-Twitter-GetTotalLikes-Exercise.sol\":1664:1672  newTweet */\n      dup5\n        /* \"ultimate-solidity-course-for-complete-beginners-main/Exercises/24-Twitter-GetTotalLikes-Exercise.sol\":1664:1682  newTweet.timestamp */\n      0x60\n      add\n      mload\n        /* \"ultimate-solidity-course-for-complete-beginners-main/Exercises/24-Twitter-GetTotalLikes-Exercise.sol\":1603:1683  TweetCreated(newTweet.id, newTweet.author, newTweet.content, newTweet.timestamp) */\n      mload(0x40)\n      tag_127\n      swap5\n      swap4\n      swap3\n      swap2\n      swap1\n      tag_128\n      jump\t// in\n    tag_127:\n      mload(0x40)\n      dup1\n      swap2\n      sub\n      swap1\n      log1\n        /* \"ultimate-solidity-course-for-complete-beginners-main/Exercises/24-Twitter-GetTotalLikes-Exercise.sol\":1200:1690  {... */\n      pop\n        /* \"ultimate-solidity-course-for-complete-beginners-main/Exercises/24-Twitter-GetTotalLikes-Exercise.sol\":1150:1690  function createTweet(string memory _tweet) public {... */\n      pop\n      jump\t// out\n        /* \"ultimate-solidity-course-for-complete-beginners-main/Exercises/24-Twitter-GetTotalLikes-Exercise.sol\":2555:2799  function getTotalLikes(address _author) external view returns(uint){... */\n    tag_46:\n        /* \"ultimate-solidity-course-for-complete-beginners-main/Exercises/24-Twitter-GetTotalLikes-Exercise.sol\":2617:2621  uint */\n      0x00\n        /* \"ultimate-solidity-course-for-complete-beginners-main/Exercises/24-Twitter-GetTotalLikes-Exercise.sol\":2632:2647  uint totalLikes */\n      0x00\n        /* \"ultimate-solidity-course-for-complete-beginners-main/Exercises/24-Twitter-GetTotalLikes-Exercise.sol\":2661:2667  uint i */\n      0x00\n        /* \"ultimate-solidity-course-for-complete-beginners-main/Exercises/24-Twitter-GetTotalLikes-Exercise.sol\":2668:2669  0 */\n      0x00\n        /* \"ultimate-solidity-course-for-complete-beginners-main/Exercises/24-Twitter-GetTotalLikes-Exercise.sol\":2661:2669  uint i=0 */\n      swap1\n      pop\n        /* \"ultimate-solidity-course-for-complete-beginners-main/Exercises/24-Twitter-GetTotalLikes-Exercise.sol\":2657:2766  for(uint i=0; i < tweets[_author].length; i++){... */\n    tag_130:\n        /* \"ultimate-solidity-course-for-complete-beginners-main/Exercises/24-Twitter-GetTotalLikes-Exercise.sol\":2675:2681  tweets */\n      0x01\n        /* \"ultimate-solidity-course-for-complete-beginners-main/Exercises/24-Twitter-GetTotalLikes-Exercise.sol\":2675:2690  tweets[_author] */\n      0x00\n        /* \"ultimate-solidity-course-for-complete-beginners-main/Exercises/24-Twitter-GetTotalLikes-Exercise.sol\":2682:2689  _author */\n      dup6\n        /* \"ultimate-solidity-course-for-complete-beginners-main/Exercises/24-Twitter-GetTotalLikes-Exercise.sol\":2675:2690  tweets[_author] */\n      0xffffffffffffffffffffffffffffffffffffffff\n      and\n      0xffffffffffffffffffffffffffffffffffffffff\n      and\n      dup2\n      mstore\n      0x20\n      add\n      swap1\n      dup2\n      mstore\n      0x20\n      add\n      0x00\n      keccak256\n        /* \"ultimate-solidity-course-for-complete-beginners-main/Exercises/24-Twitter-GetTotalLikes-Exercise.sol\":2675:2697  tweets[_author].length */\n      dup1\n      sload\n      swap1\n      pop\n        /* \"ultimate-solidity-course-for-complete-beginners-main/Exercises/24-Twitter-GetTotalLikes-Exercise.sol\":2671:2672  i */\n      dup2\n        /* \"ultimate-solidity-course-for-complete-beginners-main/Exercises/24-Twitter-GetTotalLikes-Exercise.sol\":2671:2697  i < tweets[_author].length */\n      lt\n        /* \"ultimate-solidity-course-for-complete-beginners-main/Exercises/24-Twitter-GetTotalLikes-Exercise.sol\":2657:2766  for(uint i=0; i < tweets[_author].length; i++){... */\n      iszero\n      tag_131\n      jumpi\n        /* \"ultimate-solidity-course-for-complete-beginners-main/Exercises/24-Twitter-GetTotalLikes-Exercise.sol\":2731:2737  tweets */\n      0x01\n        /* \"ultimate-solidity-course-for-complete-beginners-main/Exercises/24-Twitter-GetTotalLikes-Exercise.sol\":2731:2746  tweets[_author] */\n      0x00\n        /* \"ultimate-solidity-course-for-complete-beginners-main/Exercises/24-Twitter-GetTotalLikes-Exercise.sol\":2738:2745  _author */\n      dup6\n        /* \"ultimate-solidity-course-for-complete-beginners-main/Exercises/24-Twitter-GetTotalLikes-Exercise.sol\":2731:2746  tweets[_author] */\n      0xffffffffffffffffffffffffffffffffffffffff\n      and\n      0xffffffffffffffffffffffffffffffffffffffff\n      and\n      dup2\n      mstore\n      0x20\n      add\n      swap1\n      dup2\n      mstore\n      0x20\n      add\n      0x00\n      keccak256\n        /* \"ultimate-solidity-course-for-complete-beginners-main/Exercises/24-Twitter-GetTotalLikes-Exercise.sol\":2747:2748  i */\n      dup2\n        /* \"ultimate-solidity-course-for-complete-beginners-main/Exercises/24-Twitter-GetTotalLikes-Exercise.sol\":2731:2749  tweets[_author][i] */\n      dup2\n      sload\n      dup2\n      lt\n      tag_133\n      jumpi\n      tag_134\n      tag_79\n      jump\t// in\n    tag_134:\n    tag_133:\n      swap1\n      0x00\n      mstore\n      keccak256(0x00, 0x20)\n      swap1\n      0x05\n      mul\n      add\n        /* \"ultimate-solidity-course-for-complete-beginners-main/Exercises/24-Twitter-GetTotalLikes-Exercise.sol\":2731:2755  tweets[_author][i].likes */\n      0x04\n      add\n      sload\n        /* \"ultimate-solidity-course-for-complete-beginners-main/Exercises/24-Twitter-GetTotalLikes-Exercise.sol\":2717:2755  totalLikes += tweets[_author][i].likes */\n      dup3\n      tag_136\n      swap2\n      swap1\n      tag_137\n      jump\t// in\n    tag_136:\n      swap2\n      pop\n        /* \"ultimate-solidity-course-for-complete-beginners-main/Exercises/24-Twitter-GetTotalLikes-Exercise.sol\":2699:2702  i++ */\n      dup1\n      dup1\n      0x01\n      add\n      swap2\n      pop\n      pop\n        /* \"ultimate-solidity-course-for-complete-beginners-main/Exercises/24-Twitter-GetTotalLikes-Exercise.sol\":2657:2766  for(uint i=0; i < tweets[_author].length; i++){... */\n      jump(tag_130)\n    tag_131:\n      pop\n        /* \"ultimate-solidity-course-for-complete-beginners-main/Exercises/24-Twitter-GetTotalLikes-Exercise.sol\":2782:2792  totalLikes */\n      dup1\n        /* \"ultimate-solidity-course-for-complete-beginners-main/Exercises/24-Twitter-GetTotalLikes-Exercise.sol\":2775:2792  return totalLikes */\n      swap2\n      pop\n      pop\n        /* \"ultimate-solidity-course-for-complete-beginners-main/Exercises/24-Twitter-GetTotalLikes-Exercise.sol\":2555:2799  function getTotalLikes(address _author) external view returns(uint){... */\n      swap2\n      swap1\n      pop\n      jump\t// out\n        /* \"ultimate-solidity-course-for-complete-beginners-main/Exercises/24-Twitter-GetTotalLikes-Exercise.sol\":525:545  address public owner */\n    tag_50:\n      0x02\n      0x00\n      swap1\n      sload\n      swap1\n      0x0100\n      exp\n      swap1\n      div\n      0xffffffffffffffffffffffffffffffffffffffff\n      and\n      dup2\n      jump\t// out\n        /* \"ultimate-solidity-course-for-complete-beginners-main/Exercises/24-Twitter-GetTotalLikes-Exercise.sol\":2321:2430  function getTweet( uint _i) public view returns (Tweet memory) {... */\n    tag_56:\n        /* \"ultimate-solidity-course-for-complete-beginners-main/Exercises/24-Twitter-GetTotalLikes-Exercise.sol\":2370:2382  Tweet memory */\n      tag_138\n      tag_139\n      jump\t// in\n    tag_138:\n        /* \"ultimate-solidity-course-for-complete-beginners-main/Exercises/24-Twitter-GetTotalLikes-Exercise.sol\":2401:2407  tweets */\n      0x01\n        /* \"ultimate-solidity-course-for-complete-beginners-main/Exercises/24-Twitter-GetTotalLikes-Exercise.sol\":2401:2419  tweets[msg.sender] */\n      0x00\n        /* \"ultimate-solidity-course-for-complete-beginners-main/Exercises/24-Twitter-GetTotalLikes-Exercise.sol\":2408:2418  msg.sender */\n      caller\n        /* \"ultimate-solidity-course-for-complete-beginners-main/Exercises/24-Twitter-GetTotalLikes-Exercise.sol\":2401:2419  tweets[msg.sender] */\n      0xffffffffffffffffffffffffffffffffffffffff\n      and\n      0xffffffffffffffffffffffffffffffffffffffff\n      and\n      dup2\n      mstore\n      0x20\n      add\n      swap1\n      dup2\n      mstore\n      0x20\n      add\n      0x00\n      keccak256\n        /* \"ultimate-solidity-course-for-complete-beginners-main/Exercises/24-Twitter-GetTotalLikes-Exercise.sol\":2420:2422  _i */\n      dup3\n        /* \"ultimate-solidity-course-for-complete-beginners-main/Exercises/24-Twitter-GetTotalLikes-Exercise.sol\":2401:2423  tweets[msg.sender][_i] */\n      dup2\n      sload\n      dup2\n      lt\n      tag_141\n      jumpi\n      tag_142\n      tag_79\n      jump\t// in\n    tag_142:\n    tag_141:\n      swap1\n      0x00\n      mstore\n      keccak256(0x00, 0x20)\n      swap1\n      0x05\n      mul\n      add\n        /* \"ultimate-solidity-course-for-complete-beginners-main/Exercises/24-Twitter-GetTotalLikes-Exercise.sol\":2394:2423  return tweets[msg.sender][_i] */\n      mload(0x40)\n      dup1\n      0xa0\n      add\n      0x40\n      mstore\n      swap1\n      dup2\n      0x00\n      dup3\n      add\n      sload\n      dup2\n      mstore\n      0x20\n      add\n      0x01\n      dup3\n      add\n      0x00\n      swap1\n      sload\n      swap1\n      0x0100\n      exp\n      swap1\n      div\n      0xffffffffffffffffffffffffffffffffffffffff\n      and\n      0xffffffffffffffffffffffffffffffffffffffff\n      and\n      0xffffffffffffffffffffffffffffffffffffffff\n      and\n      dup2\n      mstore\n      0x20\n      add\n      0x02\n      dup3\n      add\n      dup1\n      sload\n      tag_144\n      swap1\n      tag_62\n      jump\t// in\n    tag_144:\n      dup1\n      0x1f\n      add\n      0x20\n      dup1\n      swap2\n      div\n      mul\n      0x20\n      add\n      mload(0x40)\n      swap1\n      dup2\n      add\n      0x40\n      mstore\n      dup1\n      swap3\n      swap2\n      swap1\n      dup2\n      dup2\n      mstore\n      0x20\n      add\n      dup3\n      dup1\n      sload\n      tag_145\n      swap1\n      tag_62\n      jump\t// in\n    tag_145:\n      dup1\n      iszero\n      tag_146\n      jumpi\n      dup1\n      0x1f\n      lt\n      tag_147\n      jumpi\n      0x0100\n      dup1\n      dup4\n      sload\n      div\n      mul\n      dup4\n      mstore\n      swap2\n      0x20\n      add\n      swap2\n      jump(tag_146)\n    tag_147:\n      dup3\n      add\n      swap2\n      swap1\n      0x00\n      mstore\n      keccak256(0x00, 0x20)\n      swap1\n    tag_148:\n      dup2\n      sload\n      dup2\n      mstore\n      swap1\n      0x01\n      add\n      swap1\n      0x20\n      add\n      dup1\n      dup4\n      gt\n      tag_148\n      jumpi\n      dup3\n      swap1\n      sub\n      0x1f\n      and\n      dup3\n      add\n      swap2\n    tag_146:\n      pop\n      pop\n      pop\n      pop\n      pop\n      dup2\n      mstore\n      0x20\n      add\n      0x03\n      dup3\n      add\n      sload\n      dup2\n      mstore\n      0x20\n      add\n      0x04\n      dup3\n      add\n      sload\n      dup2\n      mstore\n      pop\n      pop\n      swap1\n      pop\n        /* \"ultimate-solidity-course-for-complete-beginners-main/Exercises/24-Twitter-GetTotalLikes-Exercise.sol\":2321:2430  function getTweet( uint _i) public view returns (Tweet memory) {... */\n      swap2\n      swap1\n      pop\n      jump\t// out\n    tag_139:\n      mload(0x40)\n      dup1\n      0xa0\n      add\n      0x40\n      mstore\n      dup1\n      0x00\n      dup2\n      mstore\n      0x20\n      add\n      and(0xffffffffffffffffffffffffffffffffffffffff, 0x00)\n      dup2\n      mstore\n      0x20\n      add\n      0x60\n      dup2\n      mstore\n      0x20\n      add\n      0x00\n      dup2\n      mstore\n      0x20\n      add\n      0x00\n      dup2\n      mstore\n      pop\n      swap1\n      jump\t// out\n        /* \"#utility.yul\":7:82   */\n    tag_149:\n        /* \"#utility.yul\":40:46   */\n      0x00\n        /* \"#utility.yul\":73:75   */\n      0x40\n        /* \"#utility.yul\":67:76   */\n      mload\n        /* \"#utility.yul\":57:76   */\n      swap1\n      pop\n        /* \"#utility.yul\":7:82   */\n      swap1\n      jump\t// out\n        /* \"#utility.yul\":88:205   */\n    tag_150:\n        /* \"#utility.yul\":197:198   */\n      0x00\n        /* \"#utility.yul\":194:195   */\n      0x00\n        /* \"#utility.yul\":187:199   */\n      revert\n        /* \"#utility.yul\":211:328   */\n    tag_151:\n        /* \"#utility.yul\":320:321   */\n      0x00\n        /* \"#utility.yul\":317:318   */\n      0x00\n        /* \"#utility.yul\":310:322   */\n      revert\n        /* \"#utility.yul\":334:460   */\n    tag_152:\n        /* \"#utility.yul\":371:378   */\n      0x00\n        /* \"#utility.yul\":411:453   */\n      0xffffffffffffffffffffffffffffffffffffffff\n        /* \"#utility.yul\":404:409   */\n      dup3\n        /* \"#utility.yul\":400:454   */\n      and\n        /* \"#utility.yul\":389:454   */\n      swap1\n      pop\n        /* \"#utility.yul\":334:460   */\n      swap2\n      swap1\n      pop\n      jump\t// out\n        /* \"#utility.yul\":466:562   */\n    tag_153:\n        /* \"#utility.yul\":503:510   */\n      0x00\n        /* \"#utility.yul\":532:556   */\n      tag_222\n        /* \"#utility.yul\":550:555   */\n      dup3\n        /* \"#utility.yul\":532:556   */\n      tag_152\n      jump\t// in\n    tag_222:\n        /* \"#utility.yul\":521:556   */\n      swap1\n      pop\n        /* \"#utility.yul\":466:562   */\n      swap2\n      swap1\n      pop\n      jump\t// out\n        /* \"#utility.yul\":568:690   */\n    tag_154:\n        /* \"#utility.yul\":641:665   */\n      tag_224\n        /* \"#utility.yul\":659:664   */\n      dup2\n        /* \"#utility.yul\":641:665   */\n      tag_153\n      jump\t// in\n    tag_224:\n        /* \"#utility.yul\":634:639   */\n      dup2\n        /* \"#utility.yul\":631:666   */\n      eq\n        /* \"#utility.yul\":621:684   */\n      tag_225\n      jumpi\n        /* \"#utility.yul\":680:681   */\n      0x00\n        /* \"#utility.yul\":677:678   */\n      0x00\n        /* \"#utility.yul\":670:682   */\n      revert\n        /* \"#utility.yul\":621:684   */\n    tag_225:\n        /* \"#utility.yul\":568:690   */\n      pop\n      jump\t// out\n        /* \"#utility.yul\":696:835   */\n    tag_155:\n        /* \"#utility.yul\":742:747   */\n      0x00\n        /* \"#utility.yul\":780:786   */\n      dup2\n        /* \"#utility.yul\":767:787   */\n      calldataload\n        /* \"#utility.yul\":758:787   */\n      swap1\n      pop\n        /* \"#utility.yul\":796:829   */\n      tag_227\n        /* \"#utility.yul\":823:828   */\n      dup2\n        /* \"#utility.yul\":796:829   */\n      tag_154\n      jump\t// in\n    tag_227:\n        /* \"#utility.yul\":696:835   */\n      swap3\n      swap2\n      pop\n      pop\n      jump\t// out\n        /* \"#utility.yul\":841:918   */\n    tag_156:\n        /* \"#utility.yul\":878:885   */\n      0x00\n        /* \"#utility.yul\":907:912   */\n      dup2\n        /* \"#utility.yul\":896:912   */\n      swap1\n      pop\n        /* \"#utility.yul\":841:918   */\n      swap2\n      swap1\n      pop\n      jump\t// out\n        /* \"#utility.yul\":924:1046   */\n    tag_157:\n        /* \"#utility.yul\":997:1021   */\n      tag_230\n        /* \"#utility.yul\":1015:1020   */\n      dup2\n        /* \"#utility.yul\":997:1021   */\n      tag_156\n      jump\t// in\n    tag_230:\n        /* \"#utility.yul\":990:995   */\n      dup2\n        /* \"#utility.yul\":987:1022   */\n      eq\n        /* \"#utility.yul\":977:1040   */\n      tag_231\n      jumpi\n        /* \"#utility.yul\":1036:1037   */\n      0x00\n        /* \"#utility.yul\":1033:1034   */\n      0x00\n        /* \"#utility.yul\":1026:1038   */\n      revert\n        /* \"#utility.yul\":977:1040   */\n    tag_231:\n        /* \"#utility.yul\":924:1046   */\n      pop\n      jump\t// out\n        /* \"#utility.yul\":1052:1191   */\n    tag_158:\n        /* \"#utility.yul\":1098:1103   */\n      0x00\n        /* \"#utility.yul\":1136:1142   */\n      dup2\n        /* \"#utility.yul\":1123:1143   */\n      calldataload\n        /* \"#utility.yul\":1114:1143   */\n      swap1\n      pop\n        /* \"#utility.yul\":1152:1185   */\n      tag_233\n        /* \"#utility.yul\":1179:1184   */\n      dup2\n        /* \"#utility.yul\":1152:1185   */\n      tag_157\n      jump\t// in\n    tag_233:\n        /* \"#utility.yul\":1052:1191   */\n      swap3\n      swap2\n      pop\n      pop\n      jump\t// out\n        /* \"#utility.yul\":1197:1671   */\n    tag_16:\n        /* \"#utility.yul\":1265:1271   */\n      0x00\n        /* \"#utility.yul\":1273:1279   */\n      0x00\n        /* \"#utility.yul\":1322:1324   */\n      0x40\n        /* \"#utility.yul\":1310:1319   */\n      dup4\n        /* \"#utility.yul\":1301:1308   */\n      dup6\n        /* \"#utility.yul\":1297:1320   */\n      sub\n        /* \"#utility.yul\":1293:1325   */\n      slt\n        /* \"#utility.yul\":1290:1409   */\n      iszero\n      tag_235\n      jumpi\n        /* \"#utility.yul\":1328:1407   */\n      tag_236\n      tag_150\n      jump\t// in\n    tag_236:\n        /* \"#utility.yul\":1290:1409   */\n    tag_235:\n        /* \"#utility.yul\":1448:1449   */\n      0x00\n        /* \"#utility.yul\":1473:1526   */\n      tag_237\n        /* \"#utility.yul\":1518:1525   */\n      dup6\n        /* \"#utility.yul\":1509:1515   */\n      dup3\n        /* \"#utility.yul\":1498:1507   */\n      dup7\n        /* \"#utility.yul\":1494:1516   */\n      add\n        /* \"#utility.yul\":1473:1526   */\n      tag_155\n      jump\t// in\n    tag_237:\n        /* \"#utility.yul\":1463:1526   */\n      swap3\n      pop\n        /* \"#utility.yul\":1419:1536   */\n      pop\n        /* \"#utility.yul\":1575:1577   */\n      0x20\n        /* \"#utility.yul\":1601:1654   */\n      tag_238\n        /* \"#utility.yul\":1646:1653   */\n      dup6\n        /* \"#utility.yul\":1637:1643   */\n      dup3\n        /* \"#utility.yul\":1626:1635   */\n      dup7\n        /* \"#utility.yul\":1622:1644   */\n      add\n        /* \"#utility.yul\":1601:1654   */\n      tag_158\n      jump\t// in\n    tag_238:\n        /* \"#utility.yul\":1591:1654   */\n      swap2\n      pop\n        /* \"#utility.yul\":1546:1664   */\n      pop\n        /* \"#utility.yul\":1197:1671   */\n      swap3\n      pop\n      swap3\n      swap1\n      pop\n      jump\t// out\n        /* \"#utility.yul\":1677:1795   */\n    tag_159:\n        /* \"#utility.yul\":1764:1788   */\n      tag_240\n        /* \"#utility.yul\":1782:1787   */\n      dup2\n        /* \"#utility.yul\":1764:1788   */\n      tag_156\n      jump\t// in\n    tag_240:\n        /* \"#utility.yul\":1759:1762   */\n      dup3\n        /* \"#utility.yul\":1752:1789   */\n      mstore\n        /* \"#utility.yul\":1677:1795   */\n      pop\n      pop\n      jump\t// out\n        /* \"#utility.yul\":1801:1919   */\n    tag_160:\n        /* \"#utility.yul\":1888:1912   */\n      tag_242\n        /* \"#utility.yul\":1906:1911   */\n      dup2\n        /* \"#utility.yul\":1888:1912   */\n      tag_153\n      jump\t// in\n    tag_242:\n        /* \"#utility.yul\":1883:1886   */\n      dup3\n        /* \"#utility.yul\":1876:1913   */\n      mstore\n        /* \"#utility.yul\":1801:1919   */\n      pop\n      pop\n      jump\t// out\n        /* \"#utility.yul\":1925:2024   */\n    tag_161:\n        /* \"#utility.yul\":1977:1983   */\n      0x00\n        /* \"#utility.yul\":2011:2016   */\n      dup2\n        /* \"#utility.yul\":2005:2017   */\n      mload\n        /* \"#utility.yul\":1995:2017   */\n      swap1\n      pop\n        /* \"#utility.yul\":1925:2024   */\n      swap2\n      swap1\n      pop\n      jump\t// out\n        /* \"#utility.yul\":2030:2199   */\n    tag_162:\n        /* \"#utility.yul\":2114:2125   */\n      0x00\n        /* \"#utility.yul\":2148:2154   */\n      dup3\n        /* \"#utility.yul\":2143:2146   */\n      dup3\n        /* \"#utility.yul\":2136:2155   */\n      mstore\n        /* \"#utility.yul\":2188:2192   */\n      0x20\n        /* \"#utility.yul\":2183:2186   */\n      dup3\n        /* \"#utility.yul\":2179:2193   */\n      add\n        /* \"#utility.yul\":2164:2193   */\n      swap1\n      pop\n        /* \"#utility.yul\":2030:2199   */\n      swap3\n      swap2\n      pop\n      pop\n      jump\t// out\n        /* \"#utility.yul\":2205:2344   */\n    tag_163:\n        /* \"#utility.yul\":2294:2300   */\n      dup3\n        /* \"#utility.yul\":2289:2292   */\n      dup2\n        /* \"#utility.yul\":2284:2287   */\n      dup4\n        /* \"#utility.yul\":2278:2301   */\n      mcopy\n        /* \"#utility.yul\":2335:2336   */\n      0x00\n        /* \"#utility.yul\":2326:2332   */\n      dup4\n        /* \"#utility.yul\":2321:2324   */\n      dup4\n        /* \"#utility.yul\":2317:2333   */\n      add\n        /* \"#utility.yul\":2310:2337   */\n      mstore\n        /* \"#utility.yul\":2205:2344   */\n      pop\n      pop\n      pop\n      jump\t// out\n        /* \"#utility.yul\":2350:2452   */\n    tag_164:\n        /* \"#utility.yul\":2391:2397   */\n      0x00\n        /* \"#utility.yul\":2442:2444   */\n      0x1f\n        /* \"#utility.yul\":2438:2445   */\n      not\n        /* \"#utility.yul\":2433:2435   */\n      0x1f\n        /* \"#utility.yul\":2426:2431   */\n      dup4\n        /* \"#utility.yul\":2422:2436   */\n      add\n        /* \"#utility.yul\":2418:2446   */\n      and\n        /* \"#utility.yul\":2408:2446   */\n      swap1\n      pop\n        /* \"#utility.yul\":2350:2452   */\n      swap2\n      swap1\n      pop\n      jump\t// out\n        /* \"#utility.yul\":2458:2835   */\n    tag_165:\n        /* \"#utility.yul\":2546:2549   */\n      0x00\n        /* \"#utility.yul\":2574:2613   */\n      tag_248\n        /* \"#utility.yul\":2607:2612   */\n      dup3\n        /* \"#utility.yul\":2574:2613   */\n      tag_161\n      jump\t// in\n    tag_248:\n        /* \"#utility.yul\":2629:2700   */\n      tag_249\n        /* \"#utility.yul\":2693:2699   */\n      dup2\n        /* \"#utility.yul\":2688:2691   */\n      dup6\n        /* \"#utility.yul\":2629:2700   */\n      tag_162\n      jump\t// in\n    tag_249:\n        /* \"#utility.yul\":2622:2700   */\n      swap4\n      pop\n        /* \"#utility.yul\":2709:2774   */\n      tag_250\n        /* \"#utility.yul\":2767:2773   */\n      dup2\n        /* \"#utility.yul\":2762:2765   */\n      dup6\n        /* \"#utility.yul\":2755:2759   */\n      0x20\n        /* \"#utility.yul\":2748:2753   */\n      dup7\n        /* \"#utility.yul\":2744:2760   */\n      add\n        /* \"#utility.yul\":2709:2774   */\n      tag_163\n      jump\t// in\n    tag_250:\n        /* \"#utility.yul\":2799:2828   */\n      tag_251\n        /* \"#utility.yul\":2821:2827   */\n      dup2\n        /* \"#utility.yul\":2799:2828   */\n      tag_164\n      jump\t// in\n    tag_251:\n        /* \"#utility.yul\":2794:2797   */\n      dup5\n        /* \"#utility.yul\":2790:2829   */\n      add\n        /* \"#utility.yul\":2783:2829   */\n      swap2\n      pop\n        /* \"#utility.yul\":2550:2835   */\n      pop\n        /* \"#utility.yul\":2458:2835   */\n      swap3\n      swap2\n      pop\n      pop\n      jump\t// out\n        /* \"#utility.yul\":2841:3596   */\n    tag_19:\n        /* \"#utility.yul\":3066:3070   */\n      0x00\n        /* \"#utility.yul\":3104:3107   */\n      0xa0\n        /* \"#utility.yul\":3093:3102   */\n      dup3\n        /* \"#utility.yul\":3089:3108   */\n      add\n        /* \"#utility.yul\":3081:3108   */\n      swap1\n      pop\n        /* \"#utility.yul\":3118:3189   */\n      tag_253\n        /* \"#utility.yul\":3186:3187   */\n      0x00\n        /* \"#utility.yul\":3175:3184   */\n      dup4\n        /* \"#utility.yul\":3171:3188   */\n      add\n        /* \"#utility.yul\":3162:3168   */\n      dup9\n        /* \"#utility.yul\":3118:3189   */\n      tag_159\n      jump\t// in\n    tag_253:\n        /* \"#utility.yul\":3199:3271   */\n      tag_254\n        /* \"#utility.yul\":3267:3269   */\n      0x20\n        /* \"#utility.yul\":3256:3265   */\n      dup4\n        /* \"#utility.yul\":3252:3270   */\n      add\n        /* \"#utility.yul\":3243:3249   */\n      dup8\n        /* \"#utility.yul\":3199:3271   */\n      tag_160\n      jump\t// in\n    tag_254:\n        /* \"#utility.yul\":3318:3327   */\n      dup2\n        /* \"#utility.yul\":3312:3316   */\n      dup2\n        /* \"#utility.yul\":3308:3328   */\n      sub\n        /* \"#utility.yul\":3303:3305   */\n      0x40\n        /* \"#utility.yul\":3292:3301   */\n      dup4\n        /* \"#utility.yul\":3288:3306   */\n      add\n        /* \"#utility.yul\":3281:3329   */\n      mstore\n        /* \"#utility.yul\":3346:3424   */\n      tag_255\n        /* \"#utility.yul\":3419:3423   */\n      dup2\n        /* \"#utility.yul\":3410:3416   */\n      dup7\n        /* \"#utility.yul\":3346:3424   */\n      tag_165\n      jump\t// in\n    tag_255:\n        /* \"#utility.yul\":3338:3424   */\n      swap1\n      pop\n        /* \"#utility.yul\":3434:3506   */\n      tag_256\n        /* \"#utility.yul\":3502:3504   */\n      0x60\n        /* \"#utility.yul\":3491:3500   */\n      dup4\n        /* \"#utility.yul\":3487:3505   */\n      add\n        /* \"#utility.yul\":3478:3484   */\n      dup6\n        /* \"#utility.yul\":3434:3506   */\n      tag_159\n      jump\t// in\n    tag_256:\n        /* \"#utility.yul\":3516:3589   */\n      tag_257\n        /* \"#utility.yul\":3584:3587   */\n      0x80\n        /* \"#utility.yul\":3573:3582   */\n      dup4\n        /* \"#utility.yul\":3569:3588   */\n      add\n        /* \"#utility.yul\":3560:3566   */\n      dup5\n        /* \"#utility.yul\":3516:3589   */\n      tag_159\n      jump\t// in\n    tag_257:\n        /* \"#utility.yul\":2841:3596   */\n      swap7\n      swap6\n      pop\n      pop\n      pop\n      pop\n      pop\n      pop\n      jump\t// out\n        /* \"#utility.yul\":3602:3931   */\n    tag_22:\n        /* \"#utility.yul\":3661:3667   */\n      0x00\n        /* \"#utility.yul\":3710:3712   */\n      0x20\n        /* \"#utility.yul\":3698:3707   */\n      dup3\n        /* \"#utility.yul\":3689:3696   */\n      dup5\n        /* \"#utility.yul\":3685:3708   */\n      sub\n        /* \"#utility.yul\":3681:3713   */\n      slt\n        /* \"#utility.yul\":3678:3797   */\n      iszero\n      tag_259\n      jumpi\n        /* \"#utility.yul\":3716:3795   */\n      tag_260\n      tag_150\n      jump\t// in\n    tag_260:\n        /* \"#utility.yul\":3678:3797   */\n    tag_259:\n        /* \"#utility.yul\":3836:3837   */\n      0x00\n        /* \"#utility.yul\":3861:3914   */\n      tag_261\n        /* \"#utility.yul\":3906:3913   */\n      dup5\n        /* \"#utility.yul\":3897:3903   */\n      dup3\n        /* \"#utility.yul\":3886:3895   */\n      dup6\n        /* \"#utility.yul\":3882:3904   */\n      add\n        /* \"#utility.yul\":3861:3914   */\n      tag_155\n      jump\t// in\n    tag_261:\n        /* \"#utility.yul\":3851:3914   */\n      swap2\n      pop\n        /* \"#utility.yul\":3807:3924   */\n      pop\n        /* \"#utility.yul\":3602:3931   */\n      swap3\n      swap2\n      pop\n      pop\n      jump\t// out\n        /* \"#utility.yul\":3937:4072   */\n    tag_166:\n        /* \"#utility.yul\":4025:4031   */\n      0x00\n        /* \"#utility.yul\":4059:4064   */\n      dup2\n        /* \"#utility.yul\":4053:4065   */\n      mload\n        /* \"#utility.yul\":4043:4065   */\n      swap1\n      pop\n        /* \"#utility.yul\":3937:4072   */\n      swap2\n      swap1\n      pop\n      jump\t// out\n        /* \"#utility.yul\":4078:4283   */\n    tag_167:\n        /* \"#utility.yul\":4198:4209   */\n      0x00\n        /* \"#utility.yul\":4232:4238   */\n      dup3\n        /* \"#utility.yul\":4227:4230   */\n      dup3\n        /* \"#utility.yul\":4220:4239   */\n      mstore\n        /* \"#utility.yul\":4272:4276   */\n      0x20\n        /* \"#utility.yul\":4267:4270   */\n      dup3\n        /* \"#utility.yul\":4263:4277   */\n      add\n        /* \"#utility.yul\":4248:4277   */\n      swap1\n      pop\n        /* \"#utility.yul\":4078:4283   */\n      swap3\n      swap2\n      pop\n      pop\n      jump\t// out\n        /* \"#utility.yul\":4289:4442   */\n    tag_168:\n        /* \"#utility.yul\":4377:4381   */\n      0x00\n        /* \"#utility.yul\":4400:4403   */\n      dup2\n        /* \"#utility.yul\":4392:4403   */\n      swap1\n      pop\n        /* \"#utility.yul\":4430:4434   */\n      0x20\n        /* \"#utility.yul\":4425:4428   */\n      dup3\n        /* \"#utility.yul\":4421:4435   */\n      add\n        /* \"#utility.yul\":4413:4435   */\n      swap1\n      pop\n        /* \"#utility.yul\":4289:4442   */\n      swap2\n      swap1\n      pop\n      jump\t// out\n        /* \"#utility.yul\":4448:4556   */\n    tag_169:\n        /* \"#utility.yul\":4525:4549   */\n      tag_266\n        /* \"#utility.yul\":4543:4548   */\n      dup2\n        /* \"#utility.yul\":4525:4549   */\n      tag_156\n      jump\t// in\n    tag_266:\n        /* \"#utility.yul\":4520:4523   */\n      dup3\n        /* \"#utility.yul\":4513:4550   */\n      mstore\n        /* \"#utility.yul\":4448:4556   */\n      pop\n      pop\n      jump\t// out\n        /* \"#utility.yul\":4562:4670   */\n    tag_170:\n        /* \"#utility.yul\":4639:4663   */\n      tag_268\n        /* \"#utility.yul\":4657:4662   */\n      dup2\n        /* \"#utility.yul\":4639:4663   */\n      tag_153\n      jump\t// in\n    tag_268:\n        /* \"#utility.yul\":4634:4637   */\n      dup3\n        /* \"#utility.yul\":4627:4664   */\n      mstore\n        /* \"#utility.yul\":4562:4670   */\n      pop\n      pop\n      jump\t// out\n        /* \"#utility.yul\":4676:4835   */\n    tag_171:\n        /* \"#utility.yul\":4750:4761   */\n      0x00\n        /* \"#utility.yul\":4784:4790   */\n      dup3\n        /* \"#utility.yul\":4779:4782   */\n      dup3\n        /* \"#utility.yul\":4772:4791   */\n      mstore\n        /* \"#utility.yul\":4824:4828   */\n      0x20\n        /* \"#utility.yul\":4819:4822   */\n      dup3\n        /* \"#utility.yul\":4815:4829   */\n      add\n        /* \"#utility.yul\":4800:4829   */\n      swap1\n      pop\n        /* \"#utility.yul\":4676:4835   */\n      swap3\n      swap2\n      pop\n      pop\n      jump\t// out\n        /* \"#utility.yul\":4841:5198   */\n    tag_172:\n        /* \"#utility.yul\":4919:4922   */\n      0x00\n        /* \"#utility.yul\":4947:4986   */\n      tag_271\n        /* \"#utility.yul\":4980:4985   */\n      dup3\n        /* \"#utility.yul\":4947:4986   */\n      tag_161\n      jump\t// in\n    tag_271:\n        /* \"#utility.yul\":5002:5063   */\n      tag_272\n        /* \"#utility.yul\":5056:5062   */\n      dup2\n        /* \"#utility.yul\":5051:5054   */\n      dup6\n        /* \"#utility.yul\":5002:5063   */\n      tag_171\n      jump\t// in\n    tag_272:\n        /* \"#utility.yul\":4995:5063   */\n      swap4\n      pop\n        /* \"#utility.yul\":5072:5137   */\n      tag_273\n        /* \"#utility.yul\":5130:5136   */\n      dup2\n        /* \"#utility.yul\":5125:5128   */\n      dup6\n        /* \"#utility.yul\":5118:5122   */\n      0x20\n        /* \"#utility.yul\":5111:5116   */\n      dup7\n        /* \"#utility.yul\":5107:5123   */\n      add\n        /* \"#utility.yul\":5072:5137   */\n      tag_163\n      jump\t// in\n    tag_273:\n        /* \"#utility.yul\":5162:5191   */\n      tag_274\n        /* \"#utility.yul\":5184:5190   */\n      dup2\n        /* \"#utility.yul\":5162:5191   */\n      tag_164\n      jump\t// in\n    tag_274:\n        /* \"#utility.yul\":5157:5160   */\n      dup5\n        /* \"#utility.yul\":5153:5192   */\n      add\n        /* \"#utility.yul\":5146:5192   */\n      swap2\n      pop\n        /* \"#utility.yul\":4923:5198   */\n      pop\n        /* \"#utility.yul\":4841:5198   */\n      swap3\n      swap2\n      pop\n      pop\n      jump\t// out\n        /* \"#utility.yul\":5256:6375   */\n    tag_173:\n        /* \"#utility.yul\":5357:5360   */\n      0x00\n        /* \"#utility.yul\":5393:5397   */\n      0xa0\n        /* \"#utility.yul\":5388:5391   */\n      dup4\n        /* \"#utility.yul\":5384:5398   */\n      add\n        /* \"#utility.yul\":5478:5482   */\n      0x00\n        /* \"#utility.yul\":5471:5476   */\n      dup4\n        /* \"#utility.yul\":5467:5483   */\n      add\n        /* \"#utility.yul\":5461:5484   */\n      mload\n        /* \"#utility.yul\":5497:5560   */\n      tag_276\n        /* \"#utility.yul\":5554:5558   */\n      0x00\n        /* \"#utility.yul\":5549:5552   */\n      dup7\n        /* \"#utility.yul\":5545:5559   */\n      add\n        /* \"#utility.yul\":5531:5543   */\n      dup3\n        /* \"#utility.yul\":5497:5560   */\n      tag_169\n      jump\t// in\n    tag_276:\n        /* \"#utility.yul\":5408:5570   */\n      pop\n        /* \"#utility.yul\":5654:5658   */\n      0x20\n        /* \"#utility.yul\":5647:5652   */\n      dup4\n        /* \"#utility.yul\":5643:5659   */\n      add\n        /* \"#utility.yul\":5637:5660   */\n      mload\n        /* \"#utility.yul\":5673:5736   */\n      tag_277\n        /* \"#utility.yul\":5730:5734   */\n      0x20\n        /* \"#utility.yul\":5725:5728   */\n      dup7\n        /* \"#utility.yul\":5721:5735   */\n      add\n        /* \"#utility.yul\":5707:5719   */\n      dup3\n        /* \"#utility.yul\":5673:5736   */\n      tag_170\n      jump\t// in\n    tag_277:\n        /* \"#utility.yul\":5580:5746   */\n      pop\n        /* \"#utility.yul\":5831:5835   */\n      0x40\n        /* \"#utility.yul\":5824:5829   */\n      dup4\n        /* \"#utility.yul\":5820:5836   */\n      add\n        /* \"#utility.yul\":5814:5837   */\n      mload\n        /* \"#utility.yul\":5884:5887   */\n      dup5\n        /* \"#utility.yul\":5878:5882   */\n      dup3\n        /* \"#utility.yul\":5874:5888   */\n      sub\n        /* \"#utility.yul\":5867:5871   */\n      0x40\n        /* \"#utility.yul\":5862:5865   */\n      dup7\n        /* \"#utility.yul\":5858:5872   */\n      add\n        /* \"#utility.yul\":5851:5889   */\n      mstore\n        /* \"#utility.yul\":5910:5983   */\n      tag_278\n        /* \"#utility.yul\":5978:5982   */\n      dup3\n        /* \"#utility.yul\":5964:5976   */\n      dup3\n        /* \"#utility.yul\":5910:5983   */\n      tag_172\n      jump\t// in\n    tag_278:\n        /* \"#utility.yul\":5902:5983   */\n      swap2\n      pop\n        /* \"#utility.yul\":5756:5994   */\n      pop\n        /* \"#utility.yul\":6081:6085   */\n      0x60\n        /* \"#utility.yul\":6074:6079   */\n      dup4\n        /* \"#utility.yul\":6070:6086   */\n      add\n        /* \"#utility.yul\":6064:6087   */\n      mload\n        /* \"#utility.yul\":6100:6163   */\n      tag_279\n        /* \"#utility.yul\":6157:6161   */\n      0x60\n        /* \"#utility.yul\":6152:6155   */\n      dup7\n        /* \"#utility.yul\":6148:6162   */\n      add\n        /* \"#utility.yul\":6134:6146   */\n      dup3\n        /* \"#utility.yul\":6100:6163   */\n      tag_169\n      jump\t// in\n    tag_279:\n        /* \"#utility.yul\":6004:6173   */\n      pop\n        /* \"#utility.yul\":6256:6260   */\n      0x80\n        /* \"#utility.yul\":6249:6254   */\n      dup4\n        /* \"#utility.yul\":6245:6261   */\n      add\n        /* \"#utility.yul\":6239:6262   */\n      mload\n        /* \"#utility.yul\":6275:6338   */\n      tag_280\n        /* \"#utility.yul\":6332:6336   */\n      0x80\n        /* \"#utility.yul\":6327:6330   */\n      dup7\n        /* \"#utility.yul\":6323:6337   */\n      add\n        /* \"#utility.yul\":6309:6321   */\n      dup3\n        /* \"#utility.yul\":6275:6338   */\n      tag_169\n      jump\t// in\n    tag_280:\n        /* \"#utility.yul\":6183:6348   */\n      pop\n        /* \"#utility.yul\":6365:6369   */\n      dup1\n        /* \"#utility.yul\":6358:6369   */\n      swap2\n      pop\n        /* \"#utility.yul\":5362:6375   */\n      pop\n        /* \"#utility.yul\":5256:6375   */\n      swap3\n      swap2\n      pop\n      pop\n      jump\t// out\n        /* \"#utility.yul\":6381:6621   */\n    tag_174:\n        /* \"#utility.yul\":6492:6502   */\n      0x00\n        /* \"#utility.yul\":6527:6615   */\n      tag_282\n        /* \"#utility.yul\":6611:6614   */\n      dup4\n        /* \"#utility.yul\":6603:6609   */\n      dup4\n        /* \"#utility.yul\":6527:6615   */\n      tag_173\n      jump\t// in\n    tag_282:\n        /* \"#utility.yul\":6513:6615   */\n      swap1\n      pop\n        /* \"#utility.yul\":6381:6621   */\n      swap3\n      swap2\n      pop\n      pop\n      jump\t// out\n        /* \"#utility.yul\":6627:6761   */\n    tag_175:\n        /* \"#utility.yul\":6718:6722   */\n      0x00\n        /* \"#utility.yul\":6750:6754   */\n      0x20\n        /* \"#utility.yul\":6745:6748   */\n      dup3\n        /* \"#utility.yul\":6741:6755   */\n      add\n        /* \"#utility.yul\":6733:6755   */\n      swap1\n      pop\n        /* \"#utility.yul\":6627:6761   */\n      swap2\n      swap1\n      pop\n      jump\t// out\n        /* \"#utility.yul\":6823:7902   */\n    tag_176:\n        /* \"#utility.yul\":6984:6987   */\n      0x00\n        /* \"#utility.yul\":7013:7088   */\n      tag_285\n        /* \"#utility.yul\":7082:7087   */\n      dup3\n        /* \"#utility.yul\":7013:7088   */\n      tag_166\n      jump\t// in\n    tag_285:\n        /* \"#utility.yul\":7104:7211   */\n      tag_286\n        /* \"#utility.yul\":7204:7210   */\n      dup2\n        /* \"#utility.yul\":7199:7202   */\n      dup6\n        /* \"#utility.yul\":7104:7211   */\n      tag_167\n      jump\t// in\n    tag_286:\n        /* \"#utility.yul\":7097:7211   */\n      swap4\n      pop\n        /* \"#utility.yul\":7237:7240   */\n      dup4\n        /* \"#utility.yul\":7282:7286   */\n      0x20\n        /* \"#utility.yul\":7274:7280   */\n      dup3\n        /* \"#utility.yul\":7270:7287   */\n      mul\n        /* \"#utility.yul\":7265:7268   */\n      dup6\n        /* \"#utility.yul\":7261:7288   */\n      add\n        /* \"#utility.yul\":7312:7389   */\n      tag_287\n        /* \"#utility.yul\":7383:7388   */\n      dup6\n        /* \"#utility.yul\":7312:7389   */\n      tag_168\n      jump\t// in\n    tag_287:\n        /* \"#utility.yul\":7412:7419   */\n      dup1\n        /* \"#utility.yul\":7443:7444   */\n      0x00\n        /* \"#utility.yul\":7428:7857   */\n    tag_288:\n        /* \"#utility.yul\":7453:7459   */\n      dup6\n        /* \"#utility.yul\":7450:7451   */\n      dup2\n        /* \"#utility.yul\":7447:7460   */\n      lt\n        /* \"#utility.yul\":7428:7857   */\n      iszero\n      tag_290\n      jumpi\n        /* \"#utility.yul\":7524:7533   */\n      dup5\n        /* \"#utility.yul\":7518:7522   */\n      dup5\n        /* \"#utility.yul\":7514:7534   */\n      sub\n        /* \"#utility.yul\":7509:7512   */\n      dup10\n        /* \"#utility.yul\":7502:7535   */\n      mstore\n        /* \"#utility.yul\":7575:7581   */\n      dup2\n        /* \"#utility.yul\":7569:7582   */\n      mload\n        /* \"#utility.yul\":7603:7709   */\n      tag_291\n        /* \"#utility.yul\":7704:7708   */\n      dup6\n        /* \"#utility.yul\":7689:7702   */\n      dup3\n        /* \"#utility.yul\":7603:7709   */\n      tag_174\n      jump\t// in\n    tag_291:\n        /* \"#utility.yul\":7595:7709   */\n      swap5\n      pop\n        /* \"#utility.yul\":7732:7813   */\n      tag_292\n        /* \"#utility.yul\":7806:7812   */\n      dup4\n        /* \"#utility.yul\":7732:7813   */\n      tag_175\n      jump\t// in\n    tag_292:\n        /* \"#utility.yul\":7722:7813   */\n      swap3\n      pop\n        /* \"#utility.yul\":7842:7846   */\n      0x20\n        /* \"#utility.yul\":7837:7840   */\n      dup11\n        /* \"#utility.yul\":7833:7847   */\n      add\n        /* \"#utility.yul\":7826:7847   */\n      swap10\n      pop\n        /* \"#utility.yul\":7488:7857   */\n      pop\n        /* \"#utility.yul\":7475:7476   */\n      0x01\n        /* \"#utility.yul\":7472:7473   */\n      dup2\n        /* \"#utility.yul\":7468:7477   */\n      add\n        /* \"#utility.yul\":7463:7477   */\n      swap1\n      pop\n        /* \"#utility.yul\":7428:7857   */\n      jump(tag_288)\n    tag_290:\n        /* \"#utility.yul\":7432:7446   */\n      pop\n        /* \"#utility.yul\":7873:7877   */\n      dup3\n        /* \"#utility.yul\":7866:7877   */\n      swap8\n      pop\n        /* \"#utility.yul\":7893:7896   */\n      dup8\n        /* \"#utility.yul\":7886:7896   */\n      swap6\n      pop\n        /* \"#utility.yul\":6989:7902   */\n      pop\n      pop\n      pop\n      pop\n      pop\n        /* \"#utility.yul\":6823:7902   */\n      swap3\n      swap2\n      pop\n      pop\n      jump\t// out\n        /* \"#utility.yul\":7908:8365   */\n    tag_25:\n        /* \"#utility.yul\":8093:8097   */\n      0x00\n        /* \"#utility.yul\":8131:8133   */\n      0x20\n        /* \"#utility.yul\":8120:8129   */\n      dup3\n        /* \"#utility.yul\":8116:8134   */\n      add\n        /* \"#utility.yul\":8108:8134   */\n      swap1\n      pop\n        /* \"#utility.yul\":8180:8189   */\n      dup2\n        /* \"#utility.yul\":8174:8178   */\n      dup2\n        /* \"#utility.yul\":8170:8190   */\n      sub\n        /* \"#utility.yul\":8166:8167   */\n      0x00\n        /* \"#utility.yul\":8155:8164   */\n      dup4\n        /* \"#utility.yul\":8151:8168   */\n      add\n        /* \"#utility.yul\":8144:8191   */\n      mstore\n        /* \"#utility.yul\":8208:8358   */\n      tag_294\n        /* \"#utility.yul\":8353:8357   */\n      dup2\n        /* \"#utility.yul\":8344:8350   */\n      dup5\n        /* \"#utility.yul\":8208:8358   */\n      tag_176\n      jump\t// in\n    tag_294:\n        /* \"#utility.yul\":8200:8358   */\n      swap1\n      pop\n        /* \"#utility.yul\":7908:8365   */\n      swap3\n      swap2\n      pop\n      pop\n      jump\t// out\n        /* \"#utility.yul\":8371:8460   */\n    tag_177:\n        /* \"#utility.yul\":8407:8414   */\n      0x00\n        /* \"#utility.yul\":8447:8453   */\n      0xffff\n        /* \"#utility.yul\":8440:8445   */\n      dup3\n        /* \"#utility.yul\":8436:8454   */\n      and\n        /* \"#utility.yul\":8425:8454   */\n      swap1\n      pop\n        /* \"#utility.yul\":8371:8460   */\n      swap2\n      swap1\n      pop\n      jump\t// out\n        /* \"#utility.yul\":8466:8586   */\n    tag_178:\n        /* \"#utility.yul\":8538:8561   */\n      tag_297\n        /* \"#utility.yul\":8555:8560   */\n      dup2\n        /* \"#utility.yul\":8538:8561   */\n      tag_177\n      jump\t// in\n    tag_297:\n        /* \"#utility.yul\":8531:8536   */\n      dup2\n        /* \"#utility.yul\":8528:8562   */\n      eq\n        /* \"#utility.yul\":8518:8580   */\n      tag_298\n      jumpi\n        /* \"#utility.yul\":8576:8577   */\n      0x00\n        /* \"#utility.yul\":8573:8574   */\n      0x00\n        /* \"#utility.yul\":8566:8578   */\n      revert\n        /* \"#utility.yul\":8518:8580   */\n    tag_298:\n        /* \"#utility.yul\":8466:8586   */\n      pop\n      jump\t// out\n        /* \"#utility.yul\":8592:8729   */\n    tag_179:\n        /* \"#utility.yul\":8637:8642   */\n      0x00\n        /* \"#utility.yul\":8675:8681   */\n      dup2\n        /* \"#utility.yul\":8662:8682   */\n      calldataload\n        /* \"#utility.yul\":8653:8682   */\n      swap1\n      pop\n        /* \"#utility.yul\":8691:8723   */\n      tag_300\n        /* \"#utility.yul\":8717:8722   */\n      dup2\n        /* \"#utility.yul\":8691:8723   */\n      tag_178\n      jump\t// in\n    tag_300:\n        /* \"#utility.yul\":8592:8729   */\n      swap3\n      swap2\n      pop\n      pop\n      jump\t// out\n        /* \"#utility.yul\":8735:9062   */\n    tag_31:\n        /* \"#utility.yul\":8793:8799   */\n      0x00\n        /* \"#utility.yul\":8842:8844   */\n      0x20\n        /* \"#utility.yul\":8830:8839   */\n      dup3\n        /* \"#utility.yul\":8821:8828   */\n      dup5\n        /* \"#utility.yul\":8817:8840   */\n      sub\n        /* \"#utility.yul\":8813:8845   */\n      slt\n        /* \"#utility.yul\":8810:8929   */\n      iszero\n      tag_302\n      jumpi\n        /* \"#utility.yul\":8848:8927   */\n      tag_303\n      tag_150\n      jump\t// in\n    tag_303:\n        /* \"#utility.yul\":8810:8929   */\n    tag_302:\n        /* \"#utility.yul\":8968:8969   */\n      0x00\n        /* \"#utility.yul\":8993:9045   */\n      tag_304\n        /* \"#utility.yul\":9037:9044   */\n      dup5\n        /* \"#utility.yul\":9028:9034   */\n      dup3\n        /* \"#utility.yul\":9017:9026   */\n      dup6\n        /* \"#utility.yul\":9013:9035   */\n      add\n        /* \"#utility.yul\":8993:9045   */\n      tag_179\n      jump\t// in\n    tag_304:\n        /* \"#utility.yul\":8983:9045   */\n      swap2\n      pop\n        /* \"#utility.yul\":8939:9055   */\n      pop\n        /* \"#utility.yul\":8735:9062   */\n      swap3\n      swap2\n      pop\n      pop\n      jump\t// out\n        /* \"#utility.yul\":9068:9183   */\n    tag_180:\n        /* \"#utility.yul\":9153:9176   */\n      tag_306\n        /* \"#utility.yul\":9170:9175   */\n      dup2\n        /* \"#utility.yul\":9153:9176   */\n      tag_177\n      jump\t// in\n    tag_306:\n        /* \"#utility.yul\":9148:9151   */\n      dup3\n        /* \"#utility.yul\":9141:9177   */\n      mstore\n        /* \"#utility.yul\":9068:9183   */\n      pop\n      pop\n      jump\t// out\n        /* \"#utility.yul\":9189:9407   */\n    tag_39:\n        /* \"#utility.yul\":9280:9284   */\n      0x00\n        /* \"#utility.yul\":9318:9320   */\n      0x20\n        /* \"#utility.yul\":9307:9316   */\n      dup3\n        /* \"#utility.yul\":9303:9321   */\n      add\n        /* \"#utility.yul\":9295:9321   */\n      swap1\n      pop\n        /* \"#utility.yul\":9331:9400   */\n      tag_308\n        /* \"#utility.yul\":9397:9398   */\n      0x00\n        /* \"#utility.yul\":9386:9395   */\n      dup4\n        /* \"#utility.yul\":9382:9399   */\n      add\n        /* \"#utility.yul\":9373:9379   */\n      dup5\n        /* \"#utility.yul\":9331:9400   */\n      tag_180\n      jump\t// in\n    tag_308:\n        /* \"#utility.yul\":9189:9407   */\n      swap3\n      swap2\n      pop\n      pop\n      jump\t// out\n        /* \"#utility.yul\":9413:9530   */\n    tag_181:\n        /* \"#utility.yul\":9522:9523   */\n      0x00\n        /* \"#utility.yul\":9519:9520   */\n      0x00\n        /* \"#utility.yul\":9512:9524   */\n      revert\n        /* \"#utility.yul\":9536:9653   */\n    tag_182:\n        /* \"#utility.yul\":9645:9646   */\n      0x00\n        /* \"#utility.yul\":9642:9643   */\n      0x00\n        /* \"#utility.yul\":9635:9647   */\n      revert\n        /* \"#utility.yul\":9659:9839   */\n    tag_183:\n        /* \"#utility.yul\":9707:9784   */\n      0x4e487b7100000000000000000000000000000000000000000000000000000000\n        /* \"#utility.yul\":9704:9705   */\n      0x00\n        /* \"#utility.yul\":9697:9785   */\n      mstore\n        /* \"#utility.yul\":9804:9808   */\n      0x41\n        /* \"#utility.yul\":9801:9802   */\n      0x04\n        /* \"#utility.yul\":9794:9809   */\n      mstore\n        /* \"#utility.yul\":9828:9832   */\n      0x24\n        /* \"#utility.yul\":9825:9826   */\n      0x00\n        /* \"#utility.yul\":9818:9833   */\n      revert\n        /* \"#utility.yul\":9845:10126   */\n    tag_184:\n        /* \"#utility.yul\":9928:9955   */\n      tag_313\n        /* \"#utility.yul\":9950:9954   */\n      dup3\n        /* \"#utility.yul\":9928:9955   */\n      tag_164\n      jump\t// in\n    tag_313:\n        /* \"#utility.yul\":9920:9926   */\n      dup2\n        /* \"#utility.yul\":9916:9956   */\n      add\n        /* \"#utility.yul\":10058:10064   */\n      dup2\n        /* \"#utility.yul\":10046:10056   */\n      dup2\n        /* \"#utility.yul\":10043:10065   */\n      lt\n        /* \"#utility.yul\":10022:10040   */\n      0xffffffffffffffff\n        /* \"#utility.yul\":10010:10020   */\n      dup3\n        /* \"#utility.yul\":10007:10041   */\n      gt\n        /* \"#utility.yul\":10004:10066   */\n      or\n        /* \"#utility.yul\":10001:10089   */\n      iszero\n      tag_314\n      jumpi\n        /* \"#utility.yul\":10069:10087   */\n      tag_315\n      tag_183\n      jump\t// in\n    tag_315:\n        /* \"#utility.yul\":10001:10089   */\n    tag_314:\n        /* \"#utility.yul\":10109:10119   */\n      dup1\n        /* \"#utility.yul\":10105:10107   */\n      0x40\n        /* \"#utility.yul\":10098:10120   */\n      mstore\n        /* \"#utility.yul\":9888:10126   */\n      pop\n        /* \"#utility.yul\":9845:10126   */\n      pop\n      pop\n      jump\t// out\n        /* \"#utility.yul\":10132:10261   */\n    tag_185:\n        /* \"#utility.yul\":10166:10172   */\n      0x00\n        /* \"#utility.yul\":10193:10213   */\n      tag_317\n      tag_149\n      jump\t// in\n    tag_317:\n        /* \"#utility.yul\":10183:10213   */\n      swap1\n      pop\n        /* \"#utility.yul\":10222:10255   */\n      tag_318\n        /* \"#utility.yul\":10250:10254   */\n      dup3\n        /* \"#utility.yul\":10242:10248   */\n      dup3\n        /* \"#utility.yul\":10222:10255   */\n      tag_184\n      jump\t// in\n    tag_318:\n        /* \"#utility.yul\":10132:10261   */\n      swap2\n      swap1\n      pop\n      jump\t// out\n        /* \"#utility.yul\":10267:10575   */\n    tag_186:\n        /* \"#utility.yul\":10329:10333   */\n      0x00\n        /* \"#utility.yul\":10419:10437   */\n      0xffffffffffffffff\n        /* \"#utility.yul\":10411:10417   */\n      dup3\n        /* \"#utility.yul\":10408:10438   */\n      gt\n        /* \"#utility.yul\":10405:10461   */\n      iszero\n      tag_320\n      jumpi\n        /* \"#utility.yul\":10441:10459   */\n      tag_321\n      tag_183\n      jump\t// in\n    tag_321:\n        /* \"#utility.yul\":10405:10461   */\n    tag_320:\n        /* \"#utility.yul\":10479:10508   */\n      tag_322\n        /* \"#utility.yul\":10501:10507   */\n      dup3\n        /* \"#utility.yul\":10479:10508   */\n      tag_164\n      jump\t// in\n    tag_322:\n        /* \"#utility.yul\":10471:10508   */\n      swap1\n      pop\n        /* \"#utility.yul\":10563:10567   */\n      0x20\n        /* \"#utility.yul\":10557:10561   */\n      dup2\n        /* \"#utility.yul\":10553:10568   */\n      add\n        /* \"#utility.yul\":10545:10568   */\n      swap1\n      pop\n        /* \"#utility.yul\":10267:10575   */\n      swap2\n      swap1\n      pop\n      jump\t// out\n        /* \"#utility.yul\":10581:10729   */\n    tag_187:\n        /* \"#utility.yul\":10679:10685   */\n      dup3\n        /* \"#utility.yul\":10674:10677   */\n      dup2\n        /* \"#utility.yul\":10669:10672   */\n      dup4\n        /* \"#utility.yul\":10656:10686   */\n      calldatacopy\n        /* \"#utility.yul\":10720:10721   */\n      0x00\n        /* \"#utility.yul\":10711:10717   */\n      dup4\n        /* \"#utility.yul\":10706:10709   */\n      dup4\n        /* \"#utility.yul\":10702:10718   */\n      add\n        /* \"#utility.yul\":10695:10722   */\n      mstore\n        /* \"#utility.yul\":10581:10729   */\n      pop\n      pop\n      pop\n      jump\t// out\n        /* \"#utility.yul\":10735:11160   */\n    tag_188:\n        /* \"#utility.yul\":10813:10818   */\n      0x00\n        /* \"#utility.yul\":10838:10904   */\n      tag_325\n        /* \"#utility.yul\":10854:10903   */\n      tag_326\n        /* \"#utility.yul\":10896:10902   */\n      dup5\n        /* \"#utility.yul\":10854:10903   */\n      tag_186\n      jump\t// in\n    tag_326:\n        /* \"#utility.yul\":10838:10904   */\n      tag_185\n      jump\t// in\n    tag_325:\n        /* \"#utility.yul\":10829:10904   */\n      swap1\n      pop\n        /* \"#utility.yul\":10927:10933   */\n      dup3\n        /* \"#utility.yul\":10920:10925   */\n      dup2\n        /* \"#utility.yul\":10913:10934   */\n      mstore\n        /* \"#utility.yul\":10965:10969   */\n      0x20\n        /* \"#utility.yul\":10958:10963   */\n      dup2\n        /* \"#utility.yul\":10954:10970   */\n      add\n        /* \"#utility.yul\":11003:11006   */\n      dup5\n        /* \"#utility.yul\":10994:11000   */\n      dup5\n        /* \"#utility.yul\":10989:10992   */\n      dup5\n        /* \"#utility.yul\":10985:11001   */\n      add\n        /* \"#utility.yul\":10982:11007   */\n      gt\n        /* \"#utility.yul\":10979:11091   */\n      iszero\n      tag_327\n      jumpi\n        /* \"#utility.yul\":11010:11089   */\n      tag_328\n      tag_182\n      jump\t// in\n    tag_328:\n        /* \"#utility.yul\":10979:11091   */\n    tag_327:\n        /* \"#utility.yul\":11100:11154   */\n      tag_329\n        /* \"#utility.yul\":11147:11153   */\n      dup5\n        /* \"#utility.yul\":11142:11145   */\n      dup3\n        /* \"#utility.yul\":11137:11140   */\n      dup6\n        /* \"#utility.yul\":11100:11154   */\n      tag_187\n      jump\t// in\n    tag_329:\n        /* \"#utility.yul\":10819:11160   */\n      pop\n        /* \"#utility.yul\":10735:11160   */\n      swap4\n      swap3\n      pop\n      pop\n      pop\n      jump\t// out\n        /* \"#utility.yul\":11180:11520   */\n    tag_189:\n        /* \"#utility.yul\":11236:11241   */\n      0x00\n        /* \"#utility.yul\":11285:11288   */\n      dup3\n        /* \"#utility.yul\":11278:11282   */\n      0x1f\n        /* \"#utility.yul\":11270:11276   */\n      dup4\n        /* \"#utility.yul\":11266:11283   */\n      add\n        /* \"#utility.yul\":11262:11289   */\n      slt\n        /* \"#utility.yul\":11252:11374   */\n      tag_331\n      jumpi\n        /* \"#utility.yul\":11293:11372   */\n      tag_332\n      tag_181\n      jump\t// in\n    tag_332:\n        /* \"#utility.yul\":11252:11374   */\n    tag_331:\n        /* \"#utility.yul\":11410:11416   */\n      dup2\n        /* \"#utility.yul\":11397:11417   */\n      calldataload\n        /* \"#utility.yul\":11435:11514   */\n      tag_333\n        /* \"#utility.yul\":11510:11513   */\n      dup5\n        /* \"#utility.yul\":11502:11508   */\n      dup3\n        /* \"#utility.yul\":11495:11499   */\n      0x20\n        /* \"#utility.yul\":11487:11493   */\n      dup7\n        /* \"#utility.yul\":11483:11500   */\n      add\n        /* \"#utility.yul\":11435:11514   */\n      tag_188\n      jump\t// in\n    tag_333:\n        /* \"#utility.yul\":11426:11514   */\n      swap2\n      pop\n        /* \"#utility.yul\":11242:11520   */\n      pop\n        /* \"#utility.yul\":11180:11520   */\n      swap3\n      swap2\n      pop\n      pop\n      jump\t// out\n        /* \"#utility.yul\":11526:12035   */\n    tag_42:\n        /* \"#utility.yul\":11595:11601   */\n      0x00\n        /* \"#utility.yul\":11644:11646   */\n      0x20\n        /* \"#utility.yul\":11632:11641   */\n      dup3\n        /* \"#utility.yul\":11623:11630   */\n      dup5\n        /* \"#utility.yul\":11619:11642   */\n      sub\n        /* \"#utility.yul\":11615:11647   */\n      slt\n        /* \"#utility.yul\":11612:11731   */\n      iszero\n      tag_335\n      jumpi\n        /* \"#utility.yul\":11650:11729   */\n      tag_336\n      tag_150\n      jump\t// in\n    tag_336:\n        /* \"#utility.yul\":11612:11731   */\n    tag_335:\n        /* \"#utility.yul\":11798:11799   */\n      0x00\n        /* \"#utility.yul\":11787:11796   */\n      dup3\n        /* \"#utility.yul\":11783:11800   */\n      add\n        /* \"#utility.yul\":11770:11801   */\n      calldataload\n        /* \"#utility.yul\":11828:11846   */\n      0xffffffffffffffff\n        /* \"#utility.yul\":11820:11826   */\n      dup2\n        /* \"#utility.yul\":11817:11847   */\n      gt\n        /* \"#utility.yul\":11814:11931   */\n      iszero\n      tag_337\n      jumpi\n        /* \"#utility.yul\":11850:11929   */\n      tag_338\n      tag_151\n      jump\t// in\n    tag_338:\n        /* \"#utility.yul\":11814:11931   */\n    tag_337:\n        /* \"#utility.yul\":11955:12018   */\n      tag_339\n        /* \"#utility.yul\":12010:12017   */\n      dup5\n        /* \"#utility.yul\":12001:12007   */\n      dup3\n        /* \"#utility.yul\":11990:11999   */\n      dup6\n        /* \"#utility.yul\":11986:12008   */\n      add\n        /* \"#utility.yul\":11955:12018   */\n      tag_189\n      jump\t// in\n    tag_339:\n        /* \"#utility.yul\":11945:12018   */\n      swap2\n      pop\n        /* \"#utility.yul\":11741:12028   */\n      pop\n        /* \"#utility.yul\":11526:12035   */\n      swap3\n      swap2\n      pop\n      pop\n      jump\t// out\n        /* \"#utility.yul\":12041:12263   */\n    tag_48:\n        /* \"#utility.yul\":12134:12138   */\n      0x00\n        /* \"#utility.yul\":12172:12174   */\n      0x20\n        /* \"#utility.yul\":12161:12170   */\n      dup3\n        /* \"#utility.yul\":12157:12175   */\n      add\n        /* \"#utility.yul\":12149:12175   */\n      swap1\n      pop\n        /* \"#utility.yul\":12185:12256   */\n      tag_341\n        /* \"#utility.yul\":12253:12254   */\n      0x00\n        /* \"#utility.yul\":12242:12251   */\n      dup4\n        /* \"#utility.yul\":12238:12255   */\n      add\n        /* \"#utility.yul\":12229:12235   */\n      dup5\n        /* \"#utility.yul\":12185:12256   */\n      tag_159\n      jump\t// in\n    tag_341:\n        /* \"#utility.yul\":12041:12263   */\n      swap3\n      swap2\n      pop\n      pop\n      jump\t// out\n        /* \"#utility.yul\":12269:12491   */\n    tag_52:\n        /* \"#utility.yul\":12362:12366   */\n      0x00\n        /* \"#utility.yul\":12400:12402   */\n      0x20\n        /* \"#utility.yul\":12389:12398   */\n      dup3\n        /* \"#utility.yul\":12385:12403   */\n      add\n        /* \"#utility.yul\":12377:12403   */\n      swap1\n      pop\n        /* \"#utility.yul\":12413:12484   */\n      tag_343\n        /* \"#utility.yul\":12481:12482   */\n      0x00\n        /* \"#utility.yul\":12470:12479   */\n      dup4\n        /* \"#utility.yul\":12466:12483   */\n      add\n        /* \"#utility.yul\":12457:12463   */\n      dup5\n        /* \"#utility.yul\":12413:12484   */\n      tag_160\n      jump\t// in\n    tag_343:\n        /* \"#utility.yul\":12269:12491   */\n      swap3\n      swap2\n      pop\n      pop\n      jump\t// out\n        /* \"#utility.yul\":12497:12826   */\n    tag_55:\n        /* \"#utility.yul\":12556:12562   */\n      0x00\n        /* \"#utility.yul\":12605:12607   */\n      0x20\n        /* \"#utility.yul\":12593:12602   */\n      dup3\n        /* \"#utility.yul\":12584:12591   */\n      dup5\n        /* \"#utility.yul\":12580:12603   */\n      sub\n        /* \"#utility.yul\":12576:12608   */\n      slt\n        /* \"#utility.yul\":12573:12692   */\n      iszero\n      tag_345\n      jumpi\n        /* \"#utility.yul\":12611:12690   */\n      tag_346\n      tag_150\n      jump\t// in\n    tag_346:\n        /* \"#utility.yul\":12573:12692   */\n    tag_345:\n        /* \"#utility.yul\":12731:12732   */\n      0x00\n        /* \"#utility.yul\":12756:12809   */\n      tag_347\n        /* \"#utility.yul\":12801:12808   */\n      dup5\n        /* \"#utility.yul\":12792:12798   */\n      dup3\n        /* \"#utility.yul\":12781:12790   */\n      dup6\n        /* \"#utility.yul\":12777:12799   */\n      add\n        /* \"#utility.yul\":12756:12809   */\n      tag_158\n      jump\t// in\n    tag_347:\n        /* \"#utility.yul\":12746:12809   */\n      swap2\n      pop\n        /* \"#utility.yul\":12702:12819   */\n      pop\n        /* \"#utility.yul\":12497:12826   */\n      swap3\n      swap2\n      pop\n      pop\n      jump\t// out\n        /* \"#utility.yul\":12884:14013   */\n    tag_190:\n        /* \"#utility.yul\":12995:12998   */\n      0x00\n        /* \"#utility.yul\":13031:13035   */\n      0xa0\n        /* \"#utility.yul\":13026:13029   */\n      dup4\n        /* \"#utility.yul\":13022:13036   */\n      add\n        /* \"#utility.yul\":13116:13120   */\n      0x00\n        /* \"#utility.yul\":13109:13114   */\n      dup4\n        /* \"#utility.yul\":13105:13121   */\n      add\n        /* \"#utility.yul\":13099:13122   */\n      mload\n        /* \"#utility.yul\":13135:13198   */\n      tag_349\n        /* \"#utility.yul\":13192:13196   */\n      0x00\n        /* \"#utility.yul\":13187:13190   */\n      dup7\n        /* \"#utility.yul\":13183:13197   */\n      add\n        /* \"#utility.yul\":13169:13181   */\n      dup3\n        /* \"#utility.yul\":13135:13198   */\n      tag_169\n      jump\t// in\n    tag_349:\n        /* \"#utility.yul\":13046:13208   */\n      pop\n        /* \"#utility.yul\":13292:13296   */\n      0x20\n        /* \"#utility.yul\":13285:13290   */\n      dup4\n        /* \"#utility.yul\":13281:13297   */\n      add\n        /* \"#utility.yul\":13275:13298   */\n      mload\n        /* \"#utility.yul\":13311:13374   */\n      tag_350\n        /* \"#utility.yul\":13368:13372   */\n      0x20\n        /* \"#utility.yul\":13363:13366   */\n      dup7\n        /* \"#utility.yul\":13359:13373   */\n      add\n        /* \"#utility.yul\":13345:13357   */\n      dup3\n        /* \"#utility.yul\":13311:13374   */\n      tag_170\n      jump\t// in\n    tag_350:\n        /* \"#utility.yul\":13218:13384   */\n      pop\n        /* \"#utility.yul\":13469:13473   */\n      0x40\n        /* \"#utility.yul\":13462:13467   */\n      dup4\n        /* \"#utility.yul\":13458:13474   */\n      add\n        /* \"#utility.yul\":13452:13475   */\n      mload\n        /* \"#utility.yul\":13522:13525   */\n      dup5\n        /* \"#utility.yul\":13516:13520   */\n      dup3\n        /* \"#utility.yul\":13512:13526   */\n      sub\n        /* \"#utility.yul\":13505:13509   */\n      0x40\n        /* \"#utility.yul\":13500:13503   */\n      dup7\n        /* \"#utility.yul\":13496:13510   */\n      add\n        /* \"#utility.yul\":13489:13527   */\n      mstore\n        /* \"#utility.yul\":13548:13621   */\n      tag_351\n        /* \"#utility.yul\":13616:13620   */\n      dup3\n        /* \"#utility.yul\":13602:13614   */\n      dup3\n        /* \"#utility.yul\":13548:13621   */\n      tag_172\n      jump\t// in\n    tag_351:\n        /* \"#utility.yul\":13540:13621   */\n      swap2\n      pop\n        /* \"#utility.yul\":13394:13632   */\n      pop\n        /* \"#utility.yul\":13719:13723   */\n      0x60\n        /* \"#utility.yul\":13712:13717   */\n      dup4\n        /* \"#utility.yul\":13708:13724   */\n      add\n        /* \"#utility.yul\":13702:13725   */\n      mload\n        /* \"#utility.yul\":13738:13801   */\n      tag_352\n        /* \"#utility.yul\":13795:13799   */\n      0x60\n        /* \"#utility.yul\":13790:13793   */\n      dup7\n        /* \"#utility.yul\":13786:13800   */\n      add\n        /* \"#utility.yul\":13772:13784   */\n      dup3\n        /* \"#utility.yul\":13738:13801   */\n      tag_169\n      jump\t// in\n    tag_352:\n        /* \"#utility.yul\":13642:13811   */\n      pop\n        /* \"#utility.yul\":13894:13898   */\n      0x80\n        /* \"#utility.yul\":13887:13892   */\n      dup4\n        /* \"#utility.yul\":13883:13899   */\n      add\n        /* \"#utility.yul\":13877:13900   */\n      mload\n        /* \"#utility.yul\":13913:13976   */\n      tag_353\n        /* \"#utility.yul\":13970:13974   */\n      0x80\n        /* \"#utility.yul\":13965:13968   */\n      dup7\n        /* \"#utility.yul\":13961:13975   */\n      add\n        /* \"#utility.yul\":13947:13959   */\n      dup3\n        /* \"#utility.yul\":13913:13976   */\n      tag_169\n      jump\t// in\n    tag_353:\n        /* \"#utility.yul\":13821:13986   */\n      pop\n        /* \"#utility.yul\":14003:14007   */\n      dup1\n        /* \"#utility.yul\":13996:14007   */\n      swap2\n      pop\n        /* \"#utility.yul\":13000:14013   */\n      pop\n        /* \"#utility.yul\":12884:14013   */\n      swap3\n      swap2\n      pop\n      pop\n      jump\t// out\n        /* \"#utility.yul\":14019:14376   */\n    tag_58:\n        /* \"#utility.yul\":14154:14158   */\n      0x00\n        /* \"#utility.yul\":14192:14194   */\n      0x20\n        /* \"#utility.yul\":14181:14190   */\n      dup3\n        /* \"#utility.yul\":14177:14195   */\n      add\n        /* \"#utility.yul\":14169:14195   */\n      swap1\n      pop\n        /* \"#utility.yul\":14241:14250   */\n      dup2\n        /* \"#utility.yul\":14235:14239   */\n      dup2\n        /* \"#utility.yul\":14231:14251   */\n      sub\n        /* \"#utility.yul\":14227:14228   */\n      0x00\n        /* \"#utility.yul\":14216:14225   */\n      dup4\n        /* \"#utility.yul\":14212:14229   */\n      add\n        /* \"#utility.yul\":14205:14252   */\n      mstore\n        /* \"#utility.yul\":14269:14369   */\n      tag_355\n        /* \"#utility.yul\":14364:14368   */\n      dup2\n        /* \"#utility.yul\":14355:14361   */\n      dup5\n        /* \"#utility.yul\":14269:14369   */\n      tag_190\n      jump\t// in\n    tag_355:\n        /* \"#utility.yul\":14261:14369   */\n      swap1\n      pop\n        /* \"#utility.yul\":14019:14376   */\n      swap3\n      swap2\n      pop\n      pop\n      jump\t// out\n        /* \"#utility.yul\":14382:14562   */\n    tag_191:\n        /* \"#utility.yul\":14430:14507   */\n      0x4e487b7100000000000000000000000000000000000000000000000000000000\n        /* \"#utility.yul\":14427:14428   */\n      0x00\n        /* \"#utility.yul\":14420:14508   */\n      mstore\n        /* \"#utility.yul\":14527:14531   */\n      0x22\n        /* \"#utility.yul\":14524:14525   */\n      0x04\n        /* \"#utility.yul\":14517:14532   */\n      mstore\n        /* \"#utility.yul\":14551:14555   */\n      0x24\n        /* \"#utility.yul\":14548:14549   */\n      0x00\n        /* \"#utility.yul\":14541:14556   */\n      revert\n        /* \"#utility.yul\":14568:14888   */\n    tag_62:\n        /* \"#utility.yul\":14612:14618   */\n      0x00\n        /* \"#utility.yul\":14649:14650   */\n      0x02\n        /* \"#utility.yul\":14643:14647   */\n      dup3\n        /* \"#utility.yul\":14639:14651   */\n      div\n        /* \"#utility.yul\":14629:14651   */\n      swap1\n      pop\n        /* \"#utility.yul\":14696:14697   */\n      0x01\n        /* \"#utility.yul\":14690:14694   */\n      dup3\n        /* \"#utility.yul\":14686:14698   */\n      and\n        /* \"#utility.yul\":14717:14735   */\n      dup1\n        /* \"#utility.yul\":14707:14788   */\n      tag_358\n      jumpi\n        /* \"#utility.yul\":14773:14777   */\n      0x7f\n        /* \"#utility.yul\":14765:14771   */\n      dup3\n        /* \"#utility.yul\":14761:14778   */\n      and\n        /* \"#utility.yul\":14751:14778   */\n      swap2\n      pop\n        /* \"#utility.yul\":14707:14788   */\n    tag_358:\n        /* \"#utility.yul\":14835:14837   */\n      0x20\n        /* \"#utility.yul\":14827:14833   */\n      dup3\n        /* \"#utility.yul\":14824:14838   */\n      lt\n        /* \"#utility.yul\":14804:14822   */\n      dup2\n        /* \"#utility.yul\":14801:14839   */\n      sub\n        /* \"#utility.yul\":14798:14882   */\n      tag_359\n      jumpi\n        /* \"#utility.yul\":14854:14872   */\n      tag_360\n      tag_191\n      jump\t// in\n    tag_360:\n        /* \"#utility.yul\":14798:14882   */\n    tag_359:\n        /* \"#utility.yul\":14619:14888   */\n      pop\n        /* \"#utility.yul\":14568:14888   */\n      swap2\n      swap1\n      pop\n      jump\t// out\n        /* \"#utility.yul\":14894:15074   */\n    tag_79:\n        /* \"#utility.yul\":14942:15019   */\n      0x4e487b7100000000000000000000000000000000000000000000000000000000\n        /* \"#utility.yul\":14939:14940   */\n      0x00\n        /* \"#utility.yul\":14932:15020   */\n      mstore\n        /* \"#utility.yul\":15039:15043   */\n      0x32\n        /* \"#utility.yul\":15036:15037   */\n      0x04\n        /* \"#utility.yul\":15029:15044   */\n      mstore\n        /* \"#utility.yul\":15063:15067   */\n      0x24\n        /* \"#utility.yul\":15060:15061   */\n      0x00\n        /* \"#utility.yul\":15053:15068   */\n      revert\n        /* \"#utility.yul\":15080:15250   */\n    tag_192:\n        /* \"#utility.yul\":15220:15242   */\n      0x545745455420444f4553204e4f54204558495354000000000000000000000000\n        /* \"#utility.yul\":15216:15217   */\n      0x00\n        /* \"#utility.yul\":15208:15214   */\n      dup3\n        /* \"#utility.yul\":15204:15218   */\n      add\n        /* \"#utility.yul\":15197:15243   */\n      mstore\n        /* \"#utility.yul\":15080:15250   */\n      pop\n      jump\t// out\n        /* \"#utility.yul\":15256:15622   */\n    tag_193:\n        /* \"#utility.yul\":15398:15401   */\n      0x00\n        /* \"#utility.yul\":15419:15486   */\n      tag_364\n        /* \"#utility.yul\":15483:15485   */\n      0x14\n        /* \"#utility.yul\":15478:15481   */\n      dup4\n        /* \"#utility.yul\":15419:15486   */\n      tag_162\n      jump\t// in\n    tag_364:\n        /* \"#utility.yul\":15412:15486   */\n      swap2\n      pop\n        /* \"#utility.yul\":15495:15588   */\n      tag_365\n        /* \"#utility.yul\":15584:15587   */\n      dup3\n        /* \"#utility.yul\":15495:15588   */\n      tag_192\n      jump\t// in\n    tag_365:\n        /* \"#utility.yul\":15613:15615   */\n      0x20\n        /* \"#utility.yul\":15608:15611   */\n      dup3\n        /* \"#utility.yul\":15604:15616   */\n      add\n        /* \"#utility.yul\":15597:15616   */\n      swap1\n      pop\n        /* \"#utility.yul\":15256:15622   */\n      swap2\n      swap1\n      pop\n      jump\t// out\n        /* \"#utility.yul\":15628:16047   */\n    tag_83:\n        /* \"#utility.yul\":15794:15798   */\n      0x00\n        /* \"#utility.yul\":15832:15834   */\n      0x20\n        /* \"#utility.yul\":15821:15830   */\n      dup3\n        /* \"#utility.yul\":15817:15835   */\n      add\n        /* \"#utility.yul\":15809:15835   */\n      swap1\n      pop\n        /* \"#utility.yul\":15881:15890   */\n      dup2\n        /* \"#utility.yul\":15875:15879   */\n      dup2\n        /* \"#utility.yul\":15871:15891   */\n      sub\n        /* \"#utility.yul\":15867:15868   */\n      0x00\n        /* \"#utility.yul\":15856:15865   */\n      dup4\n        /* \"#utility.yul\":15852:15869   */\n      add\n        /* \"#utility.yul\":15845:15892   */\n      mstore\n        /* \"#utility.yul\":15909:16040   */\n      tag_367\n        /* \"#utility.yul\":16035:16039   */\n      dup2\n        /* \"#utility.yul\":15909:16040   */\n      tag_193\n      jump\t// in\n    tag_367:\n        /* \"#utility.yul\":15901:16040   */\n      swap1\n      pop\n        /* \"#utility.yul\":15628:16047   */\n      swap2\n      swap1\n      pop\n      jump\t// out\n        /* \"#utility.yul\":16053:16221   */\n    tag_194:\n        /* \"#utility.yul\":16193:16213   */\n      0x545745455420484153204e4f204c494b45530000000000000000000000000000\n        /* \"#utility.yul\":16189:16190   */\n      0x00\n        /* \"#utility.yul\":16181:16187   */\n      dup3\n        /* \"#utility.yul\":16177:16191   */\n      add\n        /* \"#utility.yul\":16170:16214   */\n      mstore\n        /* \"#utility.yul\":16053:16221   */\n      pop\n      jump\t// out\n        /* \"#utility.yul\":16227:16593   */\n    tag_195:\n        /* \"#utility.yul\":16369:16372   */\n      0x00\n        /* \"#utility.yul\":16390:16457   */\n      tag_370\n        /* \"#utility.yul\":16454:16456   */\n      0x12\n        /* \"#utility.yul\":16449:16452   */\n      dup4\n        /* \"#utility.yul\":16390:16457   */\n      tag_162\n      jump\t// in\n    tag_370:\n        /* \"#utility.yul\":16383:16457   */\n      swap2\n      pop\n        /* \"#utility.yul\":16466:16559   */\n      tag_371\n        /* \"#utility.yul\":16555:16558   */\n      dup3\n        /* \"#utility.yul\":16466:16559   */\n      tag_194\n      jump\t// in\n    tag_371:\n        /* \"#utility.yul\":16584:16586   */\n      0x20\n        /* \"#utility.yul\":16579:16582   */\n      dup3\n        /* \"#utility.yul\":16575:16587   */\n      add\n        /* \"#utility.yul\":16568:16587   */\n      swap1\n      pop\n        /* \"#utility.yul\":16227:16593   */\n      swap2\n      swap1\n      pop\n      jump\t// out\n        /* \"#utility.yul\":16599:17018   */\n    tag_89:\n        /* \"#utility.yul\":16765:16769   */\n      0x00\n        /* \"#utility.yul\":16803:16805   */\n      0x20\n        /* \"#utility.yul\":16792:16801   */\n      dup3\n        /* \"#utility.yul\":16788:16806   */\n      add\n        /* \"#utility.yul\":16780:16806   */\n      swap1\n      pop\n        /* \"#utility.yul\":16852:16861   */\n      dup2\n        /* \"#utility.yul\":16846:16850   */\n      dup2\n        /* \"#utility.yul\":16842:16862   */\n      sub\n        /* \"#utility.yul\":16838:16839   */\n      0x00\n        /* \"#utility.yul\":16827:16836   */\n      dup4\n        /* \"#utility.yul\":16823:16840   */\n      add\n        /* \"#utility.yul\":16816:16863   */\n      mstore\n        /* \"#utility.yul\":16880:17011   */\n      tag_373\n        /* \"#utility.yul\":17006:17010   */\n      dup2\n        /* \"#utility.yul\":16880:17011   */\n      tag_195\n      jump\t// in\n    tag_373:\n        /* \"#utility.yul\":16872:17011   */\n      swap1\n      pop\n        /* \"#utility.yul\":16599:17018   */\n      swap2\n      swap1\n      pop\n      jump\t// out\n        /* \"#utility.yul\":17024:17204   */\n    tag_196:\n        /* \"#utility.yul\":17072:17149   */\n      0x4e487b7100000000000000000000000000000000000000000000000000000000\n        /* \"#utility.yul\":17069:17070   */\n      0x00\n        /* \"#utility.yul\":17062:17150   */\n      mstore\n        /* \"#utility.yul\":17169:17173   */\n      0x11\n        /* \"#utility.yul\":17166:17167   */\n      0x04\n        /* \"#utility.yul\":17159:17174   */\n      mstore\n        /* \"#utility.yul\":17193:17197   */\n      0x24\n        /* \"#utility.yul\":17190:17191   */\n      0x00\n        /* \"#utility.yul\":17183:17198   */\n      revert\n        /* \"#utility.yul\":17210:17381   */\n    tag_94:\n        /* \"#utility.yul\":17249:17252   */\n      0x00\n        /* \"#utility.yul\":17272:17296   */\n      tag_376\n        /* \"#utility.yul\":17290:17295   */\n      dup3\n        /* \"#utility.yul\":17272:17296   */\n      tag_156\n      jump\t// in\n    tag_376:\n        /* \"#utility.yul\":17263:17296   */\n      swap2\n      pop\n        /* \"#utility.yul\":17318:17322   */\n      0x00\n        /* \"#utility.yul\":17311:17316   */\n      dup3\n        /* \"#utility.yul\":17308:17323   */\n      sub\n        /* \"#utility.yul\":17305:17346   */\n      tag_377\n      jumpi\n        /* \"#utility.yul\":17326:17344   */\n      tag_378\n      tag_196\n      jump\t// in\n    tag_378:\n        /* \"#utility.yul\":17305:17346   */\n    tag_377:\n        /* \"#utility.yul\":17373:17374   */\n      0x01\n        /* \"#utility.yul\":17366:17371   */\n      dup3\n        /* \"#utility.yul\":17362:17375   */\n      sub\n        /* \"#utility.yul\":17355:17375   */\n      swap1\n      pop\n        /* \"#utility.yul\":17210:17381   */\n      swap2\n      swap1\n      pop\n      jump\t// out\n        /* \"#utility.yul\":17387:17940   */\n    tag_99:\n        /* \"#utility.yul\":17564:17568   */\n      0x00\n        /* \"#utility.yul\":17602:17605   */\n      0x80\n        /* \"#utility.yul\":17591:17600   */\n      dup3\n        /* \"#utility.yul\":17587:17606   */\n      add\n        /* \"#utility.yul\":17579:17606   */\n      swap1\n      pop\n        /* \"#utility.yul\":17616:17687   */\n      tag_380\n        /* \"#utility.yul\":17684:17685   */\n      0x00\n        /* \"#utility.yul\":17673:17682   */\n      dup4\n        /* \"#utility.yul\":17669:17686   */\n      add\n        /* \"#utility.yul\":17660:17666   */\n      dup8\n        /* \"#utility.yul\":17616:17687   */\n      tag_160\n      jump\t// in\n    tag_380:\n        /* \"#utility.yul\":17697:17769   */\n      tag_381\n        /* \"#utility.yul\":17765:17767   */\n      0x20\n        /* \"#utility.yul\":17754:17763   */\n      dup4\n        /* \"#utility.yul\":17750:17768   */\n      add\n        /* \"#utility.yul\":17741:17747   */\n      dup7\n        /* \"#utility.yul\":17697:17769   */\n      tag_160\n      jump\t// in\n    tag_381:\n        /* \"#utility.yul\":17779:17851   */\n      tag_382\n        /* \"#utility.yul\":17847:17849   */\n      0x40\n        /* \"#utility.yul\":17836:17845   */\n      dup4\n        /* \"#utility.yul\":17832:17850   */\n      add\n        /* \"#utility.yul\":17823:17829   */\n      dup6\n        /* \"#utility.yul\":17779:17851   */\n      tag_159\n      jump\t// in\n    tag_382:\n        /* \"#utility.yul\":17861:17933   */\n      tag_383\n        /* \"#utility.yul\":17929:17931   */\n      0x60\n        /* \"#utility.yul\":17918:17927   */\n      dup4\n        /* \"#utility.yul\":17914:17932   */\n      add\n        /* \"#utility.yul\":17905:17911   */\n      dup5\n        /* \"#utility.yul\":17861:17933   */\n      tag_159\n      jump\t// in\n    tag_383:\n        /* \"#utility.yul\":17387:17940   */\n      swap6\n      swap5\n      pop\n      pop\n      pop\n      pop\n      pop\n      jump\t// out\n        /* \"#utility.yul\":17946:18118   */\n    tag_197:\n        /* \"#utility.yul\":18086:18110   */\n      0x594f5520415245204e4f5420544845204f574e45522100000000000000000000\n        /* \"#utility.yul\":18082:18083   */\n      0x00\n        /* \"#utility.yul\":18074:18080   */\n      dup3\n        /* \"#utility.yul\":18070:18084   */\n      add\n        /* \"#utility.yul\":18063:18111   */\n      mstore\n        /* \"#utility.yul\":17946:18118   */\n      pop\n      jump\t// out\n        /* \"#utility.yul\":18124:18490   */\n    tag_198:\n        /* \"#utility.yul\":18266:18269   */\n      0x00\n        /* \"#utility.yul\":18287:18354   */\n      tag_386\n        /* \"#utility.yul\":18351:18353   */\n      0x16\n        /* \"#utility.yul\":18346:18349   */\n      dup4\n        /* \"#utility.yul\":18287:18354   */\n      tag_162\n      jump\t// in\n    tag_386:\n        /* \"#utility.yul\":18280:18354   */\n      swap2\n      pop\n        /* \"#utility.yul\":18363:18456   */\n      tag_387\n        /* \"#utility.yul\":18452:18455   */\n      dup3\n        /* \"#utility.yul\":18363:18456   */\n      tag_197\n      jump\t// in\n    tag_387:\n        /* \"#utility.yul\":18481:18483   */\n      0x20\n        /* \"#utility.yul\":18476:18479   */\n      dup3\n        /* \"#utility.yul\":18472:18484   */\n      add\n        /* \"#utility.yul\":18465:18484   */\n      swap1\n      pop\n        /* \"#utility.yul\":18124:18490   */\n      swap2\n      swap1\n      pop\n      jump\t// out\n        /* \"#utility.yul\":18496:18915   */\n    tag_103:\n        /* \"#utility.yul\":18662:18666   */\n      0x00\n        /* \"#utility.yul\":18700:18702   */\n      0x20\n        /* \"#utility.yul\":18689:18698   */\n      dup3\n        /* \"#utility.yul\":18685:18703   */\n      add\n        /* \"#utility.yul\":18677:18703   */\n      swap1\n      pop\n        /* \"#utility.yul\":18749:18758   */\n      dup2\n        /* \"#utility.yul\":18743:18747   */\n      dup2\n        /* \"#utility.yul\":18739:18759   */\n      sub\n        /* \"#utility.yul\":18735:18736   */\n      0x00\n        /* \"#utility.yul\":18724:18733   */\n      dup4\n        /* \"#utility.yul\":18720:18737   */\n      add\n        /* \"#utility.yul\":18713:18760   */\n      mstore\n        /* \"#utility.yul\":18777:18908   */\n      tag_389\n        /* \"#utility.yul\":18903:18907   */\n      dup2\n        /* \"#utility.yul\":18777:18908   */\n      tag_198\n      jump\t// in\n    tag_389:\n        /* \"#utility.yul\":18769:18908   */\n      swap1\n      pop\n        /* \"#utility.yul\":18496:18915   */\n      swap2\n      swap1\n      pop\n      jump\t// out\n        /* \"#utility.yul\":18921:19154   */\n    tag_115:\n        /* \"#utility.yul\":18960:18963   */\n      0x00\n        /* \"#utility.yul\":18983:19007   */\n      tag_391\n        /* \"#utility.yul\":19001:19006   */\n      dup3\n        /* \"#utility.yul\":18983:19007   */\n      tag_156\n      jump\t// in\n    tag_391:\n        /* \"#utility.yul\":18974:19007   */\n      swap2\n      pop\n        /* \"#utility.yul\":19029:19095   */\n      0xffffffffffffffffffffffffffffffffffffffffffffffffffffffffffffffff\n        /* \"#utility.yul\":19022:19027   */\n      dup3\n        /* \"#utility.yul\":19019:19096   */\n      sub\n        /* \"#utility.yul\":19016:19119   */\n      tag_392\n      jumpi\n        /* \"#utility.yul\":19099:19117   */\n      tag_393\n      tag_196\n      jump\t// in\n    tag_393:\n        /* \"#utility.yul\":19016:19119   */\n    tag_392:\n        /* \"#utility.yul\":19146:19147   */\n      0x01\n        /* \"#utility.yul\":19139:19144   */\n      dup3\n        /* \"#utility.yul\":19135:19148   */\n      add\n        /* \"#utility.yul\":19128:19148   */\n      swap1\n      pop\n        /* \"#utility.yul\":18921:19154   */\n      swap2\n      swap1\n      pop\n      jump\t// out\n        /* \"#utility.yul\":19160:19332   */\n    tag_199:\n        /* \"#utility.yul\":19300:19324   */\n      0x547765657420697320746f6f206c6f6e672062726f2100000000000000000000\n        /* \"#utility.yul\":19296:19297   */\n      0x00\n        /* \"#utility.yul\":19288:19294   */\n      dup3\n        /* \"#utility.yul\":19284:19298   */\n      add\n        /* \"#utility.yul\":19277:19325   */\n      mstore\n        /* \"#utility.yul\":19160:19332   */\n      pop\n      jump\t// out\n        /* \"#utility.yul\":19338:19704   */\n    tag_200:\n        /* \"#utility.yul\":19480:19483   */\n      0x00\n        /* \"#utility.yul\":19501:19568   */\n      tag_396\n        /* \"#utility.yul\":19565:19567   */\n      0x16\n        /* \"#utility.yul\":19560:19563   */\n      dup4\n        /* \"#utility.yul\":19501:19568   */\n      tag_162\n      jump\t// in\n    tag_396:\n        /* \"#utility.yul\":19494:19568   */\n      swap2\n      pop\n        /* \"#utility.yul\":19577:19670   */\n      tag_397\n        /* \"#utility.yul\":19666:19669   */\n      dup3\n        /* \"#utility.yul\":19577:19670   */\n      tag_199\n      jump\t// in\n    tag_397:\n        /* \"#utility.yul\":19695:19697   */\n      0x20\n        /* \"#utility.yul\":19690:19693   */\n      dup3\n        /* \"#utility.yul\":19686:19698   */\n      add\n        /* \"#utility.yul\":19679:19698   */\n      swap1\n      pop\n        /* \"#utility.yul\":19338:19704   */\n      swap2\n      swap1\n      pop\n      jump\t// out\n        /* \"#utility.yul\":19710:20129   */\n    tag_123:\n        /* \"#utility.yul\":19876:19880   */\n      0x00\n        /* \"#utility.yul\":19914:19916   */\n      0x20\n        /* \"#utility.yul\":19903:19912   */\n      dup3\n        /* \"#utility.yul\":19899:19917   */\n      add\n        /* \"#utility.yul\":19891:19917   */\n      swap1\n      pop\n        /* \"#utility.yul\":19963:19972   */\n      dup2\n        /* \"#utility.yul\":19957:19961   */\n      dup2\n        /* \"#utility.yul\":19953:19973   */\n      sub\n        /* \"#utility.yul\":19949:19950   */\n      0x00\n        /* \"#utility.yul\":19938:19947   */\n      dup4\n        /* \"#utility.yul\":19934:19951   */\n      add\n        /* \"#utility.yul\":19927:19974   */\n      mstore\n        /* \"#utility.yul\":19991:20122   */\n      tag_399\n        /* \"#utility.yul\":20117:20121   */\n      dup2\n        /* \"#utility.yul\":19991:20122   */\n      tag_200\n      jump\t// in\n    tag_399:\n        /* \"#utility.yul\":19983:20122   */\n      swap1\n      pop\n        /* \"#utility.yul\":19710:20129   */\n      swap2\n      swap1\n      pop\n      jump\t// out\n        /* \"#utility.yul\":20135:20276   */\n    tag_201:\n        /* \"#utility.yul\":20184:20188   */\n      0x00\n        /* \"#utility.yul\":20207:20210   */\n      dup2\n        /* \"#utility.yul\":20199:20210   */\n      swap1\n      pop\n        /* \"#utility.yul\":20230:20233   */\n      dup2\n        /* \"#utility.yul\":20227:20228   */\n      0x00\n        /* \"#utility.yul\":20220:20234   */\n      mstore\n        /* \"#utility.yul\":20264:20268   */\n      0x20\n        /* \"#utility.yul\":20261:20262   */\n      0x00\n        /* \"#utility.yul\":20251:20269   */\n      keccak256\n        /* \"#utility.yul\":20243:20269   */\n      swap1\n      pop\n        /* \"#utility.yul\":20135:20276   */\n      swap2\n      swap1\n      pop\n      jump\t// out\n        /* \"#utility.yul\":20282:20375   */\n    tag_202:\n        /* \"#utility.yul\":20319:20325   */\n      0x00\n        /* \"#utility.yul\":20366:20368   */\n      0x20\n        /* \"#utility.yul\":20361:20363   */\n      0x1f\n        /* \"#utility.yul\":20354:20359   */\n      dup4\n        /* \"#utility.yul\":20350:20364   */\n      add\n        /* \"#utility.yul\":20346:20369   */\n      div\n        /* \"#utility.yul\":20336:20369   */\n      swap1\n      pop\n        /* \"#utility.yul\":20282:20375   */\n      swap2\n      swap1\n      pop\n      jump\t// out\n        /* \"#utility.yul\":20381:20488   */\n    tag_203:\n        /* \"#utility.yul\":20425:20433   */\n      0x00\n        /* \"#utility.yul\":20475:20480   */\n      dup3\n        /* \"#utility.yul\":20469:20473   */\n      dup3\n        /* \"#utility.yul\":20465:20481   */\n      shl\n        /* \"#utility.yul\":20444:20481   */\n      swap1\n      pop\n        /* \"#utility.yul\":20381:20488   */\n      swap3\n      swap2\n      pop\n      pop\n      jump\t// out\n        /* \"#utility.yul\":20494:20887   */\n    tag_204:\n        /* \"#utility.yul\":20563:20569   */\n      0x00\n        /* \"#utility.yul\":20613:20614   */\n      0x08\n        /* \"#utility.yul\":20601:20611   */\n      dup4\n        /* \"#utility.yul\":20597:20615   */\n      mul\n        /* \"#utility.yul\":20636:20733   */\n      tag_404\n        /* \"#utility.yul\":20666:20732   */\n      0xffffffffffffffffffffffffffffffffffffffffffffffffffffffffffffffff\n        /* \"#utility.yul\":20655:20664   */\n      dup3\n        /* \"#utility.yul\":20636:20733   */\n      tag_203\n      jump\t// in\n    tag_404:\n        /* \"#utility.yul\":20754:20793   */\n      tag_405\n        /* \"#utility.yul\":20784:20792   */\n      dup7\n        /* \"#utility.yul\":20773:20782   */\n      dup4\n        /* \"#utility.yul\":20754:20793   */\n      tag_203\n      jump\t// in\n    tag_405:\n        /* \"#utility.yul\":20742:20793   */\n      swap6\n      pop\n        /* \"#utility.yul\":20826:20830   */\n      dup1\n        /* \"#utility.yul\":20822:20831   */\n      not\n        /* \"#utility.yul\":20815:20820   */\n      dup5\n        /* \"#utility.yul\":20811:20832   */\n      and\n        /* \"#utility.yul\":20802:20832   */\n      swap4\n      pop\n        /* \"#utility.yul\":20875:20879   */\n      dup1\n        /* \"#utility.yul\":20865:20873   */\n      dup7\n        /* \"#utility.yul\":20861:20880   */\n      and\n        /* \"#utility.yul\":20854:20859   */\n      dup5\n        /* \"#utility.yul\":20851:20881   */\n      or\n        /* \"#utility.yul\":20841:20881   */\n      swap3\n      pop\n        /* \"#utility.yul\":20570:20887   */\n      pop\n      pop\n        /* \"#utility.yul\":20494:20887   */\n      swap4\n      swap3\n      pop\n      pop\n      pop\n      jump\t// out\n        /* \"#utility.yul\":20893:20953   */\n    tag_205:\n        /* \"#utility.yul\":20921:20924   */\n      0x00\n        /* \"#utility.yul\":20942:20947   */\n      dup2\n        /* \"#utility.yul\":20935:20947   */\n      swap1\n      pop\n        /* \"#utility.yul\":20893:20953   */\n      swap2\n      swap1\n      pop\n      jump\t// out\n        /* \"#utility.yul\":20959:21101   */\n    tag_206:\n        /* \"#utility.yul\":21009:21018   */\n      0x00\n        /* \"#utility.yul\":21042:21095   */\n      tag_408\n        /* \"#utility.yul\":21060:21094   */\n      tag_409\n        /* \"#utility.yul\":21069:21093   */\n      tag_410\n        /* \"#utility.yul\":21087:21092   */\n      dup5\n        /* \"#utility.yul\":21069:21093   */\n      tag_156\n      jump\t// in\n    tag_410:\n        /* \"#utility.yul\":21060:21094   */\n      tag_205\n      jump\t// in\n    tag_409:\n        /* \"#utility.yul\":21042:21095   */\n      tag_156\n      jump\t// in\n    tag_408:\n        /* \"#utility.yul\":21029:21095   */\n      swap1\n      pop\n        /* \"#utility.yul\":20959:21101   */\n      swap2\n      swap1\n      pop\n      jump\t// out\n        /* \"#utility.yul\":21107:21182   */\n    tag_207:\n        /* \"#utility.yul\":21150:21153   */\n      0x00\n        /* \"#utility.yul\":21171:21176   */\n      dup2\n        /* \"#utility.yul\":21164:21176   */\n      swap1\n      pop\n        /* \"#utility.yul\":21107:21182   */\n      swap2\n      swap1\n      pop\n      jump\t// out\n        /* \"#utility.yul\":21188:21457   */\n    tag_208:\n        /* \"#utility.yul\":21298:21337   */\n      tag_413\n        /* \"#utility.yul\":21329:21336   */\n      dup4\n        /* \"#utility.yul\":21298:21337   */\n      tag_206\n      jump\t// in\n    tag_413:\n        /* \"#utility.yul\":21359:21450   */\n      tag_414\n        /* \"#utility.yul\":21408:21449   */\n      tag_415\n        /* \"#utility.yul\":21432:21448   */\n      dup3\n        /* \"#utility.yul\":21408:21449   */\n      tag_207\n      jump\t// in\n    tag_415:\n        /* \"#utility.yul\":21400:21406   */\n      dup5\n        /* \"#utility.yul\":21393:21397   */\n      dup5\n        /* \"#utility.yul\":21387:21398   */\n      sload\n        /* \"#utility.yul\":21359:21450   */\n      tag_204\n      jump\t// in\n    tag_414:\n        /* \"#utility.yul\":21353:21357   */\n      dup3\n        /* \"#utility.yul\":21346:21451   */\n      sstore\n        /* \"#utility.yul\":21264:21457   */\n      pop\n        /* \"#utility.yul\":21188:21457   */\n      pop\n      pop\n      pop\n      jump\t// out\n        /* \"#utility.yul\":21463:21536   */\n    tag_209:\n        /* \"#utility.yul\":21508:21511   */\n      0x00\n        /* \"#utility.yul\":21529:21530   */\n      0x00\n        /* \"#utility.yul\":21522:21530   */\n      swap1\n      pop\n        /* \"#utility.yul\":21463:21536   */\n      swap1\n      jump\t// out\n        /* \"#utility.yul\":21542:21731   */\n    tag_210:\n        /* \"#utility.yul\":21619:21651   */\n      tag_418\n      tag_209\n      jump\t// in\n    tag_418:\n        /* \"#utility.yul\":21660:21725   */\n      tag_419\n        /* \"#utility.yul\":21718:21724   */\n      dup2\n        /* \"#utility.yul\":21710:21716   */\n      dup5\n        /* \"#utility.yul\":21704:21708   */\n      dup5\n        /* \"#utility.yul\":21660:21725   */\n      tag_208\n      jump\t// in\n    tag_419:\n        /* \"#utility.yul\":21595:21731   */\n      pop\n        /* \"#utility.yul\":21542:21731   */\n      pop\n      pop\n      jump\t// out\n        /* \"#utility.yul\":21737:21923   */\n    tag_211:\n        /* \"#utility.yul\":21797:21917   */\n    tag_421:\n        /* \"#utility.yul\":21814:21817   */\n      dup2\n        /* \"#utility.yul\":21807:21812   */\n      dup2\n        /* \"#utility.yul\":21804:21818   */\n      lt\n        /* \"#utility.yul\":21797:21917   */\n      iszero\n      tag_423\n      jumpi\n        /* \"#utility.yul\":21868:21907   */\n      tag_424\n        /* \"#utility.yul\":21905:21906   */\n      0x00\n        /* \"#utility.yul\":21898:21903   */\n      dup3\n        /* \"#utility.yul\":21868:21907   */\n      tag_210\n      jump\t// in\n    tag_424:\n        /* \"#utility.yul\":21841:21842   */\n      0x01\n        /* \"#utility.yul\":21834:21839   */\n      dup2\n        /* \"#utility.yul\":21830:21843   */\n      add\n        /* \"#utility.yul\":21821:21843   */\n      swap1\n      pop\n        /* \"#utility.yul\":21797:21917   */\n      jump(tag_421)\n    tag_423:\n        /* \"#utility.yul\":21737:21923   */\n      pop\n      pop\n      jump\t// out\n        /* \"#utility.yul\":21929:22472   */\n    tag_212:\n        /* \"#utility.yul\":22030:22032   */\n      0x1f\n        /* \"#utility.yul\":22025:22028   */\n      dup3\n        /* \"#utility.yul\":22022:22033   */\n      gt\n        /* \"#utility.yul\":22019:22465   */\n      iszero\n      tag_426\n      jumpi\n        /* \"#utility.yul\":22064:22102   */\n      tag_427\n        /* \"#utility.yul\":22096:22101   */\n      dup2\n        /* \"#utility.yul\":22064:22102   */\n      tag_201\n      jump\t// in\n    tag_427:\n        /* \"#utility.yul\":22148:22177   */\n      tag_428\n        /* \"#utility.yul\":22166:22176   */\n      dup5\n        /* \"#utility.yul\":22148:22177   */\n      tag_202\n      jump\t// in\n    tag_428:\n        /* \"#utility.yul\":22138:22146   */\n      dup2\n        /* \"#utility.yul\":22134:22178   */\n      add\n        /* \"#utility.yul\":22331:22333   */\n      0x20\n        /* \"#utility.yul\":22319:22329   */\n      dup6\n        /* \"#utility.yul\":22316:22334   */\n      lt\n        /* \"#utility.yul\":22313:22362   */\n      iszero\n      tag_429\n      jumpi\n        /* \"#utility.yul\":22352:22360   */\n      dup2\n        /* \"#utility.yul\":22337:22360   */\n      swap1\n      pop\n        /* \"#utility.yul\":22313:22362   */\n    tag_429:\n        /* \"#utility.yul\":22375:22455   */\n      tag_430\n        /* \"#utility.yul\":22431:22453   */\n      tag_431\n        /* \"#utility.yul\":22449:22452   */\n      dup6\n        /* \"#utility.yul\":22431:22453   */\n      tag_202\n      jump\t// in\n    tag_431:\n        /* \"#utility.yul\":22421:22429   */\n      dup4\n        /* \"#utility.yul\":22417:22454   */\n      add\n        /* \"#utility.yul\":22404:22415   */\n      dup3\n        /* \"#utility.yul\":22375:22455   */\n      tag_211\n      jump\t// in\n    tag_430:\n        /* \"#utility.yul\":22034:22465   */\n      pop\n      pop\n        /* \"#utility.yul\":22019:22465   */\n    tag_426:\n        /* \"#utility.yul\":21929:22472   */\n      pop\n      pop\n      pop\n      jump\t// out\n        /* \"#utility.yul\":22478:22595   */\n    tag_213:\n        /* \"#utility.yul\":22532:22540   */\n      0x00\n        /* \"#utility.yul\":22582:22587   */\n      dup3\n        /* \"#utility.yul\":22576:22580   */\n      dup3\n        /* \"#utility.yul\":22572:22588   */\n      shr\n        /* \"#utility.yul\":22551:22588   */\n      swap1\n      pop\n        /* \"#utility.yul\":22478:22595   */\n      swap3\n      swap2\n      pop\n      pop\n      jump\t// out\n        /* \"#utility.yul\":22601:22770   */\n    tag_214:\n        /* \"#utility.yul\":22645:22651   */\n      0x00\n        /* \"#utility.yul\":22678:22729   */\n      tag_434\n        /* \"#utility.yul\":22726:22727   */\n      0x00\n        /* \"#utility.yul\":22722:22728   */\n      not\n        /* \"#utility.yul\":22714:22719   */\n      dup5\n        /* \"#utility.yul\":22711:22712   */\n      0x08\n        /* \"#utility.yul\":22707:22720   */\n      mul\n        /* \"#utility.yul\":22678:22729   */\n      tag_213\n      jump\t// in\n    tag_434:\n        /* \"#utility.yul\":22674:22730   */\n      not\n        /* \"#utility.yul\":22759:22763   */\n      dup1\n        /* \"#utility.yul\":22753:22757   */\n      dup4\n        /* \"#utility.yul\":22749:22764   */\n      and\n        /* \"#utility.yul\":22739:22764   */\n      swap2\n      pop\n        /* \"#utility.yul\":22652:22770   */\n      pop\n        /* \"#utility.yul\":22601:22770   */\n      swap3\n      swap2\n      pop\n      pop\n      jump\t// out\n        /* \"#utility.yul\":22775:23070   */\n    tag_215:\n        /* \"#utility.yul\":22851:22855   */\n      0x00\n        /* \"#utility.yul\":22997:23026   */\n      tag_436\n        /* \"#utility.yul\":23022:23025   */\n      dup4\n        /* \"#utility.yul\":23016:23020   */\n      dup4\n        /* \"#utility.yul\":22997:23026   */\n      tag_214\n      jump\t// in\n    tag_436:\n        /* \"#utility.yul\":22989:23026   */\n      swap2\n      pop\n        /* \"#utility.yul\":23059:23062   */\n      dup3\n        /* \"#utility.yul\":23056:23057   */\n      0x02\n        /* \"#utility.yul\":23052:23063   */\n      mul\n        /* \"#utility.yul\":23046:23050   */\n      dup3\n        /* \"#utility.yul\":23043:23064   */\n      or\n        /* \"#utility.yul\":23035:23064   */\n      swap1\n      pop\n        /* \"#utility.yul\":22775:23070   */\n      swap3\n      swap2\n      pop\n      pop\n      jump\t// out\n        /* \"#utility.yul\":23075:24470   */\n    tag_126:\n        /* \"#utility.yul\":23192:23229   */\n      tag_438\n        /* \"#utility.yul\":23225:23228   */\n      dup3\n        /* \"#utility.yul\":23192:23229   */\n      tag_161\n      jump\t// in\n    tag_438:\n        /* \"#utility.yul\":23294:23312   */\n      0xffffffffffffffff\n        /* \"#utility.yul\":23286:23292   */\n      dup2\n        /* \"#utility.yul\":23283:23313   */\n      gt\n        /* \"#utility.yul\":23280:23336   */\n      iszero\n      tag_439\n      jumpi\n        /* \"#utility.yul\":23316:23334   */\n      tag_440\n      tag_183\n      jump\t// in\n    tag_440:\n        /* \"#utility.yul\":23280:23336   */\n    tag_439:\n        /* \"#utility.yul\":23360:23398   */\n      tag_441\n        /* \"#utility.yul\":23392:23396   */\n      dup3\n        /* \"#utility.yul\":23386:23397   */\n      sload\n        /* \"#utility.yul\":23360:23398   */\n      tag_62\n      jump\t// in\n    tag_441:\n        /* \"#utility.yul\":23445:23512   */\n      tag_442\n        /* \"#utility.yul\":23505:23511   */\n      dup3\n        /* \"#utility.yul\":23497:23503   */\n      dup3\n        /* \"#utility.yul\":23491:23495   */\n      dup6\n        /* \"#utility.yul\":23445:23512   */\n      tag_212\n      jump\t// in\n    tag_442:\n        /* \"#utility.yul\":23539:23540   */\n      0x00\n        /* \"#utility.yul\":23563:23567   */\n      0x20\n        /* \"#utility.yul\":23550:23567   */\n      swap1\n      pop\n        /* \"#utility.yul\":23595:23597   */\n      0x1f\n        /* \"#utility.yul\":23587:23593   */\n      dup4\n        /* \"#utility.yul\":23584:23598   */\n      gt\n        /* \"#utility.yul\":23612:23613   */\n      0x01\n        /* \"#utility.yul\":23607:24225   */\n      dup2\n      eq\n      tag_444\n      jumpi\n        /* \"#utility.yul\":24269:24270   */\n      0x00\n        /* \"#utility.yul\":24286:24292   */\n      dup5\n        /* \"#utility.yul\":24283:24360   */\n      iszero\n      tag_445\n      jumpi\n        /* \"#utility.yul\":24335:24344   */\n      dup3\n        /* \"#utility.yul\":24330:24333   */\n      dup8\n        /* \"#utility.yul\":24326:24345   */\n      add\n        /* \"#utility.yul\":24320:24346   */\n      mload\n        /* \"#utility.yul\":24311:24346   */\n      swap1\n      pop\n        /* \"#utility.yul\":24283:24360   */\n    tag_445:\n        /* \"#utility.yul\":24386:24453   */\n      tag_446\n        /* \"#utility.yul\":24446:24452   */\n      dup6\n        /* \"#utility.yul\":24439:24444   */\n      dup3\n        /* \"#utility.yul\":24386:24453   */\n      tag_215\n      jump\t// in\n    tag_446:\n        /* \"#utility.yul\":24380:24384   */\n      dup7\n        /* \"#utility.yul\":24373:24454   */\n      sstore\n        /* \"#utility.yul\":24242:24464   */\n      pop\n        /* \"#utility.yul\":23577:24464   */\n      jump(tag_443)\n        /* \"#utility.yul\":23607:24225   */\n    tag_444:\n        /* \"#utility.yul\":23659:23663   */\n      0x1f\n        /* \"#utility.yul\":23655:23664   */\n      not\n        /* \"#utility.yul\":23647:23653   */\n      dup5\n        /* \"#utility.yul\":23643:23665   */\n      and\n        /* \"#utility.yul\":23693:23730   */\n      tag_447\n        /* \"#utility.yul\":23725:23729   */\n      dup7\n        /* \"#utility.yul\":23693:23730   */\n      tag_201\n      jump\t// in\n    tag_447:\n        /* \"#utility.yul\":23752:23753   */\n      0x00\n        /* \"#utility.yul\":23766:23974   */\n    tag_448:\n        /* \"#utility.yul\":23780:23787   */\n      dup3\n        /* \"#utility.yul\":23777:23778   */\n      dup2\n        /* \"#utility.yul\":23774:23788   */\n      lt\n        /* \"#utility.yul\":23766:23974   */\n      iszero\n      tag_450\n      jumpi\n        /* \"#utility.yul\":23859:23868   */\n      dup5\n        /* \"#utility.yul\":23854:23857   */\n      dup10\n        /* \"#utility.yul\":23850:23869   */\n      add\n        /* \"#utility.yul\":23844:23870   */\n      mload\n        /* \"#utility.yul\":23836:23842   */\n      dup3\n        /* \"#utility.yul\":23829:23871   */\n      sstore\n        /* \"#utility.yul\":23910:23911   */\n      0x01\n        /* \"#utility.yul\":23902:23908   */\n      dup3\n        /* \"#utility.yul\":23898:23912   */\n      add\n        /* \"#utility.yul\":23888:23912   */\n      swap2\n      pop\n        /* \"#utility.yul\":23957:23959   */\n      0x20\n        /* \"#utility.yul\":23946:23955   */\n      dup6\n        /* \"#utility.yul\":23942:23960   */\n      add\n        /* \"#utility.yul\":23929:23960   */\n      swap5\n      pop\n        /* \"#utility.yul\":23803:23807   */\n      0x20\n        /* \"#utility.yul\":23800:23801   */\n      dup2\n        /* \"#utility.yul\":23796:23808   */\n      add\n        /* \"#utility.yul\":23791:23808   */\n      swap1\n      pop\n        /* \"#utility.yul\":23766:23974   */\n      jump(tag_448)\n    tag_450:\n        /* \"#utility.yul\":24002:24008   */\n      dup7\n        /* \"#utility.yul\":23993:24000   */\n      dup4\n        /* \"#utility.yul\":23990:24009   */\n      lt\n        /* \"#utility.yul\":23987:24166   */\n      iszero\n      tag_451\n      jumpi\n        /* \"#utility.yul\":24060:24069   */\n      dup5\n        /* \"#utility.yul\":24055:24058   */\n      dup10\n        /* \"#utility.yul\":24051:24070   */\n      add\n        /* \"#utility.yul\":24045:24071   */\n      mload\n        /* \"#utility.yul\":24103:24151   */\n      tag_452\n        /* \"#utility.yul\":24145:24149   */\n      0x1f\n        /* \"#utility.yul\":24137:24143   */\n      dup10\n        /* \"#utility.yul\":24133:24150   */\n      and\n        /* \"#utility.yul\":24122:24131   */\n      dup3\n        /* \"#utility.yul\":24103:24151   */\n      tag_214\n      jump\t// in\n    tag_452:\n        /* \"#utility.yul\":24095:24101   */\n      dup4\n        /* \"#utility.yul\":24088:24152   */\n      sstore\n        /* \"#utility.yul\":24010:24166   */\n      pop\n        /* \"#utility.yul\":23987:24166   */\n    tag_451:\n        /* \"#utility.yul\":24212:24213   */\n      0x01\n        /* \"#utility.yul\":24208:24209   */\n      0x02\n        /* \"#utility.yul\":24200:24206   */\n      dup9\n        /* \"#utility.yul\":24196:24210   */\n      mul\n        /* \"#utility.yul\":24192:24214   */\n      add\n        /* \"#utility.yul\":24186:24190   */\n      dup9\n        /* \"#utility.yul\":24179:24215   */\n      sstore\n        /* \"#utility.yul\":23614:24225   */\n      pop\n      pop\n      pop\n        /* \"#utility.yul\":23577:24464   */\n    tag_443:\n      pop\n        /* \"#utility.yul\":23167:24470   */\n      pop\n      pop\n      pop\n        /* \"#utility.yul\":23075:24470   */\n      pop\n      pop\n      jump\t// out\n        /* \"#utility.yul\":24476:25120   */\n    tag_128:\n        /* \"#utility.yul\":24673:24677   */\n      0x00\n        /* \"#utility.yul\":24711:24714   */\n      0x80\n        /* \"#utility.yul\":24700:24709   */\n      dup3\n        /* \"#utility.yul\":24696:24715   */\n      add\n        /* \"#utility.yul\":24688:24715   */\n      swap1\n      pop\n        /* \"#utility.yul\":24725:24796   */\n      tag_454\n        /* \"#utility.yul\":24793:24794   */\n      0x00\n        /* \"#utility.yul\":24782:24791   */\n      dup4\n        /* \"#utility.yul\":24778:24795   */\n      add\n        /* \"#utility.yul\":24769:24775   */\n      dup8\n        /* \"#utility.yul\":24725:24796   */\n      tag_159\n      jump\t// in\n    tag_454:\n        /* \"#utility.yul\":24806:24878   */\n      tag_455\n        /* \"#utility.yul\":24874:24876   */\n      0x20\n        /* \"#utility.yul\":24863:24872   */\n      dup4\n        /* \"#utility.yul\":24859:24877   */\n      add\n        /* \"#utility.yul\":24850:24856   */\n      dup7\n        /* \"#utility.yul\":24806:24878   */\n      tag_160\n      jump\t// in\n    tag_455:\n        /* \"#utility.yul\":24925:24934   */\n      dup2\n        /* \"#utility.yul\":24919:24923   */\n      dup2\n        /* \"#utility.yul\":24915:24935   */\n      sub\n        /* \"#utility.yul\":24910:24912   */\n      0x40\n        /* \"#utility.yul\":24899:24908   */\n      dup4\n        /* \"#utility.yul\":24895:24913   */\n      add\n        /* \"#utility.yul\":24888:24936   */\n      mstore\n        /* \"#utility.yul\":24953:25031   */\n      tag_456\n        /* \"#utility.yul\":25026:25030   */\n      dup2\n        /* \"#utility.yul\":25017:25023   */\n      dup6\n        /* \"#utility.yul\":24953:25031   */\n      tag_165\n      jump\t// in\n    tag_456:\n        /* \"#utility.yul\":24945:25031   */\n      swap1\n      pop\n        /* \"#utility.yul\":25041:25113   */\n      tag_457\n        /* \"#utility.yul\":25109:25111   */\n      0x60\n        /* \"#utility.yul\":25098:25107   */\n      dup4\n        /* \"#utility.yul\":25094:25112   */\n      add\n        /* \"#utility.yul\":25085:25091   */\n      dup5\n        /* \"#utility.yul\":25041:25113   */\n      tag_159\n      jump\t// in\n    tag_457:\n        /* \"#utility.yul\":24476:25120   */\n      swap6\n      swap5\n      pop\n      pop\n      pop\n      pop\n      pop\n      jump\t// out\n        /* \"#utility.yul\":25126:25317   */\n    tag_137:\n        /* \"#utility.yul\":25166:25169   */\n      0x00\n        /* \"#utility.yul\":25185:25205   */\n      tag_459\n        /* \"#utility.yul\":25203:25204   */\n      dup3\n        /* \"#utility.yul\":25185:25205   */\n      tag_156\n      jump\t// in\n    tag_459:\n        /* \"#utility.yul\":25180:25205   */\n      swap2\n      pop\n        /* \"#utility.yul\":25219:25239   */\n      tag_460\n        /* \"#utility.yul\":25237:25238   */\n      dup4\n        /* \"#utility.yul\":25219:25239   */\n      tag_156\n      jump\t// in\n    tag_460:\n        /* \"#utility.yul\":25214:25239   */\n      swap3\n      pop\n        /* \"#utility.yul\":25262:25263   */\n      dup3\n        /* \"#utility.yul\":25259:25260   */\n      dup3\n        /* \"#utility.yul\":25255:25264   */\n      add\n        /* \"#utility.yul\":25248:25264   */\n      swap1\n      pop\n        /* \"#utility.yul\":25283:25286   */\n      dup1\n        /* \"#utility.yul\":25280:25281   */\n      dup3\n        /* \"#utility.yul\":25277:25287   */\n      gt\n        /* \"#utility.yul\":25274:25310   */\n      iszero\n      tag_461\n      jumpi\n        /* \"#utility.yul\":25290:25308   */\n      tag_462\n      tag_196\n      jump\t// in\n    tag_462:\n        /* \"#utility.yul\":25274:25310   */\n    tag_461:\n        /* \"#utility.yul\":25126:25317   */\n      swap3\n      swap2\n      pop\n      pop\n      jump\t// out\n\n    auxdata: 0xa2646970667358221220a3a1f92c249ac728e57a3da3e7d7b5af12d7dfffb1fa0eb6ea4a9cc43fca0a6764736f6c634300081e0033\n}\n",
				"bytecode": {
					"linkReferences": {},
					"object": "60806040526101185f5f6101000a81548161ffff021916908361ffff160217905550348015602b575f5ffd5b503360025f6101000a81548173ffffffffffffffffffffffffffffffffffffffff021916908373ffffffffffffffffffffffffffffffffffffffff160217905550611ac8806100795f395ff3fe608060405234801561000f575f5ffd5b506004361061009c575f3560e01c80636eb10797116100645780636eb10797146101585780637c9cd2bc14610176578063820785cc146101925780638da5cb5b146101c2578063c3ad5ecb146101e05761009c565b806305a1b4a9146100a057806312e7ee1c146100d45780633d9b569f1461010457806358bfa4ab14610120578063633782161461013c575b5f5ffd5b6100ba60048036038101906100b59190610eae565b610210565b6040516100cb959493929190610f7a565b60405180910390f35b6100ee60048036038101906100e99190610fd2565b610301565b6040516100fb9190611191565b60405180910390f35b61011e60048036038101906101199190610eae565b61049c565b005b61013a600480360381019061013591906111e8565b6106ed565b005b61015660048036038101906101519190610eae565b61079a565b005b61016061094b565b60405161016d9190611222565b60405180910390f35b610190600480360381019061018b9190611367565b61095d565b005b6101ac60048036038101906101a79190610fd2565b610b61565b6040516101b991906113ae565b60405180910390f35b6101ca610c33565b6040516101d791906113c7565b60405180910390f35b6101fa60048036038101906101f591906113e0565b610c58565b604051610207919061147e565b60405180910390f35b6001602052815f5260405f208181548110610229575f80fd5b905f5260205f2090600502015f9150915050805f015490806001015f9054906101000a900473ffffffffffffffffffffffffffffffffffffffff1690806002018054610274906114cb565b80601f01602080910402602001604051908101604052809291908181526020018280546102a0906114cb565b80156102eb5780601f106102c2576101008083540402835291602001916102eb565b820191905f5260205f20905b8154815290600101906020018083116102ce57829003601f168201915b5050505050908060030154908060040154905085565b606060015f8373ffffffffffffffffffffffffffffffffffffffff1673ffffffffffffffffffffffffffffffffffffffff1681526020019081526020015f20805480602002602001604051908101604052809291908181526020015f905b82821015610491578382905f5260205f2090600502016040518060a00160405290815f8201548152602001600182015f9054906101000a900473ffffffffffffffffffffffffffffffffffffffff1673ffffffffffffffffffffffffffffffffffffffff1673ffffffffffffffffffffffffffffffffffffffff1681526020016002820180546103ee906114cb565b80601f016020809104026020016040519081016040528092919081815260200182805461041a906114cb565b80156104655780601f1061043c57610100808354040283529160200191610465565b820191905f5260205f20905b81548152906001019060200180831161044857829003601f168201915b50505050508152602001600382015481526020016004820154815250508152602001906001019061035f565b505050509050919050565b8060015f8473ffffffffffffffffffffffffffffffffffffffff1673ffffffffffffffffffffffffffffffffffffffff1681526020019081526020015f2082815481106104ec576104eb6114fb565b5b905f5260205f2090600502015f01541461053b576040517f08c379a000000000000000000000000000000000000000000000000000000000815260040161053290611572565b60405180910390fd5b5f60015f8473ffffffffffffffffffffffffffffffffffffffff1673ffffffffffffffffffffffffffffffffffffffff1681526020019081526020015f20828154811061058b5761058a6114fb565b5b905f5260205f20906005020160040154116105db576040517f08c379a00000000000000000000000000000000000000000000000000000000081526004016105d2906115da565b60405180910390fd5b60015f8373ffffffffffffffffffffffffffffffffffffffff1673ffffffffffffffffffffffffffffffffffffffff1681526020019081526020015f20818154811061062a576106296114fb565b5b905f5260205f2090600502016004015f81548092919061064990611625565b91905055507f762c2616349603ac16eba0de8e6141b79129a07ab63bd99e0a80b3a47171694333838360015f8773ffffffffffffffffffffffffffffffffffffffff1673ffffffffffffffffffffffffffffffffffffffff1681526020019081526020015f2085815481106106c1576106c06114fb565b5b905f5260205f209060050201600401546040516106e1949392919061164c565b60405180910390a15050565b60025f9054906101000a900473ffffffffffffffffffffffffffffffffffffffff1673ffffffffffffffffffffffffffffffffffffffff163373ffffffffffffffffffffffffffffffffffffffff161461077c576040517f08c379a0000000000000000000000000000000000000000000000000000000008152600401610773906116d9565b60405180910390fd5b805f5f6101000a81548161ffff021916908361ffff16021790555050565b8060015f8473ffffffffffffffffffffffffffffffffffffffff1673ffffffffffffffffffffffffffffffffffffffff1681526020019081526020015f2082815481106107ea576107e96114fb565b5b905f5260205f2090600502015f015414610839576040517f08c379a000000000000000000000000000000000000000000000000000000000815260040161083090611572565b60405180910390fd5b60015f8373ffffffffffffffffffffffffffffffffffffffff1673ffffffffffffffffffffffffffffffffffffffff1681526020019081526020015f208181548110610888576108876114fb565b5b905f5260205f2090600502016004015f8154809291906108a7906116f7565b91905055507fe8a76fc0f16d11a00d1e93b689b63d76cf60af914dd3d915375dc41d01a0c3c833838360015f8773ffffffffffffffffffffffffffffffffffffffff1673ffffffffffffffffffffffffffffffffffffffff1681526020019081526020015f20858154811061091f5761091e6114fb565b5b905f5260205f2090600502016004015460405161093f949392919061164c565b60405180910390a15050565b5f5f9054906101000a900461ffff1681565b5f5f9054906101000a900461ffff1661ffff16815111156109b3576040517f08c379a00000000000000000000000000000000000000000000000000000000081526004016109aa90611788565b60405180910390fd5b5f6040518060a0016040528060015f3373ffffffffffffffffffffffffffffffffffffffff1673ffffffffffffffffffffffffffffffffffffffff1681526020019081526020015f208054905081526020013373ffffffffffffffffffffffffffffffffffffffff1681526020018381526020014281526020015f815250905060015f3373ffffffffffffffffffffffffffffffffffffffff1673ffffffffffffffffffffffffffffffffffffffff1681526020019081526020015f2081908060018154018082558091505060019003905f5260205f2090600502015f909190919091505f820151815f01556020820151816001015f6101000a81548173ffffffffffffffffffffffffffffffffffffffff021916908373ffffffffffffffffffffffffffffffffffffffff1602179055506040820151816002019081610afa9190611946565b50606082015181600301556080820151816004015550507f16fd3c13e9d46923e0a8bce11c7b473ec508a72e6c96cd2404b29ce972afc29e815f0151826020015183604001518460600151604051610b559493929190611a15565b60405180910390a15050565b5f5f5f5f90505b60015f8573ffffffffffffffffffffffffffffffffffffffff1673ffffffffffffffffffffffffffffffffffffffff1681526020019081526020015f2080549050811015610c295760015f8573ffffffffffffffffffffffffffffffffffffffff1673ffffffffffffffffffffffffffffffffffffffff1681526020019081526020015f208181548110610bff57610bfe6114fb565b5b905f5260205f2090600502016004015482610c1a9190611a5f565b91508080600101915050610b68565b5080915050919050565b60025f9054906101000a900473ffffffffffffffffffffffffffffffffffffffff1681565b610c60610dcf565b60015f3373ffffffffffffffffffffffffffffffffffffffff1673ffffffffffffffffffffffffffffffffffffffff1681526020019081526020015f208281548110610caf57610cae6114fb565b5b905f5260205f2090600502016040518060a00160405290815f8201548152602001600182015f9054906101000a900473ffffffffffffffffffffffffffffffffffffffff1673ffffffffffffffffffffffffffffffffffffffff1673ffffffffffffffffffffffffffffffffffffffff168152602001600282018054610d34906114cb565b80601f0160208091040260200160405190810160405280929190818152602001828054610d60906114cb565b8015610dab5780601f10610d8257610100808354040283529160200191610dab565b820191905f5260205f20905b815481529060010190602001808311610d8e57829003601f168201915b50505050508152602001600382015481526020016004820154815250509050919050565b6040518060a001604052805f81526020015f73ffffffffffffffffffffffffffffffffffffffff168152602001606081526020015f81526020015f81525090565b5f604051905090565b5f5ffd5b5f5ffd5b5f73ffffffffffffffffffffffffffffffffffffffff82169050919050565b5f610e4a82610e21565b9050919050565b610e5a81610e40565b8114610e64575f5ffd5b50565b5f81359050610e7581610e51565b92915050565b5f819050919050565b610e8d81610e7b565b8114610e97575f5ffd5b50565b5f81359050610ea881610e84565b92915050565b5f5f60408385031215610ec457610ec3610e19565b5b5f610ed185828601610e67565b9250506020610ee285828601610e9a565b9150509250929050565b610ef581610e7b565b82525050565b610f0481610e40565b82525050565b5f81519050919050565b5f82825260208201905092915050565b8281835e5f83830152505050565b5f601f19601f8301169050919050565b5f610f4c82610f0a565b610f568185610f14565b9350610f66818560208601610f24565b610f6f81610f32565b840191505092915050565b5f60a082019050610f8d5f830188610eec565b610f9a6020830187610efb565b8181036040830152610fac8186610f42565b9050610fbb6060830185610eec565b610fc86080830184610eec565b9695505050505050565b5f60208284031215610fe757610fe6610e19565b5b5f610ff484828501610e67565b91505092915050565b5f81519050919050565b5f82825260208201905092915050565b5f819050602082019050919050565b61102f81610e7b565b82525050565b61103e81610e40565b82525050565b5f82825260208201905092915050565b5f61105e82610f0a565b6110688185611044565b9350611078818560208601610f24565b61108181610f32565b840191505092915050565b5f60a083015f8301516110a15f860182611026565b5060208301516110b46020860182611035565b50604083015184820360408601526110cc8282611054565b91505060608301516110e16060860182611026565b5060808301516110f46080860182611026565b508091505092915050565b5f61110a838361108c565b905092915050565b5f602082019050919050565b5f61112882610ffd565b6111328185611007565b93508360208202850161114485611017565b805f5b8581101561117f578484038952815161116085826110ff565b945061116b83611112565b925060208a01995050600181019050611147565b50829750879550505050505092915050565b5f6020820190508181035f8301526111a9818461111e565b905092915050565b5f61ffff82169050919050565b6111c7816111b1565b81146111d1575f5ffd5b50565b5f813590506111e2816111be565b92915050565b5f602082840312156111fd576111fc610e19565b5b5f61120a848285016111d4565b91505092915050565b61121c816111b1565b82525050565b5f6020820190506112355f830184611213565b92915050565b5f5ffd5b5f5ffd5b7f4e487b71000000000000000000000000000000000000000000000000000000005f52604160045260245ffd5b61127982610f32565b810181811067ffffffffffffffff8211171561129857611297611243565b5b80604052505050565b5f6112aa610e10565b90506112b68282611270565b919050565b5f67ffffffffffffffff8211156112d5576112d4611243565b5b6112de82610f32565b9050602081019050919050565b828183375f83830152505050565b5f61130b611306846112bb565b6112a1565b9050828152602081018484840111156113275761132661123f565b5b6113328482856112eb565b509392505050565b5f82601f83011261134e5761134d61123b565b5b813561135e8482602086016112f9565b91505092915050565b5f6020828403121561137c5761137b610e19565b5b5f82013567ffffffffffffffff81111561139957611398610e1d565b5b6113a58482850161133a565b91505092915050565b5f6020820190506113c15f830184610eec565b92915050565b5f6020820190506113da5f830184610efb565b92915050565b5f602082840312156113f5576113f4610e19565b5b5f61140284828501610e9a565b91505092915050565b5f60a083015f8301516114205f860182611026565b5060208301516114336020860182611035565b506040830151848203604086015261144b8282611054565b91505060608301516114606060860182611026565b5060808301516114736080860182611026565b508091505092915050565b5f6020820190508181035f830152611496818461140b565b905092915050565b7f4e487b71000000000000000000000000000000000000000000000000000000005f52602260045260245ffd5b5f60028204905060018216806114e257607f821691505b6020821081036114f5576114f461149e565b5b50919050565b7f4e487b71000000000000000000000000000000000000000000000000000000005f52603260045260245ffd5b7f545745455420444f4553204e4f542045584953540000000000000000000000005f82015250565b5f61155c601483610f14565b915061156782611528565b602082019050919050565b5f6020820190508181035f83015261158981611550565b9050919050565b7f545745455420484153204e4f204c494b455300000000000000000000000000005f82015250565b5f6115c4601283610f14565b91506115cf82611590565b602082019050919050565b5f6020820190508181035f8301526115f1816115b8565b9050919050565b7f4e487b71000000000000000000000000000000000000000000000000000000005f52601160045260245ffd5b5f61162f82610e7b565b91505f8203611641576116406115f8565b5b600182039050919050565b5f60808201905061165f5f830187610efb565b61166c6020830186610efb565b6116796040830185610eec565b6116866060830184610eec565b95945050505050565b7f594f5520415245204e4f5420544845204f574e455221000000000000000000005f82015250565b5f6116c3601683610f14565b91506116ce8261168f565b602082019050919050565b5f6020820190508181035f8301526116f0816116b7565b9050919050565b5f61170182610e7b565b91507fffffffffffffffffffffffffffffffffffffffffffffffffffffffffffffffff8203611733576117326115f8565b5b600182019050919050565b7f547765657420697320746f6f206c6f6e672062726f21000000000000000000005f82015250565b5f611772601683610f14565b915061177d8261173e565b602082019050919050565b5f6020820190508181035f83015261179f81611766565b9050919050565b5f819050815f5260205f209050919050565b5f6020601f8301049050919050565b5f82821b905092915050565b5f600883026118027fffffffffffffffffffffffffffffffffffffffffffffffffffffffffffffffff826117c7565b61180c86836117c7565b95508019841693508086168417925050509392505050565b5f819050919050565b5f61184761184261183d84610e7b565b611824565b610e7b565b9050919050565b5f819050919050565b6118608361182d565b61187461186c8261184e565b8484546117d3565b825550505050565b5f5f905090565b61188b61187c565b611896818484611857565b505050565b5b818110156118b9576118ae5f82611883565b60018101905061189c565b5050565b601f8211156118fe576118cf816117a6565b6118d8846117b8565b810160208510156118e7578190505b6118fb6118f3856117b8565b83018261189b565b50505b505050565b5f82821c905092915050565b5f61191e5f1984600802611903565b1980831691505092915050565b5f611936838361190f565b9150826002028217905092915050565b61194f82610f0a565b67ffffffffffffffff81111561196857611967611243565b5b61197282546114cb565b61197d8282856118bd565b5f60209050601f8311600181146119ae575f841561199c578287015190505b6119a6858261192b565b865550611a0d565b601f1984166119bc866117a6565b5f5b828110156119e3578489015182556001820191506020850194506020810190506119be565b86831015611a0057848901516119fc601f89168261190f565b8355505b6001600288020188555050505b505050505050565b5f608082019050611a285f830187610eec565b611a356020830186610efb565b8181036040830152611a478185610f42565b9050611a566060830184610eec565b95945050505050565b5f611a6982610e7b565b9150611a7483610e7b565b9250828201905080821115611a8c57611a8b6115f8565b5b9291505056fea2646970667358221220a3a1f92c249ac728e57a3da3e7d7b5af12d7dfffb1fa0eb6ea4a9cc43fca0a6764736f6c634300081e0033",
					"opcodes": "PUSH1 0x80 PUSH1 0x40 MSTORE PUSH2 0x118 PUSH0 PUSH0 PUSH2 0x100 EXP DUP2 SLOAD DUP2 PUSH2 0xFFFF MUL NOT AND SWAP1 DUP4 PUSH2 0xFFFF AND MUL OR SWAP1 SSTORE POP CALLVALUE DUP1 ISZERO PUSH1 0x2B JUMPI PUSH0 PUSH0 REVERT JUMPDEST POP CALLER PUSH1 0x2 PUSH0 PUSH2 0x100 EXP DUP2 SLOAD DUP2 PUSH20 0xFFFFFFFFFFFFFFFFFFFFFFFFFFFFFFFFFFFFFFFF MUL NOT AND SWAP1 DUP4 PUSH20 0xFFFFFFFFFFFFFFFFFFFFFFFFFFFFFFFFFFFFFFFF AND MUL OR SWAP1 SSTORE POP PUSH2 0x1AC8 DUP1 PUSH2 0x79 PUSH0 CODECOPY PUSH0 RETURN INVALID PUSH1 0x80 PUSH1 0x40 MSTORE CALLVALUE DUP1 ISZERO PUSH2 0xF JUMPI PUSH0 PUSH0 REVERT JUMPDEST POP PUSH1 0x4 CALLDATASIZE LT PUSH2 0x9C JUMPI PUSH0 CALLDATALOAD PUSH1 0xE0 SHR DUP1 PUSH4 0x6EB10797 GT PUSH2 0x64 JUMPI DUP1 PUSH4 0x6EB10797 EQ PUSH2 0x158 JUMPI DUP1 PUSH4 0x7C9CD2BC EQ PUSH2 0x176 JUMPI DUP1 PUSH4 0x820785CC EQ PUSH2 0x192 JUMPI DUP1 PUSH4 0x8DA5CB5B EQ PUSH2 0x1C2 JUMPI DUP1 PUSH4 0xC3AD5ECB EQ PUSH2 0x1E0 JUMPI PUSH2 0x9C JUMP JUMPDEST DUP1 PUSH4 0x5A1B4A9 EQ PUSH2 0xA0 JUMPI DUP1 PUSH4 0x12E7EE1C EQ PUSH2 0xD4 JUMPI DUP1 PUSH4 0x3D9B569F EQ PUSH2 0x104 JUMPI DUP1 PUSH4 0x58BFA4AB EQ PUSH2 0x120 JUMPI DUP1 PUSH4 0x63378216 EQ PUSH2 0x13C JUMPI JUMPDEST PUSH0 PUSH0 REVERT JUMPDEST PUSH2 0xBA PUSH1 0x4 DUP1 CALLDATASIZE SUB DUP2 ADD SWAP1 PUSH2 0xB5 SWAP2 SWAP1 PUSH2 0xEAE JUMP JUMPDEST PUSH2 0x210 JUMP JUMPDEST PUSH1 0x40 MLOAD PUSH2 0xCB SWAP6 SWAP5 SWAP4 SWAP3 SWAP2 SWAP1 PUSH2 0xF7A JUMP JUMPDEST PUSH1 0x40 MLOAD DUP1 SWAP2 SUB SWAP1 RETURN JUMPDEST PUSH2 0xEE PUSH1 0x4 DUP1 CALLDATASIZE SUB DUP2 ADD SWAP1 PUSH2 0xE9 SWAP2 SWAP1 PUSH2 0xFD2 JUMP JUMPDEST PUSH2 0x301 JUMP JUMPDEST PUSH1 0x40 MLOAD PUSH2 0xFB SWAP2 SWAP1 PUSH2 0x1191 JUMP JUMPDEST PUSH1 0x40 MLOAD DUP1 SWAP2 SUB SWAP1 RETURN JUMPDEST PUSH2 0x11E PUSH1 0x4 DUP1 CALLDATASIZE SUB DUP2 ADD SWAP1 PUSH2 0x119 SWAP2 SWAP1 PUSH2 0xEAE JUMP JUMPDEST PUSH2 0x49C JUMP JUMPDEST STOP JUMPDEST PUSH2 0x13A PUSH1 0x4 DUP1 CALLDATASIZE SUB DUP2 ADD SWAP1 PUSH2 0x135 SWAP2 SWAP1 PUSH2 0x11E8 JUMP JUMPDEST PUSH2 0x6ED JUMP JUMPDEST STOP JUMPDEST PUSH2 0x156 PUSH1 0x4 DUP1 CALLDATASIZE SUB DUP2 ADD SWAP1 PUSH2 0x151 SWAP2 SWAP1 PUSH2 0xEAE JUMP JUMPDEST PUSH2 0x79A JUMP JUMPDEST STOP JUMPDEST PUSH2 0x160 PUSH2 0x94B JUMP JUMPDEST PUSH1 0x40 MLOAD PUSH2 0x16D SWAP2 SWAP1 PUSH2 0x1222 JUMP JUMPDEST PUSH1 0x40 MLOAD DUP1 SWAP2 SUB SWAP1 RETURN JUMPDEST PUSH2 0x190 PUSH1 0x4 DUP1 CALLDATASIZE SUB DUP2 ADD SWAP1 PUSH2 0x18B SWAP2 SWAP1 PUSH2 0x1367 JUMP JUMPDEST PUSH2 0x95D JUMP JUMPDEST STOP JUMPDEST PUSH2 0x1AC PUSH1 0x4 DUP1 CALLDATASIZE SUB DUP2 ADD SWAP1 PUSH2 0x1A7 SWAP2 SWAP1 PUSH2 0xFD2 JUMP JUMPDEST PUSH2 0xB61 JUMP JUMPDEST PUSH1 0x40 MLOAD PUSH2 0x1B9 SWAP2 SWAP1 PUSH2 0x13AE JUMP JUMPDEST PUSH1 0x40 MLOAD DUP1 SWAP2 SUB SWAP1 RETURN JUMPDEST PUSH2 0x1CA PUSH2 0xC33 JUMP JUMPDEST PUSH1 0x40 MLOAD PUSH2 0x1D7 SWAP2 SWAP1 PUSH2 0x13C7 JUMP JUMPDEST PUSH1 0x40 MLOAD DUP1 SWAP2 SUB SWAP1 RETURN JUMPDEST PUSH2 0x1FA PUSH1 0x4 DUP1 CALLDATASIZE SUB DUP2 ADD SWAP1 PUSH2 0x1F5 SWAP2 SWAP1 PUSH2 0x13E0 JUMP JUMPDEST PUSH2 0xC58 JUMP JUMPDEST PUSH1 0x40 MLOAD PUSH2 0x207 SWAP2 SWAP1 PUSH2 0x147E JUMP JUMPDEST PUSH1 0x40 MLOAD DUP1 SWAP2 SUB SWAP1 RETURN JUMPDEST PUSH1 0x1 PUSH1 0x20 MSTORE DUP2 PUSH0 MSTORE PUSH1 0x40 PUSH0 KECCAK256 DUP2 DUP2 SLOAD DUP2 LT PUSH2 0x229 JUMPI PUSH0 DUP1 REVERT JUMPDEST SWAP1 PUSH0 MSTORE PUSH1 0x20 PUSH0 KECCAK256 SWAP1 PUSH1 0x5 MUL ADD PUSH0 SWAP2 POP SWAP2 POP POP DUP1 PUSH0 ADD SLOAD SWAP1 DUP1 PUSH1 0x1 ADD PUSH0 SWAP1 SLOAD SWAP1 PUSH2 0x100 EXP SWAP1 DIV PUSH20 0xFFFFFFFFFFFFFFFFFFFFFFFFFFFFFFFFFFFFFFFF AND SWAP1 DUP1 PUSH1 0x2 ADD DUP1 SLOAD PUSH2 0x274 SWAP1 PUSH2 0x14CB JUMP JUMPDEST DUP1 PUSH1 0x1F ADD PUSH1 0x20 DUP1 SWAP2 DIV MUL PUSH1 0x20 ADD PUSH1 0x40 MLOAD SWAP1 DUP2 ADD PUSH1 0x40 MSTORE DUP1 SWAP3 SWAP2 SWAP1 DUP2 DUP2 MSTORE PUSH1 0x20 ADD DUP3 DUP1 SLOAD PUSH2 0x2A0 SWAP1 PUSH2 0x14CB JUMP JUMPDEST DUP1 ISZERO PUSH2 0x2EB JUMPI DUP1 PUSH1 0x1F LT PUSH2 0x2C2 JUMPI PUSH2 0x100 DUP1 DUP4 SLOAD DIV MUL DUP4 MSTORE SWAP2 PUSH1 0x20 ADD SWAP2 PUSH2 0x2EB JUMP JUMPDEST DUP3 ADD SWAP2 SWAP1 PUSH0 MSTORE PUSH1 0x20 PUSH0 KECCAK256 SWAP1 JUMPDEST DUP2 SLOAD DUP2 MSTORE SWAP1 PUSH1 0x1 ADD SWAP1 PUSH1 0x20 ADD DUP1 DUP4 GT PUSH2 0x2CE JUMPI DUP3 SWAP1 SUB PUSH1 0x1F AND DUP3 ADD SWAP2 JUMPDEST POP POP POP POP POP SWAP1 DUP1 PUSH1 0x3 ADD SLOAD SWAP1 DUP1 PUSH1 0x4 ADD SLOAD SWAP1 POP DUP6 JUMP JUMPDEST PUSH1 0x60 PUSH1 0x1 PUSH0 DUP4 PUSH20 0xFFFFFFFFFFFFFFFFFFFFFFFFFFFFFFFFFFFFFFFF AND PUSH20 0xFFFFFFFFFFFFFFFFFFFFFFFFFFFFFFFFFFFFFFFF AND DUP2 MSTORE PUSH1 0x20 ADD SWAP1 DUP2 MSTORE PUSH1 0x20 ADD PUSH0 KECCAK256 DUP1 SLOAD DUP1 PUSH1 0x20 MUL PUSH1 0x20 ADD PUSH1 0x40 MLOAD SWAP1 DUP2 ADD PUSH1 0x40 MSTORE DUP1 SWAP3 SWAP2 SWAP1 DUP2 DUP2 MSTORE PUSH1 0x20 ADD PUSH0 SWAP1 JUMPDEST DUP3 DUP3 LT ISZERO PUSH2 0x491 JUMPI DUP4 DUP3 SWAP1 PUSH0 MSTORE PUSH1 0x20 PUSH0 KECCAK256 SWAP1 PUSH1 0x5 MUL ADD PUSH1 0x40 MLOAD DUP1 PUSH1 0xA0 ADD PUSH1 0x40 MSTORE SWAP1 DUP2 PUSH0 DUP3 ADD SLOAD DUP2 MSTORE PUSH1 0x20 ADD PUSH1 0x1 DUP3 ADD PUSH0 SWAP1 SLOAD SWAP1 PUSH2 0x100 EXP SWAP1 DIV PUSH20 0xFFFFFFFFFFFFFFFFFFFFFFFFFFFFFFFFFFFFFFFF AND PUSH20 0xFFFFFFFFFFFFFFFFFFFFFFFFFFFFFFFFFFFFFFFF AND PUSH20 0xFFFFFFFFFFFFFFFFFFFFFFFFFFFFFFFFFFFFFFFF AND DUP2 MSTORE PUSH1 0x20 ADD PUSH1 0x2 DUP3 ADD DUP1 SLOAD PUSH2 0x3EE SWAP1 PUSH2 0x14CB JUMP JUMPDEST DUP1 PUSH1 0x1F ADD PUSH1 0x20 DUP1 SWAP2 DIV MUL PUSH1 0x20 ADD PUSH1 0x40 MLOAD SWAP1 DUP2 ADD PUSH1 0x40 MSTORE DUP1 SWAP3 SWAP2 SWAP1 DUP2 DUP2 MSTORE PUSH1 0x20 ADD DUP3 DUP1 SLOAD PUSH2 0x41A SWAP1 PUSH2 0x14CB JUMP JUMPDEST DUP1 ISZERO PUSH2 0x465 JUMPI DUP1 PUSH1 0x1F LT PUSH2 0x43C JUMPI PUSH2 0x100 DUP1 DUP4 SLOAD DIV MUL DUP4 MSTORE SWAP2 PUSH1 0x20 ADD SWAP2 PUSH2 0x465 JUMP JUMPDEST DUP3 ADD SWAP2 SWAP1 PUSH0 MSTORE PUSH1 0x20 PUSH0 KECCAK256 SWAP1 JUMPDEST DUP2 SLOAD DUP2 MSTORE SWAP1 PUSH1 0x1 ADD SWAP1 PUSH1 0x20 ADD DUP1 DUP4 GT PUSH2 0x448 JUMPI DUP3 SWAP1 SUB PUSH1 0x1F AND DUP3 ADD SWAP2 JUMPDEST POP POP POP POP POP DUP2 MSTORE PUSH1 0x20 ADD PUSH1 0x3 DUP3 ADD SLOAD DUP2 MSTORE PUSH1 0x20 ADD PUSH1 0x4 DUP3 ADD SLOAD DUP2 MSTORE POP POP DUP2 MSTORE PUSH1 0x20 ADD SWAP1 PUSH1 0x1 ADD SWAP1 PUSH2 0x35F JUMP JUMPDEST POP POP POP POP SWAP1 POP SWAP2 SWAP1 POP JUMP JUMPDEST DUP1 PUSH1 0x1 PUSH0 DUP5 PUSH20 0xFFFFFFFFFFFFFFFFFFFFFFFFFFFFFFFFFFFFFFFF AND PUSH20 0xFFFFFFFFFFFFFFFFFFFFFFFFFFFFFFFFFFFFFFFF AND DUP2 MSTORE PUSH1 0x20 ADD SWAP1 DUP2 MSTORE PUSH1 0x20 ADD PUSH0 KECCAK256 DUP3 DUP2 SLOAD DUP2 LT PUSH2 0x4EC JUMPI PUSH2 0x4EB PUSH2 0x14FB JUMP JUMPDEST JUMPDEST SWAP1 PUSH0 MSTORE PUSH1 0x20 PUSH0 KECCAK256 SWAP1 PUSH1 0x5 MUL ADD PUSH0 ADD SLOAD EQ PUSH2 0x53B JUMPI PUSH1 0x40 MLOAD PUSH32 0x8C379A000000000000000000000000000000000000000000000000000000000 DUP2 MSTORE PUSH1 0x4 ADD PUSH2 0x532 SWAP1 PUSH2 0x1572 JUMP JUMPDEST PUSH1 0x40 MLOAD DUP1 SWAP2 SUB SWAP1 REVERT JUMPDEST PUSH0 PUSH1 0x1 PUSH0 DUP5 PUSH20 0xFFFFFFFFFFFFFFFFFFFFFFFFFFFFFFFFFFFFFFFF AND PUSH20 0xFFFFFFFFFFFFFFFFFFFFFFFFFFFFFFFFFFFFFFFF AND DUP2 MSTORE PUSH1 0x20 ADD SWAP1 DUP2 MSTORE PUSH1 0x20 ADD PUSH0 KECCAK256 DUP3 DUP2 SLOAD DUP2 LT PUSH2 0x58B JUMPI PUSH2 0x58A PUSH2 0x14FB JUMP JUMPDEST JUMPDEST SWAP1 PUSH0 MSTORE PUSH1 0x20 PUSH0 KECCAK256 SWAP1 PUSH1 0x5 MUL ADD PUSH1 0x4 ADD SLOAD GT PUSH2 0x5DB JUMPI PUSH1 0x40 MLOAD PUSH32 0x8C379A000000000000000000000000000000000000000000000000000000000 DUP2 MSTORE PUSH1 0x4 ADD PUSH2 0x5D2 SWAP1 PUSH2 0x15DA JUMP JUMPDEST PUSH1 0x40 MLOAD DUP1 SWAP2 SUB SWAP1 REVERT JUMPDEST PUSH1 0x1 PUSH0 DUP4 PUSH20 0xFFFFFFFFFFFFFFFFFFFFFFFFFFFFFFFFFFFFFFFF AND PUSH20 0xFFFFFFFFFFFFFFFFFFFFFFFFFFFFFFFFFFFFFFFF AND DUP2 MSTORE PUSH1 0x20 ADD SWAP1 DUP2 MSTORE PUSH1 0x20 ADD PUSH0 KECCAK256 DUP2 DUP2 SLOAD DUP2 LT PUSH2 0x62A JUMPI PUSH2 0x629 PUSH2 0x14FB JUMP JUMPDEST JUMPDEST SWAP1 PUSH0 MSTORE PUSH1 0x20 PUSH0 KECCAK256 SWAP1 PUSH1 0x5 MUL ADD PUSH1 0x4 ADD PUSH0 DUP2 SLOAD DUP1 SWAP3 SWAP2 SWAP1 PUSH2 0x649 SWAP1 PUSH2 0x1625 JUMP JUMPDEST SWAP2 SWAP1 POP SSTORE POP PUSH32 0x762C2616349603AC16EBA0DE8E6141B79129A07AB63BD99E0A80B3A471716943 CALLER DUP4 DUP4 PUSH1 0x1 PUSH0 DUP8 PUSH20 0xFFFFFFFFFFFFFFFFFFFFFFFFFFFFFFFFFFFFFFFF AND PUSH20 0xFFFFFFFFFFFFFFFFFFFFFFFFFFFFFFFFFFFFFFFF AND DUP2 MSTORE PUSH1 0x20 ADD SWAP1 DUP2 MSTORE PUSH1 0x20 ADD PUSH0 KECCAK256 DUP6 DUP2 SLOAD DUP2 LT PUSH2 0x6C1 JUMPI PUSH2 0x6C0 PUSH2 0x14FB JUMP JUMPDEST JUMPDEST SWAP1 PUSH0 MSTORE PUSH1 0x20 PUSH0 KECCAK256 SWAP1 PUSH1 0x5 MUL ADD PUSH1 0x4 ADD SLOAD PUSH1 0x40 MLOAD PUSH2 0x6E1 SWAP5 SWAP4 SWAP3 SWAP2 SWAP1 PUSH2 0x164C JUMP JUMPDEST PUSH1 0x40 MLOAD DUP1 SWAP2 SUB SWAP1 LOG1 POP POP JUMP JUMPDEST PUSH1 0x2 PUSH0 SWAP1 SLOAD SWAP1 PUSH2 0x100 EXP SWAP1 DIV PUSH20 0xFFFFFFFFFFFFFFFFFFFFFFFFFFFFFFFFFFFFFFFF AND PUSH20 0xFFFFFFFFFFFFFFFFFFFFFFFFFFFFFFFFFFFFFFFF AND CALLER PUSH20 0xFFFFFFFFFFFFFFFFFFFFFFFFFFFFFFFFFFFFFFFF AND EQ PUSH2 0x77C JUMPI PUSH1 0x40 MLOAD PUSH32 0x8C379A000000000000000000000000000000000000000000000000000000000 DUP2 MSTORE PUSH1 0x4 ADD PUSH2 0x773 SWAP1 PUSH2 0x16D9 JUMP JUMPDEST PUSH1 0x40 MLOAD DUP1 SWAP2 SUB SWAP1 REVERT JUMPDEST DUP1 PUSH0 PUSH0 PUSH2 0x100 EXP DUP2 SLOAD DUP2 PUSH2 0xFFFF MUL NOT AND SWAP1 DUP4 PUSH2 0xFFFF AND MUL OR SWAP1 SSTORE POP POP JUMP JUMPDEST DUP1 PUSH1 0x1 PUSH0 DUP5 PUSH20 0xFFFFFFFFFFFFFFFFFFFFFFFFFFFFFFFFFFFFFFFF AND PUSH20 0xFFFFFFFFFFFFFFFFFFFFFFFFFFFFFFFFFFFFFFFF AND DUP2 MSTORE PUSH1 0x20 ADD SWAP1 DUP2 MSTORE PUSH1 0x20 ADD PUSH0 KECCAK256 DUP3 DUP2 SLOAD DUP2 LT PUSH2 0x7EA JUMPI PUSH2 0x7E9 PUSH2 0x14FB JUMP JUMPDEST JUMPDEST SWAP1 PUSH0 MSTORE PUSH1 0x20 PUSH0 KECCAK256 SWAP1 PUSH1 0x5 MUL ADD PUSH0 ADD SLOAD EQ PUSH2 0x839 JUMPI PUSH1 0x40 MLOAD PUSH32 0x8C379A000000000000000000000000000000000000000000000000000000000 DUP2 MSTORE PUSH1 0x4 ADD PUSH2 0x830 SWAP1 PUSH2 0x1572 JUMP JUMPDEST PUSH1 0x40 MLOAD DUP1 SWAP2 SUB SWAP1 REVERT JUMPDEST PUSH1 0x1 PUSH0 DUP4 PUSH20 0xFFFFFFFFFFFFFFFFFFFFFFFFFFFFFFFFFFFFFFFF AND PUSH20 0xFFFFFFFFFFFFFFFFFFFFFFFFFFFFFFFFFFFFFFFF AND DUP2 MSTORE PUSH1 0x20 ADD SWAP1 DUP2 MSTORE PUSH1 0x20 ADD PUSH0 KECCAK256 DUP2 DUP2 SLOAD DUP2 LT PUSH2 0x888 JUMPI PUSH2 0x887 PUSH2 0x14FB JUMP JUMPDEST JUMPDEST SWAP1 PUSH0 MSTORE PUSH1 0x20 PUSH0 KECCAK256 SWAP1 PUSH1 0x5 MUL ADD PUSH1 0x4 ADD PUSH0 DUP2 SLOAD DUP1 SWAP3 SWAP2 SWAP1 PUSH2 0x8A7 SWAP1 PUSH2 0x16F7 JUMP JUMPDEST SWAP2 SWAP1 POP SSTORE POP PUSH32 0xE8A76FC0F16D11A00D1E93B689B63D76CF60AF914DD3D915375DC41D01A0C3C8 CALLER DUP4 DUP4 PUSH1 0x1 PUSH0 DUP8 PUSH20 0xFFFFFFFFFFFFFFFFFFFFFFFFFFFFFFFFFFFFFFFF AND PUSH20 0xFFFFFFFFFFFFFFFFFFFFFFFFFFFFFFFFFFFFFFFF AND DUP2 MSTORE PUSH1 0x20 ADD SWAP1 DUP2 MSTORE PUSH1 0x20 ADD PUSH0 KECCAK256 DUP6 DUP2 SLOAD DUP2 LT PUSH2 0x91F JUMPI PUSH2 0x91E PUSH2 0x14FB JUMP JUMPDEST JUMPDEST SWAP1 PUSH0 MSTORE PUSH1 0x20 PUSH0 KECCAK256 SWAP1 PUSH1 0x5 MUL ADD PUSH1 0x4 ADD SLOAD PUSH1 0x40 MLOAD PUSH2 0x93F SWAP5 SWAP4 SWAP3 SWAP2 SWAP1 PUSH2 0x164C JUMP JUMPDEST PUSH1 0x40 MLOAD DUP1 SWAP2 SUB SWAP1 LOG1 POP POP JUMP JUMPDEST PUSH0 PUSH0 SWAP1 SLOAD SWAP1 PUSH2 0x100 EXP SWAP1 DIV PUSH2 0xFFFF AND DUP2 JUMP JUMPDEST PUSH0 PUSH0 SWAP1 SLOAD SWAP1 PUSH2 0x100 EXP SWAP1 DIV PUSH2 0xFFFF AND PUSH2 0xFFFF AND DUP2 MLOAD GT ISZERO PUSH2 0x9B3 JUMPI PUSH1 0x40 MLOAD PUSH32 0x8C379A000000000000000000000000000000000000000000000000000000000 DUP2 MSTORE PUSH1 0x4 ADD PUSH2 0x9AA SWAP1 PUSH2 0x1788 JUMP JUMPDEST PUSH1 0x40 MLOAD DUP1 SWAP2 SUB SWAP1 REVERT JUMPDEST PUSH0 PUSH1 0x40 MLOAD DUP1 PUSH1 0xA0 ADD PUSH1 0x40 MSTORE DUP1 PUSH1 0x1 PUSH0 CALLER PUSH20 0xFFFFFFFFFFFFFFFFFFFFFFFFFFFFFFFFFFFFFFFF AND PUSH20 0xFFFFFFFFFFFFFFFFFFFFFFFFFFFFFFFFFFFFFFFF AND DUP2 MSTORE PUSH1 0x20 ADD SWAP1 DUP2 MSTORE PUSH1 0x20 ADD PUSH0 KECCAK256 DUP1 SLOAD SWAP1 POP DUP2 MSTORE PUSH1 0x20 ADD CALLER PUSH20 0xFFFFFFFFFFFFFFFFFFFFFFFFFFFFFFFFFFFFFFFF AND DUP2 MSTORE PUSH1 0x20 ADD DUP4 DUP2 MSTORE PUSH1 0x20 ADD TIMESTAMP DUP2 MSTORE PUSH1 0x20 ADD PUSH0 DUP2 MSTORE POP SWAP1 POP PUSH1 0x1 PUSH0 CALLER PUSH20 0xFFFFFFFFFFFFFFFFFFFFFFFFFFFFFFFFFFFFFFFF AND PUSH20 0xFFFFFFFFFFFFFFFFFFFFFFFFFFFFFFFFFFFFFFFF AND DUP2 MSTORE PUSH1 0x20 ADD SWAP1 DUP2 MSTORE PUSH1 0x20 ADD PUSH0 KECCAK256 DUP2 SWAP1 DUP1 PUSH1 0x1 DUP2 SLOAD ADD DUP1 DUP3 SSTORE DUP1 SWAP2 POP POP PUSH1 0x1 SWAP1 SUB SWAP1 PUSH0 MSTORE PUSH1 0x20 PUSH0 KECCAK256 SWAP1 PUSH1 0x5 MUL ADD PUSH0 SWAP1 SWAP2 SWAP1 SWAP2 SWAP1 SWAP2 POP PUSH0 DUP3 ADD MLOAD DUP2 PUSH0 ADD SSTORE PUSH1 0x20 DUP3 ADD MLOAD DUP2 PUSH1 0x1 ADD PUSH0 PUSH2 0x100 EXP DUP2 SLOAD DUP2 PUSH20 0xFFFFFFFFFFFFFFFFFFFFFFFFFFFFFFFFFFFFFFFF MUL NOT AND SWAP1 DUP4 PUSH20 0xFFFFFFFFFFFFFFFFFFFFFFFFFFFFFFFFFFFFFFFF AND MUL OR SWAP1 SSTORE POP PUSH1 0x40 DUP3 ADD MLOAD DUP2 PUSH1 0x2 ADD SWAP1 DUP2 PUSH2 0xAFA SWAP2 SWAP1 PUSH2 0x1946 JUMP JUMPDEST POP PUSH1 0x60 DUP3 ADD MLOAD DUP2 PUSH1 0x3 ADD SSTORE PUSH1 0x80 DUP3 ADD MLOAD DUP2 PUSH1 0x4 ADD SSTORE POP POP PUSH32 0x16FD3C13E9D46923E0A8BCE11C7B473EC508A72E6C96CD2404B29CE972AFC29E DUP2 PUSH0 ADD MLOAD DUP3 PUSH1 0x20 ADD MLOAD DUP4 PUSH1 0x40 ADD MLOAD DUP5 PUSH1 0x60 ADD MLOAD PUSH1 0x40 MLOAD PUSH2 0xB55 SWAP5 SWAP4 SWAP3 SWAP2 SWAP1 PUSH2 0x1A15 JUMP JUMPDEST PUSH1 0x40 MLOAD DUP1 SWAP2 SUB SWAP1 LOG1 POP POP JUMP JUMPDEST PUSH0 PUSH0 PUSH0 PUSH0 SWAP1 POP JUMPDEST PUSH1 0x1 PUSH0 DUP6 PUSH20 0xFFFFFFFFFFFFFFFFFFFFFFFFFFFFFFFFFFFFFFFF AND PUSH20 0xFFFFFFFFFFFFFFFFFFFFFFFFFFFFFFFFFFFFFFFF AND DUP2 MSTORE PUSH1 0x20 ADD SWAP1 DUP2 MSTORE PUSH1 0x20 ADD PUSH0 KECCAK256 DUP1 SLOAD SWAP1 POP DUP2 LT ISZERO PUSH2 0xC29 JUMPI PUSH1 0x1 PUSH0 DUP6 PUSH20 0xFFFFFFFFFFFFFFFFFFFFFFFFFFFFFFFFFFFFFFFF AND PUSH20 0xFFFFFFFFFFFFFFFFFFFFFFFFFFFFFFFFFFFFFFFF AND DUP2 MSTORE PUSH1 0x20 ADD SWAP1 DUP2 MSTORE PUSH1 0x20 ADD PUSH0 KECCAK256 DUP2 DUP2 SLOAD DUP2 LT PUSH2 0xBFF JUMPI PUSH2 0xBFE PUSH2 0x14FB JUMP JUMPDEST JUMPDEST SWAP1 PUSH0 MSTORE PUSH1 0x20 PUSH0 KECCAK256 SWAP1 PUSH1 0x5 MUL ADD PUSH1 0x4 ADD SLOAD DUP3 PUSH2 0xC1A SWAP2 SWAP1 PUSH2 0x1A5F JUMP JUMPDEST SWAP2 POP DUP1 DUP1 PUSH1 0x1 ADD SWAP2 POP POP PUSH2 0xB68 JUMP JUMPDEST POP DUP1 SWAP2 POP POP SWAP2 SWAP1 POP JUMP JUMPDEST PUSH1 0x2 PUSH0 SWAP1 SLOAD SWAP1 PUSH2 0x100 EXP SWAP1 DIV PUSH20 0xFFFFFFFFFFFFFFFFFFFFFFFFFFFFFFFFFFFFFFFF AND DUP2 JUMP JUMPDEST PUSH2 0xC60 PUSH2 0xDCF JUMP JUMPDEST PUSH1 0x1 PUSH0 CALLER PUSH20 0xFFFFFFFFFFFFFFFFFFFFFFFFFFFFFFFFFFFFFFFF AND PUSH20 0xFFFFFFFFFFFFFFFFFFFFFFFFFFFFFFFFFFFFFFFF AND DUP2 MSTORE PUSH1 0x20 ADD SWAP1 DUP2 MSTORE PUSH1 0x20 ADD PUSH0 KECCAK256 DUP3 DUP2 SLOAD DUP2 LT PUSH2 0xCAF JUMPI PUSH2 0xCAE PUSH2 0x14FB JUMP JUMPDEST JUMPDEST SWAP1 PUSH0 MSTORE PUSH1 0x20 PUSH0 KECCAK256 SWAP1 PUSH1 0x5 MUL ADD PUSH1 0x40 MLOAD DUP1 PUSH1 0xA0 ADD PUSH1 0x40 MSTORE SWAP1 DUP2 PUSH0 DUP3 ADD SLOAD DUP2 MSTORE PUSH1 0x20 ADD PUSH1 0x1 DUP3 ADD PUSH0 SWAP1 SLOAD SWAP1 PUSH2 0x100 EXP SWAP1 DIV PUSH20 0xFFFFFFFFFFFFFFFFFFFFFFFFFFFFFFFFFFFFFFFF AND PUSH20 0xFFFFFFFFFFFFFFFFFFFFFFFFFFFFFFFFFFFFFFFF AND PUSH20 0xFFFFFFFFFFFFFFFFFFFFFFFFFFFFFFFFFFFFFFFF AND DUP2 MSTORE PUSH1 0x20 ADD PUSH1 0x2 DUP3 ADD DUP1 SLOAD PUSH2 0xD34 SWAP1 PUSH2 0x14CB JUMP JUMPDEST DUP1 PUSH1 0x1F ADD PUSH1 0x20 DUP1 SWAP2 DIV MUL PUSH1 0x20 ADD PUSH1 0x40 MLOAD SWAP1 DUP2 ADD PUSH1 0x40 MSTORE DUP1 SWAP3 SWAP2 SWAP1 DUP2 DUP2 MSTORE PUSH1 0x20 ADD DUP3 DUP1 SLOAD PUSH2 0xD60 SWAP1 PUSH2 0x14CB JUMP JUMPDEST DUP1 ISZERO PUSH2 0xDAB JUMPI DUP1 PUSH1 0x1F LT PUSH2 0xD82 JUMPI PUSH2 0x100 DUP1 DUP4 SLOAD DIV MUL DUP4 MSTORE SWAP2 PUSH1 0x20 ADD SWAP2 PUSH2 0xDAB JUMP JUMPDEST DUP3 ADD SWAP2 SWAP1 PUSH0 MSTORE PUSH1 0x20 PUSH0 KECCAK256 SWAP1 JUMPDEST DUP2 SLOAD DUP2 MSTORE SWAP1 PUSH1 0x1 ADD SWAP1 PUSH1 0x20 ADD DUP1 DUP4 GT PUSH2 0xD8E JUMPI DUP3 SWAP1 SUB PUSH1 0x1F AND DUP3 ADD SWAP2 JUMPDEST POP POP POP POP POP DUP2 MSTORE PUSH1 0x20 ADD PUSH1 0x3 DUP3 ADD SLOAD DUP2 MSTORE PUSH1 0x20 ADD PUSH1 0x4 DUP3 ADD SLOAD DUP2 MSTORE POP POP SWAP1 POP SWAP2 SWAP1 POP JUMP JUMPDEST PUSH1 0x40 MLOAD DUP1 PUSH1 0xA0 ADD PUSH1 0x40 MSTORE DUP1 PUSH0 DUP2 MSTORE PUSH1 0x20 ADD PUSH0 PUSH20 0xFFFFFFFFFFFFFFFFFFFFFFFFFFFFFFFFFFFFFFFF AND DUP2 MSTORE PUSH1 0x20 ADD PUSH1 0x60 DUP2 MSTORE PUSH1 0x20 ADD PUSH0 DUP2 MSTORE PUSH1 0x20 ADD PUSH0 DUP2 MSTORE POP SWAP1 JUMP JUMPDEST PUSH0 PUSH1 0x40 MLOAD SWAP1 POP SWAP1 JUMP JUMPDEST PUSH0 PUSH0 REVERT JUMPDEST PUSH0 PUSH0 REVERT JUMPDEST PUSH0 PUSH20 0xFFFFFFFFFFFFFFFFFFFFFFFFFFFFFFFFFFFFFFFF DUP3 AND SWAP1 POP SWAP2 SWAP1 POP JUMP JUMPDEST PUSH0 PUSH2 0xE4A DUP3 PUSH2 0xE21 JUMP JUMPDEST SWAP1 POP SWAP2 SWAP1 POP JUMP JUMPDEST PUSH2 0xE5A DUP2 PUSH2 0xE40 JUMP JUMPDEST DUP2 EQ PUSH2 0xE64 JUMPI PUSH0 PUSH0 REVERT JUMPDEST POP JUMP JUMPDEST PUSH0 DUP2 CALLDATALOAD SWAP1 POP PUSH2 0xE75 DUP2 PUSH2 0xE51 JUMP JUMPDEST SWAP3 SWAP2 POP POP JUMP JUMPDEST PUSH0 DUP2 SWAP1 POP SWAP2 SWAP1 POP JUMP JUMPDEST PUSH2 0xE8D DUP2 PUSH2 0xE7B JUMP JUMPDEST DUP2 EQ PUSH2 0xE97 JUMPI PUSH0 PUSH0 REVERT JUMPDEST POP JUMP JUMPDEST PUSH0 DUP2 CALLDATALOAD SWAP1 POP PUSH2 0xEA8 DUP2 PUSH2 0xE84 JUMP JUMPDEST SWAP3 SWAP2 POP POP JUMP JUMPDEST PUSH0 PUSH0 PUSH1 0x40 DUP4 DUP6 SUB SLT ISZERO PUSH2 0xEC4 JUMPI PUSH2 0xEC3 PUSH2 0xE19 JUMP JUMPDEST JUMPDEST PUSH0 PUSH2 0xED1 DUP6 DUP3 DUP7 ADD PUSH2 0xE67 JUMP JUMPDEST SWAP3 POP POP PUSH1 0x20 PUSH2 0xEE2 DUP6 DUP3 DUP7 ADD PUSH2 0xE9A JUMP JUMPDEST SWAP2 POP POP SWAP3 POP SWAP3 SWAP1 POP JUMP JUMPDEST PUSH2 0xEF5 DUP2 PUSH2 0xE7B JUMP JUMPDEST DUP3 MSTORE POP POP JUMP JUMPDEST PUSH2 0xF04 DUP2 PUSH2 0xE40 JUMP JUMPDEST DUP3 MSTORE POP POP JUMP JUMPDEST PUSH0 DUP2 MLOAD SWAP1 POP SWAP2 SWAP1 POP JUMP JUMPDEST PUSH0 DUP3 DUP3 MSTORE PUSH1 0x20 DUP3 ADD SWAP1 POP SWAP3 SWAP2 POP POP JUMP JUMPDEST DUP3 DUP2 DUP4 MCOPY PUSH0 DUP4 DUP4 ADD MSTORE POP POP POP JUMP JUMPDEST PUSH0 PUSH1 0x1F NOT PUSH1 0x1F DUP4 ADD AND SWAP1 POP SWAP2 SWAP1 POP JUMP JUMPDEST PUSH0 PUSH2 0xF4C DUP3 PUSH2 0xF0A JUMP JUMPDEST PUSH2 0xF56 DUP2 DUP6 PUSH2 0xF14 JUMP JUMPDEST SWAP4 POP PUSH2 0xF66 DUP2 DUP6 PUSH1 0x20 DUP7 ADD PUSH2 0xF24 JUMP JUMPDEST PUSH2 0xF6F DUP2 PUSH2 0xF32 JUMP JUMPDEST DUP5 ADD SWAP2 POP POP SWAP3 SWAP2 POP POP JUMP JUMPDEST PUSH0 PUSH1 0xA0 DUP3 ADD SWAP1 POP PUSH2 0xF8D PUSH0 DUP4 ADD DUP9 PUSH2 0xEEC JUMP JUMPDEST PUSH2 0xF9A PUSH1 0x20 DUP4 ADD DUP8 PUSH2 0xEFB JUMP JUMPDEST DUP2 DUP2 SUB PUSH1 0x40 DUP4 ADD MSTORE PUSH2 0xFAC DUP2 DUP7 PUSH2 0xF42 JUMP JUMPDEST SWAP1 POP PUSH2 0xFBB PUSH1 0x60 DUP4 ADD DUP6 PUSH2 0xEEC JUMP JUMPDEST PUSH2 0xFC8 PUSH1 0x80 DUP4 ADD DUP5 PUSH2 0xEEC JUMP JUMPDEST SWAP7 SWAP6 POP POP POP POP POP POP JUMP JUMPDEST PUSH0 PUSH1 0x20 DUP3 DUP5 SUB SLT ISZERO PUSH2 0xFE7 JUMPI PUSH2 0xFE6 PUSH2 0xE19 JUMP JUMPDEST JUMPDEST PUSH0 PUSH2 0xFF4 DUP5 DUP3 DUP6 ADD PUSH2 0xE67 JUMP JUMPDEST SWAP2 POP POP SWAP3 SWAP2 POP POP JUMP JUMPDEST PUSH0 DUP2 MLOAD SWAP1 POP SWAP2 SWAP1 POP JUMP JUMPDEST PUSH0 DUP3 DUP3 MSTORE PUSH1 0x20 DUP3 ADD SWAP1 POP SWAP3 SWAP2 POP POP JUMP JUMPDEST PUSH0 DUP2 SWAP1 POP PUSH1 0x20 DUP3 ADD SWAP1 POP SWAP2 SWAP1 POP JUMP JUMPDEST PUSH2 0x102F DUP2 PUSH2 0xE7B JUMP JUMPDEST DUP3 MSTORE POP POP JUMP JUMPDEST PUSH2 0x103E DUP2 PUSH2 0xE40 JUMP JUMPDEST DUP3 MSTORE POP POP JUMP JUMPDEST PUSH0 DUP3 DUP3 MSTORE PUSH1 0x20 DUP3 ADD SWAP1 POP SWAP3 SWAP2 POP POP JUMP JUMPDEST PUSH0 PUSH2 0x105E DUP3 PUSH2 0xF0A JUMP JUMPDEST PUSH2 0x1068 DUP2 DUP6 PUSH2 0x1044 JUMP JUMPDEST SWAP4 POP PUSH2 0x1078 DUP2 DUP6 PUSH1 0x20 DUP7 ADD PUSH2 0xF24 JUMP JUMPDEST PUSH2 0x1081 DUP2 PUSH2 0xF32 JUMP JUMPDEST DUP5 ADD SWAP2 POP POP SWAP3 SWAP2 POP POP JUMP JUMPDEST PUSH0 PUSH1 0xA0 DUP4 ADD PUSH0 DUP4 ADD MLOAD PUSH2 0x10A1 PUSH0 DUP7 ADD DUP3 PUSH2 0x1026 JUMP JUMPDEST POP PUSH1 0x20 DUP4 ADD MLOAD PUSH2 0x10B4 PUSH1 0x20 DUP7 ADD DUP3 PUSH2 0x1035 JUMP JUMPDEST POP PUSH1 0x40 DUP4 ADD MLOAD DUP5 DUP3 SUB PUSH1 0x40 DUP7 ADD MSTORE PUSH2 0x10CC DUP3 DUP3 PUSH2 0x1054 JUMP JUMPDEST SWAP2 POP POP PUSH1 0x60 DUP4 ADD MLOAD PUSH2 0x10E1 PUSH1 0x60 DUP7 ADD DUP3 PUSH2 0x1026 JUMP JUMPDEST POP PUSH1 0x80 DUP4 ADD MLOAD PUSH2 0x10F4 PUSH1 0x80 DUP7 ADD DUP3 PUSH2 0x1026 JUMP JUMPDEST POP DUP1 SWAP2 POP POP SWAP3 SWAP2 POP POP JUMP JUMPDEST PUSH0 PUSH2 0x110A DUP4 DUP4 PUSH2 0x108C JUMP JUMPDEST SWAP1 POP SWAP3 SWAP2 POP POP JUMP JUMPDEST PUSH0 PUSH1 0x20 DUP3 ADD SWAP1 POP SWAP2 SWAP1 POP JUMP JUMPDEST PUSH0 PUSH2 0x1128 DUP3 PUSH2 0xFFD JUMP JUMPDEST PUSH2 0x1132 DUP2 DUP6 PUSH2 0x1007 JUMP JUMPDEST SWAP4 POP DUP4 PUSH1 0x20 DUP3 MUL DUP6 ADD PUSH2 0x1144 DUP6 PUSH2 0x1017 JUMP JUMPDEST DUP1 PUSH0 JUMPDEST DUP6 DUP2 LT ISZERO PUSH2 0x117F JUMPI DUP5 DUP5 SUB DUP10 MSTORE DUP2 MLOAD PUSH2 0x1160 DUP6 DUP3 PUSH2 0x10FF JUMP JUMPDEST SWAP5 POP PUSH2 0x116B DUP4 PUSH2 0x1112 JUMP JUMPDEST SWAP3 POP PUSH1 0x20 DUP11 ADD SWAP10 POP POP PUSH1 0x1 DUP2 ADD SWAP1 POP PUSH2 0x1147 JUMP JUMPDEST POP DUP3 SWAP8 POP DUP8 SWAP6 POP POP POP POP POP POP SWAP3 SWAP2 POP POP JUMP JUMPDEST PUSH0 PUSH1 0x20 DUP3 ADD SWAP1 POP DUP2 DUP2 SUB PUSH0 DUP4 ADD MSTORE PUSH2 0x11A9 DUP2 DUP5 PUSH2 0x111E JUMP JUMPDEST SWAP1 POP SWAP3 SWAP2 POP POP JUMP JUMPDEST PUSH0 PUSH2 0xFFFF DUP3 AND SWAP1 POP SWAP2 SWAP1 POP JUMP JUMPDEST PUSH2 0x11C7 DUP2 PUSH2 0x11B1 JUMP JUMPDEST DUP2 EQ PUSH2 0x11D1 JUMPI PUSH0 PUSH0 REVERT JUMPDEST POP JUMP JUMPDEST PUSH0 DUP2 CALLDATALOAD SWAP1 POP PUSH2 0x11E2 DUP2 PUSH2 0x11BE JUMP JUMPDEST SWAP3 SWAP2 POP POP JUMP JUMPDEST PUSH0 PUSH1 0x20 DUP3 DUP5 SUB SLT ISZERO PUSH2 0x11FD JUMPI PUSH2 0x11FC PUSH2 0xE19 JUMP JUMPDEST JUMPDEST PUSH0 PUSH2 0x120A DUP5 DUP3 DUP6 ADD PUSH2 0x11D4 JUMP JUMPDEST SWAP2 POP POP SWAP3 SWAP2 POP POP JUMP JUMPDEST PUSH2 0x121C DUP2 PUSH2 0x11B1 JUMP JUMPDEST DUP3 MSTORE POP POP JUMP JUMPDEST PUSH0 PUSH1 0x20 DUP3 ADD SWAP1 POP PUSH2 0x1235 PUSH0 DUP4 ADD DUP5 PUSH2 0x1213 JUMP JUMPDEST SWAP3 SWAP2 POP POP JUMP JUMPDEST PUSH0 PUSH0 REVERT JUMPDEST PUSH0 PUSH0 REVERT JUMPDEST PUSH32 0x4E487B7100000000000000000000000000000000000000000000000000000000 PUSH0 MSTORE PUSH1 0x41 PUSH1 0x4 MSTORE PUSH1 0x24 PUSH0 REVERT JUMPDEST PUSH2 0x1279 DUP3 PUSH2 0xF32 JUMP JUMPDEST DUP2 ADD DUP2 DUP2 LT PUSH8 0xFFFFFFFFFFFFFFFF DUP3 GT OR ISZERO PUSH2 0x1298 JUMPI PUSH2 0x1297 PUSH2 0x1243 JUMP JUMPDEST JUMPDEST DUP1 PUSH1 0x40 MSTORE POP POP POP JUMP JUMPDEST PUSH0 PUSH2 0x12AA PUSH2 0xE10 JUMP JUMPDEST SWAP1 POP PUSH2 0x12B6 DUP3 DUP3 PUSH2 0x1270 JUMP JUMPDEST SWAP2 SWAP1 POP JUMP JUMPDEST PUSH0 PUSH8 0xFFFFFFFFFFFFFFFF DUP3 GT ISZERO PUSH2 0x12D5 JUMPI PUSH2 0x12D4 PUSH2 0x1243 JUMP JUMPDEST JUMPDEST PUSH2 0x12DE DUP3 PUSH2 0xF32 JUMP JUMPDEST SWAP1 POP PUSH1 0x20 DUP2 ADD SWAP1 POP SWAP2 SWAP1 POP JUMP JUMPDEST DUP3 DUP2 DUP4 CALLDATACOPY PUSH0 DUP4 DUP4 ADD MSTORE POP POP POP JUMP JUMPDEST PUSH0 PUSH2 0x130B PUSH2 0x1306 DUP5 PUSH2 0x12BB JUMP JUMPDEST PUSH2 0x12A1 JUMP JUMPDEST SWAP1 POP DUP3 DUP2 MSTORE PUSH1 0x20 DUP2 ADD DUP5 DUP5 DUP5 ADD GT ISZERO PUSH2 0x1327 JUMPI PUSH2 0x1326 PUSH2 0x123F JUMP JUMPDEST JUMPDEST PUSH2 0x1332 DUP5 DUP3 DUP6 PUSH2 0x12EB JUMP JUMPDEST POP SWAP4 SWAP3 POP POP POP JUMP JUMPDEST PUSH0 DUP3 PUSH1 0x1F DUP4 ADD SLT PUSH2 0x134E JUMPI PUSH2 0x134D PUSH2 0x123B JUMP JUMPDEST JUMPDEST DUP2 CALLDATALOAD PUSH2 0x135E DUP5 DUP3 PUSH1 0x20 DUP7 ADD PUSH2 0x12F9 JUMP JUMPDEST SWAP2 POP POP SWAP3 SWAP2 POP POP JUMP JUMPDEST PUSH0 PUSH1 0x20 DUP3 DUP5 SUB SLT ISZERO PUSH2 0x137C JUMPI PUSH2 0x137B PUSH2 0xE19 JUMP JUMPDEST JUMPDEST PUSH0 DUP3 ADD CALLDATALOAD PUSH8 0xFFFFFFFFFFFFFFFF DUP2 GT ISZERO PUSH2 0x1399 JUMPI PUSH2 0x1398 PUSH2 0xE1D JUMP JUMPDEST JUMPDEST PUSH2 0x13A5 DUP5 DUP3 DUP6 ADD PUSH2 0x133A JUMP JUMPDEST SWAP2 POP POP SWAP3 SWAP2 POP POP JUMP JUMPDEST PUSH0 PUSH1 0x20 DUP3 ADD SWAP1 POP PUSH2 0x13C1 PUSH0 DUP4 ADD DUP5 PUSH2 0xEEC JUMP JUMPDEST SWAP3 SWAP2 POP POP JUMP JUMPDEST PUSH0 PUSH1 0x20 DUP3 ADD SWAP1 POP PUSH2 0x13DA PUSH0 DUP4 ADD DUP5 PUSH2 0xEFB JUMP JUMPDEST SWAP3 SWAP2 POP POP JUMP JUMPDEST PUSH0 PUSH1 0x20 DUP3 DUP5 SUB SLT ISZERO PUSH2 0x13F5 JUMPI PUSH2 0x13F4 PUSH2 0xE19 JUMP JUMPDEST JUMPDEST PUSH0 PUSH2 0x1402 DUP5 DUP3 DUP6 ADD PUSH2 0xE9A JUMP JUMPDEST SWAP2 POP POP SWAP3 SWAP2 POP POP JUMP JUMPDEST PUSH0 PUSH1 0xA0 DUP4 ADD PUSH0 DUP4 ADD MLOAD PUSH2 0x1420 PUSH0 DUP7 ADD DUP3 PUSH2 0x1026 JUMP JUMPDEST POP PUSH1 0x20 DUP4 ADD MLOAD PUSH2 0x1433 PUSH1 0x20 DUP7 ADD DUP3 PUSH2 0x1035 JUMP JUMPDEST POP PUSH1 0x40 DUP4 ADD MLOAD DUP5 DUP3 SUB PUSH1 0x40 DUP7 ADD MSTORE PUSH2 0x144B DUP3 DUP3 PUSH2 0x1054 JUMP JUMPDEST SWAP2 POP POP PUSH1 0x60 DUP4 ADD MLOAD PUSH2 0x1460 PUSH1 0x60 DUP7 ADD DUP3 PUSH2 0x1026 JUMP JUMPDEST POP PUSH1 0x80 DUP4 ADD MLOAD PUSH2 0x1473 PUSH1 0x80 DUP7 ADD DUP3 PUSH2 0x1026 JUMP JUMPDEST POP DUP1 SWAP2 POP POP SWAP3 SWAP2 POP POP JUMP JUMPDEST PUSH0 PUSH1 0x20 DUP3 ADD SWAP1 POP DUP2 DUP2 SUB PUSH0 DUP4 ADD MSTORE PUSH2 0x1496 DUP2 DUP5 PUSH2 0x140B JUMP JUMPDEST SWAP1 POP SWAP3 SWAP2 POP POP JUMP JUMPDEST PUSH32 0x4E487B7100000000000000000000000000000000000000000000000000000000 PUSH0 MSTORE PUSH1 0x22 PUSH1 0x4 MSTORE PUSH1 0x24 PUSH0 REVERT JUMPDEST PUSH0 PUSH1 0x2 DUP3 DIV SWAP1 POP PUSH1 0x1 DUP3 AND DUP1 PUSH2 0x14E2 JUMPI PUSH1 0x7F DUP3 AND SWAP2 POP JUMPDEST PUSH1 0x20 DUP3 LT DUP2 SUB PUSH2 0x14F5 JUMPI PUSH2 0x14F4 PUSH2 0x149E JUMP JUMPDEST JUMPDEST POP SWAP2 SWAP1 POP JUMP JUMPDEST PUSH32 0x4E487B7100000000000000000000000000000000000000000000000000000000 PUSH0 MSTORE PUSH1 0x32 PUSH1 0x4 MSTORE PUSH1 0x24 PUSH0 REVERT JUMPDEST PUSH32 0x545745455420444F4553204E4F54204558495354000000000000000000000000 PUSH0 DUP3 ADD MSTORE POP JUMP JUMPDEST PUSH0 PUSH2 0x155C PUSH1 0x14 DUP4 PUSH2 0xF14 JUMP JUMPDEST SWAP2 POP PUSH2 0x1567 DUP3 PUSH2 0x1528 JUMP JUMPDEST PUSH1 0x20 DUP3 ADD SWAP1 POP SWAP2 SWAP1 POP JUMP JUMPDEST PUSH0 PUSH1 0x20 DUP3 ADD SWAP1 POP DUP2 DUP2 SUB PUSH0 DUP4 ADD MSTORE PUSH2 0x1589 DUP2 PUSH2 0x1550 JUMP JUMPDEST SWAP1 POP SWAP2 SWAP1 POP JUMP JUMPDEST PUSH32 0x545745455420484153204E4F204C494B45530000000000000000000000000000 PUSH0 DUP3 ADD MSTORE POP JUMP JUMPDEST PUSH0 PUSH2 0x15C4 PUSH1 0x12 DUP4 PUSH2 0xF14 JUMP JUMPDEST SWAP2 POP PUSH2 0x15CF DUP3 PUSH2 0x1590 JUMP JUMPDEST PUSH1 0x20 DUP3 ADD SWAP1 POP SWAP2 SWAP1 POP JUMP JUMPDEST PUSH0 PUSH1 0x20 DUP3 ADD SWAP1 POP DUP2 DUP2 SUB PUSH0 DUP4 ADD MSTORE PUSH2 0x15F1 DUP2 PUSH2 0x15B8 JUMP JUMPDEST SWAP1 POP SWAP2 SWAP1 POP JUMP JUMPDEST PUSH32 0x4E487B7100000000000000000000000000000000000000000000000000000000 PUSH0 MSTORE PUSH1 0x11 PUSH1 0x4 MSTORE PUSH1 0x24 PUSH0 REVERT JUMPDEST PUSH0 PUSH2 0x162F DUP3 PUSH2 0xE7B JUMP JUMPDEST SWAP2 POP PUSH0 DUP3 SUB PUSH2 0x1641 JUMPI PUSH2 0x1640 PUSH2 0x15F8 JUMP JUMPDEST JUMPDEST PUSH1 0x1 DUP3 SUB SWAP1 POP SWAP2 SWAP1 POP JUMP JUMPDEST PUSH0 PUSH1 0x80 DUP3 ADD SWAP1 POP PUSH2 0x165F PUSH0 DUP4 ADD DUP8 PUSH2 0xEFB JUMP JUMPDEST PUSH2 0x166C PUSH1 0x20 DUP4 ADD DUP7 PUSH2 0xEFB JUMP JUMPDEST PUSH2 0x1679 PUSH1 0x40 DUP4 ADD DUP6 PUSH2 0xEEC JUMP JUMPDEST PUSH2 0x1686 PUSH1 0x60 DUP4 ADD DUP5 PUSH2 0xEEC JUMP JUMPDEST SWAP6 SWAP5 POP POP POP POP POP JUMP JUMPDEST PUSH32 0x594F5520415245204E4F5420544845204F574E45522100000000000000000000 PUSH0 DUP3 ADD MSTORE POP JUMP JUMPDEST PUSH0 PUSH2 0x16C3 PUSH1 0x16 DUP4 PUSH2 0xF14 JUMP JUMPDEST SWAP2 POP PUSH2 0x16CE DUP3 PUSH2 0x168F JUMP JUMPDEST PUSH1 0x20 DUP3 ADD SWAP1 POP SWAP2 SWAP1 POP JUMP JUMPDEST PUSH0 PUSH1 0x20 DUP3 ADD SWAP1 POP DUP2 DUP2 SUB PUSH0 DUP4 ADD MSTORE PUSH2 0x16F0 DUP2 PUSH2 0x16B7 JUMP JUMPDEST SWAP1 POP SWAP2 SWAP1 POP JUMP JUMPDEST PUSH0 PUSH2 0x1701 DUP3 PUSH2 0xE7B JUMP JUMPDEST SWAP2 POP PUSH32 0xFFFFFFFFFFFFFFFFFFFFFFFFFFFFFFFFFFFFFFFFFFFFFFFFFFFFFFFFFFFFFFFF DUP3 SUB PUSH2 0x1733 JUMPI PUSH2 0x1732 PUSH2 0x15F8 JUMP JUMPDEST JUMPDEST PUSH1 0x1 DUP3 ADD SWAP1 POP SWAP2 SWAP1 POP JUMP JUMPDEST PUSH32 0x547765657420697320746F6F206C6F6E672062726F2100000000000000000000 PUSH0 DUP3 ADD MSTORE POP JUMP JUMPDEST PUSH0 PUSH2 0x1772 PUSH1 0x16 DUP4 PUSH2 0xF14 JUMP JUMPDEST SWAP2 POP PUSH2 0x177D DUP3 PUSH2 0x173E JUMP JUMPDEST PUSH1 0x20 DUP3 ADD SWAP1 POP SWAP2 SWAP1 POP JUMP JUMPDEST PUSH0 PUSH1 0x20 DUP3 ADD SWAP1 POP DUP2 DUP2 SUB PUSH0 DUP4 ADD MSTORE PUSH2 0x179F DUP2 PUSH2 0x1766 JUMP JUMPDEST SWAP1 POP SWAP2 SWAP1 POP JUMP JUMPDEST PUSH0 DUP2 SWAP1 POP DUP2 PUSH0 MSTORE PUSH1 0x20 PUSH0 KECCAK256 SWAP1 POP SWAP2 SWAP1 POP JUMP JUMPDEST PUSH0 PUSH1 0x20 PUSH1 0x1F DUP4 ADD DIV SWAP1 POP SWAP2 SWAP1 POP JUMP JUMPDEST PUSH0 DUP3 DUP3 SHL SWAP1 POP SWAP3 SWAP2 POP POP JUMP JUMPDEST PUSH0 PUSH1 0x8 DUP4 MUL PUSH2 0x1802 PUSH32 0xFFFFFFFFFFFFFFFFFFFFFFFFFFFFFFFFFFFFFFFFFFFFFFFFFFFFFFFFFFFFFFFF DUP3 PUSH2 0x17C7 JUMP JUMPDEST PUSH2 0x180C DUP7 DUP4 PUSH2 0x17C7 JUMP JUMPDEST SWAP6 POP DUP1 NOT DUP5 AND SWAP4 POP DUP1 DUP7 AND DUP5 OR SWAP3 POP POP POP SWAP4 SWAP3 POP POP POP JUMP JUMPDEST PUSH0 DUP2 SWAP1 POP SWAP2 SWAP1 POP JUMP JUMPDEST PUSH0 PUSH2 0x1847 PUSH2 0x1842 PUSH2 0x183D DUP5 PUSH2 0xE7B JUMP JUMPDEST PUSH2 0x1824 JUMP JUMPDEST PUSH2 0xE7B JUMP JUMPDEST SWAP1 POP SWAP2 SWAP1 POP JUMP JUMPDEST PUSH0 DUP2 SWAP1 POP SWAP2 SWAP1 POP JUMP JUMPDEST PUSH2 0x1860 DUP4 PUSH2 0x182D JUMP JUMPDEST PUSH2 0x1874 PUSH2 0x186C DUP3 PUSH2 0x184E JUMP JUMPDEST DUP5 DUP5 SLOAD PUSH2 0x17D3 JUMP JUMPDEST DUP3 SSTORE POP POP POP POP JUMP JUMPDEST PUSH0 PUSH0 SWAP1 POP SWAP1 JUMP JUMPDEST PUSH2 0x188B PUSH2 0x187C JUMP JUMPDEST PUSH2 0x1896 DUP2 DUP5 DUP5 PUSH2 0x1857 JUMP JUMPDEST POP POP POP JUMP JUMPDEST JUMPDEST DUP2 DUP2 LT ISZERO PUSH2 0x18B9 JUMPI PUSH2 0x18AE PUSH0 DUP3 PUSH2 0x1883 JUMP JUMPDEST PUSH1 0x1 DUP2 ADD SWAP1 POP PUSH2 0x189C JUMP JUMPDEST POP POP JUMP JUMPDEST PUSH1 0x1F DUP3 GT ISZERO PUSH2 0x18FE JUMPI PUSH2 0x18CF DUP2 PUSH2 0x17A6 JUMP JUMPDEST PUSH2 0x18D8 DUP5 PUSH2 0x17B8 JUMP JUMPDEST DUP2 ADD PUSH1 0x20 DUP6 LT ISZERO PUSH2 0x18E7 JUMPI DUP2 SWAP1 POP JUMPDEST PUSH2 0x18FB PUSH2 0x18F3 DUP6 PUSH2 0x17B8 JUMP JUMPDEST DUP4 ADD DUP3 PUSH2 0x189B JUMP JUMPDEST POP POP JUMPDEST POP POP POP JUMP JUMPDEST PUSH0 DUP3 DUP3 SHR SWAP1 POP SWAP3 SWAP2 POP POP JUMP JUMPDEST PUSH0 PUSH2 0x191E PUSH0 NOT DUP5 PUSH1 0x8 MUL PUSH2 0x1903 JUMP JUMPDEST NOT DUP1 DUP4 AND SWAP2 POP POP SWAP3 SWAP2 POP POP JUMP JUMPDEST PUSH0 PUSH2 0x1936 DUP4 DUP4 PUSH2 0x190F JUMP JUMPDEST SWAP2 POP DUP3 PUSH1 0x2 MUL DUP3 OR SWAP1 POP SWAP3 SWAP2 POP POP JUMP JUMPDEST PUSH2 0x194F DUP3 PUSH2 0xF0A JUMP JUMPDEST PUSH8 0xFFFFFFFFFFFFFFFF DUP2 GT ISZERO PUSH2 0x1968 JUMPI PUSH2 0x1967 PUSH2 0x1243 JUMP JUMPDEST JUMPDEST PUSH2 0x1972 DUP3 SLOAD PUSH2 0x14CB JUMP JUMPDEST PUSH2 0x197D DUP3 DUP3 DUP6 PUSH2 0x18BD JUMP JUMPDEST PUSH0 PUSH1 0x20 SWAP1 POP PUSH1 0x1F DUP4 GT PUSH1 0x1 DUP2 EQ PUSH2 0x19AE JUMPI PUSH0 DUP5 ISZERO PUSH2 0x199C JUMPI DUP3 DUP8 ADD MLOAD SWAP1 POP JUMPDEST PUSH2 0x19A6 DUP6 DUP3 PUSH2 0x192B JUMP JUMPDEST DUP7 SSTORE POP PUSH2 0x1A0D JUMP JUMPDEST PUSH1 0x1F NOT DUP5 AND PUSH2 0x19BC DUP7 PUSH2 0x17A6 JUMP JUMPDEST PUSH0 JUMPDEST DUP3 DUP2 LT ISZERO PUSH2 0x19E3 JUMPI DUP5 DUP10 ADD MLOAD DUP3 SSTORE PUSH1 0x1 DUP3 ADD SWAP2 POP PUSH1 0x20 DUP6 ADD SWAP5 POP PUSH1 0x20 DUP2 ADD SWAP1 POP PUSH2 0x19BE JUMP JUMPDEST DUP7 DUP4 LT ISZERO PUSH2 0x1A00 JUMPI DUP5 DUP10 ADD MLOAD PUSH2 0x19FC PUSH1 0x1F DUP10 AND DUP3 PUSH2 0x190F JUMP JUMPDEST DUP4 SSTORE POP JUMPDEST PUSH1 0x1 PUSH1 0x2 DUP9 MUL ADD DUP9 SSTORE POP POP POP JUMPDEST POP POP POP POP POP POP JUMP JUMPDEST PUSH0 PUSH1 0x80 DUP3 ADD SWAP1 POP PUSH2 0x1A28 PUSH0 DUP4 ADD DUP8 PUSH2 0xEEC JUMP JUMPDEST PUSH2 0x1A35 PUSH1 0x20 DUP4 ADD DUP7 PUSH2 0xEFB JUMP JUMPDEST DUP2 DUP2 SUB PUSH1 0x40 DUP4 ADD MSTORE PUSH2 0x1A47 DUP2 DUP6 PUSH2 0xF42 JUMP JUMPDEST SWAP1 POP PUSH2 0x1A56 PUSH1 0x60 DUP4 ADD DUP5 PUSH2 0xEEC JUMP JUMPDEST SWAP6 SWAP5 POP POP POP POP POP JUMP JUMPDEST PUSH0 PUSH2 0x1A69 DUP3 PUSH2 0xE7B JUMP JUMPDEST SWAP2 POP PUSH2 0x1A74 DUP4 PUSH2 0xE7B JUMP JUMPDEST SWAP3 POP DUP3 DUP3 ADD SWAP1 POP DUP1 DUP3 GT ISZERO PUSH2 0x1A8C JUMPI PUSH2 0x1A8B PUSH2 0x15F8 JUMP JUMPDEST JUMPDEST SWAP3 SWAP2 POP POP JUMP INVALID LOG2 PUSH5 0x6970667358 0x22 SLT KECCAK256 LOG3 LOG1 EXTDELEGATECALL 0x2C 0x24 SWAP11 0xC7 0x28 JUMPF 0x7A3D LOG3 SWAPN 0xD7 0xB5 0xAF SLT 0xD7 0xDF SELFDESTRUCT 0xB1 STATICCALL 0xE 0xB6 0xEA BLOBBASEFEE SWAP13 0xC4 EXTCODEHASH 0xCA EXP PUSH8 0x64736F6C63430008 0x1E STOP CALLER "
				},
				"gasEstimates": {
					"creation": {
						"codeDepositCost": "1371200",
						"executionCost": "49959",
						"totalCost": "1421159"
					},
					"external": {
						"MAX_TWEET_LENGTH()": "2465",
						"changeTweetLength(uint16)": "26908",
						"createTweet(string)": "infinite",
						"getAllTweets(address)": "infinite",
						"getTotalLikes(address)": "infinite",
						"getTweet(uint256)": "infinite",
						"likeTweet(address,uint256)": "infinite",
						"owner()": "2574",
						"tweets(address,uint256)": "infinite",
						"unlikeTweet(address,uint256)": "infinite"
					}
				},
				"methodIdentifiers": {
					"MAX_TWEET_LENGTH()": "6eb10797",
					"changeTweetLength(uint16)": "58bfa4ab",
					"createTweet(string)": "7c9cd2bc",
					"getAllTweets(address)": "12e7ee1c",
					"getTotalLikes(address)": "820785cc",
					"getTweet(uint256)": "c3ad5ecb",
					"likeTweet(address,uint256)": "63378216",
					"owner()": "8da5cb5b",
					"tweets(address,uint256)": "05a1b4a9",
					"unlikeTweet(address,uint256)": "3d9b569f"
				}
			},
			"storageLayout": {
				"storage": [
					{
						"astId": 4,
						"contract": "ultimate-solidity-course-for-complete-beginners-main/Exercises/24-Twitter-GetTotalLikes-Exercise.sol:Twitter",
						"label": "MAX_TWEET_LENGTH",
						"offset": 0,
						"slot": "0",
						"type": "t_uint16"
					},
					{
						"astId": 21,
						"contract": "ultimate-solidity-course-for-complete-beginners-main/Exercises/24-Twitter-GetTotalLikes-Exercise.sol:Twitter",
						"label": "tweets",
						"offset": 0,
						"slot": "1",
						"type": "t_mapping(t_address,t_array(t_struct(Tweet)15_storage)dyn_storage)"
					},
					{
						"astId": 23,
						"contract": "ultimate-solidity-course-for-complete-beginners-main/Exercises/24-Twitter-GetTotalLikes-Exercise.sol:Twitter",
						"label": "owner",
						"offset": 0,
						"slot": "2",
						"type": "t_address"
					}
				],
				"types": {
					"t_address": {
						"encoding": "inplace",
						"label": "address",
						"numberOfBytes": "20"
					},
					"t_array(t_struct(Tweet)15_storage)dyn_storage": {
						"base": "t_struct(Tweet)15_storage",
						"encoding": "dynamic_array",
						"label": "struct Twitter.Tweet[]",
						"numberOfBytes": "32"
					},
					"t_mapping(t_address,t_array(t_struct(Tweet)15_storage)dyn_storage)": {
						"encoding": "mapping",
						"key": "t_address",
						"label": "mapping(address => struct Twitter.Tweet[])",
						"numberOfBytes": "32",
						"value": "t_array(t_struct(Tweet)15_storage)dyn_storage"
					},
					"t_string_storage": {
						"encoding": "bytes",
						"label": "string",
						"numberOfBytes": "32"
					},
					"t_struct(Tweet)15_storage": {
						"encoding": "inplace",
						"label": "struct Twitter.Tweet",
						"members": [
							{
								"astId": 6,
								"contract": "ultimate-solidity-course-for-complete-beginners-main/Exercises/24-Twitter-GetTotalLikes-Exercise.sol:Twitter",
								"label": "id",
								"offset": 0,
								"slot": "0",
								"type": "t_uint256"
							},
							{
								"astId": 8,
								"contract": "ultimate-solidity-course-for-complete-beginners-main/Exercises/24-Twitter-GetTotalLikes-Exercise.sol:Twitter",
								"label": "author",
								"offset": 0,
								"slot": "1",
								"type": "t_address"
							},
							{
								"astId": 10,
								"contract": "ultimate-solidity-course-for-complete-beginners-main/Exercises/24-Twitter-GetTotalLikes-Exercise.sol:Twitter",
								"label": "content",
								"offset": 0,
								"slot": "2",
								"type": "t_string_storage"
							},
							{
								"astId": 12,
								"contract": "ultimate-solidity-course-for-complete-beginners-main/Exercises/24-Twitter-GetTotalLikes-Exercise.sol:Twitter",
								"label": "timestamp",
								"offset": 0,
								"slot": "3",
								"type": "t_uint256"
							},
							{
								"astId": 14,
								"contract": "ultimate-solidity-course-for-complete-beginners-main/Exercises/24-Twitter-GetTotalLikes-Exercise.sol:Twitter",
								"label": "likes",
								"offset": 0,
								"slot": "4",
								"type": "t_uint256"
							}
						],
						"numberOfBytes": "160"
					},
					"t_uint16": {
						"encoding": "inplace",
						"label": "uint16",
						"numberOfBytes": "2"
					},
					"t_uint256": {
						"encoding": "inplace",
						"label": "uint256",
						"numberOfBytes": "32"
					}
				}
			},
			"userdoc": {
				"kind": "user",
				"methods": {},
				"version": 1
			}
		}
	}
}