{
	"ultimate-solidity-course-for-complete-beginners-main/Exercises/21-Twitter-AddEvent-Exercise.sol": {
		"Twitter": {
			"abi": [
				{
					"inputs": [],
					"stateMutability": "nonpayable",
					"type": "constructor"
				},
				{
					"anonymous": false,
					"inputs": [
						{
							"indexed": false,
							"internalType": "uint256",
							"name": "id",
							"type": "uint256"
						},
						{
							"indexed": false,
							"internalType": "address",
							"name": "auuthor",
							"type": "address"
						},
						{
							"indexed": false,
							"internalType": "string",
							"name": "content",
							"type": "string"
						},
						{
							"indexed": false,
							"internalType": "uint256",
							"name": "timestamp",
							"type": "uint256"
						}
					],
					"name": "tweetcreated",
					"type": "event"
				},
				{
					"anonymous": false,
					"inputs": [
						{
							"indexed": false,
							"internalType": "address",
							"name": "liker",
							"type": "address"
						},
						{
							"indexed": false,
							"internalType": "address",
							"name": "tweetauthor",
							"type": "address"
						},
						{
							"indexed": false,
							"internalType": "uint256",
							"name": "tweetid",
							"type": "uint256"
						},
						{
							"indexed": false,
							"internalType": "uint256",
							"name": "likkedtweetcount",
							"type": "uint256"
						}
					],
					"name": "tweetliked",
					"type": "event"
				},
				{
					"anonymous": false,
					"inputs": [
						{
							"indexed": false,
							"internalType": "address",
							"name": "unliker",
							"type": "address"
						},
						{
							"indexed": false,
							"internalType": "address",
							"name": "tweetauthor",
							"type": "address"
						},
						{
							"indexed": false,
							"internalType": "uint256",
							"name": "tweetid",
							"type": "uint256"
						},
						{
							"indexed": false,
							"internalType": "uint256",
							"name": "likkedtweetcount",
							"type": "uint256"
						}
					],
					"name": "tweetunliked",
					"type": "event"
				},
				{
					"inputs": [],
					"name": "MAX_TWEET_LENGTH",
					"outputs": [
						{
							"internalType": "uint16",
							"name": "",
							"type": "uint16"
						}
					],
					"stateMutability": "view",
					"type": "function"
				},
				{
					"inputs": [
						{
							"internalType": "uint16",
							"name": "newTweetLength",
							"type": "uint16"
						}
					],
					"name": "changeTweetLength",
					"outputs": [],
					"stateMutability": "nonpayable",
					"type": "function"
				},
				{
					"inputs": [
						{
							"internalType": "string",
							"name": "_tweet",
							"type": "string"
						}
					],
					"name": "createTweet",
					"outputs": [],
					"stateMutability": "nonpayable",
					"type": "function"
				},
				{
					"inputs": [
						{
							"internalType": "address",
							"name": "_owner",
							"type": "address"
						}
					],
					"name": "getAllTweets",
					"outputs": [
						{
							"components": [
								{
									"internalType": "uint256",
									"name": "id",
									"type": "uint256"
								},
								{
									"internalType": "address",
									"name": "author",
									"type": "address"
								},
								{
									"internalType": "string",
									"name": "content",
									"type": "string"
								},
								{
									"internalType": "uint256",
									"name": "timestamp",
									"type": "uint256"
								},
								{
									"internalType": "uint256",
									"name": "likes",
									"type": "uint256"
								}
							],
							"internalType": "struct Twitter.Tweet[]",
							"name": "",
							"type": "tuple[]"
						}
					],
					"stateMutability": "view",
					"type": "function"
				},
				{
					"inputs": [
						{
							"internalType": "uint256",
							"name": "_i",
							"type": "uint256"
						}
					],
					"name": "getTweet",
					"outputs": [
						{
							"components": [
								{
									"internalType": "uint256",
									"name": "id",
									"type": "uint256"
								},
								{
									"internalType": "address",
									"name": "author",
									"type": "address"
								},
								{
									"internalType": "string",
									"name": "content",
									"type": "string"
								},
								{
									"internalType": "uint256",
									"name": "timestamp",
									"type": "uint256"
								},
								{
									"internalType": "uint256",
									"name": "likes",
									"type": "uint256"
								}
							],
							"internalType": "struct Twitter.Tweet",
							"name": "",
							"type": "tuple"
						}
					],
					"stateMutability": "view",
					"type": "function"
				},
				{
					"inputs": [
						{
							"internalType": "address",
							"name": "author",
							"type": "address"
						},
						{
							"internalType": "uint256",
							"name": "id",
							"type": "uint256"
						}
					],
					"name": "likeTweet",
					"outputs": [],
					"stateMutability": "nonpayable",
					"type": "function"
				},
				{
					"inputs": [],
					"name": "owner",
					"outputs": [
						{
							"internalType": "address",
							"name": "",
							"type": "address"
						}
					],
					"stateMutability": "view",
					"type": "function"
				},
				{
					"inputs": [
						{
							"internalType": "address",
							"name": "",
							"type": "address"
						},
						{
							"internalType": "uint256",
							"name": "",
							"type": "uint256"
						}
					],
					"name": "tweets",
					"outputs": [
						{
							"internalType": "uint256",
							"name": "id",
							"type": "uint256"
						},
						{
							"internalType": "address",
							"name": "author",
							"type": "address"
						},
						{
							"internalType": "string",
							"name": "content",
							"type": "string"
						},
						{
							"internalType": "uint256",
							"name": "timestamp",
							"type": "uint256"
						},
						{
							"internalType": "uint256",
							"name": "likes",
							"type": "uint256"
						}
					],
					"stateMutability": "view",
					"type": "function"
				},
				{
					"inputs": [
						{
							"internalType": "address",
							"name": "author",
							"type": "address"
						},
						{
							"internalType": "uint256",
							"name": "id",
							"type": "uint256"
						}
					],
					"name": "unlikeTweet",
					"outputs": [],
					"stateMutability": "nonpayable",
					"type": "function"
				}
			],
			"devdoc": {
				"kind": "dev",
				"methods": {},
				"version": 1
			},
			"evm": {
				"assembly": "    /* \"ultimate-solidity-course-for-complete-beginners-main/Exercises/21-Twitter-AddEvent-Exercise.sol\":451:2677  contract Twitter {... */\n  mstore(0x40, 0x80)\n    /* \"ultimate-solidity-course-for-complete-beginners-main/Exercises/21-Twitter-AddEvent-Exercise.sol\":508:511  280 */\n  0x0118\n    /* \"ultimate-solidity-course-for-complete-beginners-main/Exercises/21-Twitter-AddEvent-Exercise.sol\":475:511  uint16 public MAX_TWEET_LENGTH = 280 */\n  0x00\n  exp(0x0100, 0x00)\n  dup2\n  sload\n  dup2\n  0xffff\n  mul\n  not\n  and\n  swap1\n  dup4\n  0xffff\n  and\n  mul\n  or\n  swap1\n  sstore\n  pop\n    /* \"ultimate-solidity-course-for-complete-beginners-main/Exercises/21-Twitter-AddEvent-Exercise.sol\":1066:1115  constructor() {... */\n  callvalue\n  dup1\n  iszero\n  tag_1\n  jumpi\n  revert(0x00, 0x00)\ntag_1:\n  pop\n    /* \"ultimate-solidity-course-for-complete-beginners-main/Exercises/21-Twitter-AddEvent-Exercise.sol\":1098:1108  msg.sender */\n  caller\n    /* \"ultimate-solidity-course-for-complete-beginners-main/Exercises/21-Twitter-AddEvent-Exercise.sol\":1090:1095  owner */\n  0x02\n  0x00\n    /* \"ultimate-solidity-course-for-complete-beginners-main/Exercises/21-Twitter-AddEvent-Exercise.sol\":1090:1108  owner = msg.sender */\n  0x0100\n  exp\n  dup2\n  sload\n  dup2\n  0xffffffffffffffffffffffffffffffffffffffff\n  mul\n  not\n  and\n  swap1\n  dup4\n  0xffffffffffffffffffffffffffffffffffffffff\n  and\n  mul\n  or\n  swap1\n  sstore\n  pop\n    /* \"ultimate-solidity-course-for-complete-beginners-main/Exercises/21-Twitter-AddEvent-Exercise.sol\":451:2677  contract Twitter {... */\n  dataSize(sub_0)\n  dup1\n  dataOffset(sub_0)\n  0x00\n  codecopy\n  0x00\n  return\nstop\n\nsub_0: assembly {\n        /* \"ultimate-solidity-course-for-complete-beginners-main/Exercises/21-Twitter-AddEvent-Exercise.sol\":451:2677  contract Twitter {... */\n      mstore(0x40, 0x80)\n      callvalue\n      dup1\n      iszero\n      tag_1\n      jumpi\n      revert(0x00, 0x00)\n    tag_1:\n      pop\n      jumpi(tag_2, lt(calldatasize, 0x04))\n      shr(0xe0, calldataload(0x00))\n      dup1\n      0x63378216\n      gt\n      tag_12\n      jumpi\n      dup1\n      0x63378216\n      eq\n      tag_7\n      jumpi\n      dup1\n      0x6eb10797\n      eq\n      tag_8\n      jumpi\n      dup1\n      0x7c9cd2bc\n      eq\n      tag_9\n      jumpi\n      dup1\n      0x8da5cb5b\n      eq\n      tag_10\n      jumpi\n      dup1\n      0xc3ad5ecb\n      eq\n      tag_11\n      jumpi\n      jump(tag_2)\n    tag_12:\n      dup1\n      0x05a1b4a9\n      eq\n      tag_3\n      jumpi\n      dup1\n      0x12e7ee1c\n      eq\n      tag_4\n      jumpi\n      dup1\n      0x3d9b569f\n      eq\n      tag_5\n      jumpi\n      dup1\n      0x58bfa4ab\n      eq\n      tag_6\n      jumpi\n    tag_2:\n      revert(0x00, 0x00)\n        /* \"ultimate-solidity-course-for-complete-beginners-main/Exercises/21-Twitter-AddEvent-Exercise.sol\":661:703  mapping(address => Tweet[] ) public tweets */\n    tag_3:\n      tag_13\n      0x04\n      dup1\n      calldatasize\n      sub\n      dup2\n      add\n      swap1\n      tag_14\n      swap2\n      swap1\n      tag_15\n      jump\t// in\n    tag_14:\n      tag_16\n      jump\t// in\n    tag_13:\n      mload(0x40)\n      tag_17\n      swap6\n      swap5\n      swap4\n      swap3\n      swap2\n      swap1\n      tag_18\n      jump\t// in\n    tag_17:\n      mload(0x40)\n      dup1\n      swap2\n      sub\n      swap1\n      return\n        /* \"ultimate-solidity-course-for-complete-beginners-main/Exercises/21-Twitter-AddEvent-Exercise.sol\":2561:2674  function getAllTweets(address _owner) public view returns (Tweet[] memory ){... */\n    tag_4:\n      tag_19\n      0x04\n      dup1\n      calldatasize\n      sub\n      dup2\n      add\n      swap1\n      tag_20\n      swap2\n      swap1\n      tag_21\n      jump\t// in\n    tag_20:\n      tag_22\n      jump\t// in\n    tag_19:\n      mload(0x40)\n      tag_23\n      swap2\n      swap1\n      tag_24\n      jump\t// in\n    tag_23:\n      mload(0x40)\n      dup1\n      swap2\n      sub\n      swap1\n      return\n        /* \"ultimate-solidity-course-for-complete-beginners-main/Exercises/21-Twitter-AddEvent-Exercise.sol\":2113:2440  function unlikeTweet(address author, uint256 id) external {... */\n    tag_5:\n      tag_25\n      0x04\n      dup1\n      calldatasize\n      sub\n      dup2\n      add\n      swap1\n      tag_26\n      swap2\n      swap1\n      tag_15\n      jump\t// in\n    tag_26:\n      tag_27\n      jump\t// in\n    tag_25:\n      stop\n        /* \"ultimate-solidity-course-for-complete-beginners-main/Exercises/21-Twitter-AddEvent-Exercise.sol\":1230:1347  function changeTweetLength(uint16 newTweetLength) public onlyOwner {... */\n    tag_6:\n      tag_28\n      0x04\n      dup1\n      calldatasize\n      sub\n      dup2\n      add\n      swap1\n      tag_29\n      swap2\n      swap1\n      tag_30\n      jump\t// in\n    tag_29:\n      tag_31\n      jump\t// in\n    tag_28:\n      stop\n        /* \"ultimate-solidity-course-for-complete-beginners-main/Exercises/21-Twitter-AddEvent-Exercise.sol\":1859:2107  function likeTweet(address author, uint256 id) external {  ... */\n    tag_7:\n      tag_32\n      0x04\n      dup1\n      calldatasize\n      sub\n      dup2\n      add\n      swap1\n      tag_33\n      swap2\n      swap1\n      tag_15\n      jump\t// in\n    tag_33:\n      tag_34\n      jump\t// in\n    tag_32:\n      stop\n        /* \"ultimate-solidity-course-for-complete-beginners-main/Exercises/21-Twitter-AddEvent-Exercise.sol\":475:511  uint16 public MAX_TWEET_LENGTH = 280 */\n    tag_8:\n      tag_35\n      tag_36\n      jump\t// in\n    tag_35:\n      mload(0x40)\n      tag_37\n      swap2\n      swap1\n      tag_38\n      jump\t// in\n    tag_37:\n      mload(0x40)\n      dup1\n      swap2\n      sub\n      swap1\n      return\n        /* \"ultimate-solidity-course-for-complete-beginners-main/Exercises/21-Twitter-AddEvent-Exercise.sol\":1353:1853  function createTweet(string memory _tweet) public {... */\n    tag_9:\n      tag_39\n      0x04\n      dup1\n      calldatasize\n      sub\n      dup2\n      add\n      swap1\n      tag_40\n      swap2\n      swap1\n      tag_41\n      jump\t// in\n    tag_40:\n      tag_42\n      jump\t// in\n    tag_39:\n      stop\n        /* \"ultimate-solidity-course-for-complete-beginners-main/Exercises/21-Twitter-AddEvent-Exercise.sol\":709:729  address public owner */\n    tag_10:\n      tag_43\n      tag_44\n      jump\t// in\n    tag_43:\n      mload(0x40)\n      tag_45\n      swap2\n      swap1\n      tag_46\n      jump\t// in\n    tag_45:\n      mload(0x40)\n      dup1\n      swap2\n      sub\n      swap1\n      return\n        /* \"ultimate-solidity-course-for-complete-beginners-main/Exercises/21-Twitter-AddEvent-Exercise.sol\":2446:2555  function getTweet( uint _i) public view returns (Tweet memory) {... */\n    tag_11:\n      tag_47\n      0x04\n      dup1\n      calldatasize\n      sub\n      dup2\n      add\n      swap1\n      tag_48\n      swap2\n      swap1\n      tag_49\n      jump\t// in\n    tag_48:\n      tag_50\n      jump\t// in\n    tag_47:\n      mload(0x40)\n      tag_51\n      swap2\n      swap1\n      tag_52\n      jump\t// in\n    tag_51:\n      mload(0x40)\n      dup1\n      swap2\n      sub\n      swap1\n      return\n        /* \"ultimate-solidity-course-for-complete-beginners-main/Exercises/21-Twitter-AddEvent-Exercise.sol\":661:703  mapping(address => Tweet[] ) public tweets */\n    tag_16:\n      mstore(0x20, 0x01)\n      dup2\n      0x00\n      mstore\n      keccak256(0x00, 0x40)\n      dup2\n      dup2\n      sload\n      dup2\n      lt\n      tag_53\n      jumpi\n      0x00\n      dup1\n      revert\n    tag_53:\n      swap1\n      0x00\n      mstore\n      keccak256(0x00, 0x20)\n      swap1\n      0x05\n      mul\n      add\n      0x00\n      swap2\n      pop\n      swap2\n      pop\n      pop\n      dup1\n      0x00\n      add\n      sload\n      swap1\n      dup1\n      0x01\n      add\n      0x00\n      swap1\n      sload\n      swap1\n      0x0100\n      exp\n      swap1\n      div\n      0xffffffffffffffffffffffffffffffffffffffff\n      and\n      swap1\n      dup1\n      0x02\n      add\n      dup1\n      sload\n      tag_55\n      swap1\n      tag_56\n      jump\t// in\n    tag_55:\n      dup1\n      0x1f\n      add\n      0x20\n      dup1\n      swap2\n      div\n      mul\n      0x20\n      add\n      mload(0x40)\n      swap1\n      dup2\n      add\n      0x40\n      mstore\n      dup1\n      swap3\n      swap2\n      swap1\n      dup2\n      dup2\n      mstore\n      0x20\n      add\n      dup3\n      dup1\n      sload\n      tag_57\n      swap1\n      tag_56\n      jump\t// in\n    tag_57:\n      dup1\n      iszero\n      tag_58\n      jumpi\n      dup1\n      0x1f\n      lt\n      tag_59\n      jumpi\n      0x0100\n      dup1\n      dup4\n      sload\n      div\n      mul\n      dup4\n      mstore\n      swap2\n      0x20\n      add\n      swap2\n      jump(tag_58)\n    tag_59:\n      dup3\n      add\n      swap2\n      swap1\n      0x00\n      mstore\n      keccak256(0x00, 0x20)\n      swap1\n    tag_60:\n      dup2\n      sload\n      dup2\n      mstore\n      swap1\n      0x01\n      add\n      swap1\n      0x20\n      add\n      dup1\n      dup4\n      gt\n      tag_60\n      jumpi\n      dup3\n      swap1\n      sub\n      0x1f\n      and\n      dup3\n      add\n      swap2\n    tag_58:\n      pop\n      pop\n      pop\n      pop\n      pop\n      swap1\n      dup1\n      0x03\n      add\n      sload\n      swap1\n      dup1\n      0x04\n      add\n      sload\n      swap1\n      pop\n      dup6\n      jump\t// out\n        /* \"ultimate-solidity-course-for-complete-beginners-main/Exercises/21-Twitter-AddEvent-Exercise.sol\":2561:2674  function getAllTweets(address _owner) public view returns (Tweet[] memory ){... */\n    tag_22:\n        /* \"ultimate-solidity-course-for-complete-beginners-main/Exercises/21-Twitter-AddEvent-Exercise.sol\":2620:2634  Tweet[] memory */\n      0x60\n        /* \"ultimate-solidity-course-for-complete-beginners-main/Exercises/21-Twitter-AddEvent-Exercise.sol\":2653:2659  tweets */\n      0x01\n        /* \"ultimate-solidity-course-for-complete-beginners-main/Exercises/21-Twitter-AddEvent-Exercise.sol\":2653:2667  tweets[_owner] */\n      0x00\n        /* \"ultimate-solidity-course-for-complete-beginners-main/Exercises/21-Twitter-AddEvent-Exercise.sol\":2660:2666  _owner */\n      dup4\n        /* \"ultimate-solidity-course-for-complete-beginners-main/Exercises/21-Twitter-AddEvent-Exercise.sol\":2653:2667  tweets[_owner] */\n      0xffffffffffffffffffffffffffffffffffffffff\n      and\n      0xffffffffffffffffffffffffffffffffffffffff\n      and\n      dup2\n      mstore\n      0x20\n      add\n      swap1\n      dup2\n      mstore\n      0x20\n      add\n      0x00\n      keccak256\n        /* \"ultimate-solidity-course-for-complete-beginners-main/Exercises/21-Twitter-AddEvent-Exercise.sol\":2646:2667  return tweets[_owner] */\n      dup1\n      sload\n      dup1\n      0x20\n      mul\n      0x20\n      add\n      mload(0x40)\n      swap1\n      dup2\n      add\n      0x40\n      mstore\n      dup1\n      swap3\n      swap2\n      swap1\n      dup2\n      dup2\n      mstore\n      0x20\n      add\n      0x00\n      swap1\n    tag_62:\n      dup3\n      dup3\n      lt\n      iszero\n      tag_63\n      jumpi\n      dup4\n      dup3\n      swap1\n      0x00\n      mstore\n      keccak256(0x00, 0x20)\n      swap1\n      0x05\n      mul\n      add\n      mload(0x40)\n      dup1\n      0xa0\n      add\n      0x40\n      mstore\n      swap1\n      dup2\n      0x00\n      dup3\n      add\n      sload\n      dup2\n      mstore\n      0x20\n      add\n      0x01\n      dup3\n      add\n      0x00\n      swap1\n      sload\n      swap1\n      0x0100\n      exp\n      swap1\n      div\n      0xffffffffffffffffffffffffffffffffffffffff\n      and\n      0xffffffffffffffffffffffffffffffffffffffff\n      and\n      0xffffffffffffffffffffffffffffffffffffffff\n      and\n      dup2\n      mstore\n      0x20\n      add\n      0x02\n      dup3\n      add\n      dup1\n      sload\n      tag_65\n      swap1\n      tag_56\n      jump\t// in\n    tag_65:\n      dup1\n      0x1f\n      add\n      0x20\n      dup1\n      swap2\n      div\n      mul\n      0x20\n      add\n      mload(0x40)\n      swap1\n      dup2\n      add\n      0x40\n      mstore\n      dup1\n      swap3\n      swap2\n      swap1\n      dup2\n      dup2\n      mstore\n      0x20\n      add\n      dup3\n      dup1\n      sload\n      tag_66\n      swap1\n      tag_56\n      jump\t// in\n    tag_66:\n      dup1\n      iszero\n      tag_67\n      jumpi\n      dup1\n      0x1f\n      lt\n      tag_68\n      jumpi\n      0x0100\n      dup1\n      dup4\n      sload\n      div\n      mul\n      dup4\n      mstore\n      swap2\n      0x20\n      add\n      swap2\n      jump(tag_67)\n    tag_68:\n      dup3\n      add\n      swap2\n      swap1\n      0x00\n      mstore\n      keccak256(0x00, 0x20)\n      swap1\n    tag_69:\n      dup2\n      sload\n      dup2\n      mstore\n      swap1\n      0x01\n      add\n      swap1\n      0x20\n      add\n      dup1\n      dup4\n      gt\n      tag_69\n      jumpi\n      dup3\n      swap1\n      sub\n      0x1f\n      and\n      dup3\n      add\n      swap2\n    tag_67:\n      pop\n      pop\n      pop\n      pop\n      pop\n      dup2\n      mstore\n      0x20\n      add\n      0x03\n      dup3\n      add\n      sload\n      dup2\n      mstore\n      0x20\n      add\n      0x04\n      dup3\n      add\n      sload\n      dup2\n      mstore\n      pop\n      pop\n      dup2\n      mstore\n      0x20\n      add\n      swap1\n      0x01\n      add\n      swap1\n      jump(tag_62)\n    tag_63:\n      pop\n      pop\n      pop\n      pop\n      swap1\n      pop\n        /* \"ultimate-solidity-course-for-complete-beginners-main/Exercises/21-Twitter-AddEvent-Exercise.sol\":2561:2674  function getAllTweets(address _owner) public view returns (Tweet[] memory ){... */\n      swap2\n      swap1\n      pop\n      jump\t// out\n        /* \"ultimate-solidity-course-for-complete-beginners-main/Exercises/21-Twitter-AddEvent-Exercise.sol\":2113:2440  function unlikeTweet(address author, uint256 id) external {... */\n    tag_27:\n        /* \"ultimate-solidity-course-for-complete-beginners-main/Exercises/21-Twitter-AddEvent-Exercise.sol\":2214:2216  id */\n      dup1\n        /* \"ultimate-solidity-course-for-complete-beginners-main/Exercises/21-Twitter-AddEvent-Exercise.sol\":2189:2195  tweets */\n      0x01\n        /* \"ultimate-solidity-course-for-complete-beginners-main/Exercises/21-Twitter-AddEvent-Exercise.sol\":2189:2203  tweets[author] */\n      0x00\n        /* \"ultimate-solidity-course-for-complete-beginners-main/Exercises/21-Twitter-AddEvent-Exercise.sol\":2196:2202  author */\n      dup5\n        /* \"ultimate-solidity-course-for-complete-beginners-main/Exercises/21-Twitter-AddEvent-Exercise.sol\":2189:2203  tweets[author] */\n      0xffffffffffffffffffffffffffffffffffffffff\n      and\n      0xffffffffffffffffffffffffffffffffffffffff\n      and\n      dup2\n      mstore\n      0x20\n      add\n      swap1\n      dup2\n      mstore\n      0x20\n      add\n      0x00\n      keccak256\n        /* \"ultimate-solidity-course-for-complete-beginners-main/Exercises/21-Twitter-AddEvent-Exercise.sol\":2204:2206  id */\n      dup3\n        /* \"ultimate-solidity-course-for-complete-beginners-main/Exercises/21-Twitter-AddEvent-Exercise.sol\":2189:2207  tweets[author][id] */\n      dup2\n      sload\n      dup2\n      lt\n      tag_71\n      jumpi\n      tag_72\n      tag_73\n      jump\t// in\n    tag_72:\n    tag_71:\n      swap1\n      0x00\n      mstore\n      keccak256(0x00, 0x20)\n      swap1\n      0x05\n      mul\n      add\n        /* \"ultimate-solidity-course-for-complete-beginners-main/Exercises/21-Twitter-AddEvent-Exercise.sol\":2189:2210  tweets[author][id].id */\n      0x00\n      add\n      sload\n        /* \"ultimate-solidity-course-for-complete-beginners-main/Exercises/21-Twitter-AddEvent-Exercise.sol\":2189:2216  tweets[author][id].id == id */\n      eq\n        /* \"ultimate-solidity-course-for-complete-beginners-main/Exercises/21-Twitter-AddEvent-Exercise.sol\":2181:2241  require(tweets[author][id].id == id, \"TWEET DOES NOT EXIST\") */\n      tag_75\n      jumpi\n      mload(0x40)\n      0x08c379a000000000000000000000000000000000000000000000000000000000\n      dup2\n      mstore\n      0x04\n      add\n      tag_76\n      swap1\n      tag_77\n      jump\t// in\n    tag_76:\n      mload(0x40)\n      dup1\n      swap2\n      sub\n      swap1\n      revert\n    tag_75:\n        /* \"ultimate-solidity-course-for-complete-beginners-main/Exercises/21-Twitter-AddEvent-Exercise.sol\":2286:2287  0 */\n      0x00\n        /* \"ultimate-solidity-course-for-complete-beginners-main/Exercises/21-Twitter-AddEvent-Exercise.sol\":2259:2265  tweets */\n      0x01\n        /* \"ultimate-solidity-course-for-complete-beginners-main/Exercises/21-Twitter-AddEvent-Exercise.sol\":2259:2273  tweets[author] */\n      0x00\n        /* \"ultimate-solidity-course-for-complete-beginners-main/Exercises/21-Twitter-AddEvent-Exercise.sol\":2266:2272  author */\n      dup5\n        /* \"ultimate-solidity-course-for-complete-beginners-main/Exercises/21-Twitter-AddEvent-Exercise.sol\":2259:2273  tweets[author] */\n      0xffffffffffffffffffffffffffffffffffffffff\n      and\n      0xffffffffffffffffffffffffffffffffffffffff\n      and\n      dup2\n      mstore\n      0x20\n      add\n      swap1\n      dup2\n      mstore\n      0x20\n      add\n      0x00\n      keccak256\n        /* \"ultimate-solidity-course-for-complete-beginners-main/Exercises/21-Twitter-AddEvent-Exercise.sol\":2274:2276  id */\n      dup3\n        /* \"ultimate-solidity-course-for-complete-beginners-main/Exercises/21-Twitter-AddEvent-Exercise.sol\":2259:2277  tweets[author][id] */\n      dup2\n      sload\n      dup2\n      lt\n      tag_78\n      jumpi\n      tag_79\n      tag_73\n      jump\t// in\n    tag_79:\n    tag_78:\n      swap1\n      0x00\n      mstore\n      keccak256(0x00, 0x20)\n      swap1\n      0x05\n      mul\n      add\n        /* \"ultimate-solidity-course-for-complete-beginners-main/Exercises/21-Twitter-AddEvent-Exercise.sol\":2259:2283  tweets[author][id].likes */\n      0x04\n      add\n      sload\n        /* \"ultimate-solidity-course-for-complete-beginners-main/Exercises/21-Twitter-AddEvent-Exercise.sol\":2259:2287  tweets[author][id].likes > 0 */\n      gt\n        /* \"ultimate-solidity-course-for-complete-beginners-main/Exercises/21-Twitter-AddEvent-Exercise.sol\":2251:2310  require(tweets[author][id].likes > 0, \"TWEET HAS NO LIKES\") */\n      tag_81\n      jumpi\n      mload(0x40)\n      0x08c379a000000000000000000000000000000000000000000000000000000000\n      dup2\n      mstore\n      0x04\n      add\n      tag_82\n      swap1\n      tag_83\n      jump\t// in\n    tag_82:\n      mload(0x40)\n      dup1\n      swap2\n      sub\n      swap1\n      revert\n    tag_81:\n        /* \"ultimate-solidity-course-for-complete-beginners-main/Exercises/21-Twitter-AddEvent-Exercise.sol\":2329:2335  tweets */\n      0x01\n        /* \"ultimate-solidity-course-for-complete-beginners-main/Exercises/21-Twitter-AddEvent-Exercise.sol\":2329:2343  tweets[author] */\n      0x00\n        /* \"ultimate-solidity-course-for-complete-beginners-main/Exercises/21-Twitter-AddEvent-Exercise.sol\":2336:2342  author */\n      dup4\n        /* \"ultimate-solidity-course-for-complete-beginners-main/Exercises/21-Twitter-AddEvent-Exercise.sol\":2329:2343  tweets[author] */\n      0xffffffffffffffffffffffffffffffffffffffff\n      and\n      0xffffffffffffffffffffffffffffffffffffffff\n      and\n      dup2\n      mstore\n      0x20\n      add\n      swap1\n      dup2\n      mstore\n      0x20\n      add\n      0x00\n      keccak256\n        /* \"ultimate-solidity-course-for-complete-beginners-main/Exercises/21-Twitter-AddEvent-Exercise.sol\":2344:2346  id */\n      dup2\n        /* \"ultimate-solidity-course-for-complete-beginners-main/Exercises/21-Twitter-AddEvent-Exercise.sol\":2329:2347  tweets[author][id] */\n      dup2\n      sload\n      dup2\n      lt\n      tag_84\n      jumpi\n      tag_85\n      tag_73\n      jump\t// in\n    tag_85:\n    tag_84:\n      swap1\n      0x00\n      mstore\n      keccak256(0x00, 0x20)\n      swap1\n      0x05\n      mul\n      add\n        /* \"ultimate-solidity-course-for-complete-beginners-main/Exercises/21-Twitter-AddEvent-Exercise.sol\":2329:2353  tweets[author][id].likes */\n      0x04\n      add\n      0x00\n        /* \"ultimate-solidity-course-for-complete-beginners-main/Exercises/21-Twitter-AddEvent-Exercise.sol\":2329:2355  tweets[author][id].likes-- */\n      dup2\n      sload\n      dup1\n      swap3\n      swap2\n      swap1\n      tag_87\n      swap1\n      tag_88\n      jump\t// in\n    tag_87:\n      swap2\n      swap1\n      pop\n      sstore\n      pop\n        /* \"ultimate-solidity-course-for-complete-beginners-main/Exercises/21-Twitter-AddEvent-Exercise.sol\":2370:2432  tweetunliked(msg.sender, author, id, tweets[author][id].likes) */\n      0x3e5354d6ccd996fc01eabb289bb55938fe9763446f2fad2589e7ff6616da0eec\n        /* \"ultimate-solidity-course-for-complete-beginners-main/Exercises/21-Twitter-AddEvent-Exercise.sol\":2383:2393  msg.sender */\n      caller\n        /* \"ultimate-solidity-course-for-complete-beginners-main/Exercises/21-Twitter-AddEvent-Exercise.sol\":2395:2401  author */\n      dup4\n        /* \"ultimate-solidity-course-for-complete-beginners-main/Exercises/21-Twitter-AddEvent-Exercise.sol\":2403:2405  id */\n      dup4\n        /* \"ultimate-solidity-course-for-complete-beginners-main/Exercises/21-Twitter-AddEvent-Exercise.sol\":2407:2413  tweets */\n      0x01\n        /* \"ultimate-solidity-course-for-complete-beginners-main/Exercises/21-Twitter-AddEvent-Exercise.sol\":2407:2421  tweets[author] */\n      0x00\n        /* \"ultimate-solidity-course-for-complete-beginners-main/Exercises/21-Twitter-AddEvent-Exercise.sol\":2414:2420  author */\n      dup8\n        /* \"ultimate-solidity-course-for-complete-beginners-main/Exercises/21-Twitter-AddEvent-Exercise.sol\":2407:2421  tweets[author] */\n      0xffffffffffffffffffffffffffffffffffffffff\n      and\n      0xffffffffffffffffffffffffffffffffffffffff\n      and\n      dup2\n      mstore\n      0x20\n      add\n      swap1\n      dup2\n      mstore\n      0x20\n      add\n      0x00\n      keccak256\n        /* \"ultimate-solidity-course-for-complete-beginners-main/Exercises/21-Twitter-AddEvent-Exercise.sol\":2422:2424  id */\n      dup6\n        /* \"ultimate-solidity-course-for-complete-beginners-main/Exercises/21-Twitter-AddEvent-Exercise.sol\":2407:2425  tweets[author][id] */\n      dup2\n      sload\n      dup2\n      lt\n      tag_89\n      jumpi\n      tag_90\n      tag_73\n      jump\t// in\n    tag_90:\n    tag_89:\n      swap1\n      0x00\n      mstore\n      keccak256(0x00, 0x20)\n      swap1\n      0x05\n      mul\n      add\n        /* \"ultimate-solidity-course-for-complete-beginners-main/Exercises/21-Twitter-AddEvent-Exercise.sol\":2407:2431  tweets[author][id].likes */\n      0x04\n      add\n      sload\n        /* \"ultimate-solidity-course-for-complete-beginners-main/Exercises/21-Twitter-AddEvent-Exercise.sol\":2370:2432  tweetunliked(msg.sender, author, id, tweets[author][id].likes) */\n      mload(0x40)\n      tag_92\n      swap5\n      swap4\n      swap3\n      swap2\n      swap1\n      tag_93\n      jump\t// in\n    tag_92:\n      mload(0x40)\n      dup1\n      swap2\n      sub\n      swap1\n      log1\n        /* \"ultimate-solidity-course-for-complete-beginners-main/Exercises/21-Twitter-AddEvent-Exercise.sol\":2113:2440  function unlikeTweet(address author, uint256 id) external {... */\n      pop\n      pop\n      jump\t// out\n        /* \"ultimate-solidity-course-for-complete-beginners-main/Exercises/21-Twitter-AddEvent-Exercise.sol\":1230:1347  function changeTweetLength(uint16 newTweetLength) public onlyOwner {... */\n    tag_31:\n        /* \"ultimate-solidity-course-for-complete-beginners-main/Exercises/21-Twitter-AddEvent-Exercise.sol\":1174:1179  owner */\n      0x02\n      0x00\n      swap1\n      sload\n      swap1\n      0x0100\n      exp\n      swap1\n      div\n      0xffffffffffffffffffffffffffffffffffffffff\n      and\n        /* \"ultimate-solidity-course-for-complete-beginners-main/Exercises/21-Twitter-AddEvent-Exercise.sol\":1160:1179  msg.sender == owner */\n      0xffffffffffffffffffffffffffffffffffffffff\n      and\n        /* \"ultimate-solidity-course-for-complete-beginners-main/Exercises/21-Twitter-AddEvent-Exercise.sol\":1160:1170  msg.sender */\n      caller\n        /* \"ultimate-solidity-course-for-complete-beginners-main/Exercises/21-Twitter-AddEvent-Exercise.sol\":1160:1179  msg.sender == owner */\n      0xffffffffffffffffffffffffffffffffffffffff\n      and\n      eq\n        /* \"ultimate-solidity-course-for-complete-beginners-main/Exercises/21-Twitter-AddEvent-Exercise.sol\":1152:1206  require(msg.sender == owner, \"YOU ARE NOT THE OWNER!\") */\n      tag_95\n      jumpi\n      mload(0x40)\n      0x08c379a000000000000000000000000000000000000000000000000000000000\n      dup2\n      mstore\n      0x04\n      add\n      tag_96\n      swap1\n      tag_97\n      jump\t// in\n    tag_96:\n      mload(0x40)\n      dup1\n      swap2\n      sub\n      swap1\n      revert\n    tag_95:\n        /* \"ultimate-solidity-course-for-complete-beginners-main/Exercises/21-Twitter-AddEvent-Exercise.sol\":1326:1340  newTweetLength */\n      dup1\n        /* \"ultimate-solidity-course-for-complete-beginners-main/Exercises/21-Twitter-AddEvent-Exercise.sol\":1307:1323  MAX_TWEET_LENGTH */\n      0x00\n      0x00\n        /* \"ultimate-solidity-course-for-complete-beginners-main/Exercises/21-Twitter-AddEvent-Exercise.sol\":1307:1340  MAX_TWEET_LENGTH = newTweetLength */\n      0x0100\n      exp\n      dup2\n      sload\n      dup2\n      0xffff\n      mul\n      not\n      and\n      swap1\n      dup4\n      0xffff\n      and\n      mul\n      or\n      swap1\n      sstore\n      pop\n        /* \"ultimate-solidity-course-for-complete-beginners-main/Exercises/21-Twitter-AddEvent-Exercise.sol\":1230:1347  function changeTweetLength(uint16 newTweetLength) public onlyOwner {... */\n      pop\n      jump\t// out\n        /* \"ultimate-solidity-course-for-complete-beginners-main/Exercises/21-Twitter-AddEvent-Exercise.sol\":1859:2107  function likeTweet(address author, uint256 id) external {  ... */\n    tag_34:\n        /* \"ultimate-solidity-course-for-complete-beginners-main/Exercises/21-Twitter-AddEvent-Exercise.sol\":1960:1962  id */\n      dup1\n        /* \"ultimate-solidity-course-for-complete-beginners-main/Exercises/21-Twitter-AddEvent-Exercise.sol\":1935:1941  tweets */\n      0x01\n        /* \"ultimate-solidity-course-for-complete-beginners-main/Exercises/21-Twitter-AddEvent-Exercise.sol\":1935:1949  tweets[author] */\n      0x00\n        /* \"ultimate-solidity-course-for-complete-beginners-main/Exercises/21-Twitter-AddEvent-Exercise.sol\":1942:1948  author */\n      dup5\n        /* \"ultimate-solidity-course-for-complete-beginners-main/Exercises/21-Twitter-AddEvent-Exercise.sol\":1935:1949  tweets[author] */\n      0xffffffffffffffffffffffffffffffffffffffff\n      and\n      0xffffffffffffffffffffffffffffffffffffffff\n      and\n      dup2\n      mstore\n      0x20\n      add\n      swap1\n      dup2\n      mstore\n      0x20\n      add\n      0x00\n      keccak256\n        /* \"ultimate-solidity-course-for-complete-beginners-main/Exercises/21-Twitter-AddEvent-Exercise.sol\":1950:1952  id */\n      dup3\n        /* \"ultimate-solidity-course-for-complete-beginners-main/Exercises/21-Twitter-AddEvent-Exercise.sol\":1935:1953  tweets[author][id] */\n      dup2\n      sload\n      dup2\n      lt\n      tag_100\n      jumpi\n      tag_101\n      tag_73\n      jump\t// in\n    tag_101:\n    tag_100:\n      swap1\n      0x00\n      mstore\n      keccak256(0x00, 0x20)\n      swap1\n      0x05\n      mul\n      add\n        /* \"ultimate-solidity-course-for-complete-beginners-main/Exercises/21-Twitter-AddEvent-Exercise.sol\":1935:1956  tweets[author][id].id */\n      0x00\n      add\n      sload\n        /* \"ultimate-solidity-course-for-complete-beginners-main/Exercises/21-Twitter-AddEvent-Exercise.sol\":1935:1962  tweets[author][id].id == id */\n      eq\n        /* \"ultimate-solidity-course-for-complete-beginners-main/Exercises/21-Twitter-AddEvent-Exercise.sol\":1927:1987  require(tweets[author][id].id == id, \"TWEET DOES NOT EXIST\") */\n      tag_103\n      jumpi\n      mload(0x40)\n      0x08c379a000000000000000000000000000000000000000000000000000000000\n      dup2\n      mstore\n      0x04\n      add\n      tag_104\n      swap1\n      tag_77\n      jump\t// in\n    tag_104:\n      mload(0x40)\n      dup1\n      swap2\n      sub\n      swap1\n      revert\n    tag_103:\n        /* \"ultimate-solidity-course-for-complete-beginners-main/Exercises/21-Twitter-AddEvent-Exercise.sol\":1998:2004  tweets */\n      0x01\n        /* \"ultimate-solidity-course-for-complete-beginners-main/Exercises/21-Twitter-AddEvent-Exercise.sol\":1998:2012  tweets[author] */\n      0x00\n        /* \"ultimate-solidity-course-for-complete-beginners-main/Exercises/21-Twitter-AddEvent-Exercise.sol\":2005:2011  author */\n      dup4\n        /* \"ultimate-solidity-course-for-complete-beginners-main/Exercises/21-Twitter-AddEvent-Exercise.sol\":1998:2012  tweets[author] */\n      0xffffffffffffffffffffffffffffffffffffffff\n      and\n      0xffffffffffffffffffffffffffffffffffffffff\n      and\n      dup2\n      mstore\n      0x20\n      add\n      swap1\n      dup2\n      mstore\n      0x20\n      add\n      0x00\n      keccak256\n        /* \"ultimate-solidity-course-for-complete-beginners-main/Exercises/21-Twitter-AddEvent-Exercise.sol\":2013:2015  id */\n      dup2\n        /* \"ultimate-solidity-course-for-complete-beginners-main/Exercises/21-Twitter-AddEvent-Exercise.sol\":1998:2016  tweets[author][id] */\n      dup2\n      sload\n      dup2\n      lt\n      tag_105\n      jumpi\n      tag_106\n      tag_73\n      jump\t// in\n    tag_106:\n    tag_105:\n      swap1\n      0x00\n      mstore\n      keccak256(0x00, 0x20)\n      swap1\n      0x05\n      mul\n      add\n        /* \"ultimate-solidity-course-for-complete-beginners-main/Exercises/21-Twitter-AddEvent-Exercise.sol\":1998:2022  tweets[author][id].likes */\n      0x04\n      add\n      0x00\n        /* \"ultimate-solidity-course-for-complete-beginners-main/Exercises/21-Twitter-AddEvent-Exercise.sol\":1998:2024  tweets[author][id].likes++ */\n      dup2\n      sload\n      dup1\n      swap3\n      swap2\n      swap1\n      tag_108\n      swap1\n      tag_109\n      jump\t// in\n    tag_108:\n      swap2\n      swap1\n      pop\n      sstore\n      pop\n        /* \"ultimate-solidity-course-for-complete-beginners-main/Exercises/21-Twitter-AddEvent-Exercise.sol\":2039:2099  tweetliked(msg.sender, author, id, tweets[author][id].likes) */\n      0xcf05a692dd485edaa49d7be66062470330a585ac195c9c274317255b52e308f6\n        /* \"ultimate-solidity-course-for-complete-beginners-main/Exercises/21-Twitter-AddEvent-Exercise.sol\":2050:2060  msg.sender */\n      caller\n        /* \"ultimate-solidity-course-for-complete-beginners-main/Exercises/21-Twitter-AddEvent-Exercise.sol\":2062:2068  author */\n      dup4\n        /* \"ultimate-solidity-course-for-complete-beginners-main/Exercises/21-Twitter-AddEvent-Exercise.sol\":2070:2072  id */\n      dup4\n        /* \"ultimate-solidity-course-for-complete-beginners-main/Exercises/21-Twitter-AddEvent-Exercise.sol\":2074:2080  tweets */\n      0x01\n        /* \"ultimate-solidity-course-for-complete-beginners-main/Exercises/21-Twitter-AddEvent-Exercise.sol\":2074:2088  tweets[author] */\n      0x00\n        /* \"ultimate-solidity-course-for-complete-beginners-main/Exercises/21-Twitter-AddEvent-Exercise.sol\":2081:2087  author */\n      dup8\n        /* \"ultimate-solidity-course-for-complete-beginners-main/Exercises/21-Twitter-AddEvent-Exercise.sol\":2074:2088  tweets[author] */\n      0xffffffffffffffffffffffffffffffffffffffff\n      and\n      0xffffffffffffffffffffffffffffffffffffffff\n      and\n      dup2\n      mstore\n      0x20\n      add\n      swap1\n      dup2\n      mstore\n      0x20\n      add\n      0x00\n      keccak256\n        /* \"ultimate-solidity-course-for-complete-beginners-main/Exercises/21-Twitter-AddEvent-Exercise.sol\":2089:2091  id */\n      dup6\n        /* \"ultimate-solidity-course-for-complete-beginners-main/Exercises/21-Twitter-AddEvent-Exercise.sol\":2074:2092  tweets[author][id] */\n      dup2\n      sload\n      dup2\n      lt\n      tag_110\n      jumpi\n      tag_111\n      tag_73\n      jump\t// in\n    tag_111:\n    tag_110:\n      swap1\n      0x00\n      mstore\n      keccak256(0x00, 0x20)\n      swap1\n      0x05\n      mul\n      add\n        /* \"ultimate-solidity-course-for-complete-beginners-main/Exercises/21-Twitter-AddEvent-Exercise.sol\":2074:2098  tweets[author][id].likes */\n      0x04\n      add\n      sload\n        /* \"ultimate-solidity-course-for-complete-beginners-main/Exercises/21-Twitter-AddEvent-Exercise.sol\":2039:2099  tweetliked(msg.sender, author, id, tweets[author][id].likes) */\n      mload(0x40)\n      tag_113\n      swap5\n      swap4\n      swap3\n      swap2\n      swap1\n      tag_93\n      jump\t// in\n    tag_113:\n      mload(0x40)\n      dup1\n      swap2\n      sub\n      swap1\n      log1\n        /* \"ultimate-solidity-course-for-complete-beginners-main/Exercises/21-Twitter-AddEvent-Exercise.sol\":1859:2107  function likeTweet(address author, uint256 id) external {  ... */\n      pop\n      pop\n      jump\t// out\n        /* \"ultimate-solidity-course-for-complete-beginners-main/Exercises/21-Twitter-AddEvent-Exercise.sol\":475:511  uint16 public MAX_TWEET_LENGTH = 280 */\n    tag_36:\n      0x00\n      0x00\n      swap1\n      sload\n      swap1\n      0x0100\n      exp\n      swap1\n      div\n      0xffff\n      and\n      dup2\n      jump\t// out\n        /* \"ultimate-solidity-course-for-complete-beginners-main/Exercises/21-Twitter-AddEvent-Exercise.sol\":1353:1853  function createTweet(string memory _tweet) public {... */\n    tag_42:\n        /* \"ultimate-solidity-course-for-complete-beginners-main/Exercises/21-Twitter-AddEvent-Exercise.sol\":1445:1461  MAX_TWEET_LENGTH */\n      0x00\n      0x00\n      swap1\n      sload\n      swap1\n      0x0100\n      exp\n      swap1\n      div\n      0xffff\n      and\n        /* \"ultimate-solidity-course-for-complete-beginners-main/Exercises/21-Twitter-AddEvent-Exercise.sol\":1421:1461  bytes(_tweet).length <= MAX_TWEET_LENGTH */\n      0xffff\n      and\n        /* \"ultimate-solidity-course-for-complete-beginners-main/Exercises/21-Twitter-AddEvent-Exercise.sol\":1427:1433  _tweet */\n      dup2\n        /* \"ultimate-solidity-course-for-complete-beginners-main/Exercises/21-Twitter-AddEvent-Exercise.sol\":1421:1441  bytes(_tweet).length */\n      mload\n        /* \"ultimate-solidity-course-for-complete-beginners-main/Exercises/21-Twitter-AddEvent-Exercise.sol\":1421:1461  bytes(_tweet).length <= MAX_TWEET_LENGTH */\n      gt\n      iszero\n        /* \"ultimate-solidity-course-for-complete-beginners-main/Exercises/21-Twitter-AddEvent-Exercise.sol\":1413:1489  require(bytes(_tweet).length <= MAX_TWEET_LENGTH, \"Tweet is too long bro!\" ) */\n      tag_115\n      jumpi\n      mload(0x40)\n      0x08c379a000000000000000000000000000000000000000000000000000000000\n      dup2\n      mstore\n      0x04\n      add\n      tag_116\n      swap1\n      tag_117\n      jump\t// in\n    tag_116:\n      mload(0x40)\n      dup1\n      swap2\n      sub\n      swap1\n      revert\n    tag_115:\n        /* \"ultimate-solidity-course-for-complete-beginners-main/Exercises/21-Twitter-AddEvent-Exercise.sol\":1500:1521  Tweet memory newTweet */\n      0x00\n        /* \"ultimate-solidity-course-for-complete-beginners-main/Exercises/21-Twitter-AddEvent-Exercise.sol\":1524:1707  Tweet({... */\n      mload(0x40)\n      dup1\n      0xa0\n      add\n      0x40\n      mstore\n      dup1\n        /* \"ultimate-solidity-course-for-complete-beginners-main/Exercises/21-Twitter-AddEvent-Exercise.sol\":1548:1554  tweets */\n      0x01\n        /* \"ultimate-solidity-course-for-complete-beginners-main/Exercises/21-Twitter-AddEvent-Exercise.sol\":1548:1566  tweets[msg.sender] */\n      0x00\n        /* \"ultimate-solidity-course-for-complete-beginners-main/Exercises/21-Twitter-AddEvent-Exercise.sol\":1555:1565  msg.sender */\n      caller\n        /* \"ultimate-solidity-course-for-complete-beginners-main/Exercises/21-Twitter-AddEvent-Exercise.sol\":1548:1566  tweets[msg.sender] */\n      0xffffffffffffffffffffffffffffffffffffffff\n      and\n      0xffffffffffffffffffffffffffffffffffffffff\n      and\n      dup2\n      mstore\n      0x20\n      add\n      swap1\n      dup2\n      mstore\n      0x20\n      add\n      0x00\n      keccak256\n        /* \"ultimate-solidity-course-for-complete-beginners-main/Exercises/21-Twitter-AddEvent-Exercise.sol\":1548:1573  tweets[msg.sender].length */\n      dup1\n      sload\n      swap1\n      pop\n        /* \"ultimate-solidity-course-for-complete-beginners-main/Exercises/21-Twitter-AddEvent-Exercise.sol\":1524:1707  Tweet({... */\n      dup2\n      mstore\n      0x20\n      add\n        /* \"ultimate-solidity-course-for-complete-beginners-main/Exercises/21-Twitter-AddEvent-Exercise.sol\":1595:1605  msg.sender */\n      caller\n        /* \"ultimate-solidity-course-for-complete-beginners-main/Exercises/21-Twitter-AddEvent-Exercise.sol\":1524:1707  Tweet({... */\n      0xffffffffffffffffffffffffffffffffffffffff\n      and\n      dup2\n      mstore\n      0x20\n      add\n        /* \"ultimate-solidity-course-for-complete-beginners-main/Exercises/21-Twitter-AddEvent-Exercise.sol\":1628:1634  _tweet */\n      dup4\n        /* \"ultimate-solidity-course-for-complete-beginners-main/Exercises/21-Twitter-AddEvent-Exercise.sol\":1524:1707  Tweet({... */\n      dup2\n      mstore\n      0x20\n      add\n        /* \"ultimate-solidity-course-for-complete-beginners-main/Exercises/21-Twitter-AddEvent-Exercise.sol\":1659:1674  block.timestamp */\n      timestamp\n        /* \"ultimate-solidity-course-for-complete-beginners-main/Exercises/21-Twitter-AddEvent-Exercise.sol\":1524:1707  Tweet({... */\n      dup2\n      mstore\n      0x20\n      add\n        /* \"ultimate-solidity-course-for-complete-beginners-main/Exercises/21-Twitter-AddEvent-Exercise.sol\":1695:1696  0 */\n      0x00\n        /* \"ultimate-solidity-course-for-complete-beginners-main/Exercises/21-Twitter-AddEvent-Exercise.sol\":1524:1707  Tweet({... */\n      dup2\n      mstore\n      pop\n        /* \"ultimate-solidity-course-for-complete-beginners-main/Exercises/21-Twitter-AddEvent-Exercise.sol\":1500:1707  Tweet memory newTweet = Tweet({... */\n      swap1\n      pop\n        /* \"ultimate-solidity-course-for-complete-beginners-main/Exercises/21-Twitter-AddEvent-Exercise.sol\":1718:1724  tweets */\n      0x01\n        /* \"ultimate-solidity-course-for-complete-beginners-main/Exercises/21-Twitter-AddEvent-Exercise.sol\":1718:1736  tweets[msg.sender] */\n      0x00\n        /* \"ultimate-solidity-course-for-complete-beginners-main/Exercises/21-Twitter-AddEvent-Exercise.sol\":1725:1735  msg.sender */\n      caller\n        /* \"ultimate-solidity-course-for-complete-beginners-main/Exercises/21-Twitter-AddEvent-Exercise.sol\":1718:1736  tweets[msg.sender] */\n      0xffffffffffffffffffffffffffffffffffffffff\n      and\n      0xffffffffffffffffffffffffffffffffffffffff\n      and\n      dup2\n      mstore\n      0x20\n      add\n      swap1\n      dup2\n      mstore\n      0x20\n      add\n      0x00\n      keccak256\n        /* \"ultimate-solidity-course-for-complete-beginners-main/Exercises/21-Twitter-AddEvent-Exercise.sol\":1742:1750  newTweet */\n      dup2\n        /* \"ultimate-solidity-course-for-complete-beginners-main/Exercises/21-Twitter-AddEvent-Exercise.sol\":1718:1751  tweets[msg.sender].push(newTweet) */\n      swap1\n      dup1\n      0x01\n      dup2\n      sload\n      add\n      dup1\n      dup3\n      sstore\n      dup1\n      swap2\n      pop\n      pop\n      0x01\n      swap1\n      sub\n      swap1\n      0x00\n      mstore\n      keccak256(0x00, 0x20)\n      swap1\n      0x05\n      mul\n      add\n      0x00\n      swap1\n      swap2\n      swap1\n      swap2\n      swap1\n      swap2\n      pop\n      0x00\n      dup3\n      add\n      mload\n      dup2\n      0x00\n      add\n      sstore\n      0x20\n      dup3\n      add\n      mload\n      dup2\n      0x01\n      add\n      exp(0x0100, 0x00)\n      dup2\n      sload\n      dup2\n      0xffffffffffffffffffffffffffffffffffffffff\n      mul\n      not\n      and\n      swap1\n      dup4\n      0xffffffffffffffffffffffffffffffffffffffff\n      and\n      mul\n      or\n      swap1\n      sstore\n      pop\n      0x40\n      dup3\n      add\n      mload\n      dup2\n      0x02\n      add\n      swap1\n      dup2\n      tag_119\n      swap2\n      swap1\n      tag_120\n      jump\t// in\n    tag_119:\n      pop\n      0x60\n      dup3\n      add\n      mload\n      dup2\n      0x03\n      add\n      sstore\n      0x80\n      dup3\n      add\n      mload\n      dup2\n      0x04\n      add\n      sstore\n      pop\n      pop\n        /* \"ultimate-solidity-course-for-complete-beginners-main/Exercises/21-Twitter-AddEvent-Exercise.sol\":1766:1846  tweetcreated(newTweet.id, newTweet.author, newTweet.content, newTweet.timestamp) */\n      0xd2922467ccdc748406c619be4ee0a7ef58fc5c4e66a88a9f51ecbe6550184fae\n        /* \"ultimate-solidity-course-for-complete-beginners-main/Exercises/21-Twitter-AddEvent-Exercise.sol\":1779:1787  newTweet */\n      dup2\n        /* \"ultimate-solidity-course-for-complete-beginners-main/Exercises/21-Twitter-AddEvent-Exercise.sol\":1779:1790  newTweet.id */\n      0x00\n      add\n      mload\n        /* \"ultimate-solidity-course-for-complete-beginners-main/Exercises/21-Twitter-AddEvent-Exercise.sol\":1792:1800  newTweet */\n      dup3\n        /* \"ultimate-solidity-course-for-complete-beginners-main/Exercises/21-Twitter-AddEvent-Exercise.sol\":1792:1807  newTweet.author */\n      0x20\n      add\n      mload\n        /* \"ultimate-solidity-course-for-complete-beginners-main/Exercises/21-Twitter-AddEvent-Exercise.sol\":1809:1817  newTweet */\n      dup4\n        /* \"ultimate-solidity-course-for-complete-beginners-main/Exercises/21-Twitter-AddEvent-Exercise.sol\":1809:1825  newTweet.content */\n      0x40\n      add\n      mload\n        /* \"ultimate-solidity-course-for-complete-beginners-main/Exercises/21-Twitter-AddEvent-Exercise.sol\":1827:1835  newTweet */\n      dup5\n        /* \"ultimate-solidity-course-for-complete-beginners-main/Exercises/21-Twitter-AddEvent-Exercise.sol\":1827:1845  newTweet.timestamp */\n      0x60\n      add\n      mload\n        /* \"ultimate-solidity-course-for-complete-beginners-main/Exercises/21-Twitter-AddEvent-Exercise.sol\":1766:1846  tweetcreated(newTweet.id, newTweet.author, newTweet.content, newTweet.timestamp) */\n      mload(0x40)\n      tag_121\n      swap5\n      swap4\n      swap3\n      swap2\n      swap1\n      tag_122\n      jump\t// in\n    tag_121:\n      mload(0x40)\n      dup1\n      swap2\n      sub\n      swap1\n      log1\n        /* \"ultimate-solidity-course-for-complete-beginners-main/Exercises/21-Twitter-AddEvent-Exercise.sol\":1403:1853  {... */\n      pop\n        /* \"ultimate-solidity-course-for-complete-beginners-main/Exercises/21-Twitter-AddEvent-Exercise.sol\":1353:1853  function createTweet(string memory _tweet) public {... */\n      pop\n      jump\t// out\n        /* \"ultimate-solidity-course-for-complete-beginners-main/Exercises/21-Twitter-AddEvent-Exercise.sol\":709:729  address public owner */\n    tag_44:\n      0x02\n      0x00\n      swap1\n      sload\n      swap1\n      0x0100\n      exp\n      swap1\n      div\n      0xffffffffffffffffffffffffffffffffffffffff\n      and\n      dup2\n      jump\t// out\n        /* \"ultimate-solidity-course-for-complete-beginners-main/Exercises/21-Twitter-AddEvent-Exercise.sol\":2446:2555  function getTweet( uint _i) public view returns (Tweet memory) {... */\n    tag_50:\n        /* \"ultimate-solidity-course-for-complete-beginners-main/Exercises/21-Twitter-AddEvent-Exercise.sol\":2495:2507  Tweet memory */\n      tag_123\n      tag_124\n      jump\t// in\n    tag_123:\n        /* \"ultimate-solidity-course-for-complete-beginners-main/Exercises/21-Twitter-AddEvent-Exercise.sol\":2526:2532  tweets */\n      0x01\n        /* \"ultimate-solidity-course-for-complete-beginners-main/Exercises/21-Twitter-AddEvent-Exercise.sol\":2526:2544  tweets[msg.sender] */\n      0x00\n        /* \"ultimate-solidity-course-for-complete-beginners-main/Exercises/21-Twitter-AddEvent-Exercise.sol\":2533:2543  msg.sender */\n      caller\n        /* \"ultimate-solidity-course-for-complete-beginners-main/Exercises/21-Twitter-AddEvent-Exercise.sol\":2526:2544  tweets[msg.sender] */\n      0xffffffffffffffffffffffffffffffffffffffff\n      and\n      0xffffffffffffffffffffffffffffffffffffffff\n      and\n      dup2\n      mstore\n      0x20\n      add\n      swap1\n      dup2\n      mstore\n      0x20\n      add\n      0x00\n      keccak256\n        /* \"ultimate-solidity-course-for-complete-beginners-main/Exercises/21-Twitter-AddEvent-Exercise.sol\":2545:2547  _i */\n      dup3\n        /* \"ultimate-solidity-course-for-complete-beginners-main/Exercises/21-Twitter-AddEvent-Exercise.sol\":2526:2548  tweets[msg.sender][_i] */\n      dup2\n      sload\n      dup2\n      lt\n      tag_126\n      jumpi\n      tag_127\n      tag_73\n      jump\t// in\n    tag_127:\n    tag_126:\n      swap1\n      0x00\n      mstore\n      keccak256(0x00, 0x20)\n      swap1\n      0x05\n      mul\n      add\n        /* \"ultimate-solidity-course-for-complete-beginners-main/Exercises/21-Twitter-AddEvent-Exercise.sol\":2519:2548  return tweets[msg.sender][_i] */\n      mload(0x40)\n      dup1\n      0xa0\n      add\n      0x40\n      mstore\n      swap1\n      dup2\n      0x00\n      dup3\n      add\n      sload\n      dup2\n      mstore\n      0x20\n      add\n      0x01\n      dup3\n      add\n      0x00\n      swap1\n      sload\n      swap1\n      0x0100\n      exp\n      swap1\n      div\n      0xffffffffffffffffffffffffffffffffffffffff\n      and\n      0xffffffffffffffffffffffffffffffffffffffff\n      and\n      0xffffffffffffffffffffffffffffffffffffffff\n      and\n      dup2\n      mstore\n      0x20\n      add\n      0x02\n      dup3\n      add\n      dup1\n      sload\n      tag_129\n      swap1\n      tag_56\n      jump\t// in\n    tag_129:\n      dup1\n      0x1f\n      add\n      0x20\n      dup1\n      swap2\n      div\n      mul\n      0x20\n      add\n      mload(0x40)\n      swap1\n      dup2\n      add\n      0x40\n      mstore\n      dup1\n      swap3\n      swap2\n      swap1\n      dup2\n      dup2\n      mstore\n      0x20\n      add\n      dup3\n      dup1\n      sload\n      tag_130\n      swap1\n      tag_56\n      jump\t// in\n    tag_130:\n      dup1\n      iszero\n      tag_131\n      jumpi\n      dup1\n      0x1f\n      lt\n      tag_132\n      jumpi\n      0x0100\n      dup1\n      dup4\n      sload\n      div\n      mul\n      dup4\n      mstore\n      swap2\n      0x20\n      add\n      swap2\n      jump(tag_131)\n    tag_132:\n      dup3\n      add\n      swap2\n      swap1\n      0x00\n      mstore\n      keccak256(0x00, 0x20)\n      swap1\n    tag_133:\n      dup2\n      sload\n      dup2\n      mstore\n      swap1\n      0x01\n      add\n      swap1\n      0x20\n      add\n      dup1\n      dup4\n      gt\n      tag_133\n      jumpi\n      dup3\n      swap1\n      sub\n      0x1f\n      and\n      dup3\n      add\n      swap2\n    tag_131:\n      pop\n      pop\n      pop\n      pop\n      pop\n      dup2\n      mstore\n      0x20\n      add\n      0x03\n      dup3\n      add\n      sload\n      dup2\n      mstore\n      0x20\n      add\n      0x04\n      dup3\n      add\n      sload\n      dup2\n      mstore\n      pop\n      pop\n      swap1\n      pop\n        /* \"ultimate-solidity-course-for-complete-beginners-main/Exercises/21-Twitter-AddEvent-Exercise.sol\":2446:2555  function getTweet( uint _i) public view returns (Tweet memory) {... */\n      swap2\n      swap1\n      pop\n      jump\t// out\n    tag_124:\n      mload(0x40)\n      dup1\n      0xa0\n      add\n      0x40\n      mstore\n      dup1\n      0x00\n      dup2\n      mstore\n      0x20\n      add\n      and(0xffffffffffffffffffffffffffffffffffffffff, 0x00)\n      dup2\n      mstore\n      0x20\n      add\n      0x60\n      dup2\n      mstore\n      0x20\n      add\n      0x00\n      dup2\n      mstore\n      0x20\n      add\n      0x00\n      dup2\n      mstore\n      pop\n      swap1\n      jump\t// out\n        /* \"#utility.yul\":7:82   */\n    tag_134:\n        /* \"#utility.yul\":40:46   */\n      0x00\n        /* \"#utility.yul\":73:75   */\n      0x40\n        /* \"#utility.yul\":67:76   */\n      mload\n        /* \"#utility.yul\":57:76   */\n      swap1\n      pop\n        /* \"#utility.yul\":7:82   */\n      swap1\n      jump\t// out\n        /* \"#utility.yul\":88:205   */\n    tag_135:\n        /* \"#utility.yul\":197:198   */\n      0x00\n        /* \"#utility.yul\":194:195   */\n      0x00\n        /* \"#utility.yul\":187:199   */\n      revert\n        /* \"#utility.yul\":211:328   */\n    tag_136:\n        /* \"#utility.yul\":320:321   */\n      0x00\n        /* \"#utility.yul\":317:318   */\n      0x00\n        /* \"#utility.yul\":310:322   */\n      revert\n        /* \"#utility.yul\":334:460   */\n    tag_137:\n        /* \"#utility.yul\":371:378   */\n      0x00\n        /* \"#utility.yul\":411:453   */\n      0xffffffffffffffffffffffffffffffffffffffff\n        /* \"#utility.yul\":404:409   */\n      dup3\n        /* \"#utility.yul\":400:454   */\n      and\n        /* \"#utility.yul\":389:454   */\n      swap1\n      pop\n        /* \"#utility.yul\":334:460   */\n      swap2\n      swap1\n      pop\n      jump\t// out\n        /* \"#utility.yul\":466:562   */\n    tag_138:\n        /* \"#utility.yul\":503:510   */\n      0x00\n        /* \"#utility.yul\":532:556   */\n      tag_207\n        /* \"#utility.yul\":550:555   */\n      dup3\n        /* \"#utility.yul\":532:556   */\n      tag_137\n      jump\t// in\n    tag_207:\n        /* \"#utility.yul\":521:556   */\n      swap1\n      pop\n        /* \"#utility.yul\":466:562   */\n      swap2\n      swap1\n      pop\n      jump\t// out\n        /* \"#utility.yul\":568:690   */\n    tag_139:\n        /* \"#utility.yul\":641:665   */\n      tag_209\n        /* \"#utility.yul\":659:664   */\n      dup2\n        /* \"#utility.yul\":641:665   */\n      tag_138\n      jump\t// in\n    tag_209:\n        /* \"#utility.yul\":634:639   */\n      dup2\n        /* \"#utility.yul\":631:666   */\n      eq\n        /* \"#utility.yul\":621:684   */\n      tag_210\n      jumpi\n        /* \"#utility.yul\":680:681   */\n      0x00\n        /* \"#utility.yul\":677:678   */\n      0x00\n        /* \"#utility.yul\":670:682   */\n      revert\n        /* \"#utility.yul\":621:684   */\n    tag_210:\n        /* \"#utility.yul\":568:690   */\n      pop\n      jump\t// out\n        /* \"#utility.yul\":696:835   */\n    tag_140:\n        /* \"#utility.yul\":742:747   */\n      0x00\n        /* \"#utility.yul\":780:786   */\n      dup2\n        /* \"#utility.yul\":767:787   */\n      calldataload\n        /* \"#utility.yul\":758:787   */\n      swap1\n      pop\n        /* \"#utility.yul\":796:829   */\n      tag_212\n        /* \"#utility.yul\":823:828   */\n      dup2\n        /* \"#utility.yul\":796:829   */\n      tag_139\n      jump\t// in\n    tag_212:\n        /* \"#utility.yul\":696:835   */\n      swap3\n      swap2\n      pop\n      pop\n      jump\t// out\n        /* \"#utility.yul\":841:918   */\n    tag_141:\n        /* \"#utility.yul\":878:885   */\n      0x00\n        /* \"#utility.yul\":907:912   */\n      dup2\n        /* \"#utility.yul\":896:912   */\n      swap1\n      pop\n        /* \"#utility.yul\":841:918   */\n      swap2\n      swap1\n      pop\n      jump\t// out\n        /* \"#utility.yul\":924:1046   */\n    tag_142:\n        /* \"#utility.yul\":997:1021   */\n      tag_215\n        /* \"#utility.yul\":1015:1020   */\n      dup2\n        /* \"#utility.yul\":997:1021   */\n      tag_141\n      jump\t// in\n    tag_215:\n        /* \"#utility.yul\":990:995   */\n      dup2\n        /* \"#utility.yul\":987:1022   */\n      eq\n        /* \"#utility.yul\":977:1040   */\n      tag_216\n      jumpi\n        /* \"#utility.yul\":1036:1037   */\n      0x00\n        /* \"#utility.yul\":1033:1034   */\n      0x00\n        /* \"#utility.yul\":1026:1038   */\n      revert\n        /* \"#utility.yul\":977:1040   */\n    tag_216:\n        /* \"#utility.yul\":924:1046   */\n      pop\n      jump\t// out\n        /* \"#utility.yul\":1052:1191   */\n    tag_143:\n        /* \"#utility.yul\":1098:1103   */\n      0x00\n        /* \"#utility.yul\":1136:1142   */\n      dup2\n        /* \"#utility.yul\":1123:1143   */\n      calldataload\n        /* \"#utility.yul\":1114:1143   */\n      swap1\n      pop\n        /* \"#utility.yul\":1152:1185   */\n      tag_218\n        /* \"#utility.yul\":1179:1184   */\n      dup2\n        /* \"#utility.yul\":1152:1185   */\n      tag_142\n      jump\t// in\n    tag_218:\n        /* \"#utility.yul\":1052:1191   */\n      swap3\n      swap2\n      pop\n      pop\n      jump\t// out\n        /* \"#utility.yul\":1197:1671   */\n    tag_15:\n        /* \"#utility.yul\":1265:1271   */\n      0x00\n        /* \"#utility.yul\":1273:1279   */\n      0x00\n        /* \"#utility.yul\":1322:1324   */\n      0x40\n        /* \"#utility.yul\":1310:1319   */\n      dup4\n        /* \"#utility.yul\":1301:1308   */\n      dup6\n        /* \"#utility.yul\":1297:1320   */\n      sub\n        /* \"#utility.yul\":1293:1325   */\n      slt\n        /* \"#utility.yul\":1290:1409   */\n      iszero\n      tag_220\n      jumpi\n        /* \"#utility.yul\":1328:1407   */\n      tag_221\n      tag_135\n      jump\t// in\n    tag_221:\n        /* \"#utility.yul\":1290:1409   */\n    tag_220:\n        /* \"#utility.yul\":1448:1449   */\n      0x00\n        /* \"#utility.yul\":1473:1526   */\n      tag_222\n        /* \"#utility.yul\":1518:1525   */\n      dup6\n        /* \"#utility.yul\":1509:1515   */\n      dup3\n        /* \"#utility.yul\":1498:1507   */\n      dup7\n        /* \"#utility.yul\":1494:1516   */\n      add\n        /* \"#utility.yul\":1473:1526   */\n      tag_140\n      jump\t// in\n    tag_222:\n        /* \"#utility.yul\":1463:1526   */\n      swap3\n      pop\n        /* \"#utility.yul\":1419:1536   */\n      pop\n        /* \"#utility.yul\":1575:1577   */\n      0x20\n        /* \"#utility.yul\":1601:1654   */\n      tag_223\n        /* \"#utility.yul\":1646:1653   */\n      dup6\n        /* \"#utility.yul\":1637:1643   */\n      dup3\n        /* \"#utility.yul\":1626:1635   */\n      dup7\n        /* \"#utility.yul\":1622:1644   */\n      add\n        /* \"#utility.yul\":1601:1654   */\n      tag_143\n      jump\t// in\n    tag_223:\n        /* \"#utility.yul\":1591:1654   */\n      swap2\n      pop\n        /* \"#utility.yul\":1546:1664   */\n      pop\n        /* \"#utility.yul\":1197:1671   */\n      swap3\n      pop\n      swap3\n      swap1\n      pop\n      jump\t// out\n        /* \"#utility.yul\":1677:1795   */\n    tag_144:\n        /* \"#utility.yul\":1764:1788   */\n      tag_225\n        /* \"#utility.yul\":1782:1787   */\n      dup2\n        /* \"#utility.yul\":1764:1788   */\n      tag_141\n      jump\t// in\n    tag_225:\n        /* \"#utility.yul\":1759:1762   */\n      dup3\n        /* \"#utility.yul\":1752:1789   */\n      mstore\n        /* \"#utility.yul\":1677:1795   */\n      pop\n      pop\n      jump\t// out\n        /* \"#utility.yul\":1801:1919   */\n    tag_145:\n        /* \"#utility.yul\":1888:1912   */\n      tag_227\n        /* \"#utility.yul\":1906:1911   */\n      dup2\n        /* \"#utility.yul\":1888:1912   */\n      tag_138\n      jump\t// in\n    tag_227:\n        /* \"#utility.yul\":1883:1886   */\n      dup3\n        /* \"#utility.yul\":1876:1913   */\n      mstore\n        /* \"#utility.yul\":1801:1919   */\n      pop\n      pop\n      jump\t// out\n        /* \"#utility.yul\":1925:2024   */\n    tag_146:\n        /* \"#utility.yul\":1977:1983   */\n      0x00\n        /* \"#utility.yul\":2011:2016   */\n      dup2\n        /* \"#utility.yul\":2005:2017   */\n      mload\n        /* \"#utility.yul\":1995:2017   */\n      swap1\n      pop\n        /* \"#utility.yul\":1925:2024   */\n      swap2\n      swap1\n      pop\n      jump\t// out\n        /* \"#utility.yul\":2030:2199   */\n    tag_147:\n        /* \"#utility.yul\":2114:2125   */\n      0x00\n        /* \"#utility.yul\":2148:2154   */\n      dup3\n        /* \"#utility.yul\":2143:2146   */\n      dup3\n        /* \"#utility.yul\":2136:2155   */\n      mstore\n        /* \"#utility.yul\":2188:2192   */\n      0x20\n        /* \"#utility.yul\":2183:2186   */\n      dup3\n        /* \"#utility.yul\":2179:2193   */\n      add\n        /* \"#utility.yul\":2164:2193   */\n      swap1\n      pop\n        /* \"#utility.yul\":2030:2199   */\n      swap3\n      swap2\n      pop\n      pop\n      jump\t// out\n        /* \"#utility.yul\":2205:2344   */\n    tag_148:\n        /* \"#utility.yul\":2294:2300   */\n      dup3\n        /* \"#utility.yul\":2289:2292   */\n      dup2\n        /* \"#utility.yul\":2284:2287   */\n      dup4\n        /* \"#utility.yul\":2278:2301   */\n      mcopy\n        /* \"#utility.yul\":2335:2336   */\n      0x00\n        /* \"#utility.yul\":2326:2332   */\n      dup4\n        /* \"#utility.yul\":2321:2324   */\n      dup4\n        /* \"#utility.yul\":2317:2333   */\n      add\n        /* \"#utility.yul\":2310:2337   */\n      mstore\n        /* \"#utility.yul\":2205:2344   */\n      pop\n      pop\n      pop\n      jump\t// out\n        /* \"#utility.yul\":2350:2452   */\n    tag_149:\n        /* \"#utility.yul\":2391:2397   */\n      0x00\n        /* \"#utility.yul\":2442:2444   */\n      0x1f\n        /* \"#utility.yul\":2438:2445   */\n      not\n        /* \"#utility.yul\":2433:2435   */\n      0x1f\n        /* \"#utility.yul\":2426:2431   */\n      dup4\n        /* \"#utility.yul\":2422:2436   */\n      add\n        /* \"#utility.yul\":2418:2446   */\n      and\n        /* \"#utility.yul\":2408:2446   */\n      swap1\n      pop\n        /* \"#utility.yul\":2350:2452   */\n      swap2\n      swap1\n      pop\n      jump\t// out\n        /* \"#utility.yul\":2458:2835   */\n    tag_150:\n        /* \"#utility.yul\":2546:2549   */\n      0x00\n        /* \"#utility.yul\":2574:2613   */\n      tag_233\n        /* \"#utility.yul\":2607:2612   */\n      dup3\n        /* \"#utility.yul\":2574:2613   */\n      tag_146\n      jump\t// in\n    tag_233:\n        /* \"#utility.yul\":2629:2700   */\n      tag_234\n        /* \"#utility.yul\":2693:2699   */\n      dup2\n        /* \"#utility.yul\":2688:2691   */\n      dup6\n        /* \"#utility.yul\":2629:2700   */\n      tag_147\n      jump\t// in\n    tag_234:\n        /* \"#utility.yul\":2622:2700   */\n      swap4\n      pop\n        /* \"#utility.yul\":2709:2774   */\n      tag_235\n        /* \"#utility.yul\":2767:2773   */\n      dup2\n        /* \"#utility.yul\":2762:2765   */\n      dup6\n        /* \"#utility.yul\":2755:2759   */\n      0x20\n        /* \"#utility.yul\":2748:2753   */\n      dup7\n        /* \"#utility.yul\":2744:2760   */\n      add\n        /* \"#utility.yul\":2709:2774   */\n      tag_148\n      jump\t// in\n    tag_235:\n        /* \"#utility.yul\":2799:2828   */\n      tag_236\n        /* \"#utility.yul\":2821:2827   */\n      dup2\n        /* \"#utility.yul\":2799:2828   */\n      tag_149\n      jump\t// in\n    tag_236:\n        /* \"#utility.yul\":2794:2797   */\n      dup5\n        /* \"#utility.yul\":2790:2829   */\n      add\n        /* \"#utility.yul\":2783:2829   */\n      swap2\n      pop\n        /* \"#utility.yul\":2550:2835   */\n      pop\n        /* \"#utility.yul\":2458:2835   */\n      swap3\n      swap2\n      pop\n      pop\n      jump\t// out\n        /* \"#utility.yul\":2841:3596   */\n    tag_18:\n        /* \"#utility.yul\":3066:3070   */\n      0x00\n        /* \"#utility.yul\":3104:3107   */\n      0xa0\n        /* \"#utility.yul\":3093:3102   */\n      dup3\n        /* \"#utility.yul\":3089:3108   */\n      add\n        /* \"#utility.yul\":3081:3108   */\n      swap1\n      pop\n        /* \"#utility.yul\":3118:3189   */\n      tag_238\n        /* \"#utility.yul\":3186:3187   */\n      0x00\n        /* \"#utility.yul\":3175:3184   */\n      dup4\n        /* \"#utility.yul\":3171:3188   */\n      add\n        /* \"#utility.yul\":3162:3168   */\n      dup9\n        /* \"#utility.yul\":3118:3189   */\n      tag_144\n      jump\t// in\n    tag_238:\n        /* \"#utility.yul\":3199:3271   */\n      tag_239\n        /* \"#utility.yul\":3267:3269   */\n      0x20\n        /* \"#utility.yul\":3256:3265   */\n      dup4\n        /* \"#utility.yul\":3252:3270   */\n      add\n        /* \"#utility.yul\":3243:3249   */\n      dup8\n        /* \"#utility.yul\":3199:3271   */\n      tag_145\n      jump\t// in\n    tag_239:\n        /* \"#utility.yul\":3318:3327   */\n      dup2\n        /* \"#utility.yul\":3312:3316   */\n      dup2\n        /* \"#utility.yul\":3308:3328   */\n      sub\n        /* \"#utility.yul\":3303:3305   */\n      0x40\n        /* \"#utility.yul\":3292:3301   */\n      dup4\n        /* \"#utility.yul\":3288:3306   */\n      add\n        /* \"#utility.yul\":3281:3329   */\n      mstore\n        /* \"#utility.yul\":3346:3424   */\n      tag_240\n        /* \"#utility.yul\":3419:3423   */\n      dup2\n        /* \"#utility.yul\":3410:3416   */\n      dup7\n        /* \"#utility.yul\":3346:3424   */\n      tag_150\n      jump\t// in\n    tag_240:\n        /* \"#utility.yul\":3338:3424   */\n      swap1\n      pop\n        /* \"#utility.yul\":3434:3506   */\n      tag_241\n        /* \"#utility.yul\":3502:3504   */\n      0x60\n        /* \"#utility.yul\":3491:3500   */\n      dup4\n        /* \"#utility.yul\":3487:3505   */\n      add\n        /* \"#utility.yul\":3478:3484   */\n      dup6\n        /* \"#utility.yul\":3434:3506   */\n      tag_144\n      jump\t// in\n    tag_241:\n        /* \"#utility.yul\":3516:3589   */\n      tag_242\n        /* \"#utility.yul\":3584:3587   */\n      0x80\n        /* \"#utility.yul\":3573:3582   */\n      dup4\n        /* \"#utility.yul\":3569:3588   */\n      add\n        /* \"#utility.yul\":3560:3566   */\n      dup5\n        /* \"#utility.yul\":3516:3589   */\n      tag_144\n      jump\t// in\n    tag_242:\n        /* \"#utility.yul\":2841:3596   */\n      swap7\n      swap6\n      pop\n      pop\n      pop\n      pop\n      pop\n      pop\n      jump\t// out\n        /* \"#utility.yul\":3602:3931   */\n    tag_21:\n        /* \"#utility.yul\":3661:3667   */\n      0x00\n        /* \"#utility.yul\":3710:3712   */\n      0x20\n        /* \"#utility.yul\":3698:3707   */\n      dup3\n        /* \"#utility.yul\":3689:3696   */\n      dup5\n        /* \"#utility.yul\":3685:3708   */\n      sub\n        /* \"#utility.yul\":3681:3713   */\n      slt\n        /* \"#utility.yul\":3678:3797   */\n      iszero\n      tag_244\n      jumpi\n        /* \"#utility.yul\":3716:3795   */\n      tag_245\n      tag_135\n      jump\t// in\n    tag_245:\n        /* \"#utility.yul\":3678:3797   */\n    tag_244:\n        /* \"#utility.yul\":3836:3837   */\n      0x00\n        /* \"#utility.yul\":3861:3914   */\n      tag_246\n        /* \"#utility.yul\":3906:3913   */\n      dup5\n        /* \"#utility.yul\":3897:3903   */\n      dup3\n        /* \"#utility.yul\":3886:3895   */\n      dup6\n        /* \"#utility.yul\":3882:3904   */\n      add\n        /* \"#utility.yul\":3861:3914   */\n      tag_140\n      jump\t// in\n    tag_246:\n        /* \"#utility.yul\":3851:3914   */\n      swap2\n      pop\n        /* \"#utility.yul\":3807:3924   */\n      pop\n        /* \"#utility.yul\":3602:3931   */\n      swap3\n      swap2\n      pop\n      pop\n      jump\t// out\n        /* \"#utility.yul\":3937:4072   */\n    tag_151:\n        /* \"#utility.yul\":4025:4031   */\n      0x00\n        /* \"#utility.yul\":4059:4064   */\n      dup2\n        /* \"#utility.yul\":4053:4065   */\n      mload\n        /* \"#utility.yul\":4043:4065   */\n      swap1\n      pop\n        /* \"#utility.yul\":3937:4072   */\n      swap2\n      swap1\n      pop\n      jump\t// out\n        /* \"#utility.yul\":4078:4283   */\n    tag_152:\n        /* \"#utility.yul\":4198:4209   */\n      0x00\n        /* \"#utility.yul\":4232:4238   */\n      dup3\n        /* \"#utility.yul\":4227:4230   */\n      dup3\n        /* \"#utility.yul\":4220:4239   */\n      mstore\n        /* \"#utility.yul\":4272:4276   */\n      0x20\n        /* \"#utility.yul\":4267:4270   */\n      dup3\n        /* \"#utility.yul\":4263:4277   */\n      add\n        /* \"#utility.yul\":4248:4277   */\n      swap1\n      pop\n        /* \"#utility.yul\":4078:4283   */\n      swap3\n      swap2\n      pop\n      pop\n      jump\t// out\n        /* \"#utility.yul\":4289:4442   */\n    tag_153:\n        /* \"#utility.yul\":4377:4381   */\n      0x00\n        /* \"#utility.yul\":4400:4403   */\n      dup2\n        /* \"#utility.yul\":4392:4403   */\n      swap1\n      pop\n        /* \"#utility.yul\":4430:4434   */\n      0x20\n        /* \"#utility.yul\":4425:4428   */\n      dup3\n        /* \"#utility.yul\":4421:4435   */\n      add\n        /* \"#utility.yul\":4413:4435   */\n      swap1\n      pop\n        /* \"#utility.yul\":4289:4442   */\n      swap2\n      swap1\n      pop\n      jump\t// out\n        /* \"#utility.yul\":4448:4556   */\n    tag_154:\n        /* \"#utility.yul\":4525:4549   */\n      tag_251\n        /* \"#utility.yul\":4543:4548   */\n      dup2\n        /* \"#utility.yul\":4525:4549   */\n      tag_141\n      jump\t// in\n    tag_251:\n        /* \"#utility.yul\":4520:4523   */\n      dup3\n        /* \"#utility.yul\":4513:4550   */\n      mstore\n        /* \"#utility.yul\":4448:4556   */\n      pop\n      pop\n      jump\t// out\n        /* \"#utility.yul\":4562:4670   */\n    tag_155:\n        /* \"#utility.yul\":4639:4663   */\n      tag_253\n        /* \"#utility.yul\":4657:4662   */\n      dup2\n        /* \"#utility.yul\":4639:4663   */\n      tag_138\n      jump\t// in\n    tag_253:\n        /* \"#utility.yul\":4634:4637   */\n      dup3\n        /* \"#utility.yul\":4627:4664   */\n      mstore\n        /* \"#utility.yul\":4562:4670   */\n      pop\n      pop\n      jump\t// out\n        /* \"#utility.yul\":4676:4835   */\n    tag_156:\n        /* \"#utility.yul\":4750:4761   */\n      0x00\n        /* \"#utility.yul\":4784:4790   */\n      dup3\n        /* \"#utility.yul\":4779:4782   */\n      dup3\n        /* \"#utility.yul\":4772:4791   */\n      mstore\n        /* \"#utility.yul\":4824:4828   */\n      0x20\n        /* \"#utility.yul\":4819:4822   */\n      dup3\n        /* \"#utility.yul\":4815:4829   */\n      add\n        /* \"#utility.yul\":4800:4829   */\n      swap1\n      pop\n        /* \"#utility.yul\":4676:4835   */\n      swap3\n      swap2\n      pop\n      pop\n      jump\t// out\n        /* \"#utility.yul\":4841:5198   */\n    tag_157:\n        /* \"#utility.yul\":4919:4922   */\n      0x00\n        /* \"#utility.yul\":4947:4986   */\n      tag_256\n        /* \"#utility.yul\":4980:4985   */\n      dup3\n        /* \"#utility.yul\":4947:4986   */\n      tag_146\n      jump\t// in\n    tag_256:\n        /* \"#utility.yul\":5002:5063   */\n      tag_257\n        /* \"#utility.yul\":5056:5062   */\n      dup2\n        /* \"#utility.yul\":5051:5054   */\n      dup6\n        /* \"#utility.yul\":5002:5063   */\n      tag_156\n      jump\t// in\n    tag_257:\n        /* \"#utility.yul\":4995:5063   */\n      swap4\n      pop\n        /* \"#utility.yul\":5072:5137   */\n      tag_258\n        /* \"#utility.yul\":5130:5136   */\n      dup2\n        /* \"#utility.yul\":5125:5128   */\n      dup6\n        /* \"#utility.yul\":5118:5122   */\n      0x20\n        /* \"#utility.yul\":5111:5116   */\n      dup7\n        /* \"#utility.yul\":5107:5123   */\n      add\n        /* \"#utility.yul\":5072:5137   */\n      tag_148\n      jump\t// in\n    tag_258:\n        /* \"#utility.yul\":5162:5191   */\n      tag_259\n        /* \"#utility.yul\":5184:5190   */\n      dup2\n        /* \"#utility.yul\":5162:5191   */\n      tag_149\n      jump\t// in\n    tag_259:\n        /* \"#utility.yul\":5157:5160   */\n      dup5\n        /* \"#utility.yul\":5153:5192   */\n      add\n        /* \"#utility.yul\":5146:5192   */\n      swap2\n      pop\n        /* \"#utility.yul\":4923:5198   */\n      pop\n        /* \"#utility.yul\":4841:5198   */\n      swap3\n      swap2\n      pop\n      pop\n      jump\t// out\n        /* \"#utility.yul\":5256:6375   */\n    tag_158:\n        /* \"#utility.yul\":5357:5360   */\n      0x00\n        /* \"#utility.yul\":5393:5397   */\n      0xa0\n        /* \"#utility.yul\":5388:5391   */\n      dup4\n        /* \"#utility.yul\":5384:5398   */\n      add\n        /* \"#utility.yul\":5478:5482   */\n      0x00\n        /* \"#utility.yul\":5471:5476   */\n      dup4\n        /* \"#utility.yul\":5467:5483   */\n      add\n        /* \"#utility.yul\":5461:5484   */\n      mload\n        /* \"#utility.yul\":5497:5560   */\n      tag_261\n        /* \"#utility.yul\":5554:5558   */\n      0x00\n        /* \"#utility.yul\":5549:5552   */\n      dup7\n        /* \"#utility.yul\":5545:5559   */\n      add\n        /* \"#utility.yul\":5531:5543   */\n      dup3\n        /* \"#utility.yul\":5497:5560   */\n      tag_154\n      jump\t// in\n    tag_261:\n        /* \"#utility.yul\":5408:5570   */\n      pop\n        /* \"#utility.yul\":5654:5658   */\n      0x20\n        /* \"#utility.yul\":5647:5652   */\n      dup4\n        /* \"#utility.yul\":5643:5659   */\n      add\n        /* \"#utility.yul\":5637:5660   */\n      mload\n        /* \"#utility.yul\":5673:5736   */\n      tag_262\n        /* \"#utility.yul\":5730:5734   */\n      0x20\n        /* \"#utility.yul\":5725:5728   */\n      dup7\n        /* \"#utility.yul\":5721:5735   */\n      add\n        /* \"#utility.yul\":5707:5719   */\n      dup3\n        /* \"#utility.yul\":5673:5736   */\n      tag_155\n      jump\t// in\n    tag_262:\n        /* \"#utility.yul\":5580:5746   */\n      pop\n        /* \"#utility.yul\":5831:5835   */\n      0x40\n        /* \"#utility.yul\":5824:5829   */\n      dup4\n        /* \"#utility.yul\":5820:5836   */\n      add\n        /* \"#utility.yul\":5814:5837   */\n      mload\n        /* \"#utility.yul\":5884:5887   */\n      dup5\n        /* \"#utility.yul\":5878:5882   */\n      dup3\n        /* \"#utility.yul\":5874:5888   */\n      sub\n        /* \"#utility.yul\":5867:5871   */\n      0x40\n        /* \"#utility.yul\":5862:5865   */\n      dup7\n        /* \"#utility.yul\":5858:5872   */\n      add\n        /* \"#utility.yul\":5851:5889   */\n      mstore\n        /* \"#utility.yul\":5910:5983   */\n      tag_263\n        /* \"#utility.yul\":5978:5982   */\n      dup3\n        /* \"#utility.yul\":5964:5976   */\n      dup3\n        /* \"#utility.yul\":5910:5983   */\n      tag_157\n      jump\t// in\n    tag_263:\n        /* \"#utility.yul\":5902:5983   */\n      swap2\n      pop\n        /* \"#utility.yul\":5756:5994   */\n      pop\n        /* \"#utility.yul\":6081:6085   */\n      0x60\n        /* \"#utility.yul\":6074:6079   */\n      dup4\n        /* \"#utility.yul\":6070:6086   */\n      add\n        /* \"#utility.yul\":6064:6087   */\n      mload\n        /* \"#utility.yul\":6100:6163   */\n      tag_264\n        /* \"#utility.yul\":6157:6161   */\n      0x60\n        /* \"#utility.yul\":6152:6155   */\n      dup7\n        /* \"#utility.yul\":6148:6162   */\n      add\n        /* \"#utility.yul\":6134:6146   */\n      dup3\n        /* \"#utility.yul\":6100:6163   */\n      tag_154\n      jump\t// in\n    tag_264:\n        /* \"#utility.yul\":6004:6173   */\n      pop\n        /* \"#utility.yul\":6256:6260   */\n      0x80\n        /* \"#utility.yul\":6249:6254   */\n      dup4\n        /* \"#utility.yul\":6245:6261   */\n      add\n        /* \"#utility.yul\":6239:6262   */\n      mload\n        /* \"#utility.yul\":6275:6338   */\n      tag_265\n        /* \"#utility.yul\":6332:6336   */\n      0x80\n        /* \"#utility.yul\":6327:6330   */\n      dup7\n        /* \"#utility.yul\":6323:6337   */\n      add\n        /* \"#utility.yul\":6309:6321   */\n      dup3\n        /* \"#utility.yul\":6275:6338   */\n      tag_154\n      jump\t// in\n    tag_265:\n        /* \"#utility.yul\":6183:6348   */\n      pop\n        /* \"#utility.yul\":6365:6369   */\n      dup1\n        /* \"#utility.yul\":6358:6369   */\n      swap2\n      pop\n        /* \"#utility.yul\":5362:6375   */\n      pop\n        /* \"#utility.yul\":5256:6375   */\n      swap3\n      swap2\n      pop\n      pop\n      jump\t// out\n        /* \"#utility.yul\":6381:6621   */\n    tag_159:\n        /* \"#utility.yul\":6492:6502   */\n      0x00\n        /* \"#utility.yul\":6527:6615   */\n      tag_267\n        /* \"#utility.yul\":6611:6614   */\n      dup4\n        /* \"#utility.yul\":6603:6609   */\n      dup4\n        /* \"#utility.yul\":6527:6615   */\n      tag_158\n      jump\t// in\n    tag_267:\n        /* \"#utility.yul\":6513:6615   */\n      swap1\n      pop\n        /* \"#utility.yul\":6381:6621   */\n      swap3\n      swap2\n      pop\n      pop\n      jump\t// out\n        /* \"#utility.yul\":6627:6761   */\n    tag_160:\n        /* \"#utility.yul\":6718:6722   */\n      0x00\n        /* \"#utility.yul\":6750:6754   */\n      0x20\n        /* \"#utility.yul\":6745:6748   */\n      dup3\n        /* \"#utility.yul\":6741:6755   */\n      add\n        /* \"#utility.yul\":6733:6755   */\n      swap1\n      pop\n        /* \"#utility.yul\":6627:6761   */\n      swap2\n      swap1\n      pop\n      jump\t// out\n        /* \"#utility.yul\":6823:7902   */\n    tag_161:\n        /* \"#utility.yul\":6984:6987   */\n      0x00\n        /* \"#utility.yul\":7013:7088   */\n      tag_270\n        /* \"#utility.yul\":7082:7087   */\n      dup3\n        /* \"#utility.yul\":7013:7088   */\n      tag_151\n      jump\t// in\n    tag_270:\n        /* \"#utility.yul\":7104:7211   */\n      tag_271\n        /* \"#utility.yul\":7204:7210   */\n      dup2\n        /* \"#utility.yul\":7199:7202   */\n      dup6\n        /* \"#utility.yul\":7104:7211   */\n      tag_152\n      jump\t// in\n    tag_271:\n        /* \"#utility.yul\":7097:7211   */\n      swap4\n      pop\n        /* \"#utility.yul\":7237:7240   */\n      dup4\n        /* \"#utility.yul\":7282:7286   */\n      0x20\n        /* \"#utility.yul\":7274:7280   */\n      dup3\n        /* \"#utility.yul\":7270:7287   */\n      mul\n        /* \"#utility.yul\":7265:7268   */\n      dup6\n        /* \"#utility.yul\":7261:7288   */\n      add\n        /* \"#utility.yul\":7312:7389   */\n      tag_272\n        /* \"#utility.yul\":7383:7388   */\n      dup6\n        /* \"#utility.yul\":7312:7389   */\n      tag_153\n      jump\t// in\n    tag_272:\n        /* \"#utility.yul\":7412:7419   */\n      dup1\n        /* \"#utility.yul\":7443:7444   */\n      0x00\n        /* \"#utility.yul\":7428:7857   */\n    tag_273:\n        /* \"#utility.yul\":7453:7459   */\n      dup6\n        /* \"#utility.yul\":7450:7451   */\n      dup2\n        /* \"#utility.yul\":7447:7460   */\n      lt\n        /* \"#utility.yul\":7428:7857   */\n      iszero\n      tag_275\n      jumpi\n        /* \"#utility.yul\":7524:7533   */\n      dup5\n        /* \"#utility.yul\":7518:7522   */\n      dup5\n        /* \"#utility.yul\":7514:7534   */\n      sub\n        /* \"#utility.yul\":7509:7512   */\n      dup10\n        /* \"#utility.yul\":7502:7535   */\n      mstore\n        /* \"#utility.yul\":7575:7581   */\n      dup2\n        /* \"#utility.yul\":7569:7582   */\n      mload\n        /* \"#utility.yul\":7603:7709   */\n      tag_276\n        /* \"#utility.yul\":7704:7708   */\n      dup6\n        /* \"#utility.yul\":7689:7702   */\n      dup3\n        /* \"#utility.yul\":7603:7709   */\n      tag_159\n      jump\t// in\n    tag_276:\n        /* \"#utility.yul\":7595:7709   */\n      swap5\n      pop\n        /* \"#utility.yul\":7732:7813   */\n      tag_277\n        /* \"#utility.yul\":7806:7812   */\n      dup4\n        /* \"#utility.yul\":7732:7813   */\n      tag_160\n      jump\t// in\n    tag_277:\n        /* \"#utility.yul\":7722:7813   */\n      swap3\n      pop\n        /* \"#utility.yul\":7842:7846   */\n      0x20\n        /* \"#utility.yul\":7837:7840   */\n      dup11\n        /* \"#utility.yul\":7833:7847   */\n      add\n        /* \"#utility.yul\":7826:7847   */\n      swap10\n      pop\n        /* \"#utility.yul\":7488:7857   */\n      pop\n        /* \"#utility.yul\":7475:7476   */\n      0x01\n        /* \"#utility.yul\":7472:7473   */\n      dup2\n        /* \"#utility.yul\":7468:7477   */\n      add\n        /* \"#utility.yul\":7463:7477   */\n      swap1\n      pop\n        /* \"#utility.yul\":7428:7857   */\n      jump(tag_273)\n    tag_275:\n        /* \"#utility.yul\":7432:7446   */\n      pop\n        /* \"#utility.yul\":7873:7877   */\n      dup3\n        /* \"#utility.yul\":7866:7877   */\n      swap8\n      pop\n        /* \"#utility.yul\":7893:7896   */\n      dup8\n        /* \"#utility.yul\":7886:7896   */\n      swap6\n      pop\n        /* \"#utility.yul\":6989:7902   */\n      pop\n      pop\n      pop\n      pop\n      pop\n        /* \"#utility.yul\":6823:7902   */\n      swap3\n      swap2\n      pop\n      pop\n      jump\t// out\n        /* \"#utility.yul\":7908:8365   */\n    tag_24:\n        /* \"#utility.yul\":8093:8097   */\n      0x00\n        /* \"#utility.yul\":8131:8133   */\n      0x20\n        /* \"#utility.yul\":8120:8129   */\n      dup3\n        /* \"#utility.yul\":8116:8134   */\n      add\n        /* \"#utility.yul\":8108:8134   */\n      swap1\n      pop\n        /* \"#utility.yul\":8180:8189   */\n      dup2\n        /* \"#utility.yul\":8174:8178   */\n      dup2\n        /* \"#utility.yul\":8170:8190   */\n      sub\n        /* \"#utility.yul\":8166:8167   */\n      0x00\n        /* \"#utility.yul\":8155:8164   */\n      dup4\n        /* \"#utility.yul\":8151:8168   */\n      add\n        /* \"#utility.yul\":8144:8191   */\n      mstore\n        /* \"#utility.yul\":8208:8358   */\n      tag_279\n        /* \"#utility.yul\":8353:8357   */\n      dup2\n        /* \"#utility.yul\":8344:8350   */\n      dup5\n        /* \"#utility.yul\":8208:8358   */\n      tag_161\n      jump\t// in\n    tag_279:\n        /* \"#utility.yul\":8200:8358   */\n      swap1\n      pop\n        /* \"#utility.yul\":7908:8365   */\n      swap3\n      swap2\n      pop\n      pop\n      jump\t// out\n        /* \"#utility.yul\":8371:8460   */\n    tag_162:\n        /* \"#utility.yul\":8407:8414   */\n      0x00\n        /* \"#utility.yul\":8447:8453   */\n      0xffff\n        /* \"#utility.yul\":8440:8445   */\n      dup3\n        /* \"#utility.yul\":8436:8454   */\n      and\n        /* \"#utility.yul\":8425:8454   */\n      swap1\n      pop\n        /* \"#utility.yul\":8371:8460   */\n      swap2\n      swap1\n      pop\n      jump\t// out\n        /* \"#utility.yul\":8466:8586   */\n    tag_163:\n        /* \"#utility.yul\":8538:8561   */\n      tag_282\n        /* \"#utility.yul\":8555:8560   */\n      dup2\n        /* \"#utility.yul\":8538:8561   */\n      tag_162\n      jump\t// in\n    tag_282:\n        /* \"#utility.yul\":8531:8536   */\n      dup2\n        /* \"#utility.yul\":8528:8562   */\n      eq\n        /* \"#utility.yul\":8518:8580   */\n      tag_283\n      jumpi\n        /* \"#utility.yul\":8576:8577   */\n      0x00\n        /* \"#utility.yul\":8573:8574   */\n      0x00\n        /* \"#utility.yul\":8566:8578   */\n      revert\n        /* \"#utility.yul\":8518:8580   */\n    tag_283:\n        /* \"#utility.yul\":8466:8586   */\n      pop\n      jump\t// out\n        /* \"#utility.yul\":8592:8729   */\n    tag_164:\n        /* \"#utility.yul\":8637:8642   */\n      0x00\n        /* \"#utility.yul\":8675:8681   */\n      dup2\n        /* \"#utility.yul\":8662:8682   */\n      calldataload\n        /* \"#utility.yul\":8653:8682   */\n      swap1\n      pop\n        /* \"#utility.yul\":8691:8723   */\n      tag_285\n        /* \"#utility.yul\":8717:8722   */\n      dup2\n        /* \"#utility.yul\":8691:8723   */\n      tag_163\n      jump\t// in\n    tag_285:\n        /* \"#utility.yul\":8592:8729   */\n      swap3\n      swap2\n      pop\n      pop\n      jump\t// out\n        /* \"#utility.yul\":8735:9062   */\n    tag_30:\n        /* \"#utility.yul\":8793:8799   */\n      0x00\n        /* \"#utility.yul\":8842:8844   */\n      0x20\n        /* \"#utility.yul\":8830:8839   */\n      dup3\n        /* \"#utility.yul\":8821:8828   */\n      dup5\n        /* \"#utility.yul\":8817:8840   */\n      sub\n        /* \"#utility.yul\":8813:8845   */\n      slt\n        /* \"#utility.yul\":8810:8929   */\n      iszero\n      tag_287\n      jumpi\n        /* \"#utility.yul\":8848:8927   */\n      tag_288\n      tag_135\n      jump\t// in\n    tag_288:\n        /* \"#utility.yul\":8810:8929   */\n    tag_287:\n        /* \"#utility.yul\":8968:8969   */\n      0x00\n        /* \"#utility.yul\":8993:9045   */\n      tag_289\n        /* \"#utility.yul\":9037:9044   */\n      dup5\n        /* \"#utility.yul\":9028:9034   */\n      dup3\n        /* \"#utility.yul\":9017:9026   */\n      dup6\n        /* \"#utility.yul\":9013:9035   */\n      add\n        /* \"#utility.yul\":8993:9045   */\n      tag_164\n      jump\t// in\n    tag_289:\n        /* \"#utility.yul\":8983:9045   */\n      swap2\n      pop\n        /* \"#utility.yul\":8939:9055   */\n      pop\n        /* \"#utility.yul\":8735:9062   */\n      swap3\n      swap2\n      pop\n      pop\n      jump\t// out\n        /* \"#utility.yul\":9068:9183   */\n    tag_165:\n        /* \"#utility.yul\":9153:9176   */\n      tag_291\n        /* \"#utility.yul\":9170:9175   */\n      dup2\n        /* \"#utility.yul\":9153:9176   */\n      tag_162\n      jump\t// in\n    tag_291:\n        /* \"#utility.yul\":9148:9151   */\n      dup3\n        /* \"#utility.yul\":9141:9177   */\n      mstore\n        /* \"#utility.yul\":9068:9183   */\n      pop\n      pop\n      jump\t// out\n        /* \"#utility.yul\":9189:9407   */\n    tag_38:\n        /* \"#utility.yul\":9280:9284   */\n      0x00\n        /* \"#utility.yul\":9318:9320   */\n      0x20\n        /* \"#utility.yul\":9307:9316   */\n      dup3\n        /* \"#utility.yul\":9303:9321   */\n      add\n        /* \"#utility.yul\":9295:9321   */\n      swap1\n      pop\n        /* \"#utility.yul\":9331:9400   */\n      tag_293\n        /* \"#utility.yul\":9397:9398   */\n      0x00\n        /* \"#utility.yul\":9386:9395   */\n      dup4\n        /* \"#utility.yul\":9382:9399   */\n      add\n        /* \"#utility.yul\":9373:9379   */\n      dup5\n        /* \"#utility.yul\":9331:9400   */\n      tag_165\n      jump\t// in\n    tag_293:\n        /* \"#utility.yul\":9189:9407   */\n      swap3\n      swap2\n      pop\n      pop\n      jump\t// out\n        /* \"#utility.yul\":9413:9530   */\n    tag_166:\n        /* \"#utility.yul\":9522:9523   */\n      0x00\n        /* \"#utility.yul\":9519:9520   */\n      0x00\n        /* \"#utility.yul\":9512:9524   */\n      revert\n        /* \"#utility.yul\":9536:9653   */\n    tag_167:\n        /* \"#utility.yul\":9645:9646   */\n      0x00\n        /* \"#utility.yul\":9642:9643   */\n      0x00\n        /* \"#utility.yul\":9635:9647   */\n      revert\n        /* \"#utility.yul\":9659:9839   */\n    tag_168:\n        /* \"#utility.yul\":9707:9784   */\n      0x4e487b7100000000000000000000000000000000000000000000000000000000\n        /* \"#utility.yul\":9704:9705   */\n      0x00\n        /* \"#utility.yul\":9697:9785   */\n      mstore\n        /* \"#utility.yul\":9804:9808   */\n      0x41\n        /* \"#utility.yul\":9801:9802   */\n      0x04\n        /* \"#utility.yul\":9794:9809   */\n      mstore\n        /* \"#utility.yul\":9828:9832   */\n      0x24\n        /* \"#utility.yul\":9825:9826   */\n      0x00\n        /* \"#utility.yul\":9818:9833   */\n      revert\n        /* \"#utility.yul\":9845:10126   */\n    tag_169:\n        /* \"#utility.yul\":9928:9955   */\n      tag_298\n        /* \"#utility.yul\":9950:9954   */\n      dup3\n        /* \"#utility.yul\":9928:9955   */\n      tag_149\n      jump\t// in\n    tag_298:\n        /* \"#utility.yul\":9920:9926   */\n      dup2\n        /* \"#utility.yul\":9916:9956   */\n      add\n        /* \"#utility.yul\":10058:10064   */\n      dup2\n        /* \"#utility.yul\":10046:10056   */\n      dup2\n        /* \"#utility.yul\":10043:10065   */\n      lt\n        /* \"#utility.yul\":10022:10040   */\n      0xffffffffffffffff\n        /* \"#utility.yul\":10010:10020   */\n      dup3\n        /* \"#utility.yul\":10007:10041   */\n      gt\n        /* \"#utility.yul\":10004:10066   */\n      or\n        /* \"#utility.yul\":10001:10089   */\n      iszero\n      tag_299\n      jumpi\n        /* \"#utility.yul\":10069:10087   */\n      tag_300\n      tag_168\n      jump\t// in\n    tag_300:\n        /* \"#utility.yul\":10001:10089   */\n    tag_299:\n        /* \"#utility.yul\":10109:10119   */\n      dup1\n        /* \"#utility.yul\":10105:10107   */\n      0x40\n        /* \"#utility.yul\":10098:10120   */\n      mstore\n        /* \"#utility.yul\":9888:10126   */\n      pop\n        /* \"#utility.yul\":9845:10126   */\n      pop\n      pop\n      jump\t// out\n        /* \"#utility.yul\":10132:10261   */\n    tag_170:\n        /* \"#utility.yul\":10166:10172   */\n      0x00\n        /* \"#utility.yul\":10193:10213   */\n      tag_302\n      tag_134\n      jump\t// in\n    tag_302:\n        /* \"#utility.yul\":10183:10213   */\n      swap1\n      pop\n        /* \"#utility.yul\":10222:10255   */\n      tag_303\n        /* \"#utility.yul\":10250:10254   */\n      dup3\n        /* \"#utility.yul\":10242:10248   */\n      dup3\n        /* \"#utility.yul\":10222:10255   */\n      tag_169\n      jump\t// in\n    tag_303:\n        /* \"#utility.yul\":10132:10261   */\n      swap2\n      swap1\n      pop\n      jump\t// out\n        /* \"#utility.yul\":10267:10575   */\n    tag_171:\n        /* \"#utility.yul\":10329:10333   */\n      0x00\n        /* \"#utility.yul\":10419:10437   */\n      0xffffffffffffffff\n        /* \"#utility.yul\":10411:10417   */\n      dup3\n        /* \"#utility.yul\":10408:10438   */\n      gt\n        /* \"#utility.yul\":10405:10461   */\n      iszero\n      tag_305\n      jumpi\n        /* \"#utility.yul\":10441:10459   */\n      tag_306\n      tag_168\n      jump\t// in\n    tag_306:\n        /* \"#utility.yul\":10405:10461   */\n    tag_305:\n        /* \"#utility.yul\":10479:10508   */\n      tag_307\n        /* \"#utility.yul\":10501:10507   */\n      dup3\n        /* \"#utility.yul\":10479:10508   */\n      tag_149\n      jump\t// in\n    tag_307:\n        /* \"#utility.yul\":10471:10508   */\n      swap1\n      pop\n        /* \"#utility.yul\":10563:10567   */\n      0x20\n        /* \"#utility.yul\":10557:10561   */\n      dup2\n        /* \"#utility.yul\":10553:10568   */\n      add\n        /* \"#utility.yul\":10545:10568   */\n      swap1\n      pop\n        /* \"#utility.yul\":10267:10575   */\n      swap2\n      swap1\n      pop\n      jump\t// out\n        /* \"#utility.yul\":10581:10729   */\n    tag_172:\n        /* \"#utility.yul\":10679:10685   */\n      dup3\n        /* \"#utility.yul\":10674:10677   */\n      dup2\n        /* \"#utility.yul\":10669:10672   */\n      dup4\n        /* \"#utility.yul\":10656:10686   */\n      calldatacopy\n        /* \"#utility.yul\":10720:10721   */\n      0x00\n        /* \"#utility.yul\":10711:10717   */\n      dup4\n        /* \"#utility.yul\":10706:10709   */\n      dup4\n        /* \"#utility.yul\":10702:10718   */\n      add\n        /* \"#utility.yul\":10695:10722   */\n      mstore\n        /* \"#utility.yul\":10581:10729   */\n      pop\n      pop\n      pop\n      jump\t// out\n        /* \"#utility.yul\":10735:11160   */\n    tag_173:\n        /* \"#utility.yul\":10813:10818   */\n      0x00\n        /* \"#utility.yul\":10838:10904   */\n      tag_310\n        /* \"#utility.yul\":10854:10903   */\n      tag_311\n        /* \"#utility.yul\":10896:10902   */\n      dup5\n        /* \"#utility.yul\":10854:10903   */\n      tag_171\n      jump\t// in\n    tag_311:\n        /* \"#utility.yul\":10838:10904   */\n      tag_170\n      jump\t// in\n    tag_310:\n        /* \"#utility.yul\":10829:10904   */\n      swap1\n      pop\n        /* \"#utility.yul\":10927:10933   */\n      dup3\n        /* \"#utility.yul\":10920:10925   */\n      dup2\n        /* \"#utility.yul\":10913:10934   */\n      mstore\n        /* \"#utility.yul\":10965:10969   */\n      0x20\n        /* \"#utility.yul\":10958:10963   */\n      dup2\n        /* \"#utility.yul\":10954:10970   */\n      add\n        /* \"#utility.yul\":11003:11006   */\n      dup5\n        /* \"#utility.yul\":10994:11000   */\n      dup5\n        /* \"#utility.yul\":10989:10992   */\n      dup5\n        /* \"#utility.yul\":10985:11001   */\n      add\n        /* \"#utility.yul\":10982:11007   */\n      gt\n        /* \"#utility.yul\":10979:11091   */\n      iszero\n      tag_312\n      jumpi\n        /* \"#utility.yul\":11010:11089   */\n      tag_313\n      tag_167\n      jump\t// in\n    tag_313:\n        /* \"#utility.yul\":10979:11091   */\n    tag_312:\n        /* \"#utility.yul\":11100:11154   */\n      tag_314\n        /* \"#utility.yul\":11147:11153   */\n      dup5\n        /* \"#utility.yul\":11142:11145   */\n      dup3\n        /* \"#utility.yul\":11137:11140   */\n      dup6\n        /* \"#utility.yul\":11100:11154   */\n      tag_172\n      jump\t// in\n    tag_314:\n        /* \"#utility.yul\":10819:11160   */\n      pop\n        /* \"#utility.yul\":10735:11160   */\n      swap4\n      swap3\n      pop\n      pop\n      pop\n      jump\t// out\n        /* \"#utility.yul\":11180:11520   */\n    tag_174:\n        /* \"#utility.yul\":11236:11241   */\n      0x00\n        /* \"#utility.yul\":11285:11288   */\n      dup3\n        /* \"#utility.yul\":11278:11282   */\n      0x1f\n        /* \"#utility.yul\":11270:11276   */\n      dup4\n        /* \"#utility.yul\":11266:11283   */\n      add\n        /* \"#utility.yul\":11262:11289   */\n      slt\n        /* \"#utility.yul\":11252:11374   */\n      tag_316\n      jumpi\n        /* \"#utility.yul\":11293:11372   */\n      tag_317\n      tag_166\n      jump\t// in\n    tag_317:\n        /* \"#utility.yul\":11252:11374   */\n    tag_316:\n        /* \"#utility.yul\":11410:11416   */\n      dup2\n        /* \"#utility.yul\":11397:11417   */\n      calldataload\n        /* \"#utility.yul\":11435:11514   */\n      tag_318\n        /* \"#utility.yul\":11510:11513   */\n      dup5\n        /* \"#utility.yul\":11502:11508   */\n      dup3\n        /* \"#utility.yul\":11495:11499   */\n      0x20\n        /* \"#utility.yul\":11487:11493   */\n      dup7\n        /* \"#utility.yul\":11483:11500   */\n      add\n        /* \"#utility.yul\":11435:11514   */\n      tag_173\n      jump\t// in\n    tag_318:\n        /* \"#utility.yul\":11426:11514   */\n      swap2\n      pop\n        /* \"#utility.yul\":11242:11520   */\n      pop\n        /* \"#utility.yul\":11180:11520   */\n      swap3\n      swap2\n      pop\n      pop\n      jump\t// out\n        /* \"#utility.yul\":11526:12035   */\n    tag_41:\n        /* \"#utility.yul\":11595:11601   */\n      0x00\n        /* \"#utility.yul\":11644:11646   */\n      0x20\n        /* \"#utility.yul\":11632:11641   */\n      dup3\n        /* \"#utility.yul\":11623:11630   */\n      dup5\n        /* \"#utility.yul\":11619:11642   */\n      sub\n        /* \"#utility.yul\":11615:11647   */\n      slt\n        /* \"#utility.yul\":11612:11731   */\n      iszero\n      tag_320\n      jumpi\n        /* \"#utility.yul\":11650:11729   */\n      tag_321\n      tag_135\n      jump\t// in\n    tag_321:\n        /* \"#utility.yul\":11612:11731   */\n    tag_320:\n        /* \"#utility.yul\":11798:11799   */\n      0x00\n        /* \"#utility.yul\":11787:11796   */\n      dup3\n        /* \"#utility.yul\":11783:11800   */\n      add\n        /* \"#utility.yul\":11770:11801   */\n      calldataload\n        /* \"#utility.yul\":11828:11846   */\n      0xffffffffffffffff\n        /* \"#utility.yul\":11820:11826   */\n      dup2\n        /* \"#utility.yul\":11817:11847   */\n      gt\n        /* \"#utility.yul\":11814:11931   */\n      iszero\n      tag_322\n      jumpi\n        /* \"#utility.yul\":11850:11929   */\n      tag_323\n      tag_136\n      jump\t// in\n    tag_323:\n        /* \"#utility.yul\":11814:11931   */\n    tag_322:\n        /* \"#utility.yul\":11955:12018   */\n      tag_324\n        /* \"#utility.yul\":12010:12017   */\n      dup5\n        /* \"#utility.yul\":12001:12007   */\n      dup3\n        /* \"#utility.yul\":11990:11999   */\n      dup6\n        /* \"#utility.yul\":11986:12008   */\n      add\n        /* \"#utility.yul\":11955:12018   */\n      tag_174\n      jump\t// in\n    tag_324:\n        /* \"#utility.yul\":11945:12018   */\n      swap2\n      pop\n        /* \"#utility.yul\":11741:12028   */\n      pop\n        /* \"#utility.yul\":11526:12035   */\n      swap3\n      swap2\n      pop\n      pop\n      jump\t// out\n        /* \"#utility.yul\":12041:12263   */\n    tag_46:\n        /* \"#utility.yul\":12134:12138   */\n      0x00\n        /* \"#utility.yul\":12172:12174   */\n      0x20\n        /* \"#utility.yul\":12161:12170   */\n      dup3\n        /* \"#utility.yul\":12157:12175   */\n      add\n        /* \"#utility.yul\":12149:12175   */\n      swap1\n      pop\n        /* \"#utility.yul\":12185:12256   */\n      tag_326\n        /* \"#utility.yul\":12253:12254   */\n      0x00\n        /* \"#utility.yul\":12242:12251   */\n      dup4\n        /* \"#utility.yul\":12238:12255   */\n      add\n        /* \"#utility.yul\":12229:12235   */\n      dup5\n        /* \"#utility.yul\":12185:12256   */\n      tag_145\n      jump\t// in\n    tag_326:\n        /* \"#utility.yul\":12041:12263   */\n      swap3\n      swap2\n      pop\n      pop\n      jump\t// out\n        /* \"#utility.yul\":12269:12598   */\n    tag_49:\n        /* \"#utility.yul\":12328:12334   */\n      0x00\n        /* \"#utility.yul\":12377:12379   */\n      0x20\n        /* \"#utility.yul\":12365:12374   */\n      dup3\n        /* \"#utility.yul\":12356:12363   */\n      dup5\n        /* \"#utility.yul\":12352:12375   */\n      sub\n        /* \"#utility.yul\":12348:12380   */\n      slt\n        /* \"#utility.yul\":12345:12464   */\n      iszero\n      tag_328\n      jumpi\n        /* \"#utility.yul\":12383:12462   */\n      tag_329\n      tag_135\n      jump\t// in\n    tag_329:\n        /* \"#utility.yul\":12345:12464   */\n    tag_328:\n        /* \"#utility.yul\":12503:12504   */\n      0x00\n        /* \"#utility.yul\":12528:12581   */\n      tag_330\n        /* \"#utility.yul\":12573:12580   */\n      dup5\n        /* \"#utility.yul\":12564:12570   */\n      dup3\n        /* \"#utility.yul\":12553:12562   */\n      dup6\n        /* \"#utility.yul\":12549:12571   */\n      add\n        /* \"#utility.yul\":12528:12581   */\n      tag_143\n      jump\t// in\n    tag_330:\n        /* \"#utility.yul\":12518:12581   */\n      swap2\n      pop\n        /* \"#utility.yul\":12474:12591   */\n      pop\n        /* \"#utility.yul\":12269:12598   */\n      swap3\n      swap2\n      pop\n      pop\n      jump\t// out\n        /* \"#utility.yul\":12656:13785   */\n    tag_175:\n        /* \"#utility.yul\":12767:12770   */\n      0x00\n        /* \"#utility.yul\":12803:12807   */\n      0xa0\n        /* \"#utility.yul\":12798:12801   */\n      dup4\n        /* \"#utility.yul\":12794:12808   */\n      add\n        /* \"#utility.yul\":12888:12892   */\n      0x00\n        /* \"#utility.yul\":12881:12886   */\n      dup4\n        /* \"#utility.yul\":12877:12893   */\n      add\n        /* \"#utility.yul\":12871:12894   */\n      mload\n        /* \"#utility.yul\":12907:12970   */\n      tag_332\n        /* \"#utility.yul\":12964:12968   */\n      0x00\n        /* \"#utility.yul\":12959:12962   */\n      dup7\n        /* \"#utility.yul\":12955:12969   */\n      add\n        /* \"#utility.yul\":12941:12953   */\n      dup3\n        /* \"#utility.yul\":12907:12970   */\n      tag_154\n      jump\t// in\n    tag_332:\n        /* \"#utility.yul\":12818:12980   */\n      pop\n        /* \"#utility.yul\":13064:13068   */\n      0x20\n        /* \"#utility.yul\":13057:13062   */\n      dup4\n        /* \"#utility.yul\":13053:13069   */\n      add\n        /* \"#utility.yul\":13047:13070   */\n      mload\n        /* \"#utility.yul\":13083:13146   */\n      tag_333\n        /* \"#utility.yul\":13140:13144   */\n      0x20\n        /* \"#utility.yul\":13135:13138   */\n      dup7\n        /* \"#utility.yul\":13131:13145   */\n      add\n        /* \"#utility.yul\":13117:13129   */\n      dup3\n        /* \"#utility.yul\":13083:13146   */\n      tag_155\n      jump\t// in\n    tag_333:\n        /* \"#utility.yul\":12990:13156   */\n      pop\n        /* \"#utility.yul\":13241:13245   */\n      0x40\n        /* \"#utility.yul\":13234:13239   */\n      dup4\n        /* \"#utility.yul\":13230:13246   */\n      add\n        /* \"#utility.yul\":13224:13247   */\n      mload\n        /* \"#utility.yul\":13294:13297   */\n      dup5\n        /* \"#utility.yul\":13288:13292   */\n      dup3\n        /* \"#utility.yul\":13284:13298   */\n      sub\n        /* \"#utility.yul\":13277:13281   */\n      0x40\n        /* \"#utility.yul\":13272:13275   */\n      dup7\n        /* \"#utility.yul\":13268:13282   */\n      add\n        /* \"#utility.yul\":13261:13299   */\n      mstore\n        /* \"#utility.yul\":13320:13393   */\n      tag_334\n        /* \"#utility.yul\":13388:13392   */\n      dup3\n        /* \"#utility.yul\":13374:13386   */\n      dup3\n        /* \"#utility.yul\":13320:13393   */\n      tag_157\n      jump\t// in\n    tag_334:\n        /* \"#utility.yul\":13312:13393   */\n      swap2\n      pop\n        /* \"#utility.yul\":13166:13404   */\n      pop\n        /* \"#utility.yul\":13491:13495   */\n      0x60\n        /* \"#utility.yul\":13484:13489   */\n      dup4\n        /* \"#utility.yul\":13480:13496   */\n      add\n        /* \"#utility.yul\":13474:13497   */\n      mload\n        /* \"#utility.yul\":13510:13573   */\n      tag_335\n        /* \"#utility.yul\":13567:13571   */\n      0x60\n        /* \"#utility.yul\":13562:13565   */\n      dup7\n        /* \"#utility.yul\":13558:13572   */\n      add\n        /* \"#utility.yul\":13544:13556   */\n      dup3\n        /* \"#utility.yul\":13510:13573   */\n      tag_154\n      jump\t// in\n    tag_335:\n        /* \"#utility.yul\":13414:13583   */\n      pop\n        /* \"#utility.yul\":13666:13670   */\n      0x80\n        /* \"#utility.yul\":13659:13664   */\n      dup4\n        /* \"#utility.yul\":13655:13671   */\n      add\n        /* \"#utility.yul\":13649:13672   */\n      mload\n        /* \"#utility.yul\":13685:13748   */\n      tag_336\n        /* \"#utility.yul\":13742:13746   */\n      0x80\n        /* \"#utility.yul\":13737:13740   */\n      dup7\n        /* \"#utility.yul\":13733:13747   */\n      add\n        /* \"#utility.yul\":13719:13731   */\n      dup3\n        /* \"#utility.yul\":13685:13748   */\n      tag_154\n      jump\t// in\n    tag_336:\n        /* \"#utility.yul\":13593:13758   */\n      pop\n        /* \"#utility.yul\":13775:13779   */\n      dup1\n        /* \"#utility.yul\":13768:13779   */\n      swap2\n      pop\n        /* \"#utility.yul\":12772:13785   */\n      pop\n        /* \"#utility.yul\":12656:13785   */\n      swap3\n      swap2\n      pop\n      pop\n      jump\t// out\n        /* \"#utility.yul\":13791:14148   */\n    tag_52:\n        /* \"#utility.yul\":13926:13930   */\n      0x00\n        /* \"#utility.yul\":13964:13966   */\n      0x20\n        /* \"#utility.yul\":13953:13962   */\n      dup3\n        /* \"#utility.yul\":13949:13967   */\n      add\n        /* \"#utility.yul\":13941:13967   */\n      swap1\n      pop\n        /* \"#utility.yul\":14013:14022   */\n      dup2\n        /* \"#utility.yul\":14007:14011   */\n      dup2\n        /* \"#utility.yul\":14003:14023   */\n      sub\n        /* \"#utility.yul\":13999:14000   */\n      0x00\n        /* \"#utility.yul\":13988:13997   */\n      dup4\n        /* \"#utility.yul\":13984:14001   */\n      add\n        /* \"#utility.yul\":13977:14024   */\n      mstore\n        /* \"#utility.yul\":14041:14141   */\n      tag_338\n        /* \"#utility.yul\":14136:14140   */\n      dup2\n        /* \"#utility.yul\":14127:14133   */\n      dup5\n        /* \"#utility.yul\":14041:14141   */\n      tag_175\n      jump\t// in\n    tag_338:\n        /* \"#utility.yul\":14033:14141   */\n      swap1\n      pop\n        /* \"#utility.yul\":13791:14148   */\n      swap3\n      swap2\n      pop\n      pop\n      jump\t// out\n        /* \"#utility.yul\":14154:14334   */\n    tag_176:\n        /* \"#utility.yul\":14202:14279   */\n      0x4e487b7100000000000000000000000000000000000000000000000000000000\n        /* \"#utility.yul\":14199:14200   */\n      0x00\n        /* \"#utility.yul\":14192:14280   */\n      mstore\n        /* \"#utility.yul\":14299:14303   */\n      0x22\n        /* \"#utility.yul\":14296:14297   */\n      0x04\n        /* \"#utility.yul\":14289:14304   */\n      mstore\n        /* \"#utility.yul\":14323:14327   */\n      0x24\n        /* \"#utility.yul\":14320:14321   */\n      0x00\n        /* \"#utility.yul\":14313:14328   */\n      revert\n        /* \"#utility.yul\":14340:14660   */\n    tag_56:\n        /* \"#utility.yul\":14384:14390   */\n      0x00\n        /* \"#utility.yul\":14421:14422   */\n      0x02\n        /* \"#utility.yul\":14415:14419   */\n      dup3\n        /* \"#utility.yul\":14411:14423   */\n      div\n        /* \"#utility.yul\":14401:14423   */\n      swap1\n      pop\n        /* \"#utility.yul\":14468:14469   */\n      0x01\n        /* \"#utility.yul\":14462:14466   */\n      dup3\n        /* \"#utility.yul\":14458:14470   */\n      and\n        /* \"#utility.yul\":14489:14507   */\n      dup1\n        /* \"#utility.yul\":14479:14560   */\n      tag_341\n      jumpi\n        /* \"#utility.yul\":14545:14549   */\n      0x7f\n        /* \"#utility.yul\":14537:14543   */\n      dup3\n        /* \"#utility.yul\":14533:14550   */\n      and\n        /* \"#utility.yul\":14523:14550   */\n      swap2\n      pop\n        /* \"#utility.yul\":14479:14560   */\n    tag_341:\n        /* \"#utility.yul\":14607:14609   */\n      0x20\n        /* \"#utility.yul\":14599:14605   */\n      dup3\n        /* \"#utility.yul\":14596:14610   */\n      lt\n        /* \"#utility.yul\":14576:14594   */\n      dup2\n        /* \"#utility.yul\":14573:14611   */\n      sub\n        /* \"#utility.yul\":14570:14654   */\n      tag_342\n      jumpi\n        /* \"#utility.yul\":14626:14644   */\n      tag_343\n      tag_176\n      jump\t// in\n    tag_343:\n        /* \"#utility.yul\":14570:14654   */\n    tag_342:\n        /* \"#utility.yul\":14391:14660   */\n      pop\n        /* \"#utility.yul\":14340:14660   */\n      swap2\n      swap1\n      pop\n      jump\t// out\n        /* \"#utility.yul\":14666:14846   */\n    tag_73:\n        /* \"#utility.yul\":14714:14791   */\n      0x4e487b7100000000000000000000000000000000000000000000000000000000\n        /* \"#utility.yul\":14711:14712   */\n      0x00\n        /* \"#utility.yul\":14704:14792   */\n      mstore\n        /* \"#utility.yul\":14811:14815   */\n      0x32\n        /* \"#utility.yul\":14808:14809   */\n      0x04\n        /* \"#utility.yul\":14801:14816   */\n      mstore\n        /* \"#utility.yul\":14835:14839   */\n      0x24\n        /* \"#utility.yul\":14832:14833   */\n      0x00\n        /* \"#utility.yul\":14825:14840   */\n      revert\n        /* \"#utility.yul\":14852:15022   */\n    tag_177:\n        /* \"#utility.yul\":14992:15014   */\n      0x545745455420444f4553204e4f54204558495354000000000000000000000000\n        /* \"#utility.yul\":14988:14989   */\n      0x00\n        /* \"#utility.yul\":14980:14986   */\n      dup3\n        /* \"#utility.yul\":14976:14990   */\n      add\n        /* \"#utility.yul\":14969:15015   */\n      mstore\n        /* \"#utility.yul\":14852:15022   */\n      pop\n      jump\t// out\n        /* \"#utility.yul\":15028:15394   */\n    tag_178:\n        /* \"#utility.yul\":15170:15173   */\n      0x00\n        /* \"#utility.yul\":15191:15258   */\n      tag_347\n        /* \"#utility.yul\":15255:15257   */\n      0x14\n        /* \"#utility.yul\":15250:15253   */\n      dup4\n        /* \"#utility.yul\":15191:15258   */\n      tag_147\n      jump\t// in\n    tag_347:\n        /* \"#utility.yul\":15184:15258   */\n      swap2\n      pop\n        /* \"#utility.yul\":15267:15360   */\n      tag_348\n        /* \"#utility.yul\":15356:15359   */\n      dup3\n        /* \"#utility.yul\":15267:15360   */\n      tag_177\n      jump\t// in\n    tag_348:\n        /* \"#utility.yul\":15385:15387   */\n      0x20\n        /* \"#utility.yul\":15380:15383   */\n      dup3\n        /* \"#utility.yul\":15376:15388   */\n      add\n        /* \"#utility.yul\":15369:15388   */\n      swap1\n      pop\n        /* \"#utility.yul\":15028:15394   */\n      swap2\n      swap1\n      pop\n      jump\t// out\n        /* \"#utility.yul\":15400:15819   */\n    tag_77:\n        /* \"#utility.yul\":15566:15570   */\n      0x00\n        /* \"#utility.yul\":15604:15606   */\n      0x20\n        /* \"#utility.yul\":15593:15602   */\n      dup3\n        /* \"#utility.yul\":15589:15607   */\n      add\n        /* \"#utility.yul\":15581:15607   */\n      swap1\n      pop\n        /* \"#utility.yul\":15653:15662   */\n      dup2\n        /* \"#utility.yul\":15647:15651   */\n      dup2\n        /* \"#utility.yul\":15643:15663   */\n      sub\n        /* \"#utility.yul\":15639:15640   */\n      0x00\n        /* \"#utility.yul\":15628:15637   */\n      dup4\n        /* \"#utility.yul\":15624:15641   */\n      add\n        /* \"#utility.yul\":15617:15664   */\n      mstore\n        /* \"#utility.yul\":15681:15812   */\n      tag_350\n        /* \"#utility.yul\":15807:15811   */\n      dup2\n        /* \"#utility.yul\":15681:15812   */\n      tag_178\n      jump\t// in\n    tag_350:\n        /* \"#utility.yul\":15673:15812   */\n      swap1\n      pop\n        /* \"#utility.yul\":15400:15819   */\n      swap2\n      swap1\n      pop\n      jump\t// out\n        /* \"#utility.yul\":15825:15993   */\n    tag_179:\n        /* \"#utility.yul\":15965:15985   */\n      0x545745455420484153204e4f204c494b45530000000000000000000000000000\n        /* \"#utility.yul\":15961:15962   */\n      0x00\n        /* \"#utility.yul\":15953:15959   */\n      dup3\n        /* \"#utility.yul\":15949:15963   */\n      add\n        /* \"#utility.yul\":15942:15986   */\n      mstore\n        /* \"#utility.yul\":15825:15993   */\n      pop\n      jump\t// out\n        /* \"#utility.yul\":15999:16365   */\n    tag_180:\n        /* \"#utility.yul\":16141:16144   */\n      0x00\n        /* \"#utility.yul\":16162:16229   */\n      tag_353\n        /* \"#utility.yul\":16226:16228   */\n      0x12\n        /* \"#utility.yul\":16221:16224   */\n      dup4\n        /* \"#utility.yul\":16162:16229   */\n      tag_147\n      jump\t// in\n    tag_353:\n        /* \"#utility.yul\":16155:16229   */\n      swap2\n      pop\n        /* \"#utility.yul\":16238:16331   */\n      tag_354\n        /* \"#utility.yul\":16327:16330   */\n      dup3\n        /* \"#utility.yul\":16238:16331   */\n      tag_179\n      jump\t// in\n    tag_354:\n        /* \"#utility.yul\":16356:16358   */\n      0x20\n        /* \"#utility.yul\":16351:16354   */\n      dup3\n        /* \"#utility.yul\":16347:16359   */\n      add\n        /* \"#utility.yul\":16340:16359   */\n      swap1\n      pop\n        /* \"#utility.yul\":15999:16365   */\n      swap2\n      swap1\n      pop\n      jump\t// out\n        /* \"#utility.yul\":16371:16790   */\n    tag_83:\n        /* \"#utility.yul\":16537:16541   */\n      0x00\n        /* \"#utility.yul\":16575:16577   */\n      0x20\n        /* \"#utility.yul\":16564:16573   */\n      dup3\n        /* \"#utility.yul\":16560:16578   */\n      add\n        /* \"#utility.yul\":16552:16578   */\n      swap1\n      pop\n        /* \"#utility.yul\":16624:16633   */\n      dup2\n        /* \"#utility.yul\":16618:16622   */\n      dup2\n        /* \"#utility.yul\":16614:16634   */\n      sub\n        /* \"#utility.yul\":16610:16611   */\n      0x00\n        /* \"#utility.yul\":16599:16608   */\n      dup4\n        /* \"#utility.yul\":16595:16612   */\n      add\n        /* \"#utility.yul\":16588:16635   */\n      mstore\n        /* \"#utility.yul\":16652:16783   */\n      tag_356\n        /* \"#utility.yul\":16778:16782   */\n      dup2\n        /* \"#utility.yul\":16652:16783   */\n      tag_180\n      jump\t// in\n    tag_356:\n        /* \"#utility.yul\":16644:16783   */\n      swap1\n      pop\n        /* \"#utility.yul\":16371:16790   */\n      swap2\n      swap1\n      pop\n      jump\t// out\n        /* \"#utility.yul\":16796:16976   */\n    tag_181:\n        /* \"#utility.yul\":16844:16921   */\n      0x4e487b7100000000000000000000000000000000000000000000000000000000\n        /* \"#utility.yul\":16841:16842   */\n      0x00\n        /* \"#utility.yul\":16834:16922   */\n      mstore\n        /* \"#utility.yul\":16941:16945   */\n      0x11\n        /* \"#utility.yul\":16938:16939   */\n      0x04\n        /* \"#utility.yul\":16931:16946   */\n      mstore\n        /* \"#utility.yul\":16965:16969   */\n      0x24\n        /* \"#utility.yul\":16962:16963   */\n      0x00\n        /* \"#utility.yul\":16955:16970   */\n      revert\n        /* \"#utility.yul\":16982:17153   */\n    tag_88:\n        /* \"#utility.yul\":17021:17024   */\n      0x00\n        /* \"#utility.yul\":17044:17068   */\n      tag_359\n        /* \"#utility.yul\":17062:17067   */\n      dup3\n        /* \"#utility.yul\":17044:17068   */\n      tag_141\n      jump\t// in\n    tag_359:\n        /* \"#utility.yul\":17035:17068   */\n      swap2\n      pop\n        /* \"#utility.yul\":17090:17094   */\n      0x00\n        /* \"#utility.yul\":17083:17088   */\n      dup3\n        /* \"#utility.yul\":17080:17095   */\n      sub\n        /* \"#utility.yul\":17077:17118   */\n      tag_360\n      jumpi\n        /* \"#utility.yul\":17098:17116   */\n      tag_361\n      tag_181\n      jump\t// in\n    tag_361:\n        /* \"#utility.yul\":17077:17118   */\n    tag_360:\n        /* \"#utility.yul\":17145:17146   */\n      0x01\n        /* \"#utility.yul\":17138:17143   */\n      dup3\n        /* \"#utility.yul\":17134:17147   */\n      sub\n        /* \"#utility.yul\":17127:17147   */\n      swap1\n      pop\n        /* \"#utility.yul\":16982:17153   */\n      swap2\n      swap1\n      pop\n      jump\t// out\n        /* \"#utility.yul\":17159:17712   */\n    tag_93:\n        /* \"#utility.yul\":17336:17340   */\n      0x00\n        /* \"#utility.yul\":17374:17377   */\n      0x80\n        /* \"#utility.yul\":17363:17372   */\n      dup3\n        /* \"#utility.yul\":17359:17378   */\n      add\n        /* \"#utility.yul\":17351:17378   */\n      swap1\n      pop\n        /* \"#utility.yul\":17388:17459   */\n      tag_363\n        /* \"#utility.yul\":17456:17457   */\n      0x00\n        /* \"#utility.yul\":17445:17454   */\n      dup4\n        /* \"#utility.yul\":17441:17458   */\n      add\n        /* \"#utility.yul\":17432:17438   */\n      dup8\n        /* \"#utility.yul\":17388:17459   */\n      tag_145\n      jump\t// in\n    tag_363:\n        /* \"#utility.yul\":17469:17541   */\n      tag_364\n        /* \"#utility.yul\":17537:17539   */\n      0x20\n        /* \"#utility.yul\":17526:17535   */\n      dup4\n        /* \"#utility.yul\":17522:17540   */\n      add\n        /* \"#utility.yul\":17513:17519   */\n      dup7\n        /* \"#utility.yul\":17469:17541   */\n      tag_145\n      jump\t// in\n    tag_364:\n        /* \"#utility.yul\":17551:17623   */\n      tag_365\n        /* \"#utility.yul\":17619:17621   */\n      0x40\n        /* \"#utility.yul\":17608:17617   */\n      dup4\n        /* \"#utility.yul\":17604:17622   */\n      add\n        /* \"#utility.yul\":17595:17601   */\n      dup6\n        /* \"#utility.yul\":17551:17623   */\n      tag_144\n      jump\t// in\n    tag_365:\n        /* \"#utility.yul\":17633:17705   */\n      tag_366\n        /* \"#utility.yul\":17701:17703   */\n      0x60\n        /* \"#utility.yul\":17690:17699   */\n      dup4\n        /* \"#utility.yul\":17686:17704   */\n      add\n        /* \"#utility.yul\":17677:17683   */\n      dup5\n        /* \"#utility.yul\":17633:17705   */\n      tag_144\n      jump\t// in\n    tag_366:\n        /* \"#utility.yul\":17159:17712   */\n      swap6\n      swap5\n      pop\n      pop\n      pop\n      pop\n      pop\n      jump\t// out\n        /* \"#utility.yul\":17718:17890   */\n    tag_182:\n        /* \"#utility.yul\":17858:17882   */\n      0x594f5520415245204e4f5420544845204f574e45522100000000000000000000\n        /* \"#utility.yul\":17854:17855   */\n      0x00\n        /* \"#utility.yul\":17846:17852   */\n      dup3\n        /* \"#utility.yul\":17842:17856   */\n      add\n        /* \"#utility.yul\":17835:17883   */\n      mstore\n        /* \"#utility.yul\":17718:17890   */\n      pop\n      jump\t// out\n        /* \"#utility.yul\":17896:18262   */\n    tag_183:\n        /* \"#utility.yul\":18038:18041   */\n      0x00\n        /* \"#utility.yul\":18059:18126   */\n      tag_369\n        /* \"#utility.yul\":18123:18125   */\n      0x16\n        /* \"#utility.yul\":18118:18121   */\n      dup4\n        /* \"#utility.yul\":18059:18126   */\n      tag_147\n      jump\t// in\n    tag_369:\n        /* \"#utility.yul\":18052:18126   */\n      swap2\n      pop\n        /* \"#utility.yul\":18135:18228   */\n      tag_370\n        /* \"#utility.yul\":18224:18227   */\n      dup3\n        /* \"#utility.yul\":18135:18228   */\n      tag_182\n      jump\t// in\n    tag_370:\n        /* \"#utility.yul\":18253:18255   */\n      0x20\n        /* \"#utility.yul\":18248:18251   */\n      dup3\n        /* \"#utility.yul\":18244:18256   */\n      add\n        /* \"#utility.yul\":18237:18256   */\n      swap1\n      pop\n        /* \"#utility.yul\":17896:18262   */\n      swap2\n      swap1\n      pop\n      jump\t// out\n        /* \"#utility.yul\":18268:18687   */\n    tag_97:\n        /* \"#utility.yul\":18434:18438   */\n      0x00\n        /* \"#utility.yul\":18472:18474   */\n      0x20\n        /* \"#utility.yul\":18461:18470   */\n      dup3\n        /* \"#utility.yul\":18457:18475   */\n      add\n        /* \"#utility.yul\":18449:18475   */\n      swap1\n      pop\n        /* \"#utility.yul\":18521:18530   */\n      dup2\n        /* \"#utility.yul\":18515:18519   */\n      dup2\n        /* \"#utility.yul\":18511:18531   */\n      sub\n        /* \"#utility.yul\":18507:18508   */\n      0x00\n        /* \"#utility.yul\":18496:18505   */\n      dup4\n        /* \"#utility.yul\":18492:18509   */\n      add\n        /* \"#utility.yul\":18485:18532   */\n      mstore\n        /* \"#utility.yul\":18549:18680   */\n      tag_372\n        /* \"#utility.yul\":18675:18679   */\n      dup2\n        /* \"#utility.yul\":18549:18680   */\n      tag_183\n      jump\t// in\n    tag_372:\n        /* \"#utility.yul\":18541:18680   */\n      swap1\n      pop\n        /* \"#utility.yul\":18268:18687   */\n      swap2\n      swap1\n      pop\n      jump\t// out\n        /* \"#utility.yul\":18693:18926   */\n    tag_109:\n        /* \"#utility.yul\":18732:18735   */\n      0x00\n        /* \"#utility.yul\":18755:18779   */\n      tag_374\n        /* \"#utility.yul\":18773:18778   */\n      dup3\n        /* \"#utility.yul\":18755:18779   */\n      tag_141\n      jump\t// in\n    tag_374:\n        /* \"#utility.yul\":18746:18779   */\n      swap2\n      pop\n        /* \"#utility.yul\":18801:18867   */\n      0xffffffffffffffffffffffffffffffffffffffffffffffffffffffffffffffff\n        /* \"#utility.yul\":18794:18799   */\n      dup3\n        /* \"#utility.yul\":18791:18868   */\n      sub\n        /* \"#utility.yul\":18788:18891   */\n      tag_375\n      jumpi\n        /* \"#utility.yul\":18871:18889   */\n      tag_376\n      tag_181\n      jump\t// in\n    tag_376:\n        /* \"#utility.yul\":18788:18891   */\n    tag_375:\n        /* \"#utility.yul\":18918:18919   */\n      0x01\n        /* \"#utility.yul\":18911:18916   */\n      dup3\n        /* \"#utility.yul\":18907:18920   */\n      add\n        /* \"#utility.yul\":18900:18920   */\n      swap1\n      pop\n        /* \"#utility.yul\":18693:18926   */\n      swap2\n      swap1\n      pop\n      jump\t// out\n        /* \"#utility.yul\":18932:19104   */\n    tag_184:\n        /* \"#utility.yul\":19072:19096   */\n      0x547765657420697320746f6f206c6f6e672062726f2100000000000000000000\n        /* \"#utility.yul\":19068:19069   */\n      0x00\n        /* \"#utility.yul\":19060:19066   */\n      dup3\n        /* \"#utility.yul\":19056:19070   */\n      add\n        /* \"#utility.yul\":19049:19097   */\n      mstore\n        /* \"#utility.yul\":18932:19104   */\n      pop\n      jump\t// out\n        /* \"#utility.yul\":19110:19476   */\n    tag_185:\n        /* \"#utility.yul\":19252:19255   */\n      0x00\n        /* \"#utility.yul\":19273:19340   */\n      tag_379\n        /* \"#utility.yul\":19337:19339   */\n      0x16\n        /* \"#utility.yul\":19332:19335   */\n      dup4\n        /* \"#utility.yul\":19273:19340   */\n      tag_147\n      jump\t// in\n    tag_379:\n        /* \"#utility.yul\":19266:19340   */\n      swap2\n      pop\n        /* \"#utility.yul\":19349:19442   */\n      tag_380\n        /* \"#utility.yul\":19438:19441   */\n      dup3\n        /* \"#utility.yul\":19349:19442   */\n      tag_184\n      jump\t// in\n    tag_380:\n        /* \"#utility.yul\":19467:19469   */\n      0x20\n        /* \"#utility.yul\":19462:19465   */\n      dup3\n        /* \"#utility.yul\":19458:19470   */\n      add\n        /* \"#utility.yul\":19451:19470   */\n      swap1\n      pop\n        /* \"#utility.yul\":19110:19476   */\n      swap2\n      swap1\n      pop\n      jump\t// out\n        /* \"#utility.yul\":19482:19901   */\n    tag_117:\n        /* \"#utility.yul\":19648:19652   */\n      0x00\n        /* \"#utility.yul\":19686:19688   */\n      0x20\n        /* \"#utility.yul\":19675:19684   */\n      dup3\n        /* \"#utility.yul\":19671:19689   */\n      add\n        /* \"#utility.yul\":19663:19689   */\n      swap1\n      pop\n        /* \"#utility.yul\":19735:19744   */\n      dup2\n        /* \"#utility.yul\":19729:19733   */\n      dup2\n        /* \"#utility.yul\":19725:19745   */\n      sub\n        /* \"#utility.yul\":19721:19722   */\n      0x00\n        /* \"#utility.yul\":19710:19719   */\n      dup4\n        /* \"#utility.yul\":19706:19723   */\n      add\n        /* \"#utility.yul\":19699:19746   */\n      mstore\n        /* \"#utility.yul\":19763:19894   */\n      tag_382\n        /* \"#utility.yul\":19889:19893   */\n      dup2\n        /* \"#utility.yul\":19763:19894   */\n      tag_185\n      jump\t// in\n    tag_382:\n        /* \"#utility.yul\":19755:19894   */\n      swap1\n      pop\n        /* \"#utility.yul\":19482:19901   */\n      swap2\n      swap1\n      pop\n      jump\t// out\n        /* \"#utility.yul\":19907:20048   */\n    tag_186:\n        /* \"#utility.yul\":19956:19960   */\n      0x00\n        /* \"#utility.yul\":19979:19982   */\n      dup2\n        /* \"#utility.yul\":19971:19982   */\n      swap1\n      pop\n        /* \"#utility.yul\":20002:20005   */\n      dup2\n        /* \"#utility.yul\":19999:20000   */\n      0x00\n        /* \"#utility.yul\":19992:20006   */\n      mstore\n        /* \"#utility.yul\":20036:20040   */\n      0x20\n        /* \"#utility.yul\":20033:20034   */\n      0x00\n        /* \"#utility.yul\":20023:20041   */\n      keccak256\n        /* \"#utility.yul\":20015:20041   */\n      swap1\n      pop\n        /* \"#utility.yul\":19907:20048   */\n      swap2\n      swap1\n      pop\n      jump\t// out\n        /* \"#utility.yul\":20054:20147   */\n    tag_187:\n        /* \"#utility.yul\":20091:20097   */\n      0x00\n        /* \"#utility.yul\":20138:20140   */\n      0x20\n        /* \"#utility.yul\":20133:20135   */\n      0x1f\n        /* \"#utility.yul\":20126:20131   */\n      dup4\n        /* \"#utility.yul\":20122:20136   */\n      add\n        /* \"#utility.yul\":20118:20141   */\n      div\n        /* \"#utility.yul\":20108:20141   */\n      swap1\n      pop\n        /* \"#utility.yul\":20054:20147   */\n      swap2\n      swap1\n      pop\n      jump\t// out\n        /* \"#utility.yul\":20153:20260   */\n    tag_188:\n        /* \"#utility.yul\":20197:20205   */\n      0x00\n        /* \"#utility.yul\":20247:20252   */\n      dup3\n        /* \"#utility.yul\":20241:20245   */\n      dup3\n        /* \"#utility.yul\":20237:20253   */\n      shl\n        /* \"#utility.yul\":20216:20253   */\n      swap1\n      pop\n        /* \"#utility.yul\":20153:20260   */\n      swap3\n      swap2\n      pop\n      pop\n      jump\t// out\n        /* \"#utility.yul\":20266:20659   */\n    tag_189:\n        /* \"#utility.yul\":20335:20341   */\n      0x00\n        /* \"#utility.yul\":20385:20386   */\n      0x08\n        /* \"#utility.yul\":20373:20383   */\n      dup4\n        /* \"#utility.yul\":20369:20387   */\n      mul\n        /* \"#utility.yul\":20408:20505   */\n      tag_387\n        /* \"#utility.yul\":20438:20504   */\n      0xffffffffffffffffffffffffffffffffffffffffffffffffffffffffffffffff\n        /* \"#utility.yul\":20427:20436   */\n      dup3\n        /* \"#utility.yul\":20408:20505   */\n      tag_188\n      jump\t// in\n    tag_387:\n        /* \"#utility.yul\":20526:20565   */\n      tag_388\n        /* \"#utility.yul\":20556:20564   */\n      dup7\n        /* \"#utility.yul\":20545:20554   */\n      dup4\n        /* \"#utility.yul\":20526:20565   */\n      tag_188\n      jump\t// in\n    tag_388:\n        /* \"#utility.yul\":20514:20565   */\n      swap6\n      pop\n        /* \"#utility.yul\":20598:20602   */\n      dup1\n        /* \"#utility.yul\":20594:20603   */\n      not\n        /* \"#utility.yul\":20587:20592   */\n      dup5\n        /* \"#utility.yul\":20583:20604   */\n      and\n        /* \"#utility.yul\":20574:20604   */\n      swap4\n      pop\n        /* \"#utility.yul\":20647:20651   */\n      dup1\n        /* \"#utility.yul\":20637:20645   */\n      dup7\n        /* \"#utility.yul\":20633:20652   */\n      and\n        /* \"#utility.yul\":20626:20631   */\n      dup5\n        /* \"#utility.yul\":20623:20653   */\n      or\n        /* \"#utility.yul\":20613:20653   */\n      swap3\n      pop\n        /* \"#utility.yul\":20342:20659   */\n      pop\n      pop\n        /* \"#utility.yul\":20266:20659   */\n      swap4\n      swap3\n      pop\n      pop\n      pop\n      jump\t// out\n        /* \"#utility.yul\":20665:20725   */\n    tag_190:\n        /* \"#utility.yul\":20693:20696   */\n      0x00\n        /* \"#utility.yul\":20714:20719   */\n      dup2\n        /* \"#utility.yul\":20707:20719   */\n      swap1\n      pop\n        /* \"#utility.yul\":20665:20725   */\n      swap2\n      swap1\n      pop\n      jump\t// out\n        /* \"#utility.yul\":20731:20873   */\n    tag_191:\n        /* \"#utility.yul\":20781:20790   */\n      0x00\n        /* \"#utility.yul\":20814:20867   */\n      tag_391\n        /* \"#utility.yul\":20832:20866   */\n      tag_392\n        /* \"#utility.yul\":20841:20865   */\n      tag_393\n        /* \"#utility.yul\":20859:20864   */\n      dup5\n        /* \"#utility.yul\":20841:20865   */\n      tag_141\n      jump\t// in\n    tag_393:\n        /* \"#utility.yul\":20832:20866   */\n      tag_190\n      jump\t// in\n    tag_392:\n        /* \"#utility.yul\":20814:20867   */\n      tag_141\n      jump\t// in\n    tag_391:\n        /* \"#utility.yul\":20801:20867   */\n      swap1\n      pop\n        /* \"#utility.yul\":20731:20873   */\n      swap2\n      swap1\n      pop\n      jump\t// out\n        /* \"#utility.yul\":20879:20954   */\n    tag_192:\n        /* \"#utility.yul\":20922:20925   */\n      0x00\n        /* \"#utility.yul\":20943:20948   */\n      dup2\n        /* \"#utility.yul\":20936:20948   */\n      swap1\n      pop\n        /* \"#utility.yul\":20879:20954   */\n      swap2\n      swap1\n      pop\n      jump\t// out\n        /* \"#utility.yul\":20960:21229   */\n    tag_193:\n        /* \"#utility.yul\":21070:21109   */\n      tag_396\n        /* \"#utility.yul\":21101:21108   */\n      dup4\n        /* \"#utility.yul\":21070:21109   */\n      tag_191\n      jump\t// in\n    tag_396:\n        /* \"#utility.yul\":21131:21222   */\n      tag_397\n        /* \"#utility.yul\":21180:21221   */\n      tag_398\n        /* \"#utility.yul\":21204:21220   */\n      dup3\n        /* \"#utility.yul\":21180:21221   */\n      tag_192\n      jump\t// in\n    tag_398:\n        /* \"#utility.yul\":21172:21178   */\n      dup5\n        /* \"#utility.yul\":21165:21169   */\n      dup5\n        /* \"#utility.yul\":21159:21170   */\n      sload\n        /* \"#utility.yul\":21131:21222   */\n      tag_189\n      jump\t// in\n    tag_397:\n        /* \"#utility.yul\":21125:21129   */\n      dup3\n        /* \"#utility.yul\":21118:21223   */\n      sstore\n        /* \"#utility.yul\":21036:21229   */\n      pop\n        /* \"#utility.yul\":20960:21229   */\n      pop\n      pop\n      pop\n      jump\t// out\n        /* \"#utility.yul\":21235:21308   */\n    tag_194:\n        /* \"#utility.yul\":21280:21283   */\n      0x00\n        /* \"#utility.yul\":21301:21302   */\n      0x00\n        /* \"#utility.yul\":21294:21302   */\n      swap1\n      pop\n        /* \"#utility.yul\":21235:21308   */\n      swap1\n      jump\t// out\n        /* \"#utility.yul\":21314:21503   */\n    tag_195:\n        /* \"#utility.yul\":21391:21423   */\n      tag_401\n      tag_194\n      jump\t// in\n    tag_401:\n        /* \"#utility.yul\":21432:21497   */\n      tag_402\n        /* \"#utility.yul\":21490:21496   */\n      dup2\n        /* \"#utility.yul\":21482:21488   */\n      dup5\n        /* \"#utility.yul\":21476:21480   */\n      dup5\n        /* \"#utility.yul\":21432:21497   */\n      tag_193\n      jump\t// in\n    tag_402:\n        /* \"#utility.yul\":21367:21503   */\n      pop\n        /* \"#utility.yul\":21314:21503   */\n      pop\n      pop\n      jump\t// out\n        /* \"#utility.yul\":21509:21695   */\n    tag_196:\n        /* \"#utility.yul\":21569:21689   */\n    tag_404:\n        /* \"#utility.yul\":21586:21589   */\n      dup2\n        /* \"#utility.yul\":21579:21584   */\n      dup2\n        /* \"#utility.yul\":21576:21590   */\n      lt\n        /* \"#utility.yul\":21569:21689   */\n      iszero\n      tag_406\n      jumpi\n        /* \"#utility.yul\":21640:21679   */\n      tag_407\n        /* \"#utility.yul\":21677:21678   */\n      0x00\n        /* \"#utility.yul\":21670:21675   */\n      dup3\n        /* \"#utility.yul\":21640:21679   */\n      tag_195\n      jump\t// in\n    tag_407:\n        /* \"#utility.yul\":21613:21614   */\n      0x01\n        /* \"#utility.yul\":21606:21611   */\n      dup2\n        /* \"#utility.yul\":21602:21615   */\n      add\n        /* \"#utility.yul\":21593:21615   */\n      swap1\n      pop\n        /* \"#utility.yul\":21569:21689   */\n      jump(tag_404)\n    tag_406:\n        /* \"#utility.yul\":21509:21695   */\n      pop\n      pop\n      jump\t// out\n        /* \"#utility.yul\":21701:22244   */\n    tag_197:\n        /* \"#utility.yul\":21802:21804   */\n      0x1f\n        /* \"#utility.yul\":21797:21800   */\n      dup3\n        /* \"#utility.yul\":21794:21805   */\n      gt\n        /* \"#utility.yul\":21791:22237   */\n      iszero\n      tag_409\n      jumpi\n        /* \"#utility.yul\":21836:21874   */\n      tag_410\n        /* \"#utility.yul\":21868:21873   */\n      dup2\n        /* \"#utility.yul\":21836:21874   */\n      tag_186\n      jump\t// in\n    tag_410:\n        /* \"#utility.yul\":21920:21949   */\n      tag_411\n        /* \"#utility.yul\":21938:21948   */\n      dup5\n        /* \"#utility.yul\":21920:21949   */\n      tag_187\n      jump\t// in\n    tag_411:\n        /* \"#utility.yul\":21910:21918   */\n      dup2\n        /* \"#utility.yul\":21906:21950   */\n      add\n        /* \"#utility.yul\":22103:22105   */\n      0x20\n        /* \"#utility.yul\":22091:22101   */\n      dup6\n        /* \"#utility.yul\":22088:22106   */\n      lt\n        /* \"#utility.yul\":22085:22134   */\n      iszero\n      tag_412\n      jumpi\n        /* \"#utility.yul\":22124:22132   */\n      dup2\n        /* \"#utility.yul\":22109:22132   */\n      swap1\n      pop\n        /* \"#utility.yul\":22085:22134   */\n    tag_412:\n        /* \"#utility.yul\":22147:22227   */\n      tag_413\n        /* \"#utility.yul\":22203:22225   */\n      tag_414\n        /* \"#utility.yul\":22221:22224   */\n      dup6\n        /* \"#utility.yul\":22203:22225   */\n      tag_187\n      jump\t// in\n    tag_414:\n        /* \"#utility.yul\":22193:22201   */\n      dup4\n        /* \"#utility.yul\":22189:22226   */\n      add\n        /* \"#utility.yul\":22176:22187   */\n      dup3\n        /* \"#utility.yul\":22147:22227   */\n      tag_196\n      jump\t// in\n    tag_413:\n        /* \"#utility.yul\":21806:22237   */\n      pop\n      pop\n        /* \"#utility.yul\":21791:22237   */\n    tag_409:\n        /* \"#utility.yul\":21701:22244   */\n      pop\n      pop\n      pop\n      jump\t// out\n        /* \"#utility.yul\":22250:22367   */\n    tag_198:\n        /* \"#utility.yul\":22304:22312   */\n      0x00\n        /* \"#utility.yul\":22354:22359   */\n      dup3\n        /* \"#utility.yul\":22348:22352   */\n      dup3\n        /* \"#utility.yul\":22344:22360   */\n      shr\n        /* \"#utility.yul\":22323:22360   */\n      swap1\n      pop\n        /* \"#utility.yul\":22250:22367   */\n      swap3\n      swap2\n      pop\n      pop\n      jump\t// out\n        /* \"#utility.yul\":22373:22542   */\n    tag_199:\n        /* \"#utility.yul\":22417:22423   */\n      0x00\n        /* \"#utility.yul\":22450:22501   */\n      tag_417\n        /* \"#utility.yul\":22498:22499   */\n      0x00\n        /* \"#utility.yul\":22494:22500   */\n      not\n        /* \"#utility.yul\":22486:22491   */\n      dup5\n        /* \"#utility.yul\":22483:22484   */\n      0x08\n        /* \"#utility.yul\":22479:22492   */\n      mul\n        /* \"#utility.yul\":22450:22501   */\n      tag_198\n      jump\t// in\n    tag_417:\n        /* \"#utility.yul\":22446:22502   */\n      not\n        /* \"#utility.yul\":22531:22535   */\n      dup1\n        /* \"#utility.yul\":22525:22529   */\n      dup4\n        /* \"#utility.yul\":22521:22536   */\n      and\n        /* \"#utility.yul\":22511:22536   */\n      swap2\n      pop\n        /* \"#utility.yul\":22424:22542   */\n      pop\n        /* \"#utility.yul\":22373:22542   */\n      swap3\n      swap2\n      pop\n      pop\n      jump\t// out\n        /* \"#utility.yul\":22547:22842   */\n    tag_200:\n        /* \"#utility.yul\":22623:22627   */\n      0x00\n        /* \"#utility.yul\":22769:22798   */\n      tag_419\n        /* \"#utility.yul\":22794:22797   */\n      dup4\n        /* \"#utility.yul\":22788:22792   */\n      dup4\n        /* \"#utility.yul\":22769:22798   */\n      tag_199\n      jump\t// in\n    tag_419:\n        /* \"#utility.yul\":22761:22798   */\n      swap2\n      pop\n        /* \"#utility.yul\":22831:22834   */\n      dup3\n        /* \"#utility.yul\":22828:22829   */\n      0x02\n        /* \"#utility.yul\":22824:22835   */\n      mul\n        /* \"#utility.yul\":22818:22822   */\n      dup3\n        /* \"#utility.yul\":22815:22836   */\n      or\n        /* \"#utility.yul\":22807:22836   */\n      swap1\n      pop\n        /* \"#utility.yul\":22547:22842   */\n      swap3\n      swap2\n      pop\n      pop\n      jump\t// out\n        /* \"#utility.yul\":22847:24242   */\n    tag_120:\n        /* \"#utility.yul\":22964:23001   */\n      tag_421\n        /* \"#utility.yul\":22997:23000   */\n      dup3\n        /* \"#utility.yul\":22964:23001   */\n      tag_146\n      jump\t// in\n    tag_421:\n        /* \"#utility.yul\":23066:23084   */\n      0xffffffffffffffff\n        /* \"#utility.yul\":23058:23064   */\n      dup2\n        /* \"#utility.yul\":23055:23085   */\n      gt\n        /* \"#utility.yul\":23052:23108   */\n      iszero\n      tag_422\n      jumpi\n        /* \"#utility.yul\":23088:23106   */\n      tag_423\n      tag_168\n      jump\t// in\n    tag_423:\n        /* \"#utility.yul\":23052:23108   */\n    tag_422:\n        /* \"#utility.yul\":23132:23170   */\n      tag_424\n        /* \"#utility.yul\":23164:23168   */\n      dup3\n        /* \"#utility.yul\":23158:23169   */\n      sload\n        /* \"#utility.yul\":23132:23170   */\n      tag_56\n      jump\t// in\n    tag_424:\n        /* \"#utility.yul\":23217:23284   */\n      tag_425\n        /* \"#utility.yul\":23277:23283   */\n      dup3\n        /* \"#utility.yul\":23269:23275   */\n      dup3\n        /* \"#utility.yul\":23263:23267   */\n      dup6\n        /* \"#utility.yul\":23217:23284   */\n      tag_197\n      jump\t// in\n    tag_425:\n        /* \"#utility.yul\":23311:23312   */\n      0x00\n        /* \"#utility.yul\":23335:23339   */\n      0x20\n        /* \"#utility.yul\":23322:23339   */\n      swap1\n      pop\n        /* \"#utility.yul\":23367:23369   */\n      0x1f\n        /* \"#utility.yul\":23359:23365   */\n      dup4\n        /* \"#utility.yul\":23356:23370   */\n      gt\n        /* \"#utility.yul\":23384:23385   */\n      0x01\n        /* \"#utility.yul\":23379:23997   */\n      dup2\n      eq\n      tag_427\n      jumpi\n        /* \"#utility.yul\":24041:24042   */\n      0x00\n        /* \"#utility.yul\":24058:24064   */\n      dup5\n        /* \"#utility.yul\":24055:24132   */\n      iszero\n      tag_428\n      jumpi\n        /* \"#utility.yul\":24107:24116   */\n      dup3\n        /* \"#utility.yul\":24102:24105   */\n      dup8\n        /* \"#utility.yul\":24098:24117   */\n      add\n        /* \"#utility.yul\":24092:24118   */\n      mload\n        /* \"#utility.yul\":24083:24118   */\n      swap1\n      pop\n        /* \"#utility.yul\":24055:24132   */\n    tag_428:\n        /* \"#utility.yul\":24158:24225   */\n      tag_429\n        /* \"#utility.yul\":24218:24224   */\n      dup6\n        /* \"#utility.yul\":24211:24216   */\n      dup3\n        /* \"#utility.yul\":24158:24225   */\n      tag_200\n      jump\t// in\n    tag_429:\n        /* \"#utility.yul\":24152:24156   */\n      dup7\n        /* \"#utility.yul\":24145:24226   */\n      sstore\n        /* \"#utility.yul\":24014:24236   */\n      pop\n        /* \"#utility.yul\":23349:24236   */\n      jump(tag_426)\n        /* \"#utility.yul\":23379:23997   */\n    tag_427:\n        /* \"#utility.yul\":23431:23435   */\n      0x1f\n        /* \"#utility.yul\":23427:23436   */\n      not\n        /* \"#utility.yul\":23419:23425   */\n      dup5\n        /* \"#utility.yul\":23415:23437   */\n      and\n        /* \"#utility.yul\":23465:23502   */\n      tag_430\n        /* \"#utility.yul\":23497:23501   */\n      dup7\n        /* \"#utility.yul\":23465:23502   */\n      tag_186\n      jump\t// in\n    tag_430:\n        /* \"#utility.yul\":23524:23525   */\n      0x00\n        /* \"#utility.yul\":23538:23746   */\n    tag_431:\n        /* \"#utility.yul\":23552:23559   */\n      dup3\n        /* \"#utility.yul\":23549:23550   */\n      dup2\n        /* \"#utility.yul\":23546:23560   */\n      lt\n        /* \"#utility.yul\":23538:23746   */\n      iszero\n      tag_433\n      jumpi\n        /* \"#utility.yul\":23631:23640   */\n      dup5\n        /* \"#utility.yul\":23626:23629   */\n      dup10\n        /* \"#utility.yul\":23622:23641   */\n      add\n        /* \"#utility.yul\":23616:23642   */\n      mload\n        /* \"#utility.yul\":23608:23614   */\n      dup3\n        /* \"#utility.yul\":23601:23643   */\n      sstore\n        /* \"#utility.yul\":23682:23683   */\n      0x01\n        /* \"#utility.yul\":23674:23680   */\n      dup3\n        /* \"#utility.yul\":23670:23684   */\n      add\n        /* \"#utility.yul\":23660:23684   */\n      swap2\n      pop\n        /* \"#utility.yul\":23729:23731   */\n      0x20\n        /* \"#utility.yul\":23718:23727   */\n      dup6\n        /* \"#utility.yul\":23714:23732   */\n      add\n        /* \"#utility.yul\":23701:23732   */\n      swap5\n      pop\n        /* \"#utility.yul\":23575:23579   */\n      0x20\n        /* \"#utility.yul\":23572:23573   */\n      dup2\n        /* \"#utility.yul\":23568:23580   */\n      add\n        /* \"#utility.yul\":23563:23580   */\n      swap1\n      pop\n        /* \"#utility.yul\":23538:23746   */\n      jump(tag_431)\n    tag_433:\n        /* \"#utility.yul\":23774:23780   */\n      dup7\n        /* \"#utility.yul\":23765:23772   */\n      dup4\n        /* \"#utility.yul\":23762:23781   */\n      lt\n        /* \"#utility.yul\":23759:23938   */\n      iszero\n      tag_434\n      jumpi\n        /* \"#utility.yul\":23832:23841   */\n      dup5\n        /* \"#utility.yul\":23827:23830   */\n      dup10\n        /* \"#utility.yul\":23823:23842   */\n      add\n        /* \"#utility.yul\":23817:23843   */\n      mload\n        /* \"#utility.yul\":23875:23923   */\n      tag_435\n        /* \"#utility.yul\":23917:23921   */\n      0x1f\n        /* \"#utility.yul\":23909:23915   */\n      dup10\n        /* \"#utility.yul\":23905:23922   */\n      and\n        /* \"#utility.yul\":23894:23903   */\n      dup3\n        /* \"#utility.yul\":23875:23923   */\n      tag_199\n      jump\t// in\n    tag_435:\n        /* \"#utility.yul\":23867:23873   */\n      dup4\n        /* \"#utility.yul\":23860:23924   */\n      sstore\n        /* \"#utility.yul\":23782:23938   */\n      pop\n        /* \"#utility.yul\":23759:23938   */\n    tag_434:\n        /* \"#utility.yul\":23984:23985   */\n      0x01\n        /* \"#utility.yul\":23980:23981   */\n      0x02\n        /* \"#utility.yul\":23972:23978   */\n      dup9\n        /* \"#utility.yul\":23968:23982   */\n      mul\n        /* \"#utility.yul\":23964:23986   */\n      add\n        /* \"#utility.yul\":23958:23962   */\n      dup9\n        /* \"#utility.yul\":23951:23987   */\n      sstore\n        /* \"#utility.yul\":23386:23997   */\n      pop\n      pop\n      pop\n        /* \"#utility.yul\":23349:24236   */\n    tag_426:\n      pop\n        /* \"#utility.yul\":22939:24242   */\n      pop\n      pop\n      pop\n        /* \"#utility.yul\":22847:24242   */\n      pop\n      pop\n      jump\t// out\n        /* \"#utility.yul\":24248:24892   */\n    tag_122:\n        /* \"#utility.yul\":24445:24449   */\n      0x00\n        /* \"#utility.yul\":24483:24486   */\n      0x80\n        /* \"#utility.yul\":24472:24481   */\n      dup3\n        /* \"#utility.yul\":24468:24487   */\n      add\n        /* \"#utility.yul\":24460:24487   */\n      swap1\n      pop\n        /* \"#utility.yul\":24497:24568   */\n      tag_437\n        /* \"#utility.yul\":24565:24566   */\n      0x00\n        /* \"#utility.yul\":24554:24563   */\n      dup4\n        /* \"#utility.yul\":24550:24567   */\n      add\n        /* \"#utility.yul\":24541:24547   */\n      dup8\n        /* \"#utility.yul\":24497:24568   */\n      tag_144\n      jump\t// in\n    tag_437:\n        /* \"#utility.yul\":24578:24650   */\n      tag_438\n        /* \"#utility.yul\":24646:24648   */\n      0x20\n        /* \"#utility.yul\":24635:24644   */\n      dup4\n        /* \"#utility.yul\":24631:24649   */\n      add\n        /* \"#utility.yul\":24622:24628   */\n      dup7\n        /* \"#utility.yul\":24578:24650   */\n      tag_145\n      jump\t// in\n    tag_438:\n        /* \"#utility.yul\":24697:24706   */\n      dup2\n        /* \"#utility.yul\":24691:24695   */\n      dup2\n        /* \"#utility.yul\":24687:24707   */\n      sub\n        /* \"#utility.yul\":24682:24684   */\n      0x40\n        /* \"#utility.yul\":24671:24680   */\n      dup4\n        /* \"#utility.yul\":24667:24685   */\n      add\n        /* \"#utility.yul\":24660:24708   */\n      mstore\n        /* \"#utility.yul\":24725:24803   */\n      tag_439\n        /* \"#utility.yul\":24798:24802   */\n      dup2\n        /* \"#utility.yul\":24789:24795   */\n      dup6\n        /* \"#utility.yul\":24725:24803   */\n      tag_150\n      jump\t// in\n    tag_439:\n        /* \"#utility.yul\":24717:24803   */\n      swap1\n      pop\n        /* \"#utility.yul\":24813:24885   */\n      tag_440\n        /* \"#utility.yul\":24881:24883   */\n      0x60\n        /* \"#utility.yul\":24870:24879   */\n      dup4\n        /* \"#utility.yul\":24866:24884   */\n      add\n        /* \"#utility.yul\":24857:24863   */\n      dup5\n        /* \"#utility.yul\":24813:24885   */\n      tag_144\n      jump\t// in\n    tag_440:\n        /* \"#utility.yul\":24248:24892   */\n      swap6\n      swap5\n      pop\n      pop\n      pop\n      pop\n      pop\n      jump\t// out\n\n    auxdata: 0xa26469706673582212200db19e6c67a2bbaa21d0225ac6d9e65897290a67e9fe95fe8f3dc72719828aba64736f6c634300081e0033\n}\n",
				"bytecode": {
					"linkReferences": {},
					"object": "60806040526101185f5f6101000a81548161ffff021916908361ffff160217905550348015602b575f5ffd5b503360025f6101000a81548173ffffffffffffffffffffffffffffffffffffffff021916908373ffffffffffffffffffffffffffffffffffffffff16021790555061196f806100795f395ff3fe608060405234801561000f575f5ffd5b5060043610610091575f3560e01c8063633782161161006457806363378216146101315780636eb107971461014d5780637c9cd2bc1461016b5780638da5cb5b14610187578063c3ad5ecb146101a557610091565b806305a1b4a91461009557806312e7ee1c146100c95780633d9b569f146100f957806358bfa4ab14610115575b5f5ffd5b6100af60048036038101906100aa9190610da1565b6101d5565b6040516100c0959493929190610e6d565b60405180910390f35b6100e360048036038101906100de9190610ec5565b6102c6565b6040516100f09190611084565b60405180910390f35b610113600480360381019061010e9190610da1565b610461565b005b61012f600480360381019061012a91906110db565b6106b2565b005b61014b60048036038101906101469190610da1565b61075f565b005b610155610910565b6040516101629190611115565b60405180910390f35b6101856004803603810190610180919061125a565b610922565b005b61018f610b26565b60405161019c91906112a1565b60405180910390f35b6101bf60048036038101906101ba91906112ba565b610b4b565b6040516101cc9190611358565b60405180910390f35b6001602052815f5260405f2081815481106101ee575f80fd5b905f5260205f2090600502015f9150915050805f015490806001015f9054906101000a900473ffffffffffffffffffffffffffffffffffffffff1690806002018054610239906113a5565b80601f0160208091040260200160405190810160405280929190818152602001828054610265906113a5565b80156102b05780601f10610287576101008083540402835291602001916102b0565b820191905f5260205f20905b81548152906001019060200180831161029357829003601f168201915b5050505050908060030154908060040154905085565b606060015f8373ffffffffffffffffffffffffffffffffffffffff1673ffffffffffffffffffffffffffffffffffffffff1681526020019081526020015f20805480602002602001604051908101604052809291908181526020015f905b82821015610456578382905f5260205f2090600502016040518060a00160405290815f8201548152602001600182015f9054906101000a900473ffffffffffffffffffffffffffffffffffffffff1673ffffffffffffffffffffffffffffffffffffffff1673ffffffffffffffffffffffffffffffffffffffff1681526020016002820180546103b3906113a5565b80601f01602080910402602001604051908101604052809291908181526020018280546103df906113a5565b801561042a5780601f106104015761010080835404028352916020019161042a565b820191905f5260205f20905b81548152906001019060200180831161040d57829003601f168201915b505050505081526020016003820154815260200160048201548152505081526020019060010190610324565b505050509050919050565b8060015f8473ffffffffffffffffffffffffffffffffffffffff1673ffffffffffffffffffffffffffffffffffffffff1681526020019081526020015f2082815481106104b1576104b06113d5565b5b905f5260205f2090600502015f015414610500576040517f08c379a00000000000000000000000000000000000000000000000000000000081526004016104f79061144c565b60405180910390fd5b5f60015f8473ffffffffffffffffffffffffffffffffffffffff1673ffffffffffffffffffffffffffffffffffffffff1681526020019081526020015f2082815481106105505761054f6113d5565b5b905f5260205f20906005020160040154116105a0576040517f08c379a0000000000000000000000000000000000000000000000000000000008152600401610597906114b4565b60405180910390fd5b60015f8373ffffffffffffffffffffffffffffffffffffffff1673ffffffffffffffffffffffffffffffffffffffff1681526020019081526020015f2081815481106105ef576105ee6113d5565b5b905f5260205f2090600502016004015f81548092919061060e906114ff565b91905055507f3e5354d6ccd996fc01eabb289bb55938fe9763446f2fad2589e7ff6616da0eec33838360015f8773ffffffffffffffffffffffffffffffffffffffff1673ffffffffffffffffffffffffffffffffffffffff1681526020019081526020015f208581548110610686576106856113d5565b5b905f5260205f209060050201600401546040516106a69493929190611526565b60405180910390a15050565b60025f9054906101000a900473ffffffffffffffffffffffffffffffffffffffff1673ffffffffffffffffffffffffffffffffffffffff163373ffffffffffffffffffffffffffffffffffffffff1614610741576040517f08c379a0000000000000000000000000000000000000000000000000000000008152600401610738906115b3565b60405180910390fd5b805f5f6101000a81548161ffff021916908361ffff16021790555050565b8060015f8473ffffffffffffffffffffffffffffffffffffffff1673ffffffffffffffffffffffffffffffffffffffff1681526020019081526020015f2082815481106107af576107ae6113d5565b5b905f5260205f2090600502015f0154146107fe576040517f08c379a00000000000000000000000000000000000000000000000000000000081526004016107f59061144c565b60405180910390fd5b60015f8373ffffffffffffffffffffffffffffffffffffffff1673ffffffffffffffffffffffffffffffffffffffff1681526020019081526020015f20818154811061084d5761084c6113d5565b5b905f5260205f2090600502016004015f81548092919061086c906115d1565b91905055507fcf05a692dd485edaa49d7be66062470330a585ac195c9c274317255b52e308f633838360015f8773ffffffffffffffffffffffffffffffffffffffff1673ffffffffffffffffffffffffffffffffffffffff1681526020019081526020015f2085815481106108e4576108e36113d5565b5b905f5260205f209060050201600401546040516109049493929190611526565b60405180910390a15050565b5f5f9054906101000a900461ffff1681565b5f5f9054906101000a900461ffff1661ffff1681511115610978576040517f08c379a000000000000000000000000000000000000000000000000000000000815260040161096f90611662565b60405180910390fd5b5f6040518060a0016040528060015f3373ffffffffffffffffffffffffffffffffffffffff1673ffffffffffffffffffffffffffffffffffffffff1681526020019081526020015f208054905081526020013373ffffffffffffffffffffffffffffffffffffffff1681526020018381526020014281526020015f815250905060015f3373ffffffffffffffffffffffffffffffffffffffff1673ffffffffffffffffffffffffffffffffffffffff1681526020019081526020015f2081908060018154018082558091505060019003905f5260205f2090600502015f909190919091505f820151815f01556020820151816001015f6101000a81548173ffffffffffffffffffffffffffffffffffffffff021916908373ffffffffffffffffffffffffffffffffffffffff1602179055506040820151816002019081610abf9190611820565b50606082015181600301556080820151816004015550507fd2922467ccdc748406c619be4ee0a7ef58fc5c4e66a88a9f51ecbe6550184fae815f0151826020015183604001518460600151604051610b1a94939291906118ef565b60405180910390a15050565b60025f9054906101000a900473ffffffffffffffffffffffffffffffffffffffff1681565b610b53610cc2565b60015f3373ffffffffffffffffffffffffffffffffffffffff1673ffffffffffffffffffffffffffffffffffffffff1681526020019081526020015f208281548110610ba257610ba16113d5565b5b905f5260205f2090600502016040518060a00160405290815f8201548152602001600182015f9054906101000a900473ffffffffffffffffffffffffffffffffffffffff1673ffffffffffffffffffffffffffffffffffffffff1673ffffffffffffffffffffffffffffffffffffffff168152602001600282018054610c27906113a5565b80601f0160208091040260200160405190810160405280929190818152602001828054610c53906113a5565b8015610c9e5780601f10610c7557610100808354040283529160200191610c9e565b820191905f5260205f20905b815481529060010190602001808311610c8157829003601f168201915b50505050508152602001600382015481526020016004820154815250509050919050565b6040518060a001604052805f81526020015f73ffffffffffffffffffffffffffffffffffffffff168152602001606081526020015f81526020015f81525090565b5f604051905090565b5f5ffd5b5f5ffd5b5f73ffffffffffffffffffffffffffffffffffffffff82169050919050565b5f610d3d82610d14565b9050919050565b610d4d81610d33565b8114610d57575f5ffd5b50565b5f81359050610d6881610d44565b92915050565b5f819050919050565b610d8081610d6e565b8114610d8a575f5ffd5b50565b5f81359050610d9b81610d77565b92915050565b5f5f60408385031215610db757610db6610d0c565b5b5f610dc485828601610d5a565b9250506020610dd585828601610d8d565b9150509250929050565b610de881610d6e565b82525050565b610df781610d33565b82525050565b5f81519050919050565b5f82825260208201905092915050565b8281835e5f83830152505050565b5f601f19601f8301169050919050565b5f610e3f82610dfd565b610e498185610e07565b9350610e59818560208601610e17565b610e6281610e25565b840191505092915050565b5f60a082019050610e805f830188610ddf565b610e8d6020830187610dee565b8181036040830152610e9f8186610e35565b9050610eae6060830185610ddf565b610ebb6080830184610ddf565b9695505050505050565b5f60208284031215610eda57610ed9610d0c565b5b5f610ee784828501610d5a565b91505092915050565b5f81519050919050565b5f82825260208201905092915050565b5f819050602082019050919050565b610f2281610d6e565b82525050565b610f3181610d33565b82525050565b5f82825260208201905092915050565b5f610f5182610dfd565b610f5b8185610f37565b9350610f6b818560208601610e17565b610f7481610e25565b840191505092915050565b5f60a083015f830151610f945f860182610f19565b506020830151610fa76020860182610f28565b5060408301518482036040860152610fbf8282610f47565b9150506060830151610fd46060860182610f19565b506080830151610fe76080860182610f19565b508091505092915050565b5f610ffd8383610f7f565b905092915050565b5f602082019050919050565b5f61101b82610ef0565b6110258185610efa565b93508360208202850161103785610f0a565b805f5b8581101561107257848403895281516110538582610ff2565b945061105e83611005565b925060208a0199505060018101905061103a565b50829750879550505050505092915050565b5f6020820190508181035f83015261109c8184611011565b905092915050565b5f61ffff82169050919050565b6110ba816110a4565b81146110c4575f5ffd5b50565b5f813590506110d5816110b1565b92915050565b5f602082840312156110f0576110ef610d0c565b5b5f6110fd848285016110c7565b91505092915050565b61110f816110a4565b82525050565b5f6020820190506111285f830184611106565b92915050565b5f5ffd5b5f5ffd5b7f4e487b71000000000000000000000000000000000000000000000000000000005f52604160045260245ffd5b61116c82610e25565b810181811067ffffffffffffffff8211171561118b5761118a611136565b5b80604052505050565b5f61119d610d03565b90506111a98282611163565b919050565b5f67ffffffffffffffff8211156111c8576111c7611136565b5b6111d182610e25565b9050602081019050919050565b828183375f83830152505050565b5f6111fe6111f9846111ae565b611194565b90508281526020810184848401111561121a57611219611132565b5b6112258482856111de565b509392505050565b5f82601f8301126112415761124061112e565b5b81356112518482602086016111ec565b91505092915050565b5f6020828403121561126f5761126e610d0c565b5b5f82013567ffffffffffffffff81111561128c5761128b610d10565b5b6112988482850161122d565b91505092915050565b5f6020820190506112b45f830184610dee565b92915050565b5f602082840312156112cf576112ce610d0c565b5b5f6112dc84828501610d8d565b91505092915050565b5f60a083015f8301516112fa5f860182610f19565b50602083015161130d6020860182610f28565b50604083015184820360408601526113258282610f47565b915050606083015161133a6060860182610f19565b50608083015161134d6080860182610f19565b508091505092915050565b5f6020820190508181035f83015261137081846112e5565b905092915050565b7f4e487b71000000000000000000000000000000000000000000000000000000005f52602260045260245ffd5b5f60028204905060018216806113bc57607f821691505b6020821081036113cf576113ce611378565b5b50919050565b7f4e487b71000000000000000000000000000000000000000000000000000000005f52603260045260245ffd5b7f545745455420444f4553204e4f542045584953540000000000000000000000005f82015250565b5f611436601483610e07565b915061144182611402565b602082019050919050565b5f6020820190508181035f8301526114638161142a565b9050919050565b7f545745455420484153204e4f204c494b455300000000000000000000000000005f82015250565b5f61149e601283610e07565b91506114a98261146a565b602082019050919050565b5f6020820190508181035f8301526114cb81611492565b9050919050565b7f4e487b71000000000000000000000000000000000000000000000000000000005f52601160045260245ffd5b5f61150982610d6e565b91505f820361151b5761151a6114d2565b5b600182039050919050565b5f6080820190506115395f830187610dee565b6115466020830186610dee565b6115536040830185610ddf565b6115606060830184610ddf565b95945050505050565b7f594f5520415245204e4f5420544845204f574e455221000000000000000000005f82015250565b5f61159d601683610e07565b91506115a882611569565b602082019050919050565b5f6020820190508181035f8301526115ca81611591565b9050919050565b5f6115db82610d6e565b91507fffffffffffffffffffffffffffffffffffffffffffffffffffffffffffffffff820361160d5761160c6114d2565b5b600182019050919050565b7f547765657420697320746f6f206c6f6e672062726f21000000000000000000005f82015250565b5f61164c601683610e07565b915061165782611618565b602082019050919050565b5f6020820190508181035f83015261167981611640565b9050919050565b5f819050815f5260205f209050919050565b5f6020601f8301049050919050565b5f82821b905092915050565b5f600883026116dc7fffffffffffffffffffffffffffffffffffffffffffffffffffffffffffffffff826116a1565b6116e686836116a1565b95508019841693508086168417925050509392505050565b5f819050919050565b5f61172161171c61171784610d6e565b6116fe565b610d6e565b9050919050565b5f819050919050565b61173a83611707565b61174e61174682611728565b8484546116ad565b825550505050565b5f5f905090565b611765611756565b611770818484611731565b505050565b5b81811015611793576117885f8261175d565b600181019050611776565b5050565b601f8211156117d8576117a981611680565b6117b284611692565b810160208510156117c1578190505b6117d56117cd85611692565b830182611775565b50505b505050565b5f82821c905092915050565b5f6117f85f19846008026117dd565b1980831691505092915050565b5f61181083836117e9565b9150826002028217905092915050565b61182982610dfd565b67ffffffffffffffff81111561184257611841611136565b5b61184c82546113a5565b611857828285611797565b5f60209050601f831160018114611888575f8415611876578287015190505b6118808582611805565b8655506118e7565b601f19841661189686611680565b5f5b828110156118bd57848901518255600182019150602085019450602081019050611898565b868310156118da57848901516118d6601f8916826117e9565b8355505b6001600288020188555050505b505050505050565b5f6080820190506119025f830187610ddf565b61190f6020830186610dee565b81810360408301526119218185610e35565b90506119306060830184610ddf565b9594505050505056fea26469706673582212200db19e6c67a2bbaa21d0225ac6d9e65897290a67e9fe95fe8f3dc72719828aba64736f6c634300081e0033",
					"opcodes": "PUSH1 0x80 PUSH1 0x40 MSTORE PUSH2 0x118 PUSH0 PUSH0 PUSH2 0x100 EXP DUP2 SLOAD DUP2 PUSH2 0xFFFF MUL NOT AND SWAP1 DUP4 PUSH2 0xFFFF AND MUL OR SWAP1 SSTORE POP CALLVALUE DUP1 ISZERO PUSH1 0x2B JUMPI PUSH0 PUSH0 REVERT JUMPDEST POP CALLER PUSH1 0x2 PUSH0 PUSH2 0x100 EXP DUP2 SLOAD DUP2 PUSH20 0xFFFFFFFFFFFFFFFFFFFFFFFFFFFFFFFFFFFFFFFF MUL NOT AND SWAP1 DUP4 PUSH20 0xFFFFFFFFFFFFFFFFFFFFFFFFFFFFFFFFFFFFFFFF AND MUL OR SWAP1 SSTORE POP PUSH2 0x196F DUP1 PUSH2 0x79 PUSH0 CODECOPY PUSH0 RETURN INVALID PUSH1 0x80 PUSH1 0x40 MSTORE CALLVALUE DUP1 ISZERO PUSH2 0xF JUMPI PUSH0 PUSH0 REVERT JUMPDEST POP PUSH1 0x4 CALLDATASIZE LT PUSH2 0x91 JUMPI PUSH0 CALLDATALOAD PUSH1 0xE0 SHR DUP1 PUSH4 0x63378216 GT PUSH2 0x64 JUMPI DUP1 PUSH4 0x63378216 EQ PUSH2 0x131 JUMPI DUP1 PUSH4 0x6EB10797 EQ PUSH2 0x14D JUMPI DUP1 PUSH4 0x7C9CD2BC EQ PUSH2 0x16B JUMPI DUP1 PUSH4 0x8DA5CB5B EQ PUSH2 0x187 JUMPI DUP1 PUSH4 0xC3AD5ECB EQ PUSH2 0x1A5 JUMPI PUSH2 0x91 JUMP JUMPDEST DUP1 PUSH4 0x5A1B4A9 EQ PUSH2 0x95 JUMPI DUP1 PUSH4 0x12E7EE1C EQ PUSH2 0xC9 JUMPI DUP1 PUSH4 0x3D9B569F EQ PUSH2 0xF9 JUMPI DUP1 PUSH4 0x58BFA4AB EQ PUSH2 0x115 JUMPI JUMPDEST PUSH0 PUSH0 REVERT JUMPDEST PUSH2 0xAF PUSH1 0x4 DUP1 CALLDATASIZE SUB DUP2 ADD SWAP1 PUSH2 0xAA SWAP2 SWAP1 PUSH2 0xDA1 JUMP JUMPDEST PUSH2 0x1D5 JUMP JUMPDEST PUSH1 0x40 MLOAD PUSH2 0xC0 SWAP6 SWAP5 SWAP4 SWAP3 SWAP2 SWAP1 PUSH2 0xE6D JUMP JUMPDEST PUSH1 0x40 MLOAD DUP1 SWAP2 SUB SWAP1 RETURN JUMPDEST PUSH2 0xE3 PUSH1 0x4 DUP1 CALLDATASIZE SUB DUP2 ADD SWAP1 PUSH2 0xDE SWAP2 SWAP1 PUSH2 0xEC5 JUMP JUMPDEST PUSH2 0x2C6 JUMP JUMPDEST PUSH1 0x40 MLOAD PUSH2 0xF0 SWAP2 SWAP1 PUSH2 0x1084 JUMP JUMPDEST PUSH1 0x40 MLOAD DUP1 SWAP2 SUB SWAP1 RETURN JUMPDEST PUSH2 0x113 PUSH1 0x4 DUP1 CALLDATASIZE SUB DUP2 ADD SWAP1 PUSH2 0x10E SWAP2 SWAP1 PUSH2 0xDA1 JUMP JUMPDEST PUSH2 0x461 JUMP JUMPDEST STOP JUMPDEST PUSH2 0x12F PUSH1 0x4 DUP1 CALLDATASIZE SUB DUP2 ADD SWAP1 PUSH2 0x12A SWAP2 SWAP1 PUSH2 0x10DB JUMP JUMPDEST PUSH2 0x6B2 JUMP JUMPDEST STOP JUMPDEST PUSH2 0x14B PUSH1 0x4 DUP1 CALLDATASIZE SUB DUP2 ADD SWAP1 PUSH2 0x146 SWAP2 SWAP1 PUSH2 0xDA1 JUMP JUMPDEST PUSH2 0x75F JUMP JUMPDEST STOP JUMPDEST PUSH2 0x155 PUSH2 0x910 JUMP JUMPDEST PUSH1 0x40 MLOAD PUSH2 0x162 SWAP2 SWAP1 PUSH2 0x1115 JUMP JUMPDEST PUSH1 0x40 MLOAD DUP1 SWAP2 SUB SWAP1 RETURN JUMPDEST PUSH2 0x185 PUSH1 0x4 DUP1 CALLDATASIZE SUB DUP2 ADD SWAP1 PUSH2 0x180 SWAP2 SWAP1 PUSH2 0x125A JUMP JUMPDEST PUSH2 0x922 JUMP JUMPDEST STOP JUMPDEST PUSH2 0x18F PUSH2 0xB26 JUMP JUMPDEST PUSH1 0x40 MLOAD PUSH2 0x19C SWAP2 SWAP1 PUSH2 0x12A1 JUMP JUMPDEST PUSH1 0x40 MLOAD DUP1 SWAP2 SUB SWAP1 RETURN JUMPDEST PUSH2 0x1BF PUSH1 0x4 DUP1 CALLDATASIZE SUB DUP2 ADD SWAP1 PUSH2 0x1BA SWAP2 SWAP1 PUSH2 0x12BA JUMP JUMPDEST PUSH2 0xB4B JUMP JUMPDEST PUSH1 0x40 MLOAD PUSH2 0x1CC SWAP2 SWAP1 PUSH2 0x1358 JUMP JUMPDEST PUSH1 0x40 MLOAD DUP1 SWAP2 SUB SWAP1 RETURN JUMPDEST PUSH1 0x1 PUSH1 0x20 MSTORE DUP2 PUSH0 MSTORE PUSH1 0x40 PUSH0 KECCAK256 DUP2 DUP2 SLOAD DUP2 LT PUSH2 0x1EE JUMPI PUSH0 DUP1 REVERT JUMPDEST SWAP1 PUSH0 MSTORE PUSH1 0x20 PUSH0 KECCAK256 SWAP1 PUSH1 0x5 MUL ADD PUSH0 SWAP2 POP SWAP2 POP POP DUP1 PUSH0 ADD SLOAD SWAP1 DUP1 PUSH1 0x1 ADD PUSH0 SWAP1 SLOAD SWAP1 PUSH2 0x100 EXP SWAP1 DIV PUSH20 0xFFFFFFFFFFFFFFFFFFFFFFFFFFFFFFFFFFFFFFFF AND SWAP1 DUP1 PUSH1 0x2 ADD DUP1 SLOAD PUSH2 0x239 SWAP1 PUSH2 0x13A5 JUMP JUMPDEST DUP1 PUSH1 0x1F ADD PUSH1 0x20 DUP1 SWAP2 DIV MUL PUSH1 0x20 ADD PUSH1 0x40 MLOAD SWAP1 DUP2 ADD PUSH1 0x40 MSTORE DUP1 SWAP3 SWAP2 SWAP1 DUP2 DUP2 MSTORE PUSH1 0x20 ADD DUP3 DUP1 SLOAD PUSH2 0x265 SWAP1 PUSH2 0x13A5 JUMP JUMPDEST DUP1 ISZERO PUSH2 0x2B0 JUMPI DUP1 PUSH1 0x1F LT PUSH2 0x287 JUMPI PUSH2 0x100 DUP1 DUP4 SLOAD DIV MUL DUP4 MSTORE SWAP2 PUSH1 0x20 ADD SWAP2 PUSH2 0x2B0 JUMP JUMPDEST DUP3 ADD SWAP2 SWAP1 PUSH0 MSTORE PUSH1 0x20 PUSH0 KECCAK256 SWAP1 JUMPDEST DUP2 SLOAD DUP2 MSTORE SWAP1 PUSH1 0x1 ADD SWAP1 PUSH1 0x20 ADD DUP1 DUP4 GT PUSH2 0x293 JUMPI DUP3 SWAP1 SUB PUSH1 0x1F AND DUP3 ADD SWAP2 JUMPDEST POP POP POP POP POP SWAP1 DUP1 PUSH1 0x3 ADD SLOAD SWAP1 DUP1 PUSH1 0x4 ADD SLOAD SWAP1 POP DUP6 JUMP JUMPDEST PUSH1 0x60 PUSH1 0x1 PUSH0 DUP4 PUSH20 0xFFFFFFFFFFFFFFFFFFFFFFFFFFFFFFFFFFFFFFFF AND PUSH20 0xFFFFFFFFFFFFFFFFFFFFFFFFFFFFFFFFFFFFFFFF AND DUP2 MSTORE PUSH1 0x20 ADD SWAP1 DUP2 MSTORE PUSH1 0x20 ADD PUSH0 KECCAK256 DUP1 SLOAD DUP1 PUSH1 0x20 MUL PUSH1 0x20 ADD PUSH1 0x40 MLOAD SWAP1 DUP2 ADD PUSH1 0x40 MSTORE DUP1 SWAP3 SWAP2 SWAP1 DUP2 DUP2 MSTORE PUSH1 0x20 ADD PUSH0 SWAP1 JUMPDEST DUP3 DUP3 LT ISZERO PUSH2 0x456 JUMPI DUP4 DUP3 SWAP1 PUSH0 MSTORE PUSH1 0x20 PUSH0 KECCAK256 SWAP1 PUSH1 0x5 MUL ADD PUSH1 0x40 MLOAD DUP1 PUSH1 0xA0 ADD PUSH1 0x40 MSTORE SWAP1 DUP2 PUSH0 DUP3 ADD SLOAD DUP2 MSTORE PUSH1 0x20 ADD PUSH1 0x1 DUP3 ADD PUSH0 SWAP1 SLOAD SWAP1 PUSH2 0x100 EXP SWAP1 DIV PUSH20 0xFFFFFFFFFFFFFFFFFFFFFFFFFFFFFFFFFFFFFFFF AND PUSH20 0xFFFFFFFFFFFFFFFFFFFFFFFFFFFFFFFFFFFFFFFF AND PUSH20 0xFFFFFFFFFFFFFFFFFFFFFFFFFFFFFFFFFFFFFFFF AND DUP2 MSTORE PUSH1 0x20 ADD PUSH1 0x2 DUP3 ADD DUP1 SLOAD PUSH2 0x3B3 SWAP1 PUSH2 0x13A5 JUMP JUMPDEST DUP1 PUSH1 0x1F ADD PUSH1 0x20 DUP1 SWAP2 DIV MUL PUSH1 0x20 ADD PUSH1 0x40 MLOAD SWAP1 DUP2 ADD PUSH1 0x40 MSTORE DUP1 SWAP3 SWAP2 SWAP1 DUP2 DUP2 MSTORE PUSH1 0x20 ADD DUP3 DUP1 SLOAD PUSH2 0x3DF SWAP1 PUSH2 0x13A5 JUMP JUMPDEST DUP1 ISZERO PUSH2 0x42A JUMPI DUP1 PUSH1 0x1F LT PUSH2 0x401 JUMPI PUSH2 0x100 DUP1 DUP4 SLOAD DIV MUL DUP4 MSTORE SWAP2 PUSH1 0x20 ADD SWAP2 PUSH2 0x42A JUMP JUMPDEST DUP3 ADD SWAP2 SWAP1 PUSH0 MSTORE PUSH1 0x20 PUSH0 KECCAK256 SWAP1 JUMPDEST DUP2 SLOAD DUP2 MSTORE SWAP1 PUSH1 0x1 ADD SWAP1 PUSH1 0x20 ADD DUP1 DUP4 GT PUSH2 0x40D JUMPI DUP3 SWAP1 SUB PUSH1 0x1F AND DUP3 ADD SWAP2 JUMPDEST POP POP POP POP POP DUP2 MSTORE PUSH1 0x20 ADD PUSH1 0x3 DUP3 ADD SLOAD DUP2 MSTORE PUSH1 0x20 ADD PUSH1 0x4 DUP3 ADD SLOAD DUP2 MSTORE POP POP DUP2 MSTORE PUSH1 0x20 ADD SWAP1 PUSH1 0x1 ADD SWAP1 PUSH2 0x324 JUMP JUMPDEST POP POP POP POP SWAP1 POP SWAP2 SWAP1 POP JUMP JUMPDEST DUP1 PUSH1 0x1 PUSH0 DUP5 PUSH20 0xFFFFFFFFFFFFFFFFFFFFFFFFFFFFFFFFFFFFFFFF AND PUSH20 0xFFFFFFFFFFFFFFFFFFFFFFFFFFFFFFFFFFFFFFFF AND DUP2 MSTORE PUSH1 0x20 ADD SWAP1 DUP2 MSTORE PUSH1 0x20 ADD PUSH0 KECCAK256 DUP3 DUP2 SLOAD DUP2 LT PUSH2 0x4B1 JUMPI PUSH2 0x4B0 PUSH2 0x13D5 JUMP JUMPDEST JUMPDEST SWAP1 PUSH0 MSTORE PUSH1 0x20 PUSH0 KECCAK256 SWAP1 PUSH1 0x5 MUL ADD PUSH0 ADD SLOAD EQ PUSH2 0x500 JUMPI PUSH1 0x40 MLOAD PUSH32 0x8C379A000000000000000000000000000000000000000000000000000000000 DUP2 MSTORE PUSH1 0x4 ADD PUSH2 0x4F7 SWAP1 PUSH2 0x144C JUMP JUMPDEST PUSH1 0x40 MLOAD DUP1 SWAP2 SUB SWAP1 REVERT JUMPDEST PUSH0 PUSH1 0x1 PUSH0 DUP5 PUSH20 0xFFFFFFFFFFFFFFFFFFFFFFFFFFFFFFFFFFFFFFFF AND PUSH20 0xFFFFFFFFFFFFFFFFFFFFFFFFFFFFFFFFFFFFFFFF AND DUP2 MSTORE PUSH1 0x20 ADD SWAP1 DUP2 MSTORE PUSH1 0x20 ADD PUSH0 KECCAK256 DUP3 DUP2 SLOAD DUP2 LT PUSH2 0x550 JUMPI PUSH2 0x54F PUSH2 0x13D5 JUMP JUMPDEST JUMPDEST SWAP1 PUSH0 MSTORE PUSH1 0x20 PUSH0 KECCAK256 SWAP1 PUSH1 0x5 MUL ADD PUSH1 0x4 ADD SLOAD GT PUSH2 0x5A0 JUMPI PUSH1 0x40 MLOAD PUSH32 0x8C379A000000000000000000000000000000000000000000000000000000000 DUP2 MSTORE PUSH1 0x4 ADD PUSH2 0x597 SWAP1 PUSH2 0x14B4 JUMP JUMPDEST PUSH1 0x40 MLOAD DUP1 SWAP2 SUB SWAP1 REVERT JUMPDEST PUSH1 0x1 PUSH0 DUP4 PUSH20 0xFFFFFFFFFFFFFFFFFFFFFFFFFFFFFFFFFFFFFFFF AND PUSH20 0xFFFFFFFFFFFFFFFFFFFFFFFFFFFFFFFFFFFFFFFF AND DUP2 MSTORE PUSH1 0x20 ADD SWAP1 DUP2 MSTORE PUSH1 0x20 ADD PUSH0 KECCAK256 DUP2 DUP2 SLOAD DUP2 LT PUSH2 0x5EF JUMPI PUSH2 0x5EE PUSH2 0x13D5 JUMP JUMPDEST JUMPDEST SWAP1 PUSH0 MSTORE PUSH1 0x20 PUSH0 KECCAK256 SWAP1 PUSH1 0x5 MUL ADD PUSH1 0x4 ADD PUSH0 DUP2 SLOAD DUP1 SWAP3 SWAP2 SWAP1 PUSH2 0x60E SWAP1 PUSH2 0x14FF JUMP JUMPDEST SWAP2 SWAP1 POP SSTORE POP PUSH32 0x3E5354D6CCD996FC01EABB289BB55938FE9763446F2FAD2589E7FF6616DA0EEC CALLER DUP4 DUP4 PUSH1 0x1 PUSH0 DUP8 PUSH20 0xFFFFFFFFFFFFFFFFFFFFFFFFFFFFFFFFFFFFFFFF AND PUSH20 0xFFFFFFFFFFFFFFFFFFFFFFFFFFFFFFFFFFFFFFFF AND DUP2 MSTORE PUSH1 0x20 ADD SWAP1 DUP2 MSTORE PUSH1 0x20 ADD PUSH0 KECCAK256 DUP6 DUP2 SLOAD DUP2 LT PUSH2 0x686 JUMPI PUSH2 0x685 PUSH2 0x13D5 JUMP JUMPDEST JUMPDEST SWAP1 PUSH0 MSTORE PUSH1 0x20 PUSH0 KECCAK256 SWAP1 PUSH1 0x5 MUL ADD PUSH1 0x4 ADD SLOAD PUSH1 0x40 MLOAD PUSH2 0x6A6 SWAP5 SWAP4 SWAP3 SWAP2 SWAP1 PUSH2 0x1526 JUMP JUMPDEST PUSH1 0x40 MLOAD DUP1 SWAP2 SUB SWAP1 LOG1 POP POP JUMP JUMPDEST PUSH1 0x2 PUSH0 SWAP1 SLOAD SWAP1 PUSH2 0x100 EXP SWAP1 DIV PUSH20 0xFFFFFFFFFFFFFFFFFFFFFFFFFFFFFFFFFFFFFFFF AND PUSH20 0xFFFFFFFFFFFFFFFFFFFFFFFFFFFFFFFFFFFFFFFF AND CALLER PUSH20 0xFFFFFFFFFFFFFFFFFFFFFFFFFFFFFFFFFFFFFFFF AND EQ PUSH2 0x741 JUMPI PUSH1 0x40 MLOAD PUSH32 0x8C379A000000000000000000000000000000000000000000000000000000000 DUP2 MSTORE PUSH1 0x4 ADD PUSH2 0x738 SWAP1 PUSH2 0x15B3 JUMP JUMPDEST PUSH1 0x40 MLOAD DUP1 SWAP2 SUB SWAP1 REVERT JUMPDEST DUP1 PUSH0 PUSH0 PUSH2 0x100 EXP DUP2 SLOAD DUP2 PUSH2 0xFFFF MUL NOT AND SWAP1 DUP4 PUSH2 0xFFFF AND MUL OR SWAP1 SSTORE POP POP JUMP JUMPDEST DUP1 PUSH1 0x1 PUSH0 DUP5 PUSH20 0xFFFFFFFFFFFFFFFFFFFFFFFFFFFFFFFFFFFFFFFF AND PUSH20 0xFFFFFFFFFFFFFFFFFFFFFFFFFFFFFFFFFFFFFFFF AND DUP2 MSTORE PUSH1 0x20 ADD SWAP1 DUP2 MSTORE PUSH1 0x20 ADD PUSH0 KECCAK256 DUP3 DUP2 SLOAD DUP2 LT PUSH2 0x7AF JUMPI PUSH2 0x7AE PUSH2 0x13D5 JUMP JUMPDEST JUMPDEST SWAP1 PUSH0 MSTORE PUSH1 0x20 PUSH0 KECCAK256 SWAP1 PUSH1 0x5 MUL ADD PUSH0 ADD SLOAD EQ PUSH2 0x7FE JUMPI PUSH1 0x40 MLOAD PUSH32 0x8C379A000000000000000000000000000000000000000000000000000000000 DUP2 MSTORE PUSH1 0x4 ADD PUSH2 0x7F5 SWAP1 PUSH2 0x144C JUMP JUMPDEST PUSH1 0x40 MLOAD DUP1 SWAP2 SUB SWAP1 REVERT JUMPDEST PUSH1 0x1 PUSH0 DUP4 PUSH20 0xFFFFFFFFFFFFFFFFFFFFFFFFFFFFFFFFFFFFFFFF AND PUSH20 0xFFFFFFFFFFFFFFFFFFFFFFFFFFFFFFFFFFFFFFFF AND DUP2 MSTORE PUSH1 0x20 ADD SWAP1 DUP2 MSTORE PUSH1 0x20 ADD PUSH0 KECCAK256 DUP2 DUP2 SLOAD DUP2 LT PUSH2 0x84D JUMPI PUSH2 0x84C PUSH2 0x13D5 JUMP JUMPDEST JUMPDEST SWAP1 PUSH0 MSTORE PUSH1 0x20 PUSH0 KECCAK256 SWAP1 PUSH1 0x5 MUL ADD PUSH1 0x4 ADD PUSH0 DUP2 SLOAD DUP1 SWAP3 SWAP2 SWAP1 PUSH2 0x86C SWAP1 PUSH2 0x15D1 JUMP JUMPDEST SWAP2 SWAP1 POP SSTORE POP PUSH32 0xCF05A692DD485EDAA49D7BE66062470330A585AC195C9C274317255B52E308F6 CALLER DUP4 DUP4 PUSH1 0x1 PUSH0 DUP8 PUSH20 0xFFFFFFFFFFFFFFFFFFFFFFFFFFFFFFFFFFFFFFFF AND PUSH20 0xFFFFFFFFFFFFFFFFFFFFFFFFFFFFFFFFFFFFFFFF AND DUP2 MSTORE PUSH1 0x20 ADD SWAP1 DUP2 MSTORE PUSH1 0x20 ADD PUSH0 KECCAK256 DUP6 DUP2 SLOAD DUP2 LT PUSH2 0x8E4 JUMPI PUSH2 0x8E3 PUSH2 0x13D5 JUMP JUMPDEST JUMPDEST SWAP1 PUSH0 MSTORE PUSH1 0x20 PUSH0 KECCAK256 SWAP1 PUSH1 0x5 MUL ADD PUSH1 0x4 ADD SLOAD PUSH1 0x40 MLOAD PUSH2 0x904 SWAP5 SWAP4 SWAP3 SWAP2 SWAP1 PUSH2 0x1526 JUMP JUMPDEST PUSH1 0x40 MLOAD DUP1 SWAP2 SUB SWAP1 LOG1 POP POP JUMP JUMPDEST PUSH0 PUSH0 SWAP1 SLOAD SWAP1 PUSH2 0x100 EXP SWAP1 DIV PUSH2 0xFFFF AND DUP2 JUMP JUMPDEST PUSH0 PUSH0 SWAP1 SLOAD SWAP1 PUSH2 0x100 EXP SWAP1 DIV PUSH2 0xFFFF AND PUSH2 0xFFFF AND DUP2 MLOAD GT ISZERO PUSH2 0x978 JUMPI PUSH1 0x40 MLOAD PUSH32 0x8C379A000000000000000000000000000000000000000000000000000000000 DUP2 MSTORE PUSH1 0x4 ADD PUSH2 0x96F SWAP1 PUSH2 0x1662 JUMP JUMPDEST PUSH1 0x40 MLOAD DUP1 SWAP2 SUB SWAP1 REVERT JUMPDEST PUSH0 PUSH1 0x40 MLOAD DUP1 PUSH1 0xA0 ADD PUSH1 0x40 MSTORE DUP1 PUSH1 0x1 PUSH0 CALLER PUSH20 0xFFFFFFFFFFFFFFFFFFFFFFFFFFFFFFFFFFFFFFFF AND PUSH20 0xFFFFFFFFFFFFFFFFFFFFFFFFFFFFFFFFFFFFFFFF AND DUP2 MSTORE PUSH1 0x20 ADD SWAP1 DUP2 MSTORE PUSH1 0x20 ADD PUSH0 KECCAK256 DUP1 SLOAD SWAP1 POP DUP2 MSTORE PUSH1 0x20 ADD CALLER PUSH20 0xFFFFFFFFFFFFFFFFFFFFFFFFFFFFFFFFFFFFFFFF AND DUP2 MSTORE PUSH1 0x20 ADD DUP4 DUP2 MSTORE PUSH1 0x20 ADD TIMESTAMP DUP2 MSTORE PUSH1 0x20 ADD PUSH0 DUP2 MSTORE POP SWAP1 POP PUSH1 0x1 PUSH0 CALLER PUSH20 0xFFFFFFFFFFFFFFFFFFFFFFFFFFFFFFFFFFFFFFFF AND PUSH20 0xFFFFFFFFFFFFFFFFFFFFFFFFFFFFFFFFFFFFFFFF AND DUP2 MSTORE PUSH1 0x20 ADD SWAP1 DUP2 MSTORE PUSH1 0x20 ADD PUSH0 KECCAK256 DUP2 SWAP1 DUP1 PUSH1 0x1 DUP2 SLOAD ADD DUP1 DUP3 SSTORE DUP1 SWAP2 POP POP PUSH1 0x1 SWAP1 SUB SWAP1 PUSH0 MSTORE PUSH1 0x20 PUSH0 KECCAK256 SWAP1 PUSH1 0x5 MUL ADD PUSH0 SWAP1 SWAP2 SWAP1 SWAP2 SWAP1 SWAP2 POP PUSH0 DUP3 ADD MLOAD DUP2 PUSH0 ADD SSTORE PUSH1 0x20 DUP3 ADD MLOAD DUP2 PUSH1 0x1 ADD PUSH0 PUSH2 0x100 EXP DUP2 SLOAD DUP2 PUSH20 0xFFFFFFFFFFFFFFFFFFFFFFFFFFFFFFFFFFFFFFFF MUL NOT AND SWAP1 DUP4 PUSH20 0xFFFFFFFFFFFFFFFFFFFFFFFFFFFFFFFFFFFFFFFF AND MUL OR SWAP1 SSTORE POP PUSH1 0x40 DUP3 ADD MLOAD DUP2 PUSH1 0x2 ADD SWAP1 DUP2 PUSH2 0xABF SWAP2 SWAP1 PUSH2 0x1820 JUMP JUMPDEST POP PUSH1 0x60 DUP3 ADD MLOAD DUP2 PUSH1 0x3 ADD SSTORE PUSH1 0x80 DUP3 ADD MLOAD DUP2 PUSH1 0x4 ADD SSTORE POP POP PUSH32 0xD2922467CCDC748406C619BE4EE0A7EF58FC5C4E66A88A9F51ECBE6550184FAE DUP2 PUSH0 ADD MLOAD DUP3 PUSH1 0x20 ADD MLOAD DUP4 PUSH1 0x40 ADD MLOAD DUP5 PUSH1 0x60 ADD MLOAD PUSH1 0x40 MLOAD PUSH2 0xB1A SWAP5 SWAP4 SWAP3 SWAP2 SWAP1 PUSH2 0x18EF JUMP JUMPDEST PUSH1 0x40 MLOAD DUP1 SWAP2 SUB SWAP1 LOG1 POP POP JUMP JUMPDEST PUSH1 0x2 PUSH0 SWAP1 SLOAD SWAP1 PUSH2 0x100 EXP SWAP1 DIV PUSH20 0xFFFFFFFFFFFFFFFFFFFFFFFFFFFFFFFFFFFFFFFF AND DUP2 JUMP JUMPDEST PUSH2 0xB53 PUSH2 0xCC2 JUMP JUMPDEST PUSH1 0x1 PUSH0 CALLER PUSH20 0xFFFFFFFFFFFFFFFFFFFFFFFFFFFFFFFFFFFFFFFF AND PUSH20 0xFFFFFFFFFFFFFFFFFFFFFFFFFFFFFFFFFFFFFFFF AND DUP2 MSTORE PUSH1 0x20 ADD SWAP1 DUP2 MSTORE PUSH1 0x20 ADD PUSH0 KECCAK256 DUP3 DUP2 SLOAD DUP2 LT PUSH2 0xBA2 JUMPI PUSH2 0xBA1 PUSH2 0x13D5 JUMP JUMPDEST JUMPDEST SWAP1 PUSH0 MSTORE PUSH1 0x20 PUSH0 KECCAK256 SWAP1 PUSH1 0x5 MUL ADD PUSH1 0x40 MLOAD DUP1 PUSH1 0xA0 ADD PUSH1 0x40 MSTORE SWAP1 DUP2 PUSH0 DUP3 ADD SLOAD DUP2 MSTORE PUSH1 0x20 ADD PUSH1 0x1 DUP3 ADD PUSH0 SWAP1 SLOAD SWAP1 PUSH2 0x100 EXP SWAP1 DIV PUSH20 0xFFFFFFFFFFFFFFFFFFFFFFFFFFFFFFFFFFFFFFFF AND PUSH20 0xFFFFFFFFFFFFFFFFFFFFFFFFFFFFFFFFFFFFFFFF AND PUSH20 0xFFFFFFFFFFFFFFFFFFFFFFFFFFFFFFFFFFFFFFFF AND DUP2 MSTORE PUSH1 0x20 ADD PUSH1 0x2 DUP3 ADD DUP1 SLOAD PUSH2 0xC27 SWAP1 PUSH2 0x13A5 JUMP JUMPDEST DUP1 PUSH1 0x1F ADD PUSH1 0x20 DUP1 SWAP2 DIV MUL PUSH1 0x20 ADD PUSH1 0x40 MLOAD SWAP1 DUP2 ADD PUSH1 0x40 MSTORE DUP1 SWAP3 SWAP2 SWAP1 DUP2 DUP2 MSTORE PUSH1 0x20 ADD DUP3 DUP1 SLOAD PUSH2 0xC53 SWAP1 PUSH2 0x13A5 JUMP JUMPDEST DUP1 ISZERO PUSH2 0xC9E JUMPI DUP1 PUSH1 0x1F LT PUSH2 0xC75 JUMPI PUSH2 0x100 DUP1 DUP4 SLOAD DIV MUL DUP4 MSTORE SWAP2 PUSH1 0x20 ADD SWAP2 PUSH2 0xC9E JUMP JUMPDEST DUP3 ADD SWAP2 SWAP1 PUSH0 MSTORE PUSH1 0x20 PUSH0 KECCAK256 SWAP1 JUMPDEST DUP2 SLOAD DUP2 MSTORE SWAP1 PUSH1 0x1 ADD SWAP1 PUSH1 0x20 ADD DUP1 DUP4 GT PUSH2 0xC81 JUMPI DUP3 SWAP1 SUB PUSH1 0x1F AND DUP3 ADD SWAP2 JUMPDEST POP POP POP POP POP DUP2 MSTORE PUSH1 0x20 ADD PUSH1 0x3 DUP3 ADD SLOAD DUP2 MSTORE PUSH1 0x20 ADD PUSH1 0x4 DUP3 ADD SLOAD DUP2 MSTORE POP POP SWAP1 POP SWAP2 SWAP1 POP JUMP JUMPDEST PUSH1 0x40 MLOAD DUP1 PUSH1 0xA0 ADD PUSH1 0x40 MSTORE DUP1 PUSH0 DUP2 MSTORE PUSH1 0x20 ADD PUSH0 PUSH20 0xFFFFFFFFFFFFFFFFFFFFFFFFFFFFFFFFFFFFFFFF AND DUP2 MSTORE PUSH1 0x20 ADD PUSH1 0x60 DUP2 MSTORE PUSH1 0x20 ADD PUSH0 DUP2 MSTORE PUSH1 0x20 ADD PUSH0 DUP2 MSTORE POP SWAP1 JUMP JUMPDEST PUSH0 PUSH1 0x40 MLOAD SWAP1 POP SWAP1 JUMP JUMPDEST PUSH0 PUSH0 REVERT JUMPDEST PUSH0 PUSH0 REVERT JUMPDEST PUSH0 PUSH20 0xFFFFFFFFFFFFFFFFFFFFFFFFFFFFFFFFFFFFFFFF DUP3 AND SWAP1 POP SWAP2 SWAP1 POP JUMP JUMPDEST PUSH0 PUSH2 0xD3D DUP3 PUSH2 0xD14 JUMP JUMPDEST SWAP1 POP SWAP2 SWAP1 POP JUMP JUMPDEST PUSH2 0xD4D DUP2 PUSH2 0xD33 JUMP JUMPDEST DUP2 EQ PUSH2 0xD57 JUMPI PUSH0 PUSH0 REVERT JUMPDEST POP JUMP JUMPDEST PUSH0 DUP2 CALLDATALOAD SWAP1 POP PUSH2 0xD68 DUP2 PUSH2 0xD44 JUMP JUMPDEST SWAP3 SWAP2 POP POP JUMP JUMPDEST PUSH0 DUP2 SWAP1 POP SWAP2 SWAP1 POP JUMP JUMPDEST PUSH2 0xD80 DUP2 PUSH2 0xD6E JUMP JUMPDEST DUP2 EQ PUSH2 0xD8A JUMPI PUSH0 PUSH0 REVERT JUMPDEST POP JUMP JUMPDEST PUSH0 DUP2 CALLDATALOAD SWAP1 POP PUSH2 0xD9B DUP2 PUSH2 0xD77 JUMP JUMPDEST SWAP3 SWAP2 POP POP JUMP JUMPDEST PUSH0 PUSH0 PUSH1 0x40 DUP4 DUP6 SUB SLT ISZERO PUSH2 0xDB7 JUMPI PUSH2 0xDB6 PUSH2 0xD0C JUMP JUMPDEST JUMPDEST PUSH0 PUSH2 0xDC4 DUP6 DUP3 DUP7 ADD PUSH2 0xD5A JUMP JUMPDEST SWAP3 POP POP PUSH1 0x20 PUSH2 0xDD5 DUP6 DUP3 DUP7 ADD PUSH2 0xD8D JUMP JUMPDEST SWAP2 POP POP SWAP3 POP SWAP3 SWAP1 POP JUMP JUMPDEST PUSH2 0xDE8 DUP2 PUSH2 0xD6E JUMP JUMPDEST DUP3 MSTORE POP POP JUMP JUMPDEST PUSH2 0xDF7 DUP2 PUSH2 0xD33 JUMP JUMPDEST DUP3 MSTORE POP POP JUMP JUMPDEST PUSH0 DUP2 MLOAD SWAP1 POP SWAP2 SWAP1 POP JUMP JUMPDEST PUSH0 DUP3 DUP3 MSTORE PUSH1 0x20 DUP3 ADD SWAP1 POP SWAP3 SWAP2 POP POP JUMP JUMPDEST DUP3 DUP2 DUP4 MCOPY PUSH0 DUP4 DUP4 ADD MSTORE POP POP POP JUMP JUMPDEST PUSH0 PUSH1 0x1F NOT PUSH1 0x1F DUP4 ADD AND SWAP1 POP SWAP2 SWAP1 POP JUMP JUMPDEST PUSH0 PUSH2 0xE3F DUP3 PUSH2 0xDFD JUMP JUMPDEST PUSH2 0xE49 DUP2 DUP6 PUSH2 0xE07 JUMP JUMPDEST SWAP4 POP PUSH2 0xE59 DUP2 DUP6 PUSH1 0x20 DUP7 ADD PUSH2 0xE17 JUMP JUMPDEST PUSH2 0xE62 DUP2 PUSH2 0xE25 JUMP JUMPDEST DUP5 ADD SWAP2 POP POP SWAP3 SWAP2 POP POP JUMP JUMPDEST PUSH0 PUSH1 0xA0 DUP3 ADD SWAP1 POP PUSH2 0xE80 PUSH0 DUP4 ADD DUP9 PUSH2 0xDDF JUMP JUMPDEST PUSH2 0xE8D PUSH1 0x20 DUP4 ADD DUP8 PUSH2 0xDEE JUMP JUMPDEST DUP2 DUP2 SUB PUSH1 0x40 DUP4 ADD MSTORE PUSH2 0xE9F DUP2 DUP7 PUSH2 0xE35 JUMP JUMPDEST SWAP1 POP PUSH2 0xEAE PUSH1 0x60 DUP4 ADD DUP6 PUSH2 0xDDF JUMP JUMPDEST PUSH2 0xEBB PUSH1 0x80 DUP4 ADD DUP5 PUSH2 0xDDF JUMP JUMPDEST SWAP7 SWAP6 POP POP POP POP POP POP JUMP JUMPDEST PUSH0 PUSH1 0x20 DUP3 DUP5 SUB SLT ISZERO PUSH2 0xEDA JUMPI PUSH2 0xED9 PUSH2 0xD0C JUMP JUMPDEST JUMPDEST PUSH0 PUSH2 0xEE7 DUP5 DUP3 DUP6 ADD PUSH2 0xD5A JUMP JUMPDEST SWAP2 POP POP SWAP3 SWAP2 POP POP JUMP JUMPDEST PUSH0 DUP2 MLOAD SWAP1 POP SWAP2 SWAP1 POP JUMP JUMPDEST PUSH0 DUP3 DUP3 MSTORE PUSH1 0x20 DUP3 ADD SWAP1 POP SWAP3 SWAP2 POP POP JUMP JUMPDEST PUSH0 DUP2 SWAP1 POP PUSH1 0x20 DUP3 ADD SWAP1 POP SWAP2 SWAP1 POP JUMP JUMPDEST PUSH2 0xF22 DUP2 PUSH2 0xD6E JUMP JUMPDEST DUP3 MSTORE POP POP JUMP JUMPDEST PUSH2 0xF31 DUP2 PUSH2 0xD33 JUMP JUMPDEST DUP3 MSTORE POP POP JUMP JUMPDEST PUSH0 DUP3 DUP3 MSTORE PUSH1 0x20 DUP3 ADD SWAP1 POP SWAP3 SWAP2 POP POP JUMP JUMPDEST PUSH0 PUSH2 0xF51 DUP3 PUSH2 0xDFD JUMP JUMPDEST PUSH2 0xF5B DUP2 DUP6 PUSH2 0xF37 JUMP JUMPDEST SWAP4 POP PUSH2 0xF6B DUP2 DUP6 PUSH1 0x20 DUP7 ADD PUSH2 0xE17 JUMP JUMPDEST PUSH2 0xF74 DUP2 PUSH2 0xE25 JUMP JUMPDEST DUP5 ADD SWAP2 POP POP SWAP3 SWAP2 POP POP JUMP JUMPDEST PUSH0 PUSH1 0xA0 DUP4 ADD PUSH0 DUP4 ADD MLOAD PUSH2 0xF94 PUSH0 DUP7 ADD DUP3 PUSH2 0xF19 JUMP JUMPDEST POP PUSH1 0x20 DUP4 ADD MLOAD PUSH2 0xFA7 PUSH1 0x20 DUP7 ADD DUP3 PUSH2 0xF28 JUMP JUMPDEST POP PUSH1 0x40 DUP4 ADD MLOAD DUP5 DUP3 SUB PUSH1 0x40 DUP7 ADD MSTORE PUSH2 0xFBF DUP3 DUP3 PUSH2 0xF47 JUMP JUMPDEST SWAP2 POP POP PUSH1 0x60 DUP4 ADD MLOAD PUSH2 0xFD4 PUSH1 0x60 DUP7 ADD DUP3 PUSH2 0xF19 JUMP JUMPDEST POP PUSH1 0x80 DUP4 ADD MLOAD PUSH2 0xFE7 PUSH1 0x80 DUP7 ADD DUP3 PUSH2 0xF19 JUMP JUMPDEST POP DUP1 SWAP2 POP POP SWAP3 SWAP2 POP POP JUMP JUMPDEST PUSH0 PUSH2 0xFFD DUP4 DUP4 PUSH2 0xF7F JUMP JUMPDEST SWAP1 POP SWAP3 SWAP2 POP POP JUMP JUMPDEST PUSH0 PUSH1 0x20 DUP3 ADD SWAP1 POP SWAP2 SWAP1 POP JUMP JUMPDEST PUSH0 PUSH2 0x101B DUP3 PUSH2 0xEF0 JUMP JUMPDEST PUSH2 0x1025 DUP2 DUP6 PUSH2 0xEFA JUMP JUMPDEST SWAP4 POP DUP4 PUSH1 0x20 DUP3 MUL DUP6 ADD PUSH2 0x1037 DUP6 PUSH2 0xF0A JUMP JUMPDEST DUP1 PUSH0 JUMPDEST DUP6 DUP2 LT ISZERO PUSH2 0x1072 JUMPI DUP5 DUP5 SUB DUP10 MSTORE DUP2 MLOAD PUSH2 0x1053 DUP6 DUP3 PUSH2 0xFF2 JUMP JUMPDEST SWAP5 POP PUSH2 0x105E DUP4 PUSH2 0x1005 JUMP JUMPDEST SWAP3 POP PUSH1 0x20 DUP11 ADD SWAP10 POP POP PUSH1 0x1 DUP2 ADD SWAP1 POP PUSH2 0x103A JUMP JUMPDEST POP DUP3 SWAP8 POP DUP8 SWAP6 POP POP POP POP POP POP SWAP3 SWAP2 POP POP JUMP JUMPDEST PUSH0 PUSH1 0x20 DUP3 ADD SWAP1 POP DUP2 DUP2 SUB PUSH0 DUP4 ADD MSTORE PUSH2 0x109C DUP2 DUP5 PUSH2 0x1011 JUMP JUMPDEST SWAP1 POP SWAP3 SWAP2 POP POP JUMP JUMPDEST PUSH0 PUSH2 0xFFFF DUP3 AND SWAP1 POP SWAP2 SWAP1 POP JUMP JUMPDEST PUSH2 0x10BA DUP2 PUSH2 0x10A4 JUMP JUMPDEST DUP2 EQ PUSH2 0x10C4 JUMPI PUSH0 PUSH0 REVERT JUMPDEST POP JUMP JUMPDEST PUSH0 DUP2 CALLDATALOAD SWAP1 POP PUSH2 0x10D5 DUP2 PUSH2 0x10B1 JUMP JUMPDEST SWAP3 SWAP2 POP POP JUMP JUMPDEST PUSH0 PUSH1 0x20 DUP3 DUP5 SUB SLT ISZERO PUSH2 0x10F0 JUMPI PUSH2 0x10EF PUSH2 0xD0C JUMP JUMPDEST JUMPDEST PUSH0 PUSH2 0x10FD DUP5 DUP3 DUP6 ADD PUSH2 0x10C7 JUMP JUMPDEST SWAP2 POP POP SWAP3 SWAP2 POP POP JUMP JUMPDEST PUSH2 0x110F DUP2 PUSH2 0x10A4 JUMP JUMPDEST DUP3 MSTORE POP POP JUMP JUMPDEST PUSH0 PUSH1 0x20 DUP3 ADD SWAP1 POP PUSH2 0x1128 PUSH0 DUP4 ADD DUP5 PUSH2 0x1106 JUMP JUMPDEST SWAP3 SWAP2 POP POP JUMP JUMPDEST PUSH0 PUSH0 REVERT JUMPDEST PUSH0 PUSH0 REVERT JUMPDEST PUSH32 0x4E487B7100000000000000000000000000000000000000000000000000000000 PUSH0 MSTORE PUSH1 0x41 PUSH1 0x4 MSTORE PUSH1 0x24 PUSH0 REVERT JUMPDEST PUSH2 0x116C DUP3 PUSH2 0xE25 JUMP JUMPDEST DUP2 ADD DUP2 DUP2 LT PUSH8 0xFFFFFFFFFFFFFFFF DUP3 GT OR ISZERO PUSH2 0x118B JUMPI PUSH2 0x118A PUSH2 0x1136 JUMP JUMPDEST JUMPDEST DUP1 PUSH1 0x40 MSTORE POP POP POP JUMP JUMPDEST PUSH0 PUSH2 0x119D PUSH2 0xD03 JUMP JUMPDEST SWAP1 POP PUSH2 0x11A9 DUP3 DUP3 PUSH2 0x1163 JUMP JUMPDEST SWAP2 SWAP1 POP JUMP JUMPDEST PUSH0 PUSH8 0xFFFFFFFFFFFFFFFF DUP3 GT ISZERO PUSH2 0x11C8 JUMPI PUSH2 0x11C7 PUSH2 0x1136 JUMP JUMPDEST JUMPDEST PUSH2 0x11D1 DUP3 PUSH2 0xE25 JUMP JUMPDEST SWAP1 POP PUSH1 0x20 DUP2 ADD SWAP1 POP SWAP2 SWAP1 POP JUMP JUMPDEST DUP3 DUP2 DUP4 CALLDATACOPY PUSH0 DUP4 DUP4 ADD MSTORE POP POP POP JUMP JUMPDEST PUSH0 PUSH2 0x11FE PUSH2 0x11F9 DUP5 PUSH2 0x11AE JUMP JUMPDEST PUSH2 0x1194 JUMP JUMPDEST SWAP1 POP DUP3 DUP2 MSTORE PUSH1 0x20 DUP2 ADD DUP5 DUP5 DUP5 ADD GT ISZERO PUSH2 0x121A JUMPI PUSH2 0x1219 PUSH2 0x1132 JUMP JUMPDEST JUMPDEST PUSH2 0x1225 DUP5 DUP3 DUP6 PUSH2 0x11DE JUMP JUMPDEST POP SWAP4 SWAP3 POP POP POP JUMP JUMPDEST PUSH0 DUP3 PUSH1 0x1F DUP4 ADD SLT PUSH2 0x1241 JUMPI PUSH2 0x1240 PUSH2 0x112E JUMP JUMPDEST JUMPDEST DUP2 CALLDATALOAD PUSH2 0x1251 DUP5 DUP3 PUSH1 0x20 DUP7 ADD PUSH2 0x11EC JUMP JUMPDEST SWAP2 POP POP SWAP3 SWAP2 POP POP JUMP JUMPDEST PUSH0 PUSH1 0x20 DUP3 DUP5 SUB SLT ISZERO PUSH2 0x126F JUMPI PUSH2 0x126E PUSH2 0xD0C JUMP JUMPDEST JUMPDEST PUSH0 DUP3 ADD CALLDATALOAD PUSH8 0xFFFFFFFFFFFFFFFF DUP2 GT ISZERO PUSH2 0x128C JUMPI PUSH2 0x128B PUSH2 0xD10 JUMP JUMPDEST JUMPDEST PUSH2 0x1298 DUP5 DUP3 DUP6 ADD PUSH2 0x122D JUMP JUMPDEST SWAP2 POP POP SWAP3 SWAP2 POP POP JUMP JUMPDEST PUSH0 PUSH1 0x20 DUP3 ADD SWAP1 POP PUSH2 0x12B4 PUSH0 DUP4 ADD DUP5 PUSH2 0xDEE JUMP JUMPDEST SWAP3 SWAP2 POP POP JUMP JUMPDEST PUSH0 PUSH1 0x20 DUP3 DUP5 SUB SLT ISZERO PUSH2 0x12CF JUMPI PUSH2 0x12CE PUSH2 0xD0C JUMP JUMPDEST JUMPDEST PUSH0 PUSH2 0x12DC DUP5 DUP3 DUP6 ADD PUSH2 0xD8D JUMP JUMPDEST SWAP2 POP POP SWAP3 SWAP2 POP POP JUMP JUMPDEST PUSH0 PUSH1 0xA0 DUP4 ADD PUSH0 DUP4 ADD MLOAD PUSH2 0x12FA PUSH0 DUP7 ADD DUP3 PUSH2 0xF19 JUMP JUMPDEST POP PUSH1 0x20 DUP4 ADD MLOAD PUSH2 0x130D PUSH1 0x20 DUP7 ADD DUP3 PUSH2 0xF28 JUMP JUMPDEST POP PUSH1 0x40 DUP4 ADD MLOAD DUP5 DUP3 SUB PUSH1 0x40 DUP7 ADD MSTORE PUSH2 0x1325 DUP3 DUP3 PUSH2 0xF47 JUMP JUMPDEST SWAP2 POP POP PUSH1 0x60 DUP4 ADD MLOAD PUSH2 0x133A PUSH1 0x60 DUP7 ADD DUP3 PUSH2 0xF19 JUMP JUMPDEST POP PUSH1 0x80 DUP4 ADD MLOAD PUSH2 0x134D PUSH1 0x80 DUP7 ADD DUP3 PUSH2 0xF19 JUMP JUMPDEST POP DUP1 SWAP2 POP POP SWAP3 SWAP2 POP POP JUMP JUMPDEST PUSH0 PUSH1 0x20 DUP3 ADD SWAP1 POP DUP2 DUP2 SUB PUSH0 DUP4 ADD MSTORE PUSH2 0x1370 DUP2 DUP5 PUSH2 0x12E5 JUMP JUMPDEST SWAP1 POP SWAP3 SWAP2 POP POP JUMP JUMPDEST PUSH32 0x4E487B7100000000000000000000000000000000000000000000000000000000 PUSH0 MSTORE PUSH1 0x22 PUSH1 0x4 MSTORE PUSH1 0x24 PUSH0 REVERT JUMPDEST PUSH0 PUSH1 0x2 DUP3 DIV SWAP1 POP PUSH1 0x1 DUP3 AND DUP1 PUSH2 0x13BC JUMPI PUSH1 0x7F DUP3 AND SWAP2 POP JUMPDEST PUSH1 0x20 DUP3 LT DUP2 SUB PUSH2 0x13CF JUMPI PUSH2 0x13CE PUSH2 0x1378 JUMP JUMPDEST JUMPDEST POP SWAP2 SWAP1 POP JUMP JUMPDEST PUSH32 0x4E487B7100000000000000000000000000000000000000000000000000000000 PUSH0 MSTORE PUSH1 0x32 PUSH1 0x4 MSTORE PUSH1 0x24 PUSH0 REVERT JUMPDEST PUSH32 0x545745455420444F4553204E4F54204558495354000000000000000000000000 PUSH0 DUP3 ADD MSTORE POP JUMP JUMPDEST PUSH0 PUSH2 0x1436 PUSH1 0x14 DUP4 PUSH2 0xE07 JUMP JUMPDEST SWAP2 POP PUSH2 0x1441 DUP3 PUSH2 0x1402 JUMP JUMPDEST PUSH1 0x20 DUP3 ADD SWAP1 POP SWAP2 SWAP1 POP JUMP JUMPDEST PUSH0 PUSH1 0x20 DUP3 ADD SWAP1 POP DUP2 DUP2 SUB PUSH0 DUP4 ADD MSTORE PUSH2 0x1463 DUP2 PUSH2 0x142A JUMP JUMPDEST SWAP1 POP SWAP2 SWAP1 POP JUMP JUMPDEST PUSH32 0x545745455420484153204E4F204C494B45530000000000000000000000000000 PUSH0 DUP3 ADD MSTORE POP JUMP JUMPDEST PUSH0 PUSH2 0x149E PUSH1 0x12 DUP4 PUSH2 0xE07 JUMP JUMPDEST SWAP2 POP PUSH2 0x14A9 DUP3 PUSH2 0x146A JUMP JUMPDEST PUSH1 0x20 DUP3 ADD SWAP1 POP SWAP2 SWAP1 POP JUMP JUMPDEST PUSH0 PUSH1 0x20 DUP3 ADD SWAP1 POP DUP2 DUP2 SUB PUSH0 DUP4 ADD MSTORE PUSH2 0x14CB DUP2 PUSH2 0x1492 JUMP JUMPDEST SWAP1 POP SWAP2 SWAP1 POP JUMP JUMPDEST PUSH32 0x4E487B7100000000000000000000000000000000000000000000000000000000 PUSH0 MSTORE PUSH1 0x11 PUSH1 0x4 MSTORE PUSH1 0x24 PUSH0 REVERT JUMPDEST PUSH0 PUSH2 0x1509 DUP3 PUSH2 0xD6E JUMP JUMPDEST SWAP2 POP PUSH0 DUP3 SUB PUSH2 0x151B JUMPI PUSH2 0x151A PUSH2 0x14D2 JUMP JUMPDEST JUMPDEST PUSH1 0x1 DUP3 SUB SWAP1 POP SWAP2 SWAP1 POP JUMP JUMPDEST PUSH0 PUSH1 0x80 DUP3 ADD SWAP1 POP PUSH2 0x1539 PUSH0 DUP4 ADD DUP8 PUSH2 0xDEE JUMP JUMPDEST PUSH2 0x1546 PUSH1 0x20 DUP4 ADD DUP7 PUSH2 0xDEE JUMP JUMPDEST PUSH2 0x1553 PUSH1 0x40 DUP4 ADD DUP6 PUSH2 0xDDF JUMP JUMPDEST PUSH2 0x1560 PUSH1 0x60 DUP4 ADD DUP5 PUSH2 0xDDF JUMP JUMPDEST SWAP6 SWAP5 POP POP POP POP POP JUMP JUMPDEST PUSH32 0x594F5520415245204E4F5420544845204F574E45522100000000000000000000 PUSH0 DUP3 ADD MSTORE POP JUMP JUMPDEST PUSH0 PUSH2 0x159D PUSH1 0x16 DUP4 PUSH2 0xE07 JUMP JUMPDEST SWAP2 POP PUSH2 0x15A8 DUP3 PUSH2 0x1569 JUMP JUMPDEST PUSH1 0x20 DUP3 ADD SWAP1 POP SWAP2 SWAP1 POP JUMP JUMPDEST PUSH0 PUSH1 0x20 DUP3 ADD SWAP1 POP DUP2 DUP2 SUB PUSH0 DUP4 ADD MSTORE PUSH2 0x15CA DUP2 PUSH2 0x1591 JUMP JUMPDEST SWAP1 POP SWAP2 SWAP1 POP JUMP JUMPDEST PUSH0 PUSH2 0x15DB DUP3 PUSH2 0xD6E JUMP JUMPDEST SWAP2 POP PUSH32 0xFFFFFFFFFFFFFFFFFFFFFFFFFFFFFFFFFFFFFFFFFFFFFFFFFFFFFFFFFFFFFFFF DUP3 SUB PUSH2 0x160D JUMPI PUSH2 0x160C PUSH2 0x14D2 JUMP JUMPDEST JUMPDEST PUSH1 0x1 DUP3 ADD SWAP1 POP SWAP2 SWAP1 POP JUMP JUMPDEST PUSH32 0x547765657420697320746F6F206C6F6E672062726F2100000000000000000000 PUSH0 DUP3 ADD MSTORE POP JUMP JUMPDEST PUSH0 PUSH2 0x164C PUSH1 0x16 DUP4 PUSH2 0xE07 JUMP JUMPDEST SWAP2 POP PUSH2 0x1657 DUP3 PUSH2 0x1618 JUMP JUMPDEST PUSH1 0x20 DUP3 ADD SWAP1 POP SWAP2 SWAP1 POP JUMP JUMPDEST PUSH0 PUSH1 0x20 DUP3 ADD SWAP1 POP DUP2 DUP2 SUB PUSH0 DUP4 ADD MSTORE PUSH2 0x1679 DUP2 PUSH2 0x1640 JUMP JUMPDEST SWAP1 POP SWAP2 SWAP1 POP JUMP JUMPDEST PUSH0 DUP2 SWAP1 POP DUP2 PUSH0 MSTORE PUSH1 0x20 PUSH0 KECCAK256 SWAP1 POP SWAP2 SWAP1 POP JUMP JUMPDEST PUSH0 PUSH1 0x20 PUSH1 0x1F DUP4 ADD DIV SWAP1 POP SWAP2 SWAP1 POP JUMP JUMPDEST PUSH0 DUP3 DUP3 SHL SWAP1 POP SWAP3 SWAP2 POP POP JUMP JUMPDEST PUSH0 PUSH1 0x8 DUP4 MUL PUSH2 0x16DC PUSH32 0xFFFFFFFFFFFFFFFFFFFFFFFFFFFFFFFFFFFFFFFFFFFFFFFFFFFFFFFFFFFFFFFF DUP3 PUSH2 0x16A1 JUMP JUMPDEST PUSH2 0x16E6 DUP7 DUP4 PUSH2 0x16A1 JUMP JUMPDEST SWAP6 POP DUP1 NOT DUP5 AND SWAP4 POP DUP1 DUP7 AND DUP5 OR SWAP3 POP POP POP SWAP4 SWAP3 POP POP POP JUMP JUMPDEST PUSH0 DUP2 SWAP1 POP SWAP2 SWAP1 POP JUMP JUMPDEST PUSH0 PUSH2 0x1721 PUSH2 0x171C PUSH2 0x1717 DUP5 PUSH2 0xD6E JUMP JUMPDEST PUSH2 0x16FE JUMP JUMPDEST PUSH2 0xD6E JUMP JUMPDEST SWAP1 POP SWAP2 SWAP1 POP JUMP JUMPDEST PUSH0 DUP2 SWAP1 POP SWAP2 SWAP1 POP JUMP JUMPDEST PUSH2 0x173A DUP4 PUSH2 0x1707 JUMP JUMPDEST PUSH2 0x174E PUSH2 0x1746 DUP3 PUSH2 0x1728 JUMP JUMPDEST DUP5 DUP5 SLOAD PUSH2 0x16AD JUMP JUMPDEST DUP3 SSTORE POP POP POP POP JUMP JUMPDEST PUSH0 PUSH0 SWAP1 POP SWAP1 JUMP JUMPDEST PUSH2 0x1765 PUSH2 0x1756 JUMP JUMPDEST PUSH2 0x1770 DUP2 DUP5 DUP5 PUSH2 0x1731 JUMP JUMPDEST POP POP POP JUMP JUMPDEST JUMPDEST DUP2 DUP2 LT ISZERO PUSH2 0x1793 JUMPI PUSH2 0x1788 PUSH0 DUP3 PUSH2 0x175D JUMP JUMPDEST PUSH1 0x1 DUP2 ADD SWAP1 POP PUSH2 0x1776 JUMP JUMPDEST POP POP JUMP JUMPDEST PUSH1 0x1F DUP3 GT ISZERO PUSH2 0x17D8 JUMPI PUSH2 0x17A9 DUP2 PUSH2 0x1680 JUMP JUMPDEST PUSH2 0x17B2 DUP5 PUSH2 0x1692 JUMP JUMPDEST DUP2 ADD PUSH1 0x20 DUP6 LT ISZERO PUSH2 0x17C1 JUMPI DUP2 SWAP1 POP JUMPDEST PUSH2 0x17D5 PUSH2 0x17CD DUP6 PUSH2 0x1692 JUMP JUMPDEST DUP4 ADD DUP3 PUSH2 0x1775 JUMP JUMPDEST POP POP JUMPDEST POP POP POP JUMP JUMPDEST PUSH0 DUP3 DUP3 SHR SWAP1 POP SWAP3 SWAP2 POP POP JUMP JUMPDEST PUSH0 PUSH2 0x17F8 PUSH0 NOT DUP5 PUSH1 0x8 MUL PUSH2 0x17DD JUMP JUMPDEST NOT DUP1 DUP4 AND SWAP2 POP POP SWAP3 SWAP2 POP POP JUMP JUMPDEST PUSH0 PUSH2 0x1810 DUP4 DUP4 PUSH2 0x17E9 JUMP JUMPDEST SWAP2 POP DUP3 PUSH1 0x2 MUL DUP3 OR SWAP1 POP SWAP3 SWAP2 POP POP JUMP JUMPDEST PUSH2 0x1829 DUP3 PUSH2 0xDFD JUMP JUMPDEST PUSH8 0xFFFFFFFFFFFFFFFF DUP2 GT ISZERO PUSH2 0x1842 JUMPI PUSH2 0x1841 PUSH2 0x1136 JUMP JUMPDEST JUMPDEST PUSH2 0x184C DUP3 SLOAD PUSH2 0x13A5 JUMP JUMPDEST PUSH2 0x1857 DUP3 DUP3 DUP6 PUSH2 0x1797 JUMP JUMPDEST PUSH0 PUSH1 0x20 SWAP1 POP PUSH1 0x1F DUP4 GT PUSH1 0x1 DUP2 EQ PUSH2 0x1888 JUMPI PUSH0 DUP5 ISZERO PUSH2 0x1876 JUMPI DUP3 DUP8 ADD MLOAD SWAP1 POP JUMPDEST PUSH2 0x1880 DUP6 DUP3 PUSH2 0x1805 JUMP JUMPDEST DUP7 SSTORE POP PUSH2 0x18E7 JUMP JUMPDEST PUSH1 0x1F NOT DUP5 AND PUSH2 0x1896 DUP7 PUSH2 0x1680 JUMP JUMPDEST PUSH0 JUMPDEST DUP3 DUP2 LT ISZERO PUSH2 0x18BD JUMPI DUP5 DUP10 ADD MLOAD DUP3 SSTORE PUSH1 0x1 DUP3 ADD SWAP2 POP PUSH1 0x20 DUP6 ADD SWAP5 POP PUSH1 0x20 DUP2 ADD SWAP1 POP PUSH2 0x1898 JUMP JUMPDEST DUP7 DUP4 LT ISZERO PUSH2 0x18DA JUMPI DUP5 DUP10 ADD MLOAD PUSH2 0x18D6 PUSH1 0x1F DUP10 AND DUP3 PUSH2 0x17E9 JUMP JUMPDEST DUP4 SSTORE POP JUMPDEST PUSH1 0x1 PUSH1 0x2 DUP9 MUL ADD DUP9 SSTORE POP POP POP JUMPDEST POP POP POP POP POP POP JUMP JUMPDEST PUSH0 PUSH1 0x80 DUP3 ADD SWAP1 POP PUSH2 0x1902 PUSH0 DUP4 ADD DUP8 PUSH2 0xDDF JUMP JUMPDEST PUSH2 0x190F PUSH1 0x20 DUP4 ADD DUP7 PUSH2 0xDEE JUMP JUMPDEST DUP2 DUP2 SUB PUSH1 0x40 DUP4 ADD MSTORE PUSH2 0x1921 DUP2 DUP6 PUSH2 0xE35 JUMP JUMPDEST SWAP1 POP PUSH2 0x1930 PUSH1 0x60 DUP4 ADD DUP5 PUSH2 0xDDF JUMP JUMPDEST SWAP6 SWAP5 POP POP POP POP POP JUMP INVALID LOG2 PUSH5 0x6970667358 0x22 SLT KECCAK256 0xD 0xB1 SWAP15 PUSH13 0x67A2BBAA21D0225AC6D9E65897 0x29 EXP PUSH8 0xE9FE95FE8F3DC727 NOT DUP3 DUP11 0xBA PUSH5 0x736F6C6343 STOP ADDMOD 0x1E STOP CALLER "
				},
				"gasEstimates": {
					"creation": {
						"codeDepositCost": "1302200",
						"executionCost": "49884",
						"totalCost": "1352084"
					},
					"external": {
						"MAX_TWEET_LENGTH()": "2487",
						"changeTweetLength(uint16)": "26908",
						"createTweet(string)": "infinite",
						"getAllTweets(address)": "infinite",
						"getTweet(uint256)": "infinite",
						"likeTweet(address,uint256)": "infinite",
						"owner()": "2574",
						"tweets(address,uint256)": "infinite",
						"unlikeTweet(address,uint256)": "infinite"
					}
				},
				"methodIdentifiers": {
					"MAX_TWEET_LENGTH()": "6eb10797",
					"changeTweetLength(uint16)": "58bfa4ab",
					"createTweet(string)": "7c9cd2bc",
					"getAllTweets(address)": "12e7ee1c",
					"getTweet(uint256)": "c3ad5ecb",
					"likeTweet(address,uint256)": "63378216",
					"owner()": "8da5cb5b",
					"tweets(address,uint256)": "05a1b4a9",
					"unlikeTweet(address,uint256)": "3d9b569f"
				}
			},
			"storageLayout": {
				"storage": [
					{
						"astId": 4,
						"contract": "ultimate-solidity-course-for-complete-beginners-main/Exercises/21-Twitter-AddEvent-Exercise.sol:Twitter",
						"label": "MAX_TWEET_LENGTH",
						"offset": 0,
						"slot": "0",
						"type": "t_uint16"
					},
					{
						"astId": 21,
						"contract": "ultimate-solidity-course-for-complete-beginners-main/Exercises/21-Twitter-AddEvent-Exercise.sol:Twitter",
						"label": "tweets",
						"offset": 0,
						"slot": "1",
						"type": "t_mapping(t_address,t_array(t_struct(Tweet)15_storage)dyn_storage)"
					},
					{
						"astId": 23,
						"contract": "ultimate-solidity-course-for-complete-beginners-main/Exercises/21-Twitter-AddEvent-Exercise.sol:Twitter",
						"label": "owner",
						"offset": 0,
						"slot": "2",
						"type": "t_address"
					}
				],
				"types": {
					"t_address": {
						"encoding": "inplace",
						"label": "address",
						"numberOfBytes": "20"
					},
					"t_array(t_struct(Tweet)15_storage)dyn_storage": {
						"base": "t_struct(Tweet)15_storage",
						"encoding": "dynamic_array",
						"label": "struct Twitter.Tweet[]",
						"numberOfBytes": "32"
					},
					"t_mapping(t_address,t_array(t_struct(Tweet)15_storage)dyn_storage)": {
						"encoding": "mapping",
						"key": "t_address",
						"label": "mapping(address => struct Twitter.Tweet[])",
						"numberOfBytes": "32",
						"value": "t_array(t_struct(Tweet)15_storage)dyn_storage"
					},
					"t_string_storage": {
						"encoding": "bytes",
						"label": "string",
						"numberOfBytes": "32"
					},
					"t_struct(Tweet)15_storage": {
						"encoding": "inplace",
						"label": "struct Twitter.Tweet",
						"members": [
							{
								"astId": 6,
								"contract": "ultimate-solidity-course-for-complete-beginners-main/Exercises/21-Twitter-AddEvent-Exercise.sol:Twitter",
								"label": "id",
								"offset": 0,
								"slot": "0",
								"type": "t_uint256"
							},
							{
								"astId": 8,
								"contract": "ultimate-solidity-course-for-complete-beginners-main/Exercises/21-Twitter-AddEvent-Exercise.sol:Twitter",
								"label": "author",
								"offset": 0,
								"slot": "1",
								"type": "t_address"
							},
							{
								"astId": 10,
								"contract": "ultimate-solidity-course-for-complete-beginners-main/Exercises/21-Twitter-AddEvent-Exercise.sol:Twitter",
								"label": "content",
								"offset": 0,
								"slot": "2",
								"type": "t_string_storage"
							},
							{
								"astId": 12,
								"contract": "ultimate-solidity-course-for-complete-beginners-main/Exercises/21-Twitter-AddEvent-Exercise.sol:Twitter",
								"label": "timestamp",
								"offset": 0,
								"slot": "3",
								"type": "t_uint256"
							},
							{
								"astId": 14,
								"contract": "ultimate-solidity-course-for-complete-beginners-main/Exercises/21-Twitter-AddEvent-Exercise.sol:Twitter",
								"label": "likes",
								"offset": 0,
								"slot": "4",
								"type": "t_uint256"
							}
						],
						"numberOfBytes": "160"
					},
					"t_uint16": {
						"encoding": "inplace",
						"label": "uint16",
						"numberOfBytes": "2"
					},
					"t_uint256": {
						"encoding": "inplace",
						"label": "uint256",
						"numberOfBytes": "32"
					}
				}
			},
			"userdoc": {
				"kind": "user",
				"methods": {},
				"version": 1
			}
		}
	}
}