{
	"ultimate-solidity-course-for-complete-beginners-main/Exercises/26-Twitter-Inheritance-Exercise.sol": {
		"Twitter": {
			"abi": [
				{
					"anonymous": false,
					"inputs": [
						{
							"indexed": true,
							"internalType": "address",
							"name": "previousOwner",
							"type": "address"
						},
						{
							"indexed": true,
							"internalType": "address",
							"name": "newOwner",
							"type": "address"
						}
					],
					"name": "OwnershipTransferred",
					"type": "event"
				},
				{
					"anonymous": false,
					"inputs": [
						{
							"indexed": false,
							"internalType": "uint256",
							"name": "id",
							"type": "uint256"
						},
						{
							"indexed": false,
							"internalType": "address",
							"name": "author",
							"type": "address"
						},
						{
							"indexed": false,
							"internalType": "string",
							"name": "content",
							"type": "string"
						},
						{
							"indexed": false,
							"internalType": "uint256",
							"name": "timestamp",
							"type": "uint256"
						}
					],
					"name": "TweetCreated",
					"type": "event"
				},
				{
					"anonymous": false,
					"inputs": [
						{
							"indexed": false,
							"internalType": "address",
							"name": "liker",
							"type": "address"
						},
						{
							"indexed": false,
							"internalType": "address",
							"name": "tweetAuthor",
							"type": "address"
						},
						{
							"indexed": false,
							"internalType": "uint256",
							"name": "tweetId",
							"type": "uint256"
						},
						{
							"indexed": false,
							"internalType": "uint256",
							"name": "newLikeCount",
							"type": "uint256"
						}
					],
					"name": "TweetLiked",
					"type": "event"
				},
				{
					"anonymous": false,
					"inputs": [
						{
							"indexed": false,
							"internalType": "address",
							"name": "unliker",
							"type": "address"
						},
						{
							"indexed": false,
							"internalType": "address",
							"name": "tweetAuthor",
							"type": "address"
						},
						{
							"indexed": false,
							"internalType": "uint256",
							"name": "tweetId",
							"type": "uint256"
						},
						{
							"indexed": false,
							"internalType": "uint256",
							"name": "newLikeCount",
							"type": "uint256"
						}
					],
					"name": "TweetUnliked",
					"type": "event"
				},
				{
					"inputs": [],
					"name": "MAX_TWEET_LENGTH",
					"outputs": [
						{
							"internalType": "uint16",
							"name": "",
							"type": "uint16"
						}
					],
					"stateMutability": "view",
					"type": "function"
				},
				{
					"inputs": [
						{
							"internalType": "uint16",
							"name": "newTweetLength",
							"type": "uint16"
						}
					],
					"name": "changeTweetLength",
					"outputs": [],
					"stateMutability": "nonpayable",
					"type": "function"
				},
				{
					"inputs": [
						{
							"internalType": "string",
							"name": "_tweet",
							"type": "string"
						}
					],
					"name": "createTweet",
					"outputs": [],
					"stateMutability": "nonpayable",
					"type": "function"
				},
				{
					"inputs": [
						{
							"internalType": "address",
							"name": "_owner",
							"type": "address"
						}
					],
					"name": "getAllTweets",
					"outputs": [
						{
							"components": [
								{
									"internalType": "uint256",
									"name": "id",
									"type": "uint256"
								},
								{
									"internalType": "address",
									"name": "author",
									"type": "address"
								},
								{
									"internalType": "string",
									"name": "content",
									"type": "string"
								},
								{
									"internalType": "uint256",
									"name": "timestamp",
									"type": "uint256"
								},
								{
									"internalType": "uint256",
									"name": "likes",
									"type": "uint256"
								}
							],
							"internalType": "struct Twitter.Tweet[]",
							"name": "",
							"type": "tuple[]"
						}
					],
					"stateMutability": "view",
					"type": "function"
				},
				{
					"inputs": [
						{
							"internalType": "address",
							"name": "_author",
							"type": "address"
						}
					],
					"name": "getTotalLikes",
					"outputs": [
						{
							"internalType": "uint256",
							"name": "",
							"type": "uint256"
						}
					],
					"stateMutability": "view",
					"type": "function"
				},
				{
					"inputs": [
						{
							"internalType": "uint256",
							"name": "_i",
							"type": "uint256"
						}
					],
					"name": "getTweet",
					"outputs": [
						{
							"components": [
								{
									"internalType": "uint256",
									"name": "id",
									"type": "uint256"
								},
								{
									"internalType": "address",
									"name": "author",
									"type": "address"
								},
								{
									"internalType": "string",
									"name": "content",
									"type": "string"
								},
								{
									"internalType": "uint256",
									"name": "timestamp",
									"type": "uint256"
								},
								{
									"internalType": "uint256",
									"name": "likes",
									"type": "uint256"
								}
							],
							"internalType": "struct Twitter.Tweet",
							"name": "",
							"type": "tuple"
						}
					],
					"stateMutability": "view",
					"type": "function"
				},
				{
					"inputs": [
						{
							"internalType": "address",
							"name": "author",
							"type": "address"
						},
						{
							"internalType": "uint256",
							"name": "id",
							"type": "uint256"
						}
					],
					"name": "likeTweet",
					"outputs": [],
					"stateMutability": "nonpayable",
					"type": "function"
				},
				{
					"inputs": [],
					"name": "owner",
					"outputs": [
						{
							"internalType": "address",
							"name": "",
							"type": "address"
						}
					],
					"stateMutability": "view",
					"type": "function"
				},
				{
					"inputs": [],
					"name": "renounceOwnership",
					"outputs": [],
					"stateMutability": "nonpayable",
					"type": "function"
				},
				{
					"inputs": [
						{
							"internalType": "address",
							"name": "newOwner",
							"type": "address"
						}
					],
					"name": "transferOwnership",
					"outputs": [],
					"stateMutability": "nonpayable",
					"type": "function"
				},
				{
					"inputs": [
						{
							"internalType": "address",
							"name": "",
							"type": "address"
						},
						{
							"internalType": "uint256",
							"name": "",
							"type": "uint256"
						}
					],
					"name": "tweets",
					"outputs": [
						{
							"internalType": "uint256",
							"name": "id",
							"type": "uint256"
						},
						{
							"internalType": "address",
							"name": "author",
							"type": "address"
						},
						{
							"internalType": "string",
							"name": "content",
							"type": "string"
						},
						{
							"internalType": "uint256",
							"name": "timestamp",
							"type": "uint256"
						},
						{
							"internalType": "uint256",
							"name": "likes",
							"type": "uint256"
						}
					],
					"stateMutability": "view",
					"type": "function"
				},
				{
					"inputs": [
						{
							"internalType": "address",
							"name": "author",
							"type": "address"
						},
						{
							"internalType": "uint256",
							"name": "id",
							"type": "uint256"
						}
					],
					"name": "unlikeTweet",
					"outputs": [],
					"stateMutability": "nonpayable",
					"type": "function"
				}
			],
			"devdoc": {
				"kind": "dev",
				"methods": {
					"owner()": {
						"details": "Returns the address of the current owner."
					},
					"renounceOwnership()": {
						"details": "Leaves the contract without owner. It will not be possible to call `onlyOwner` functions anymore. Can only be called by the current owner. NOTE: Renouncing ownership will leave the contract without an owner, thereby removing any functionality that is only available to the owner."
					},
					"transferOwnership(address)": {
						"details": "Transfers ownership of the contract to a new account (`newOwner`). Can only be called by the current owner."
					}
				},
				"version": 1
			},
			"evm": {
				"assembly": "    /* \"ultimate-solidity-course-for-complete-beginners-main/Exercises/26-Twitter-Inheritance-Exercise.sol\":241:2914  contract Twitter is Ownable{... */\n  mstore(0x40, 0x80)\n    /* \"ultimate-solidity-course-for-complete-beginners-main/Exercises/26-Twitter-Inheritance-Exercise.sol\":308:311  280 */\n  0x0118\n    /* \"ultimate-solidity-course-for-complete-beginners-main/Exercises/26-Twitter-Inheritance-Exercise.sol\":275:311  uint16 public MAX_TWEET_LENGTH = 280 */\n  0x00\n  exp(0x0100, 0x14)\n  dup2\n  sload\n  dup2\n  0xffff\n  mul\n  not\n  and\n  swap1\n  dup4\n  0xffff\n  and\n  mul\n  or\n  swap1\n  sstore\n  pop\n    /* \"ultimate-solidity-course-for-complete-beginners-main/Exercises/26-Twitter-Inheritance-Exercise.sol\":241:2914  contract Twitter is Ownable{... */\n  callvalue\n  dup1\n  iszero\n  tag_1\n  jumpi\n  revert(0x00, 0x00)\ntag_1:\n  pop\n    /* \"openzeppelin/contracts/access/Ownable.sol\":936:968  _transferOwnership(_msgSender()) */\n  tag_4\n    /* \"openzeppelin/contracts/access/Ownable.sol\":955:967  _msgSender() */\n  tag_5\n    /* \"openzeppelin/contracts/access/Ownable.sol\":955:965  _msgSender */\n  shl(0x20, tag_6)\n    /* \"openzeppelin/contracts/access/Ownable.sol\":955:967  _msgSender() */\n  0x20\n  shr\n  jump\t// in\ntag_5:\n    /* \"openzeppelin/contracts/access/Ownable.sol\":936:954  _transferOwnership */\n  shl(0x20, tag_7)\n    /* \"openzeppelin/contracts/access/Ownable.sol\":936:968  _transferOwnership(_msgSender()) */\n  0x20\n  shr\n  jump\t// in\ntag_4:\n    /* \"ultimate-solidity-course-for-complete-beginners-main/Exercises/26-Twitter-Inheritance-Exercise.sol\":241:2914  contract Twitter is Ownable{... */\n  jump(tag_8)\n    /* \"openzeppelin/contracts/utils/Context.sol\":640:736  function _msgSender() internal view virtual returns (address) {... */\ntag_6:\n    /* \"openzeppelin/contracts/utils/Context.sol\":693:700  address */\n  0x00\n    /* \"openzeppelin/contracts/utils/Context.sol\":719:729  msg.sender */\n  caller\n    /* \"openzeppelin/contracts/utils/Context.sol\":712:729  return msg.sender */\n  swap1\n  pop\n    /* \"openzeppelin/contracts/utils/Context.sol\":640:736  function _msgSender() internal view virtual returns (address) {... */\n  swap1\n  jump\t// out\n    /* \"openzeppelin/contracts/access/Ownable.sol\":2433:2620  function _transferOwnership(address newOwner) internal virtual {... */\ntag_7:\n    /* \"openzeppelin/contracts/access/Ownable.sol\":2506:2522  address oldOwner */\n  0x00\n    /* \"openzeppelin/contracts/access/Ownable.sol\":2525:2531  _owner */\n  0x00\n  0x00\n  swap1\n  sload\n  swap1\n  0x0100\n  exp\n  swap1\n  div\n  0xffffffffffffffffffffffffffffffffffffffff\n  and\n    /* \"openzeppelin/contracts/access/Ownable.sol\":2506:2531  address oldOwner = _owner */\n  swap1\n  pop\n    /* \"openzeppelin/contracts/access/Ownable.sol\":2550:2558  newOwner */\n  dup2\n    /* \"openzeppelin/contracts/access/Ownable.sol\":2541:2547  _owner */\n  0x00\n  0x00\n    /* \"openzeppelin/contracts/access/Ownable.sol\":2541:2558  _owner = newOwner */\n  0x0100\n  exp\n  dup2\n  sload\n  dup2\n  0xffffffffffffffffffffffffffffffffffffffff\n  mul\n  not\n  and\n  swap1\n  dup4\n  0xffffffffffffffffffffffffffffffffffffffff\n  and\n  mul\n  or\n  swap1\n  sstore\n  pop\n    /* \"openzeppelin/contracts/access/Ownable.sol\":2604:2612  newOwner */\n  dup2\n    /* \"openzeppelin/contracts/access/Ownable.sol\":2573:2613  OwnershipTransferred(oldOwner, newOwner) */\n  0xffffffffffffffffffffffffffffffffffffffff\n  and\n    /* \"openzeppelin/contracts/access/Ownable.sol\":2594:2602  oldOwner */\n  dup2\n    /* \"openzeppelin/contracts/access/Ownable.sol\":2573:2613  OwnershipTransferred(oldOwner, newOwner) */\n  0xffffffffffffffffffffffffffffffffffffffff\n  and\n  0x8be0079c531659141344cd1fd0a4f28419497f9722a3daafe3b4186f6b6457e0\n  mload(0x40)\n  mload(0x40)\n  dup1\n  swap2\n  sub\n  swap1\n  log3\n    /* \"openzeppelin/contracts/access/Ownable.sol\":2496:2620  {... */\n  pop\n    /* \"openzeppelin/contracts/access/Ownable.sol\":2433:2620  function _transferOwnership(address newOwner) internal virtual {... */\n  pop\n  jump\t// out\n    /* \"ultimate-solidity-course-for-complete-beginners-main/Exercises/26-Twitter-Inheritance-Exercise.sol\":241:2914  contract Twitter is Ownable{... */\ntag_8:\n  dataSize(sub_0)\n  dup1\n  dataOffset(sub_0)\n  0x00\n  codecopy\n  0x00\n  return\nstop\n\nsub_0: assembly {\n        /* \"ultimate-solidity-course-for-complete-beginners-main/Exercises/26-Twitter-Inheritance-Exercise.sol\":241:2914  contract Twitter is Ownable{... */\n      mstore(0x40, 0x80)\n      callvalue\n      dup1\n      iszero\n      tag_1\n      jumpi\n      revert(0x00, 0x00)\n    tag_1:\n      pop\n      jumpi(tag_2, lt(calldatasize, 0x04))\n      shr(0xe0, calldataload(0x00))\n      dup1\n      0x715018a6\n      gt\n      tag_15\n      jumpi\n      dup1\n      0x715018a6\n      eq\n      tag_9\n      jumpi\n      dup1\n      0x7c9cd2bc\n      eq\n      tag_10\n      jumpi\n      dup1\n      0x820785cc\n      eq\n      tag_11\n      jumpi\n      dup1\n      0x8da5cb5b\n      eq\n      tag_12\n      jumpi\n      dup1\n      0xc3ad5ecb\n      eq\n      tag_13\n      jumpi\n      dup1\n      0xf2fde38b\n      eq\n      tag_14\n      jumpi\n      jump(tag_2)\n    tag_15:\n      dup1\n      0x05a1b4a9\n      eq\n      tag_3\n      jumpi\n      dup1\n      0x12e7ee1c\n      eq\n      tag_4\n      jumpi\n      dup1\n      0x3d9b569f\n      eq\n      tag_5\n      jumpi\n      dup1\n      0x58bfa4ab\n      eq\n      tag_6\n      jumpi\n      dup1\n      0x63378216\n      eq\n      tag_7\n      jumpi\n      dup1\n      0x6eb10797\n      eq\n      tag_8\n      jumpi\n    tag_2:\n      revert(0x00, 0x00)\n        /* \"ultimate-solidity-course-for-complete-beginners-main/Exercises/26-Twitter-Inheritance-Exercise.sol\":461:503  mapping(address => Tweet[] ) public tweets */\n    tag_3:\n      tag_16\n      0x04\n      dup1\n      calldatasize\n      sub\n      dup2\n      add\n      swap1\n      tag_17\n      swap2\n      swap1\n      tag_18\n      jump\t// in\n    tag_17:\n      tag_19\n      jump\t// in\n    tag_16:\n      mload(0x40)\n      tag_20\n      swap6\n      swap5\n      swap4\n      swap3\n      swap2\n      swap1\n      tag_21\n      jump\t// in\n    tag_20:\n      mload(0x40)\n      dup1\n      swap2\n      sub\n      swap1\n      return\n        /* \"ultimate-solidity-course-for-complete-beginners-main/Exercises/26-Twitter-Inheritance-Exercise.sol\":2798:2911  function getAllTweets(address _owner) public view returns (Tweet[] memory ){... */\n    tag_4:\n      tag_22\n      0x04\n      dup1\n      calldatasize\n      sub\n      dup2\n      add\n      swap1\n      tag_23\n      swap2\n      swap1\n      tag_24\n      jump\t// in\n    tag_23:\n      tag_25\n      jump\t// in\n    tag_22:\n      mload(0x40)\n      tag_26\n      swap2\n      swap1\n      tag_27\n      jump\t// in\n    tag_26:\n      mload(0x40)\n      dup1\n      swap2\n      sub\n      swap1\n      return\n        /* \"ultimate-solidity-course-for-complete-beginners-main/Exercises/26-Twitter-Inheritance-Exercise.sol\":2349:2677  function unlikeTweet(address author, uint256 id) external {... */\n    tag_5:\n      tag_28\n      0x04\n      dup1\n      calldatasize\n      sub\n      dup2\n      add\n      swap1\n      tag_29\n      swap2\n      swap1\n      tag_18\n      jump\t// in\n    tag_29:\n      tag_30\n      jump\t// in\n    tag_28:\n      stop\n        /* \"ultimate-solidity-course-for-complete-beginners-main/Exercises/26-Twitter-Inheritance-Exercise.sol\":1133:1250  function changeTweetLength(uint16 newTweetLength) public onlyOwner {... */\n    tag_6:\n      tag_31\n      0x04\n      dup1\n      calldatasize\n      sub\n      dup2\n      add\n      swap1\n      tag_32\n      swap2\n      swap1\n      tag_33\n      jump\t// in\n    tag_32:\n      tag_34\n      jump\t// in\n    tag_31:\n      stop\n        /* \"ultimate-solidity-course-for-complete-beginners-main/Exercises/26-Twitter-Inheritance-Exercise.sol\":2058:2343  function likeTweet(address author, uint256 id) external {  ... */\n    tag_7:\n      tag_35\n      0x04\n      dup1\n      calldatasize\n      sub\n      dup2\n      add\n      swap1\n      tag_36\n      swap2\n      swap1\n      tag_18\n      jump\t// in\n    tag_36:\n      tag_37\n      jump\t// in\n    tag_35:\n      stop\n        /* \"ultimate-solidity-course-for-complete-beginners-main/Exercises/26-Twitter-Inheritance-Exercise.sol\":275:311  uint16 public MAX_TWEET_LENGTH = 280 */\n    tag_8:\n      tag_38\n      tag_39\n      jump\t// in\n    tag_38:\n      mload(0x40)\n      tag_40\n      swap2\n      swap1\n      tag_41\n      jump\t// in\n    tag_40:\n      mload(0x40)\n      dup1\n      swap2\n      sub\n      swap1\n      return\n        /* \"openzeppelin/contracts/access/Ownable.sol\":1831:1932  function renounceOwnership() public virtual onlyOwner {... */\n    tag_9:\n      tag_42\n      tag_43\n      jump\t// in\n    tag_42:\n      stop\n        /* \"ultimate-solidity-course-for-complete-beginners-main/Exercises/26-Twitter-Inheritance-Exercise.sol\":1512:2052  function createTweet(string memory _tweet) public {... */\n    tag_10:\n      tag_44\n      0x04\n      dup1\n      calldatasize\n      sub\n      dup2\n      add\n      swap1\n      tag_45\n      swap2\n      swap1\n      tag_46\n      jump\t// in\n    tag_45:\n      tag_47\n      jump\t// in\n    tag_44:\n      stop\n        /* \"ultimate-solidity-course-for-complete-beginners-main/Exercises/26-Twitter-Inheritance-Exercise.sol\":1256:1506  function getTotalLikes(address _author) external view returns(uint) {... */\n    tag_11:\n      tag_48\n      0x04\n      dup1\n      calldatasize\n      sub\n      dup2\n      add\n      swap1\n      tag_49\n      swap2\n      swap1\n      tag_24\n      jump\t// in\n    tag_49:\n      tag_50\n      jump\t// in\n    tag_48:\n      mload(0x40)\n      tag_51\n      swap2\n      swap1\n      tag_52\n      jump\t// in\n    tag_51:\n      mload(0x40)\n      dup1\n      swap2\n      sub\n      swap1\n      return\n        /* \"openzeppelin/contracts/access/Ownable.sol\":1201:1286  function owner() public view virtual returns (address) {... */\n    tag_12:\n      tag_53\n      tag_54\n      jump\t// in\n    tag_53:\n      mload(0x40)\n      tag_55\n      swap2\n      swap1\n      tag_56\n      jump\t// in\n    tag_55:\n      mload(0x40)\n      dup1\n      swap2\n      sub\n      swap1\n      return\n        /* \"ultimate-solidity-course-for-complete-beginners-main/Exercises/26-Twitter-Inheritance-Exercise.sol\":2683:2792  function getTweet( uint _i) public view returns (Tweet memory) {... */\n    tag_13:\n      tag_57\n      0x04\n      dup1\n      calldatasize\n      sub\n      dup2\n      add\n      swap1\n      tag_58\n      swap2\n      swap1\n      tag_59\n      jump\t// in\n    tag_58:\n      tag_60\n      jump\t// in\n    tag_57:\n      mload(0x40)\n      tag_61\n      swap2\n      swap1\n      tag_62\n      jump\t// in\n    tag_61:\n      mload(0x40)\n      dup1\n      swap2\n      sub\n      swap1\n      return\n        /* \"openzeppelin/contracts/access/Ownable.sol\":2081:2279  function transferOwnership(address newOwner) public virtual onlyOwner {... */\n    tag_14:\n      tag_63\n      0x04\n      dup1\n      calldatasize\n      sub\n      dup2\n      add\n      swap1\n      tag_64\n      swap2\n      swap1\n      tag_24\n      jump\t// in\n    tag_64:\n      tag_65\n      jump\t// in\n    tag_63:\n      stop\n        /* \"ultimate-solidity-course-for-complete-beginners-main/Exercises/26-Twitter-Inheritance-Exercise.sol\":461:503  mapping(address => Tweet[] ) public tweets */\n    tag_19:\n      mstore(0x20, 0x01)\n      dup2\n      0x00\n      mstore\n      keccak256(0x00, 0x40)\n      dup2\n      dup2\n      sload\n      dup2\n      lt\n      tag_66\n      jumpi\n      0x00\n      dup1\n      revert\n    tag_66:\n      swap1\n      0x00\n      mstore\n      keccak256(0x00, 0x20)\n      swap1\n      0x05\n      mul\n      add\n      0x00\n      swap2\n      pop\n      swap2\n      pop\n      pop\n      dup1\n      0x00\n      add\n      sload\n      swap1\n      dup1\n      0x01\n      add\n      0x00\n      swap1\n      sload\n      swap1\n      0x0100\n      exp\n      swap1\n      div\n      0xffffffffffffffffffffffffffffffffffffffff\n      and\n      swap1\n      dup1\n      0x02\n      add\n      dup1\n      sload\n      tag_68\n      swap1\n      tag_69\n      jump\t// in\n    tag_68:\n      dup1\n      0x1f\n      add\n      0x20\n      dup1\n      swap2\n      div\n      mul\n      0x20\n      add\n      mload(0x40)\n      swap1\n      dup2\n      add\n      0x40\n      mstore\n      dup1\n      swap3\n      swap2\n      swap1\n      dup2\n      dup2\n      mstore\n      0x20\n      add\n      dup3\n      dup1\n      sload\n      tag_70\n      swap1\n      tag_69\n      jump\t// in\n    tag_70:\n      dup1\n      iszero\n      tag_71\n      jumpi\n      dup1\n      0x1f\n      lt\n      tag_72\n      jumpi\n      0x0100\n      dup1\n      dup4\n      sload\n      div\n      mul\n      dup4\n      mstore\n      swap2\n      0x20\n      add\n      swap2\n      jump(tag_71)\n    tag_72:\n      dup3\n      add\n      swap2\n      swap1\n      0x00\n      mstore\n      keccak256(0x00, 0x20)\n      swap1\n    tag_73:\n      dup2\n      sload\n      dup2\n      mstore\n      swap1\n      0x01\n      add\n      swap1\n      0x20\n      add\n      dup1\n      dup4\n      gt\n      tag_73\n      jumpi\n      dup3\n      swap1\n      sub\n      0x1f\n      and\n      dup3\n      add\n      swap2\n    tag_71:\n      pop\n      pop\n      pop\n      pop\n      pop\n      swap1\n      dup1\n      0x03\n      add\n      sload\n      swap1\n      dup1\n      0x04\n      add\n      sload\n      swap1\n      pop\n      dup6\n      jump\t// out\n        /* \"ultimate-solidity-course-for-complete-beginners-main/Exercises/26-Twitter-Inheritance-Exercise.sol\":2798:2911  function getAllTweets(address _owner) public view returns (Tweet[] memory ){... */\n    tag_25:\n        /* \"ultimate-solidity-course-for-complete-beginners-main/Exercises/26-Twitter-Inheritance-Exercise.sol\":2857:2871  Tweet[] memory */\n      0x60\n        /* \"ultimate-solidity-course-for-complete-beginners-main/Exercises/26-Twitter-Inheritance-Exercise.sol\":2890:2896  tweets */\n      0x01\n        /* \"ultimate-solidity-course-for-complete-beginners-main/Exercises/26-Twitter-Inheritance-Exercise.sol\":2890:2904  tweets[_owner] */\n      0x00\n        /* \"ultimate-solidity-course-for-complete-beginners-main/Exercises/26-Twitter-Inheritance-Exercise.sol\":2897:2903  _owner */\n      dup4\n        /* \"ultimate-solidity-course-for-complete-beginners-main/Exercises/26-Twitter-Inheritance-Exercise.sol\":2890:2904  tweets[_owner] */\n      0xffffffffffffffffffffffffffffffffffffffff\n      and\n      0xffffffffffffffffffffffffffffffffffffffff\n      and\n      dup2\n      mstore\n      0x20\n      add\n      swap1\n      dup2\n      mstore\n      0x20\n      add\n      0x00\n      keccak256\n        /* \"ultimate-solidity-course-for-complete-beginners-main/Exercises/26-Twitter-Inheritance-Exercise.sol\":2883:2904  return tweets[_owner] */\n      dup1\n      sload\n      dup1\n      0x20\n      mul\n      0x20\n      add\n      mload(0x40)\n      swap1\n      dup2\n      add\n      0x40\n      mstore\n      dup1\n      swap3\n      swap2\n      swap1\n      dup2\n      dup2\n      mstore\n      0x20\n      add\n      0x00\n      swap1\n    tag_75:\n      dup3\n      dup3\n      lt\n      iszero\n      tag_76\n      jumpi\n      dup4\n      dup3\n      swap1\n      0x00\n      mstore\n      keccak256(0x00, 0x20)\n      swap1\n      0x05\n      mul\n      add\n      mload(0x40)\n      dup1\n      0xa0\n      add\n      0x40\n      mstore\n      swap1\n      dup2\n      0x00\n      dup3\n      add\n      sload\n      dup2\n      mstore\n      0x20\n      add\n      0x01\n      dup3\n      add\n      0x00\n      swap1\n      sload\n      swap1\n      0x0100\n      exp\n      swap1\n      div\n      0xffffffffffffffffffffffffffffffffffffffff\n      and\n      0xffffffffffffffffffffffffffffffffffffffff\n      and\n      0xffffffffffffffffffffffffffffffffffffffff\n      and\n      dup2\n      mstore\n      0x20\n      add\n      0x02\n      dup3\n      add\n      dup1\n      sload\n      tag_78\n      swap1\n      tag_69\n      jump\t// in\n    tag_78:\n      dup1\n      0x1f\n      add\n      0x20\n      dup1\n      swap2\n      div\n      mul\n      0x20\n      add\n      mload(0x40)\n      swap1\n      dup2\n      add\n      0x40\n      mstore\n      dup1\n      swap3\n      swap2\n      swap1\n      dup2\n      dup2\n      mstore\n      0x20\n      add\n      dup3\n      dup1\n      sload\n      tag_79\n      swap1\n      tag_69\n      jump\t// in\n    tag_79:\n      dup1\n      iszero\n      tag_80\n      jumpi\n      dup1\n      0x1f\n      lt\n      tag_81\n      jumpi\n      0x0100\n      dup1\n      dup4\n      sload\n      div\n      mul\n      dup4\n      mstore\n      swap2\n      0x20\n      add\n      swap2\n      jump(tag_80)\n    tag_81:\n      dup3\n      add\n      swap2\n      swap1\n      0x00\n      mstore\n      keccak256(0x00, 0x20)\n      swap1\n    tag_82:\n      dup2\n      sload\n      dup2\n      mstore\n      swap1\n      0x01\n      add\n      swap1\n      0x20\n      add\n      dup1\n      dup4\n      gt\n      tag_82\n      jumpi\n      dup3\n      swap1\n      sub\n      0x1f\n      and\n      dup3\n      add\n      swap2\n    tag_80:\n      pop\n      pop\n      pop\n      pop\n      pop\n      dup2\n      mstore\n      0x20\n      add\n      0x03\n      dup3\n      add\n      sload\n      dup2\n      mstore\n      0x20\n      add\n      0x04\n      dup3\n      add\n      sload\n      dup2\n      mstore\n      pop\n      pop\n      dup2\n      mstore\n      0x20\n      add\n      swap1\n      0x01\n      add\n      swap1\n      jump(tag_75)\n    tag_76:\n      pop\n      pop\n      pop\n      pop\n      swap1\n      pop\n        /* \"ultimate-solidity-course-for-complete-beginners-main/Exercises/26-Twitter-Inheritance-Exercise.sol\":2798:2911  function getAllTweets(address _owner) public view returns (Tweet[] memory ){... */\n      swap2\n      swap1\n      pop\n      jump\t// out\n        /* \"ultimate-solidity-course-for-complete-beginners-main/Exercises/26-Twitter-Inheritance-Exercise.sol\":2349:2677  function unlikeTweet(address author, uint256 id) external {... */\n    tag_30:\n        /* \"ultimate-solidity-course-for-complete-beginners-main/Exercises/26-Twitter-Inheritance-Exercise.sol\":2450:2452  id */\n      dup1\n        /* \"ultimate-solidity-course-for-complete-beginners-main/Exercises/26-Twitter-Inheritance-Exercise.sol\":2425:2431  tweets */\n      0x01\n        /* \"ultimate-solidity-course-for-complete-beginners-main/Exercises/26-Twitter-Inheritance-Exercise.sol\":2425:2439  tweets[author] */\n      0x00\n        /* \"ultimate-solidity-course-for-complete-beginners-main/Exercises/26-Twitter-Inheritance-Exercise.sol\":2432:2438  author */\n      dup5\n        /* \"ultimate-solidity-course-for-complete-beginners-main/Exercises/26-Twitter-Inheritance-Exercise.sol\":2425:2439  tweets[author] */\n      0xffffffffffffffffffffffffffffffffffffffff\n      and\n      0xffffffffffffffffffffffffffffffffffffffff\n      and\n      dup2\n      mstore\n      0x20\n      add\n      swap1\n      dup2\n      mstore\n      0x20\n      add\n      0x00\n      keccak256\n        /* \"ultimate-solidity-course-for-complete-beginners-main/Exercises/26-Twitter-Inheritance-Exercise.sol\":2440:2442  id */\n      dup3\n        /* \"ultimate-solidity-course-for-complete-beginners-main/Exercises/26-Twitter-Inheritance-Exercise.sol\":2425:2443  tweets[author][id] */\n      dup2\n      sload\n      dup2\n      lt\n      tag_84\n      jumpi\n      tag_85\n      tag_86\n      jump\t// in\n    tag_85:\n    tag_84:\n      swap1\n      0x00\n      mstore\n      keccak256(0x00, 0x20)\n      swap1\n      0x05\n      mul\n      add\n        /* \"ultimate-solidity-course-for-complete-beginners-main/Exercises/26-Twitter-Inheritance-Exercise.sol\":2425:2446  tweets[author][id].id */\n      0x00\n      add\n      sload\n        /* \"ultimate-solidity-course-for-complete-beginners-main/Exercises/26-Twitter-Inheritance-Exercise.sol\":2425:2452  tweets[author][id].id == id */\n      eq\n        /* \"ultimate-solidity-course-for-complete-beginners-main/Exercises/26-Twitter-Inheritance-Exercise.sol\":2417:2477  require(tweets[author][id].id == id, \"TWEET DOES NOT EXIST\") */\n      tag_88\n      jumpi\n      mload(0x40)\n      0x08c379a000000000000000000000000000000000000000000000000000000000\n      dup2\n      mstore\n      0x04\n      add\n      tag_89\n      swap1\n      tag_90\n      jump\t// in\n    tag_89:\n      mload(0x40)\n      dup1\n      swap2\n      sub\n      swap1\n      revert\n    tag_88:\n        /* \"ultimate-solidity-course-for-complete-beginners-main/Exercises/26-Twitter-Inheritance-Exercise.sol\":2522:2523  0 */\n      0x00\n        /* \"ultimate-solidity-course-for-complete-beginners-main/Exercises/26-Twitter-Inheritance-Exercise.sol\":2495:2501  tweets */\n      0x01\n        /* \"ultimate-solidity-course-for-complete-beginners-main/Exercises/26-Twitter-Inheritance-Exercise.sol\":2495:2509  tweets[author] */\n      0x00\n        /* \"ultimate-solidity-course-for-complete-beginners-main/Exercises/26-Twitter-Inheritance-Exercise.sol\":2502:2508  author */\n      dup5\n        /* \"ultimate-solidity-course-for-complete-beginners-main/Exercises/26-Twitter-Inheritance-Exercise.sol\":2495:2509  tweets[author] */\n      0xffffffffffffffffffffffffffffffffffffffff\n      and\n      0xffffffffffffffffffffffffffffffffffffffff\n      and\n      dup2\n      mstore\n      0x20\n      add\n      swap1\n      dup2\n      mstore\n      0x20\n      add\n      0x00\n      keccak256\n        /* \"ultimate-solidity-course-for-complete-beginners-main/Exercises/26-Twitter-Inheritance-Exercise.sol\":2510:2512  id */\n      dup3\n        /* \"ultimate-solidity-course-for-complete-beginners-main/Exercises/26-Twitter-Inheritance-Exercise.sol\":2495:2513  tweets[author][id] */\n      dup2\n      sload\n      dup2\n      lt\n      tag_91\n      jumpi\n      tag_92\n      tag_86\n      jump\t// in\n    tag_92:\n    tag_91:\n      swap1\n      0x00\n      mstore\n      keccak256(0x00, 0x20)\n      swap1\n      0x05\n      mul\n      add\n        /* \"ultimate-solidity-course-for-complete-beginners-main/Exercises/26-Twitter-Inheritance-Exercise.sol\":2495:2519  tweets[author][id].likes */\n      0x04\n      add\n      sload\n        /* \"ultimate-solidity-course-for-complete-beginners-main/Exercises/26-Twitter-Inheritance-Exercise.sol\":2495:2523  tweets[author][id].likes > 0 */\n      gt\n        /* \"ultimate-solidity-course-for-complete-beginners-main/Exercises/26-Twitter-Inheritance-Exercise.sol\":2487:2546  require(tweets[author][id].likes > 0, \"TWEET HAS NO LIKES\") */\n      tag_94\n      jumpi\n      mload(0x40)\n      0x08c379a000000000000000000000000000000000000000000000000000000000\n      dup2\n      mstore\n      0x04\n      add\n      tag_95\n      swap1\n      tag_96\n      jump\t// in\n    tag_95:\n      mload(0x40)\n      dup1\n      swap2\n      sub\n      swap1\n      revert\n    tag_94:\n        /* \"ultimate-solidity-course-for-complete-beginners-main/Exercises/26-Twitter-Inheritance-Exercise.sol\":2565:2571  tweets */\n      0x01\n        /* \"ultimate-solidity-course-for-complete-beginners-main/Exercises/26-Twitter-Inheritance-Exercise.sol\":2565:2579  tweets[author] */\n      0x00\n        /* \"ultimate-solidity-course-for-complete-beginners-main/Exercises/26-Twitter-Inheritance-Exercise.sol\":2572:2578  author */\n      dup4\n        /* \"ultimate-solidity-course-for-complete-beginners-main/Exercises/26-Twitter-Inheritance-Exercise.sol\":2565:2579  tweets[author] */\n      0xffffffffffffffffffffffffffffffffffffffff\n      and\n      0xffffffffffffffffffffffffffffffffffffffff\n      and\n      dup2\n      mstore\n      0x20\n      add\n      swap1\n      dup2\n      mstore\n      0x20\n      add\n      0x00\n      keccak256\n        /* \"ultimate-solidity-course-for-complete-beginners-main/Exercises/26-Twitter-Inheritance-Exercise.sol\":2580:2582  id */\n      dup2\n        /* \"ultimate-solidity-course-for-complete-beginners-main/Exercises/26-Twitter-Inheritance-Exercise.sol\":2565:2583  tweets[author][id] */\n      dup2\n      sload\n      dup2\n      lt\n      tag_97\n      jumpi\n      tag_98\n      tag_86\n      jump\t// in\n    tag_98:\n    tag_97:\n      swap1\n      0x00\n      mstore\n      keccak256(0x00, 0x20)\n      swap1\n      0x05\n      mul\n      add\n        /* \"ultimate-solidity-course-for-complete-beginners-main/Exercises/26-Twitter-Inheritance-Exercise.sol\":2565:2589  tweets[author][id].likes */\n      0x04\n      add\n      0x00\n        /* \"ultimate-solidity-course-for-complete-beginners-main/Exercises/26-Twitter-Inheritance-Exercise.sol\":2565:2591  tweets[author][id].likes-- */\n      dup2\n      sload\n      dup1\n      swap3\n      swap2\n      swap1\n      tag_100\n      swap1\n      tag_101\n      jump\t// in\n    tag_100:\n      swap2\n      swap1\n      pop\n      sstore\n      pop\n        /* \"ultimate-solidity-course-for-complete-beginners-main/Exercises/26-Twitter-Inheritance-Exercise.sol\":2607:2670  TweetUnliked(msg.sender, author, id, tweets[author][id].likes ) */\n      0x762c2616349603ac16eba0de8e6141b79129a07ab63bd99e0a80b3a471716943\n        /* \"ultimate-solidity-course-for-complete-beginners-main/Exercises/26-Twitter-Inheritance-Exercise.sol\":2620:2630  msg.sender */\n      caller\n        /* \"ultimate-solidity-course-for-complete-beginners-main/Exercises/26-Twitter-Inheritance-Exercise.sol\":2632:2638  author */\n      dup4\n        /* \"ultimate-solidity-course-for-complete-beginners-main/Exercises/26-Twitter-Inheritance-Exercise.sol\":2640:2642  id */\n      dup4\n        /* \"ultimate-solidity-course-for-complete-beginners-main/Exercises/26-Twitter-Inheritance-Exercise.sol\":2644:2650  tweets */\n      0x01\n        /* \"ultimate-solidity-course-for-complete-beginners-main/Exercises/26-Twitter-Inheritance-Exercise.sol\":2644:2658  tweets[author] */\n      0x00\n        /* \"ultimate-solidity-course-for-complete-beginners-main/Exercises/26-Twitter-Inheritance-Exercise.sol\":2651:2657  author */\n      dup8\n        /* \"ultimate-solidity-course-for-complete-beginners-main/Exercises/26-Twitter-Inheritance-Exercise.sol\":2644:2658  tweets[author] */\n      0xffffffffffffffffffffffffffffffffffffffff\n      and\n      0xffffffffffffffffffffffffffffffffffffffff\n      and\n      dup2\n      mstore\n      0x20\n      add\n      swap1\n      dup2\n      mstore\n      0x20\n      add\n      0x00\n      keccak256\n        /* \"ultimate-solidity-course-for-complete-beginners-main/Exercises/26-Twitter-Inheritance-Exercise.sol\":2659:2661  id */\n      dup6\n        /* \"ultimate-solidity-course-for-complete-beginners-main/Exercises/26-Twitter-Inheritance-Exercise.sol\":2644:2662  tweets[author][id] */\n      dup2\n      sload\n      dup2\n      lt\n      tag_102\n      jumpi\n      tag_103\n      tag_86\n      jump\t// in\n    tag_103:\n    tag_102:\n      swap1\n      0x00\n      mstore\n      keccak256(0x00, 0x20)\n      swap1\n      0x05\n      mul\n      add\n        /* \"ultimate-solidity-course-for-complete-beginners-main/Exercises/26-Twitter-Inheritance-Exercise.sol\":2644:2668  tweets[author][id].likes */\n      0x04\n      add\n      sload\n        /* \"ultimate-solidity-course-for-complete-beginners-main/Exercises/26-Twitter-Inheritance-Exercise.sol\":2607:2670  TweetUnliked(msg.sender, author, id, tweets[author][id].likes ) */\n      mload(0x40)\n      tag_105\n      swap5\n      swap4\n      swap3\n      swap2\n      swap1\n      tag_106\n      jump\t// in\n    tag_105:\n      mload(0x40)\n      dup1\n      swap2\n      sub\n      swap1\n      log1\n        /* \"ultimate-solidity-course-for-complete-beginners-main/Exercises/26-Twitter-Inheritance-Exercise.sol\":2349:2677  function unlikeTweet(address author, uint256 id) external {... */\n      pop\n      pop\n      jump\t// out\n        /* \"ultimate-solidity-course-for-complete-beginners-main/Exercises/26-Twitter-Inheritance-Exercise.sol\":1133:1250  function changeTweetLength(uint16 newTweetLength) public onlyOwner {... */\n    tag_34:\n        /* \"openzeppelin/contracts/access/Ownable.sol\":1094:1107  _checkOwner() */\n      tag_108\n        /* \"openzeppelin/contracts/access/Ownable.sol\":1094:1105  _checkOwner */\n      tag_109\n        /* \"openzeppelin/contracts/access/Ownable.sol\":1094:1107  _checkOwner() */\n      jump\t// in\n    tag_108:\n        /* \"ultimate-solidity-course-for-complete-beginners-main/Exercises/26-Twitter-Inheritance-Exercise.sol\":1229:1243  newTweetLength */\n      dup1\n        /* \"ultimate-solidity-course-for-complete-beginners-main/Exercises/26-Twitter-Inheritance-Exercise.sol\":1210:1226  MAX_TWEET_LENGTH */\n      0x00\n      0x14\n        /* \"ultimate-solidity-course-for-complete-beginners-main/Exercises/26-Twitter-Inheritance-Exercise.sol\":1210:1243  MAX_TWEET_LENGTH = newTweetLength */\n      0x0100\n      exp\n      dup2\n      sload\n      dup2\n      0xffff\n      mul\n      not\n      and\n      swap1\n      dup4\n      0xffff\n      and\n      mul\n      or\n      swap1\n      sstore\n      pop\n        /* \"ultimate-solidity-course-for-complete-beginners-main/Exercises/26-Twitter-Inheritance-Exercise.sol\":1133:1250  function changeTweetLength(uint16 newTweetLength) public onlyOwner {... */\n      pop\n      jump\t// out\n        /* \"ultimate-solidity-course-for-complete-beginners-main/Exercises/26-Twitter-Inheritance-Exercise.sol\":2058:2343  function likeTweet(address author, uint256 id) external {  ... */\n    tag_37:\n        /* \"ultimate-solidity-course-for-complete-beginners-main/Exercises/26-Twitter-Inheritance-Exercise.sol\":2159:2161  id */\n      dup1\n        /* \"ultimate-solidity-course-for-complete-beginners-main/Exercises/26-Twitter-Inheritance-Exercise.sol\":2134:2140  tweets */\n      0x01\n        /* \"ultimate-solidity-course-for-complete-beginners-main/Exercises/26-Twitter-Inheritance-Exercise.sol\":2134:2148  tweets[author] */\n      0x00\n        /* \"ultimate-solidity-course-for-complete-beginners-main/Exercises/26-Twitter-Inheritance-Exercise.sol\":2141:2147  author */\n      dup5\n        /* \"ultimate-solidity-course-for-complete-beginners-main/Exercises/26-Twitter-Inheritance-Exercise.sol\":2134:2148  tweets[author] */\n      0xffffffffffffffffffffffffffffffffffffffff\n      and\n      0xffffffffffffffffffffffffffffffffffffffff\n      and\n      dup2\n      mstore\n      0x20\n      add\n      swap1\n      dup2\n      mstore\n      0x20\n      add\n      0x00\n      keccak256\n        /* \"ultimate-solidity-course-for-complete-beginners-main/Exercises/26-Twitter-Inheritance-Exercise.sol\":2149:2151  id */\n      dup3\n        /* \"ultimate-solidity-course-for-complete-beginners-main/Exercises/26-Twitter-Inheritance-Exercise.sol\":2134:2152  tweets[author][id] */\n      dup2\n      sload\n      dup2\n      lt\n      tag_112\n      jumpi\n      tag_113\n      tag_86\n      jump\t// in\n    tag_113:\n    tag_112:\n      swap1\n      0x00\n      mstore\n      keccak256(0x00, 0x20)\n      swap1\n      0x05\n      mul\n      add\n        /* \"ultimate-solidity-course-for-complete-beginners-main/Exercises/26-Twitter-Inheritance-Exercise.sol\":2134:2155  tweets[author][id].id */\n      0x00\n      add\n      sload\n        /* \"ultimate-solidity-course-for-complete-beginners-main/Exercises/26-Twitter-Inheritance-Exercise.sol\":2134:2161  tweets[author][id].id == id */\n      eq\n        /* \"ultimate-solidity-course-for-complete-beginners-main/Exercises/26-Twitter-Inheritance-Exercise.sol\":2126:2186  require(tweets[author][id].id == id, \"TWEET DOES NOT EXIST\") */\n      tag_115\n      jumpi\n      mload(0x40)\n      0x08c379a000000000000000000000000000000000000000000000000000000000\n      dup2\n      mstore\n      0x04\n      add\n      tag_116\n      swap1\n      tag_90\n      jump\t// in\n    tag_116:\n      mload(0x40)\n      dup1\n      swap2\n      sub\n      swap1\n      revert\n    tag_115:\n        /* \"ultimate-solidity-course-for-complete-beginners-main/Exercises/26-Twitter-Inheritance-Exercise.sol\":2197:2203  tweets */\n      0x01\n        /* \"ultimate-solidity-course-for-complete-beginners-main/Exercises/26-Twitter-Inheritance-Exercise.sol\":2197:2211  tweets[author] */\n      0x00\n        /* \"ultimate-solidity-course-for-complete-beginners-main/Exercises/26-Twitter-Inheritance-Exercise.sol\":2204:2210  author */\n      dup4\n        /* \"ultimate-solidity-course-for-complete-beginners-main/Exercises/26-Twitter-Inheritance-Exercise.sol\":2197:2211  tweets[author] */\n      0xffffffffffffffffffffffffffffffffffffffff\n      and\n      0xffffffffffffffffffffffffffffffffffffffff\n      and\n      dup2\n      mstore\n      0x20\n      add\n      swap1\n      dup2\n      mstore\n      0x20\n      add\n      0x00\n      keccak256\n        /* \"ultimate-solidity-course-for-complete-beginners-main/Exercises/26-Twitter-Inheritance-Exercise.sol\":2212:2214  id */\n      dup2\n        /* \"ultimate-solidity-course-for-complete-beginners-main/Exercises/26-Twitter-Inheritance-Exercise.sol\":2197:2215  tweets[author][id] */\n      dup2\n      sload\n      dup2\n      lt\n      tag_117\n      jumpi\n      tag_118\n      tag_86\n      jump\t// in\n    tag_118:\n    tag_117:\n      swap1\n      0x00\n      mstore\n      keccak256(0x00, 0x20)\n      swap1\n      0x05\n      mul\n      add\n        /* \"ultimate-solidity-course-for-complete-beginners-main/Exercises/26-Twitter-Inheritance-Exercise.sol\":2197:2221  tweets[author][id].likes */\n      0x04\n      add\n      0x00\n        /* \"ultimate-solidity-course-for-complete-beginners-main/Exercises/26-Twitter-Inheritance-Exercise.sol\":2197:2223  tweets[author][id].likes++ */\n      dup2\n      sload\n      dup1\n      swap3\n      swap2\n      swap1\n      tag_120\n      swap1\n      tag_121\n      jump\t// in\n    tag_120:\n      swap2\n      swap1\n      pop\n      sstore\n      pop\n        /* \"ultimate-solidity-course-for-complete-beginners-main/Exercises/26-Twitter-Inheritance-Exercise.sol\":2276:2336  TweetLiked(msg.sender, author, id, tweets[author][id].likes) */\n      0xe8a76fc0f16d11a00d1e93b689b63d76cf60af914dd3d915375dc41d01a0c3c8\n        /* \"ultimate-solidity-course-for-complete-beginners-main/Exercises/26-Twitter-Inheritance-Exercise.sol\":2287:2297  msg.sender */\n      caller\n        /* \"ultimate-solidity-course-for-complete-beginners-main/Exercises/26-Twitter-Inheritance-Exercise.sol\":2299:2305  author */\n      dup4\n        /* \"ultimate-solidity-course-for-complete-beginners-main/Exercises/26-Twitter-Inheritance-Exercise.sol\":2307:2309  id */\n      dup4\n        /* \"ultimate-solidity-course-for-complete-beginners-main/Exercises/26-Twitter-Inheritance-Exercise.sol\":2311:2317  tweets */\n      0x01\n        /* \"ultimate-solidity-course-for-complete-beginners-main/Exercises/26-Twitter-Inheritance-Exercise.sol\":2311:2325  tweets[author] */\n      0x00\n        /* \"ultimate-solidity-course-for-complete-beginners-main/Exercises/26-Twitter-Inheritance-Exercise.sol\":2318:2324  author */\n      dup8\n        /* \"ultimate-solidity-course-for-complete-beginners-main/Exercises/26-Twitter-Inheritance-Exercise.sol\":2311:2325  tweets[author] */\n      0xffffffffffffffffffffffffffffffffffffffff\n      and\n      0xffffffffffffffffffffffffffffffffffffffff\n      and\n      dup2\n      mstore\n      0x20\n      add\n      swap1\n      dup2\n      mstore\n      0x20\n      add\n      0x00\n      keccak256\n        /* \"ultimate-solidity-course-for-complete-beginners-main/Exercises/26-Twitter-Inheritance-Exercise.sol\":2326:2328  id */\n      dup6\n        /* \"ultimate-solidity-course-for-complete-beginners-main/Exercises/26-Twitter-Inheritance-Exercise.sol\":2311:2329  tweets[author][id] */\n      dup2\n      sload\n      dup2\n      lt\n      tag_122\n      jumpi\n      tag_123\n      tag_86\n      jump\t// in\n    tag_123:\n    tag_122:\n      swap1\n      0x00\n      mstore\n      keccak256(0x00, 0x20)\n      swap1\n      0x05\n      mul\n      add\n        /* \"ultimate-solidity-course-for-complete-beginners-main/Exercises/26-Twitter-Inheritance-Exercise.sol\":2311:2335  tweets[author][id].likes */\n      0x04\n      add\n      sload\n        /* \"ultimate-solidity-course-for-complete-beginners-main/Exercises/26-Twitter-Inheritance-Exercise.sol\":2276:2336  TweetLiked(msg.sender, author, id, tweets[author][id].likes) */\n      mload(0x40)\n      tag_125\n      swap5\n      swap4\n      swap3\n      swap2\n      swap1\n      tag_106\n      jump\t// in\n    tag_125:\n      mload(0x40)\n      dup1\n      swap2\n      sub\n      swap1\n      log1\n        /* \"ultimate-solidity-course-for-complete-beginners-main/Exercises/26-Twitter-Inheritance-Exercise.sol\":2058:2343  function likeTweet(address author, uint256 id) external {  ... */\n      pop\n      pop\n      jump\t// out\n        /* \"ultimate-solidity-course-for-complete-beginners-main/Exercises/26-Twitter-Inheritance-Exercise.sol\":275:311  uint16 public MAX_TWEET_LENGTH = 280 */\n    tag_39:\n      0x00\n      0x14\n      swap1\n      sload\n      swap1\n      0x0100\n      exp\n      swap1\n      div\n      0xffff\n      and\n      dup2\n      jump\t// out\n        /* \"openzeppelin/contracts/access/Ownable.sol\":1831:1932  function renounceOwnership() public virtual onlyOwner {... */\n    tag_43:\n        /* \"openzeppelin/contracts/access/Ownable.sol\":1094:1107  _checkOwner() */\n      tag_127\n        /* \"openzeppelin/contracts/access/Ownable.sol\":1094:1105  _checkOwner */\n      tag_109\n        /* \"openzeppelin/contracts/access/Ownable.sol\":1094:1107  _checkOwner() */\n      jump\t// in\n    tag_127:\n        /* \"openzeppelin/contracts/access/Ownable.sol\":1895:1925  _transferOwnership(address(0)) */\n      tag_129\n        /* \"openzeppelin/contracts/access/Ownable.sol\":1922:1923  0 */\n      0x00\n        /* \"openzeppelin/contracts/access/Ownable.sol\":1895:1913  _transferOwnership */\n      tag_130\n        /* \"openzeppelin/contracts/access/Ownable.sol\":1895:1925  _transferOwnership(address(0)) */\n      jump\t// in\n    tag_129:\n        /* \"openzeppelin/contracts/access/Ownable.sol\":1831:1932  function renounceOwnership() public virtual onlyOwner {... */\n      jump\t// out\n        /* \"ultimate-solidity-course-for-complete-beginners-main/Exercises/26-Twitter-Inheritance-Exercise.sol\":1512:2052  function createTweet(string memory _tweet) public {... */\n    tag_47:\n        /* \"ultimate-solidity-course-for-complete-beginners-main/Exercises/26-Twitter-Inheritance-Exercise.sol\":1604:1620  MAX_TWEET_LENGTH */\n      0x00\n      0x14\n      swap1\n      sload\n      swap1\n      0x0100\n      exp\n      swap1\n      div\n      0xffff\n      and\n        /* \"ultimate-solidity-course-for-complete-beginners-main/Exercises/26-Twitter-Inheritance-Exercise.sol\":1580:1620  bytes(_tweet).length <= MAX_TWEET_LENGTH */\n      0xffff\n      and\n        /* \"ultimate-solidity-course-for-complete-beginners-main/Exercises/26-Twitter-Inheritance-Exercise.sol\":1586:1592  _tweet */\n      dup2\n        /* \"ultimate-solidity-course-for-complete-beginners-main/Exercises/26-Twitter-Inheritance-Exercise.sol\":1580:1600  bytes(_tweet).length */\n      mload\n        /* \"ultimate-solidity-course-for-complete-beginners-main/Exercises/26-Twitter-Inheritance-Exercise.sol\":1580:1620  bytes(_tweet).length <= MAX_TWEET_LENGTH */\n      gt\n      iszero\n        /* \"ultimate-solidity-course-for-complete-beginners-main/Exercises/26-Twitter-Inheritance-Exercise.sol\":1572:1648  require(bytes(_tweet).length <= MAX_TWEET_LENGTH, \"Tweet is too long bro!\" ) */\n      tag_132\n      jumpi\n      mload(0x40)\n      0x08c379a000000000000000000000000000000000000000000000000000000000\n      dup2\n      mstore\n      0x04\n      add\n      tag_133\n      swap1\n      tag_134\n      jump\t// in\n    tag_133:\n      mload(0x40)\n      dup1\n      swap2\n      sub\n      swap1\n      revert\n    tag_132:\n        /* \"ultimate-solidity-course-for-complete-beginners-main/Exercises/26-Twitter-Inheritance-Exercise.sol\":1659:1680  Tweet memory newTweet */\n      0x00\n        /* \"ultimate-solidity-course-for-complete-beginners-main/Exercises/26-Twitter-Inheritance-Exercise.sol\":1683:1866  Tweet({... */\n      mload(0x40)\n      dup1\n      0xa0\n      add\n      0x40\n      mstore\n      dup1\n        /* \"ultimate-solidity-course-for-complete-beginners-main/Exercises/26-Twitter-Inheritance-Exercise.sol\":1707:1713  tweets */\n      0x01\n        /* \"ultimate-solidity-course-for-complete-beginners-main/Exercises/26-Twitter-Inheritance-Exercise.sol\":1707:1725  tweets[msg.sender] */\n      0x00\n        /* \"ultimate-solidity-course-for-complete-beginners-main/Exercises/26-Twitter-Inheritance-Exercise.sol\":1714:1724  msg.sender */\n      caller\n        /* \"ultimate-solidity-course-for-complete-beginners-main/Exercises/26-Twitter-Inheritance-Exercise.sol\":1707:1725  tweets[msg.sender] */\n      0xffffffffffffffffffffffffffffffffffffffff\n      and\n      0xffffffffffffffffffffffffffffffffffffffff\n      and\n      dup2\n      mstore\n      0x20\n      add\n      swap1\n      dup2\n      mstore\n      0x20\n      add\n      0x00\n      keccak256\n        /* \"ultimate-solidity-course-for-complete-beginners-main/Exercises/26-Twitter-Inheritance-Exercise.sol\":1707:1732  tweets[msg.sender].length */\n      dup1\n      sload\n      swap1\n      pop\n        /* \"ultimate-solidity-course-for-complete-beginners-main/Exercises/26-Twitter-Inheritance-Exercise.sol\":1683:1866  Tweet({... */\n      dup2\n      mstore\n      0x20\n      add\n        /* \"ultimate-solidity-course-for-complete-beginners-main/Exercises/26-Twitter-Inheritance-Exercise.sol\":1754:1764  msg.sender */\n      caller\n        /* \"ultimate-solidity-course-for-complete-beginners-main/Exercises/26-Twitter-Inheritance-Exercise.sol\":1683:1866  Tweet({... */\n      0xffffffffffffffffffffffffffffffffffffffff\n      and\n      dup2\n      mstore\n      0x20\n      add\n        /* \"ultimate-solidity-course-for-complete-beginners-main/Exercises/26-Twitter-Inheritance-Exercise.sol\":1787:1793  _tweet */\n      dup4\n        /* \"ultimate-solidity-course-for-complete-beginners-main/Exercises/26-Twitter-Inheritance-Exercise.sol\":1683:1866  Tweet({... */\n      dup2\n      mstore\n      0x20\n      add\n        /* \"ultimate-solidity-course-for-complete-beginners-main/Exercises/26-Twitter-Inheritance-Exercise.sol\":1818:1833  block.timestamp */\n      timestamp\n        /* \"ultimate-solidity-course-for-complete-beginners-main/Exercises/26-Twitter-Inheritance-Exercise.sol\":1683:1866  Tweet({... */\n      dup2\n      mstore\n      0x20\n      add\n        /* \"ultimate-solidity-course-for-complete-beginners-main/Exercises/26-Twitter-Inheritance-Exercise.sol\":1854:1855  0 */\n      0x00\n        /* \"ultimate-solidity-course-for-complete-beginners-main/Exercises/26-Twitter-Inheritance-Exercise.sol\":1683:1866  Tweet({... */\n      dup2\n      mstore\n      pop\n        /* \"ultimate-solidity-course-for-complete-beginners-main/Exercises/26-Twitter-Inheritance-Exercise.sol\":1659:1866  Tweet memory newTweet = Tweet({... */\n      swap1\n      pop\n        /* \"ultimate-solidity-course-for-complete-beginners-main/Exercises/26-Twitter-Inheritance-Exercise.sol\":1877:1883  tweets */\n      0x01\n        /* \"ultimate-solidity-course-for-complete-beginners-main/Exercises/26-Twitter-Inheritance-Exercise.sol\":1877:1895  tweets[msg.sender] */\n      0x00\n        /* \"ultimate-solidity-course-for-complete-beginners-main/Exercises/26-Twitter-Inheritance-Exercise.sol\":1884:1894  msg.sender */\n      caller\n        /* \"ultimate-solidity-course-for-complete-beginners-main/Exercises/26-Twitter-Inheritance-Exercise.sol\":1877:1895  tweets[msg.sender] */\n      0xffffffffffffffffffffffffffffffffffffffff\n      and\n      0xffffffffffffffffffffffffffffffffffffffff\n      and\n      dup2\n      mstore\n      0x20\n      add\n      swap1\n      dup2\n      mstore\n      0x20\n      add\n      0x00\n      keccak256\n        /* \"ultimate-solidity-course-for-complete-beginners-main/Exercises/26-Twitter-Inheritance-Exercise.sol\":1901:1909  newTweet */\n      dup2\n        /* \"ultimate-solidity-course-for-complete-beginners-main/Exercises/26-Twitter-Inheritance-Exercise.sol\":1877:1910  tweets[msg.sender].push(newTweet) */\n      swap1\n      dup1\n      0x01\n      dup2\n      sload\n      add\n      dup1\n      dup3\n      sstore\n      dup1\n      swap2\n      pop\n      pop\n      0x01\n      swap1\n      sub\n      swap1\n      0x00\n      mstore\n      keccak256(0x00, 0x20)\n      swap1\n      0x05\n      mul\n      add\n      0x00\n      swap1\n      swap2\n      swap1\n      swap2\n      swap1\n      swap2\n      pop\n      0x00\n      dup3\n      add\n      mload\n      dup2\n      0x00\n      add\n      sstore\n      0x20\n      dup3\n      add\n      mload\n      dup2\n      0x01\n      add\n      exp(0x0100, 0x00)\n      dup2\n      sload\n      dup2\n      0xffffffffffffffffffffffffffffffffffffffff\n      mul\n      not\n      and\n      swap1\n      dup4\n      0xffffffffffffffffffffffffffffffffffffffff\n      and\n      mul\n      or\n      swap1\n      sstore\n      pop\n      0x40\n      dup3\n      add\n      mload\n      dup2\n      0x02\n      add\n      swap1\n      dup2\n      tag_136\n      swap2\n      swap1\n      tag_137\n      jump\t// in\n    tag_136:\n      pop\n      0x60\n      dup3\n      add\n      mload\n      dup2\n      0x03\n      add\n      sstore\n      0x80\n      dup3\n      add\n      mload\n      dup2\n      0x04\n      add\n      sstore\n      pop\n      pop\n        /* \"ultimate-solidity-course-for-complete-beginners-main/Exercises/26-Twitter-Inheritance-Exercise.sol\":1965:2045  TweetCreated(newTweet.id, newTweet.author, newTweet.content, newTweet.timestamp) */\n      0x16fd3c13e9d46923e0a8bce11c7b473ec508a72e6c96cd2404b29ce972afc29e\n        /* \"ultimate-solidity-course-for-complete-beginners-main/Exercises/26-Twitter-Inheritance-Exercise.sol\":1978:1986  newTweet */\n      dup2\n        /* \"ultimate-solidity-course-for-complete-beginners-main/Exercises/26-Twitter-Inheritance-Exercise.sol\":1978:1989  newTweet.id */\n      0x00\n      add\n      mload\n        /* \"ultimate-solidity-course-for-complete-beginners-main/Exercises/26-Twitter-Inheritance-Exercise.sol\":1991:1999  newTweet */\n      dup3\n        /* \"ultimate-solidity-course-for-complete-beginners-main/Exercises/26-Twitter-Inheritance-Exercise.sol\":1991:2006  newTweet.author */\n      0x20\n      add\n      mload\n        /* \"ultimate-solidity-course-for-complete-beginners-main/Exercises/26-Twitter-Inheritance-Exercise.sol\":2008:2016  newTweet */\n      dup4\n        /* \"ultimate-solidity-course-for-complete-beginners-main/Exercises/26-Twitter-Inheritance-Exercise.sol\":2008:2024  newTweet.content */\n      0x40\n      add\n      mload\n        /* \"ultimate-solidity-course-for-complete-beginners-main/Exercises/26-Twitter-Inheritance-Exercise.sol\":2026:2034  newTweet */\n      dup5\n        /* \"ultimate-solidity-course-for-complete-beginners-main/Exercises/26-Twitter-Inheritance-Exercise.sol\":2026:2044  newTweet.timestamp */\n      0x60\n      add\n      mload\n        /* \"ultimate-solidity-course-for-complete-beginners-main/Exercises/26-Twitter-Inheritance-Exercise.sol\":1965:2045  TweetCreated(newTweet.id, newTweet.author, newTweet.content, newTweet.timestamp) */\n      mload(0x40)\n      tag_138\n      swap5\n      swap4\n      swap3\n      swap2\n      swap1\n      tag_139\n      jump\t// in\n    tag_138:\n      mload(0x40)\n      dup1\n      swap2\n      sub\n      swap1\n      log1\n        /* \"ultimate-solidity-course-for-complete-beginners-main/Exercises/26-Twitter-Inheritance-Exercise.sol\":1562:2052  {... */\n      pop\n        /* \"ultimate-solidity-course-for-complete-beginners-main/Exercises/26-Twitter-Inheritance-Exercise.sol\":1512:2052  function createTweet(string memory _tweet) public {... */\n      pop\n      jump\t// out\n        /* \"ultimate-solidity-course-for-complete-beginners-main/Exercises/26-Twitter-Inheritance-Exercise.sol\":1256:1506  function getTotalLikes(address _author) external view returns(uint) {... */\n    tag_50:\n        /* \"ultimate-solidity-course-for-complete-beginners-main/Exercises/26-Twitter-Inheritance-Exercise.sol\":1318:1322  uint */\n      0x00\n        /* \"ultimate-solidity-course-for-complete-beginners-main/Exercises/26-Twitter-Inheritance-Exercise.sol\":1334:1349  uint totalLikes */\n      0x00\n        /* \"ultimate-solidity-course-for-complete-beginners-main/Exercises/26-Twitter-Inheritance-Exercise.sol\":1365:1371  uint i */\n      0x00\n        /* \"ultimate-solidity-course-for-complete-beginners-main/Exercises/26-Twitter-Inheritance-Exercise.sol\":1374:1375  0 */\n      0x00\n        /* \"ultimate-solidity-course-for-complete-beginners-main/Exercises/26-Twitter-Inheritance-Exercise.sol\":1365:1375  uint i = 0 */\n      swap1\n      pop\n        /* \"ultimate-solidity-course-for-complete-beginners-main/Exercises/26-Twitter-Inheritance-Exercise.sol\":1360:1472  for( uint i = 0; i < tweets[_author].length; i++){... */\n    tag_141:\n        /* \"ultimate-solidity-course-for-complete-beginners-main/Exercises/26-Twitter-Inheritance-Exercise.sol\":1381:1387  tweets */\n      0x01\n        /* \"ultimate-solidity-course-for-complete-beginners-main/Exercises/26-Twitter-Inheritance-Exercise.sol\":1381:1396  tweets[_author] */\n      0x00\n        /* \"ultimate-solidity-course-for-complete-beginners-main/Exercises/26-Twitter-Inheritance-Exercise.sol\":1388:1395  _author */\n      dup6\n        /* \"ultimate-solidity-course-for-complete-beginners-main/Exercises/26-Twitter-Inheritance-Exercise.sol\":1381:1396  tweets[_author] */\n      0xffffffffffffffffffffffffffffffffffffffff\n      and\n      0xffffffffffffffffffffffffffffffffffffffff\n      and\n      dup2\n      mstore\n      0x20\n      add\n      swap1\n      dup2\n      mstore\n      0x20\n      add\n      0x00\n      keccak256\n        /* \"ultimate-solidity-course-for-complete-beginners-main/Exercises/26-Twitter-Inheritance-Exercise.sol\":1381:1403  tweets[_author].length */\n      dup1\n      sload\n      swap1\n      pop\n        /* \"ultimate-solidity-course-for-complete-beginners-main/Exercises/26-Twitter-Inheritance-Exercise.sol\":1377:1378  i */\n      dup2\n        /* \"ultimate-solidity-course-for-complete-beginners-main/Exercises/26-Twitter-Inheritance-Exercise.sol\":1377:1403  i < tweets[_author].length */\n      lt\n        /* \"ultimate-solidity-course-for-complete-beginners-main/Exercises/26-Twitter-Inheritance-Exercise.sol\":1360:1472  for( uint i = 0; i < tweets[_author].length; i++){... */\n      iszero\n      tag_142\n      jumpi\n        /* \"ultimate-solidity-course-for-complete-beginners-main/Exercises/26-Twitter-Inheritance-Exercise.sol\":1437:1443  tweets */\n      0x01\n        /* \"ultimate-solidity-course-for-complete-beginners-main/Exercises/26-Twitter-Inheritance-Exercise.sol\":1437:1452  tweets[_author] */\n      0x00\n        /* \"ultimate-solidity-course-for-complete-beginners-main/Exercises/26-Twitter-Inheritance-Exercise.sol\":1444:1451  _author */\n      dup6\n        /* \"ultimate-solidity-course-for-complete-beginners-main/Exercises/26-Twitter-Inheritance-Exercise.sol\":1437:1452  tweets[_author] */\n      0xffffffffffffffffffffffffffffffffffffffff\n      and\n      0xffffffffffffffffffffffffffffffffffffffff\n      and\n      dup2\n      mstore\n      0x20\n      add\n      swap1\n      dup2\n      mstore\n      0x20\n      add\n      0x00\n      keccak256\n        /* \"ultimate-solidity-course-for-complete-beginners-main/Exercises/26-Twitter-Inheritance-Exercise.sol\":1453:1454  i */\n      dup2\n        /* \"ultimate-solidity-course-for-complete-beginners-main/Exercises/26-Twitter-Inheritance-Exercise.sol\":1437:1455  tweets[_author][i] */\n      dup2\n      sload\n      dup2\n      lt\n      tag_144\n      jumpi\n      tag_145\n      tag_86\n      jump\t// in\n    tag_145:\n    tag_144:\n      swap1\n      0x00\n      mstore\n      keccak256(0x00, 0x20)\n      swap1\n      0x05\n      mul\n      add\n        /* \"ultimate-solidity-course-for-complete-beginners-main/Exercises/26-Twitter-Inheritance-Exercise.sol\":1437:1461  tweets[_author][i].likes */\n      0x04\n      add\n      sload\n        /* \"ultimate-solidity-course-for-complete-beginners-main/Exercises/26-Twitter-Inheritance-Exercise.sol\":1423:1461  totalLikes += tweets[_author][i].likes */\n      dup3\n      tag_147\n      swap2\n      swap1\n      tag_148\n      jump\t// in\n    tag_147:\n      swap2\n      pop\n        /* \"ultimate-solidity-course-for-complete-beginners-main/Exercises/26-Twitter-Inheritance-Exercise.sol\":1405:1408  i++ */\n      dup1\n      dup1\n      0x01\n      add\n      swap2\n      pop\n      pop\n        /* \"ultimate-solidity-course-for-complete-beginners-main/Exercises/26-Twitter-Inheritance-Exercise.sol\":1360:1472  for( uint i = 0; i < tweets[_author].length; i++){... */\n      jump(tag_141)\n    tag_142:\n      pop\n        /* \"ultimate-solidity-course-for-complete-beginners-main/Exercises/26-Twitter-Inheritance-Exercise.sol\":1489:1499  totalLikes */\n      dup1\n        /* \"ultimate-solidity-course-for-complete-beginners-main/Exercises/26-Twitter-Inheritance-Exercise.sol\":1482:1499  return totalLikes */\n      swap2\n      pop\n      pop\n        /* \"ultimate-solidity-course-for-complete-beginners-main/Exercises/26-Twitter-Inheritance-Exercise.sol\":1256:1506  function getTotalLikes(address _author) external view returns(uint) {... */\n      swap2\n      swap1\n      pop\n      jump\t// out\n        /* \"openzeppelin/contracts/access/Ownable.sol\":1201:1286  function owner() public view virtual returns (address) {... */\n    tag_54:\n        /* \"openzeppelin/contracts/access/Ownable.sol\":1247:1254  address */\n      0x00\n        /* \"openzeppelin/contracts/access/Ownable.sol\":1273:1279  _owner */\n      0x00\n      0x00\n      swap1\n      sload\n      swap1\n      0x0100\n      exp\n      swap1\n      div\n      0xffffffffffffffffffffffffffffffffffffffff\n      and\n        /* \"openzeppelin/contracts/access/Ownable.sol\":1266:1279  return _owner */\n      swap1\n      pop\n        /* \"openzeppelin/contracts/access/Ownable.sol\":1201:1286  function owner() public view virtual returns (address) {... */\n      swap1\n      jump\t// out\n        /* \"ultimate-solidity-course-for-complete-beginners-main/Exercises/26-Twitter-Inheritance-Exercise.sol\":2683:2792  function getTweet( uint _i) public view returns (Tweet memory) {... */\n    tag_60:\n        /* \"ultimate-solidity-course-for-complete-beginners-main/Exercises/26-Twitter-Inheritance-Exercise.sol\":2732:2744  Tweet memory */\n      tag_150\n      tag_151\n      jump\t// in\n    tag_150:\n        /* \"ultimate-solidity-course-for-complete-beginners-main/Exercises/26-Twitter-Inheritance-Exercise.sol\":2763:2769  tweets */\n      0x01\n        /* \"ultimate-solidity-course-for-complete-beginners-main/Exercises/26-Twitter-Inheritance-Exercise.sol\":2763:2781  tweets[msg.sender] */\n      0x00\n        /* \"ultimate-solidity-course-for-complete-beginners-main/Exercises/26-Twitter-Inheritance-Exercise.sol\":2770:2780  msg.sender */\n      caller\n        /* \"ultimate-solidity-course-for-complete-beginners-main/Exercises/26-Twitter-Inheritance-Exercise.sol\":2763:2781  tweets[msg.sender] */\n      0xffffffffffffffffffffffffffffffffffffffff\n      and\n      0xffffffffffffffffffffffffffffffffffffffff\n      and\n      dup2\n      mstore\n      0x20\n      add\n      swap1\n      dup2\n      mstore\n      0x20\n      add\n      0x00\n      keccak256\n        /* \"ultimate-solidity-course-for-complete-beginners-main/Exercises/26-Twitter-Inheritance-Exercise.sol\":2782:2784  _i */\n      dup3\n        /* \"ultimate-solidity-course-for-complete-beginners-main/Exercises/26-Twitter-Inheritance-Exercise.sol\":2763:2785  tweets[msg.sender][_i] */\n      dup2\n      sload\n      dup2\n      lt\n      tag_153\n      jumpi\n      tag_154\n      tag_86\n      jump\t// in\n    tag_154:\n    tag_153:\n      swap1\n      0x00\n      mstore\n      keccak256(0x00, 0x20)\n      swap1\n      0x05\n      mul\n      add\n        /* \"ultimate-solidity-course-for-complete-beginners-main/Exercises/26-Twitter-Inheritance-Exercise.sol\":2756:2785  return tweets[msg.sender][_i] */\n      mload(0x40)\n      dup1\n      0xa0\n      add\n      0x40\n      mstore\n      swap1\n      dup2\n      0x00\n      dup3\n      add\n      sload\n      dup2\n      mstore\n      0x20\n      add\n      0x01\n      dup3\n      add\n      0x00\n      swap1\n      sload\n      swap1\n      0x0100\n      exp\n      swap1\n      div\n      0xffffffffffffffffffffffffffffffffffffffff\n      and\n      0xffffffffffffffffffffffffffffffffffffffff\n      and\n      0xffffffffffffffffffffffffffffffffffffffff\n      and\n      dup2\n      mstore\n      0x20\n      add\n      0x02\n      dup3\n      add\n      dup1\n      sload\n      tag_156\n      swap1\n      tag_69\n      jump\t// in\n    tag_156:\n      dup1\n      0x1f\n      add\n      0x20\n      dup1\n      swap2\n      div\n      mul\n      0x20\n      add\n      mload(0x40)\n      swap1\n      dup2\n      add\n      0x40\n      mstore\n      dup1\n      swap3\n      swap2\n      swap1\n      dup2\n      dup2\n      mstore\n      0x20\n      add\n      dup3\n      dup1\n      sload\n      tag_157\n      swap1\n      tag_69\n      jump\t// in\n    tag_157:\n      dup1\n      iszero\n      tag_158\n      jumpi\n      dup1\n      0x1f\n      lt\n      tag_159\n      jumpi\n      0x0100\n      dup1\n      dup4\n      sload\n      div\n      mul\n      dup4\n      mstore\n      swap2\n      0x20\n      add\n      swap2\n      jump(tag_158)\n    tag_159:\n      dup3\n      add\n      swap2\n      swap1\n      0x00\n      mstore\n      keccak256(0x00, 0x20)\n      swap1\n    tag_160:\n      dup2\n      sload\n      dup2\n      mstore\n      swap1\n      0x01\n      add\n      swap1\n      0x20\n      add\n      dup1\n      dup4\n      gt\n      tag_160\n      jumpi\n      dup3\n      swap1\n      sub\n      0x1f\n      and\n      dup3\n      add\n      swap2\n    tag_158:\n      pop\n      pop\n      pop\n      pop\n      pop\n      dup2\n      mstore\n      0x20\n      add\n      0x03\n      dup3\n      add\n      sload\n      dup2\n      mstore\n      0x20\n      add\n      0x04\n      dup3\n      add\n      sload\n      dup2\n      mstore\n      pop\n      pop\n      swap1\n      pop\n        /* \"ultimate-solidity-course-for-complete-beginners-main/Exercises/26-Twitter-Inheritance-Exercise.sol\":2683:2792  function getTweet( uint _i) public view returns (Tweet memory) {... */\n      swap2\n      swap1\n      pop\n      jump\t// out\n        /* \"openzeppelin/contracts/access/Ownable.sol\":2081:2279  function transferOwnership(address newOwner) public virtual onlyOwner {... */\n    tag_65:\n        /* \"openzeppelin/contracts/access/Ownable.sol\":1094:1107  _checkOwner() */\n      tag_162\n        /* \"openzeppelin/contracts/access/Ownable.sol\":1094:1105  _checkOwner */\n      tag_109\n        /* \"openzeppelin/contracts/access/Ownable.sol\":1094:1107  _checkOwner() */\n      jump\t// in\n    tag_162:\n        /* \"openzeppelin/contracts/access/Ownable.sol\":2189:2190  0 */\n      0x00\n        /* \"openzeppelin/contracts/access/Ownable.sol\":2169:2191  newOwner != address(0) */\n      0xffffffffffffffffffffffffffffffffffffffff\n      and\n        /* \"openzeppelin/contracts/access/Ownable.sol\":2169:2177  newOwner */\n      dup2\n        /* \"openzeppelin/contracts/access/Ownable.sol\":2169:2191  newOwner != address(0) */\n      0xffffffffffffffffffffffffffffffffffffffff\n      and\n      sub\n        /* \"openzeppelin/contracts/access/Ownable.sol\":2161:2234  require(newOwner != address(0), \"Ownable: new owner is the zero address\") */\n      tag_164\n      jumpi\n      mload(0x40)\n      0x08c379a000000000000000000000000000000000000000000000000000000000\n      dup2\n      mstore\n      0x04\n      add\n      tag_165\n      swap1\n      tag_166\n      jump\t// in\n    tag_165:\n      mload(0x40)\n      dup1\n      swap2\n      sub\n      swap1\n      revert\n    tag_164:\n        /* \"openzeppelin/contracts/access/Ownable.sol\":2244:2272  _transferOwnership(newOwner) */\n      tag_167\n        /* \"openzeppelin/contracts/access/Ownable.sol\":2263:2271  newOwner */\n      dup2\n        /* \"openzeppelin/contracts/access/Ownable.sol\":2244:2262  _transferOwnership */\n      tag_130\n        /* \"openzeppelin/contracts/access/Ownable.sol\":2244:2272  _transferOwnership(newOwner) */\n      jump\t// in\n    tag_167:\n        /* \"openzeppelin/contracts/access/Ownable.sol\":2081:2279  function transferOwnership(address newOwner) public virtual onlyOwner {... */\n      pop\n      jump\t// out\n        /* \"openzeppelin/contracts/access/Ownable.sol\":1359:1489  function _checkOwner() internal view virtual {... */\n    tag_109:\n        /* \"openzeppelin/contracts/access/Ownable.sol\":1433:1445  _msgSender() */\n      tag_169\n        /* \"openzeppelin/contracts/access/Ownable.sol\":1433:1443  _msgSender */\n      tag_170\n        /* \"openzeppelin/contracts/access/Ownable.sol\":1433:1445  _msgSender() */\n      jump\t// in\n    tag_169:\n        /* \"openzeppelin/contracts/access/Ownable.sol\":1422:1445  owner() == _msgSender() */\n      0xffffffffffffffffffffffffffffffffffffffff\n      and\n        /* \"openzeppelin/contracts/access/Ownable.sol\":1422:1429  owner() */\n      tag_171\n        /* \"openzeppelin/contracts/access/Ownable.sol\":1422:1427  owner */\n      tag_54\n        /* \"openzeppelin/contracts/access/Ownable.sol\":1422:1429  owner() */\n      jump\t// in\n    tag_171:\n        /* \"openzeppelin/contracts/access/Ownable.sol\":1422:1445  owner() == _msgSender() */\n      0xffffffffffffffffffffffffffffffffffffffff\n      and\n      eq\n        /* \"openzeppelin/contracts/access/Ownable.sol\":1414:1482  require(owner() == _msgSender(), \"Ownable: caller is not the owner\") */\n      tag_172\n      jumpi\n      mload(0x40)\n      0x08c379a000000000000000000000000000000000000000000000000000000000\n      dup2\n      mstore\n      0x04\n      add\n      tag_173\n      swap1\n      tag_174\n      jump\t// in\n    tag_173:\n      mload(0x40)\n      dup1\n      swap2\n      sub\n      swap1\n      revert\n    tag_172:\n        /* \"openzeppelin/contracts/access/Ownable.sol\":1359:1489  function _checkOwner() internal view virtual {... */\n      jump\t// out\n        /* \"openzeppelin/contracts/access/Ownable.sol\":2433:2620  function _transferOwnership(address newOwner) internal virtual {... */\n    tag_130:\n        /* \"openzeppelin/contracts/access/Ownable.sol\":2506:2522  address oldOwner */\n      0x00\n        /* \"openzeppelin/contracts/access/Ownable.sol\":2525:2531  _owner */\n      0x00\n      0x00\n      swap1\n      sload\n      swap1\n      0x0100\n      exp\n      swap1\n      div\n      0xffffffffffffffffffffffffffffffffffffffff\n      and\n        /* \"openzeppelin/contracts/access/Ownable.sol\":2506:2531  address oldOwner = _owner */\n      swap1\n      pop\n        /* \"openzeppelin/contracts/access/Ownable.sol\":2550:2558  newOwner */\n      dup2\n        /* \"openzeppelin/contracts/access/Ownable.sol\":2541:2547  _owner */\n      0x00\n      0x00\n        /* \"openzeppelin/contracts/access/Ownable.sol\":2541:2558  _owner = newOwner */\n      0x0100\n      exp\n      dup2\n      sload\n      dup2\n      0xffffffffffffffffffffffffffffffffffffffff\n      mul\n      not\n      and\n      swap1\n      dup4\n      0xffffffffffffffffffffffffffffffffffffffff\n      and\n      mul\n      or\n      swap1\n      sstore\n      pop\n        /* \"openzeppelin/contracts/access/Ownable.sol\":2604:2612  newOwner */\n      dup2\n        /* \"openzeppelin/contracts/access/Ownable.sol\":2573:2613  OwnershipTransferred(oldOwner, newOwner) */\n      0xffffffffffffffffffffffffffffffffffffffff\n      and\n        /* \"openzeppelin/contracts/access/Ownable.sol\":2594:2602  oldOwner */\n      dup2\n        /* \"openzeppelin/contracts/access/Ownable.sol\":2573:2613  OwnershipTransferred(oldOwner, newOwner) */\n      0xffffffffffffffffffffffffffffffffffffffff\n      and\n      0x8be0079c531659141344cd1fd0a4f28419497f9722a3daafe3b4186f6b6457e0\n      mload(0x40)\n      mload(0x40)\n      dup1\n      swap2\n      sub\n      swap1\n      log3\n        /* \"openzeppelin/contracts/access/Ownable.sol\":2496:2620  {... */\n      pop\n        /* \"openzeppelin/contracts/access/Ownable.sol\":2433:2620  function _transferOwnership(address newOwner) internal virtual {... */\n      pop\n      jump\t// out\n        /* \"openzeppelin/contracts/utils/Context.sol\":640:736  function _msgSender() internal view virtual returns (address) {... */\n    tag_170:\n        /* \"openzeppelin/contracts/utils/Context.sol\":693:700  address */\n      0x00\n        /* \"openzeppelin/contracts/utils/Context.sol\":719:729  msg.sender */\n      caller\n        /* \"openzeppelin/contracts/utils/Context.sol\":712:729  return msg.sender */\n      swap1\n      pop\n        /* \"openzeppelin/contracts/utils/Context.sol\":640:736  function _msgSender() internal view virtual returns (address) {... */\n      swap1\n      jump\t// out\n    tag_151:\n      mload(0x40)\n      dup1\n      0xa0\n      add\n      0x40\n      mstore\n      dup1\n      0x00\n      dup2\n      mstore\n      0x20\n      add\n      and(0xffffffffffffffffffffffffffffffffffffffff, 0x00)\n      dup2\n      mstore\n      0x20\n      add\n      0x60\n      dup2\n      mstore\n      0x20\n      add\n      0x00\n      dup2\n      mstore\n      0x20\n      add\n      0x00\n      dup2\n      mstore\n      pop\n      swap1\n      jump\t// out\n        /* \"#utility.yul\":7:82   */\n    tag_177:\n        /* \"#utility.yul\":40:46   */\n      0x00\n        /* \"#utility.yul\":73:75   */\n      0x40\n        /* \"#utility.yul\":67:76   */\n      mload\n        /* \"#utility.yul\":57:76   */\n      swap1\n      pop\n        /* \"#utility.yul\":7:82   */\n      swap1\n      jump\t// out\n        /* \"#utility.yul\":88:205   */\n    tag_178:\n        /* \"#utility.yul\":197:198   */\n      0x00\n        /* \"#utility.yul\":194:195   */\n      0x00\n        /* \"#utility.yul\":187:199   */\n      revert\n        /* \"#utility.yul\":211:328   */\n    tag_179:\n        /* \"#utility.yul\":320:321   */\n      0x00\n        /* \"#utility.yul\":317:318   */\n      0x00\n        /* \"#utility.yul\":310:322   */\n      revert\n        /* \"#utility.yul\":334:460   */\n    tag_180:\n        /* \"#utility.yul\":371:378   */\n      0x00\n        /* \"#utility.yul\":411:453   */\n      0xffffffffffffffffffffffffffffffffffffffff\n        /* \"#utility.yul\":404:409   */\n      dup3\n        /* \"#utility.yul\":400:454   */\n      and\n        /* \"#utility.yul\":389:454   */\n      swap1\n      pop\n        /* \"#utility.yul\":334:460   */\n      swap2\n      swap1\n      pop\n      jump\t// out\n        /* \"#utility.yul\":466:562   */\n    tag_181:\n        /* \"#utility.yul\":503:510   */\n      0x00\n        /* \"#utility.yul\":532:556   */\n      tag_252\n        /* \"#utility.yul\":550:555   */\n      dup3\n        /* \"#utility.yul\":532:556   */\n      tag_180\n      jump\t// in\n    tag_252:\n        /* \"#utility.yul\":521:556   */\n      swap1\n      pop\n        /* \"#utility.yul\":466:562   */\n      swap2\n      swap1\n      pop\n      jump\t// out\n        /* \"#utility.yul\":568:690   */\n    tag_182:\n        /* \"#utility.yul\":641:665   */\n      tag_254\n        /* \"#utility.yul\":659:664   */\n      dup2\n        /* \"#utility.yul\":641:665   */\n      tag_181\n      jump\t// in\n    tag_254:\n        /* \"#utility.yul\":634:639   */\n      dup2\n        /* \"#utility.yul\":631:666   */\n      eq\n        /* \"#utility.yul\":621:684   */\n      tag_255\n      jumpi\n        /* \"#utility.yul\":680:681   */\n      0x00\n        /* \"#utility.yul\":677:678   */\n      0x00\n        /* \"#utility.yul\":670:682   */\n      revert\n        /* \"#utility.yul\":621:684   */\n    tag_255:\n        /* \"#utility.yul\":568:690   */\n      pop\n      jump\t// out\n        /* \"#utility.yul\":696:835   */\n    tag_183:\n        /* \"#utility.yul\":742:747   */\n      0x00\n        /* \"#utility.yul\":780:786   */\n      dup2\n        /* \"#utility.yul\":767:787   */\n      calldataload\n        /* \"#utility.yul\":758:787   */\n      swap1\n      pop\n        /* \"#utility.yul\":796:829   */\n      tag_257\n        /* \"#utility.yul\":823:828   */\n      dup2\n        /* \"#utility.yul\":796:829   */\n      tag_182\n      jump\t// in\n    tag_257:\n        /* \"#utility.yul\":696:835   */\n      swap3\n      swap2\n      pop\n      pop\n      jump\t// out\n        /* \"#utility.yul\":841:918   */\n    tag_184:\n        /* \"#utility.yul\":878:885   */\n      0x00\n        /* \"#utility.yul\":907:912   */\n      dup2\n        /* \"#utility.yul\":896:912   */\n      swap1\n      pop\n        /* \"#utility.yul\":841:918   */\n      swap2\n      swap1\n      pop\n      jump\t// out\n        /* \"#utility.yul\":924:1046   */\n    tag_185:\n        /* \"#utility.yul\":997:1021   */\n      tag_260\n        /* \"#utility.yul\":1015:1020   */\n      dup2\n        /* \"#utility.yul\":997:1021   */\n      tag_184\n      jump\t// in\n    tag_260:\n        /* \"#utility.yul\":990:995   */\n      dup2\n        /* \"#utility.yul\":987:1022   */\n      eq\n        /* \"#utility.yul\":977:1040   */\n      tag_261\n      jumpi\n        /* \"#utility.yul\":1036:1037   */\n      0x00\n        /* \"#utility.yul\":1033:1034   */\n      0x00\n        /* \"#utility.yul\":1026:1038   */\n      revert\n        /* \"#utility.yul\":977:1040   */\n    tag_261:\n        /* \"#utility.yul\":924:1046   */\n      pop\n      jump\t// out\n        /* \"#utility.yul\":1052:1191   */\n    tag_186:\n        /* \"#utility.yul\":1098:1103   */\n      0x00\n        /* \"#utility.yul\":1136:1142   */\n      dup2\n        /* \"#utility.yul\":1123:1143   */\n      calldataload\n        /* \"#utility.yul\":1114:1143   */\n      swap1\n      pop\n        /* \"#utility.yul\":1152:1185   */\n      tag_263\n        /* \"#utility.yul\":1179:1184   */\n      dup2\n        /* \"#utility.yul\":1152:1185   */\n      tag_185\n      jump\t// in\n    tag_263:\n        /* \"#utility.yul\":1052:1191   */\n      swap3\n      swap2\n      pop\n      pop\n      jump\t// out\n        /* \"#utility.yul\":1197:1671   */\n    tag_18:\n        /* \"#utility.yul\":1265:1271   */\n      0x00\n        /* \"#utility.yul\":1273:1279   */\n      0x00\n        /* \"#utility.yul\":1322:1324   */\n      0x40\n        /* \"#utility.yul\":1310:1319   */\n      dup4\n        /* \"#utility.yul\":1301:1308   */\n      dup6\n        /* \"#utility.yul\":1297:1320   */\n      sub\n        /* \"#utility.yul\":1293:1325   */\n      slt\n        /* \"#utility.yul\":1290:1409   */\n      iszero\n      tag_265\n      jumpi\n        /* \"#utility.yul\":1328:1407   */\n      tag_266\n      tag_178\n      jump\t// in\n    tag_266:\n        /* \"#utility.yul\":1290:1409   */\n    tag_265:\n        /* \"#utility.yul\":1448:1449   */\n      0x00\n        /* \"#utility.yul\":1473:1526   */\n      tag_267\n        /* \"#utility.yul\":1518:1525   */\n      dup6\n        /* \"#utility.yul\":1509:1515   */\n      dup3\n        /* \"#utility.yul\":1498:1507   */\n      dup7\n        /* \"#utility.yul\":1494:1516   */\n      add\n        /* \"#utility.yul\":1473:1526   */\n      tag_183\n      jump\t// in\n    tag_267:\n        /* \"#utility.yul\":1463:1526   */\n      swap3\n      pop\n        /* \"#utility.yul\":1419:1536   */\n      pop\n        /* \"#utility.yul\":1575:1577   */\n      0x20\n        /* \"#utility.yul\":1601:1654   */\n      tag_268\n        /* \"#utility.yul\":1646:1653   */\n      dup6\n        /* \"#utility.yul\":1637:1643   */\n      dup3\n        /* \"#utility.yul\":1626:1635   */\n      dup7\n        /* \"#utility.yul\":1622:1644   */\n      add\n        /* \"#utility.yul\":1601:1654   */\n      tag_186\n      jump\t// in\n    tag_268:\n        /* \"#utility.yul\":1591:1654   */\n      swap2\n      pop\n        /* \"#utility.yul\":1546:1664   */\n      pop\n        /* \"#utility.yul\":1197:1671   */\n      swap3\n      pop\n      swap3\n      swap1\n      pop\n      jump\t// out\n        /* \"#utility.yul\":1677:1795   */\n    tag_187:\n        /* \"#utility.yul\":1764:1788   */\n      tag_270\n        /* \"#utility.yul\":1782:1787   */\n      dup2\n        /* \"#utility.yul\":1764:1788   */\n      tag_184\n      jump\t// in\n    tag_270:\n        /* \"#utility.yul\":1759:1762   */\n      dup3\n        /* \"#utility.yul\":1752:1789   */\n      mstore\n        /* \"#utility.yul\":1677:1795   */\n      pop\n      pop\n      jump\t// out\n        /* \"#utility.yul\":1801:1919   */\n    tag_188:\n        /* \"#utility.yul\":1888:1912   */\n      tag_272\n        /* \"#utility.yul\":1906:1911   */\n      dup2\n        /* \"#utility.yul\":1888:1912   */\n      tag_181\n      jump\t// in\n    tag_272:\n        /* \"#utility.yul\":1883:1886   */\n      dup3\n        /* \"#utility.yul\":1876:1913   */\n      mstore\n        /* \"#utility.yul\":1801:1919   */\n      pop\n      pop\n      jump\t// out\n        /* \"#utility.yul\":1925:2024   */\n    tag_189:\n        /* \"#utility.yul\":1977:1983   */\n      0x00\n        /* \"#utility.yul\":2011:2016   */\n      dup2\n        /* \"#utility.yul\":2005:2017   */\n      mload\n        /* \"#utility.yul\":1995:2017   */\n      swap1\n      pop\n        /* \"#utility.yul\":1925:2024   */\n      swap2\n      swap1\n      pop\n      jump\t// out\n        /* \"#utility.yul\":2030:2199   */\n    tag_190:\n        /* \"#utility.yul\":2114:2125   */\n      0x00\n        /* \"#utility.yul\":2148:2154   */\n      dup3\n        /* \"#utility.yul\":2143:2146   */\n      dup3\n        /* \"#utility.yul\":2136:2155   */\n      mstore\n        /* \"#utility.yul\":2188:2192   */\n      0x20\n        /* \"#utility.yul\":2183:2186   */\n      dup3\n        /* \"#utility.yul\":2179:2193   */\n      add\n        /* \"#utility.yul\":2164:2193   */\n      swap1\n      pop\n        /* \"#utility.yul\":2030:2199   */\n      swap3\n      swap2\n      pop\n      pop\n      jump\t// out\n        /* \"#utility.yul\":2205:2344   */\n    tag_191:\n        /* \"#utility.yul\":2294:2300   */\n      dup3\n        /* \"#utility.yul\":2289:2292   */\n      dup2\n        /* \"#utility.yul\":2284:2287   */\n      dup4\n        /* \"#utility.yul\":2278:2301   */\n      mcopy\n        /* \"#utility.yul\":2335:2336   */\n      0x00\n        /* \"#utility.yul\":2326:2332   */\n      dup4\n        /* \"#utility.yul\":2321:2324   */\n      dup4\n        /* \"#utility.yul\":2317:2333   */\n      add\n        /* \"#utility.yul\":2310:2337   */\n      mstore\n        /* \"#utility.yul\":2205:2344   */\n      pop\n      pop\n      pop\n      jump\t// out\n        /* \"#utility.yul\":2350:2452   */\n    tag_192:\n        /* \"#utility.yul\":2391:2397   */\n      0x00\n        /* \"#utility.yul\":2442:2444   */\n      0x1f\n        /* \"#utility.yul\":2438:2445   */\n      not\n        /* \"#utility.yul\":2433:2435   */\n      0x1f\n        /* \"#utility.yul\":2426:2431   */\n      dup4\n        /* \"#utility.yul\":2422:2436   */\n      add\n        /* \"#utility.yul\":2418:2446   */\n      and\n        /* \"#utility.yul\":2408:2446   */\n      swap1\n      pop\n        /* \"#utility.yul\":2350:2452   */\n      swap2\n      swap1\n      pop\n      jump\t// out\n        /* \"#utility.yul\":2458:2835   */\n    tag_193:\n        /* \"#utility.yul\":2546:2549   */\n      0x00\n        /* \"#utility.yul\":2574:2613   */\n      tag_278\n        /* \"#utility.yul\":2607:2612   */\n      dup3\n        /* \"#utility.yul\":2574:2613   */\n      tag_189\n      jump\t// in\n    tag_278:\n        /* \"#utility.yul\":2629:2700   */\n      tag_279\n        /* \"#utility.yul\":2693:2699   */\n      dup2\n        /* \"#utility.yul\":2688:2691   */\n      dup6\n        /* \"#utility.yul\":2629:2700   */\n      tag_190\n      jump\t// in\n    tag_279:\n        /* \"#utility.yul\":2622:2700   */\n      swap4\n      pop\n        /* \"#utility.yul\":2709:2774   */\n      tag_280\n        /* \"#utility.yul\":2767:2773   */\n      dup2\n        /* \"#utility.yul\":2762:2765   */\n      dup6\n        /* \"#utility.yul\":2755:2759   */\n      0x20\n        /* \"#utility.yul\":2748:2753   */\n      dup7\n        /* \"#utility.yul\":2744:2760   */\n      add\n        /* \"#utility.yul\":2709:2774   */\n      tag_191\n      jump\t// in\n    tag_280:\n        /* \"#utility.yul\":2799:2828   */\n      tag_281\n        /* \"#utility.yul\":2821:2827   */\n      dup2\n        /* \"#utility.yul\":2799:2828   */\n      tag_192\n      jump\t// in\n    tag_281:\n        /* \"#utility.yul\":2794:2797   */\n      dup5\n        /* \"#utility.yul\":2790:2829   */\n      add\n        /* \"#utility.yul\":2783:2829   */\n      swap2\n      pop\n        /* \"#utility.yul\":2550:2835   */\n      pop\n        /* \"#utility.yul\":2458:2835   */\n      swap3\n      swap2\n      pop\n      pop\n      jump\t// out\n        /* \"#utility.yul\":2841:3596   */\n    tag_21:\n        /* \"#utility.yul\":3066:3070   */\n      0x00\n        /* \"#utility.yul\":3104:3107   */\n      0xa0\n        /* \"#utility.yul\":3093:3102   */\n      dup3\n        /* \"#utility.yul\":3089:3108   */\n      add\n        /* \"#utility.yul\":3081:3108   */\n      swap1\n      pop\n        /* \"#utility.yul\":3118:3189   */\n      tag_283\n        /* \"#utility.yul\":3186:3187   */\n      0x00\n        /* \"#utility.yul\":3175:3184   */\n      dup4\n        /* \"#utility.yul\":3171:3188   */\n      add\n        /* \"#utility.yul\":3162:3168   */\n      dup9\n        /* \"#utility.yul\":3118:3189   */\n      tag_187\n      jump\t// in\n    tag_283:\n        /* \"#utility.yul\":3199:3271   */\n      tag_284\n        /* \"#utility.yul\":3267:3269   */\n      0x20\n        /* \"#utility.yul\":3256:3265   */\n      dup4\n        /* \"#utility.yul\":3252:3270   */\n      add\n        /* \"#utility.yul\":3243:3249   */\n      dup8\n        /* \"#utility.yul\":3199:3271   */\n      tag_188\n      jump\t// in\n    tag_284:\n        /* \"#utility.yul\":3318:3327   */\n      dup2\n        /* \"#utility.yul\":3312:3316   */\n      dup2\n        /* \"#utility.yul\":3308:3328   */\n      sub\n        /* \"#utility.yul\":3303:3305   */\n      0x40\n        /* \"#utility.yul\":3292:3301   */\n      dup4\n        /* \"#utility.yul\":3288:3306   */\n      add\n        /* \"#utility.yul\":3281:3329   */\n      mstore\n        /* \"#utility.yul\":3346:3424   */\n      tag_285\n        /* \"#utility.yul\":3419:3423   */\n      dup2\n        /* \"#utility.yul\":3410:3416   */\n      dup7\n        /* \"#utility.yul\":3346:3424   */\n      tag_193\n      jump\t// in\n    tag_285:\n        /* \"#utility.yul\":3338:3424   */\n      swap1\n      pop\n        /* \"#utility.yul\":3434:3506   */\n      tag_286\n        /* \"#utility.yul\":3502:3504   */\n      0x60\n        /* \"#utility.yul\":3491:3500   */\n      dup4\n        /* \"#utility.yul\":3487:3505   */\n      add\n        /* \"#utility.yul\":3478:3484   */\n      dup6\n        /* \"#utility.yul\":3434:3506   */\n      tag_187\n      jump\t// in\n    tag_286:\n        /* \"#utility.yul\":3516:3589   */\n      tag_287\n        /* \"#utility.yul\":3584:3587   */\n      0x80\n        /* \"#utility.yul\":3573:3582   */\n      dup4\n        /* \"#utility.yul\":3569:3588   */\n      add\n        /* \"#utility.yul\":3560:3566   */\n      dup5\n        /* \"#utility.yul\":3516:3589   */\n      tag_187\n      jump\t// in\n    tag_287:\n        /* \"#utility.yul\":2841:3596   */\n      swap7\n      swap6\n      pop\n      pop\n      pop\n      pop\n      pop\n      pop\n      jump\t// out\n        /* \"#utility.yul\":3602:3931   */\n    tag_24:\n        /* \"#utility.yul\":3661:3667   */\n      0x00\n        /* \"#utility.yul\":3710:3712   */\n      0x20\n        /* \"#utility.yul\":3698:3707   */\n      dup3\n        /* \"#utility.yul\":3689:3696   */\n      dup5\n        /* \"#utility.yul\":3685:3708   */\n      sub\n        /* \"#utility.yul\":3681:3713   */\n      slt\n        /* \"#utility.yul\":3678:3797   */\n      iszero\n      tag_289\n      jumpi\n        /* \"#utility.yul\":3716:3795   */\n      tag_290\n      tag_178\n      jump\t// in\n    tag_290:\n        /* \"#utility.yul\":3678:3797   */\n    tag_289:\n        /* \"#utility.yul\":3836:3837   */\n      0x00\n        /* \"#utility.yul\":3861:3914   */\n      tag_291\n        /* \"#utility.yul\":3906:3913   */\n      dup5\n        /* \"#utility.yul\":3897:3903   */\n      dup3\n        /* \"#utility.yul\":3886:3895   */\n      dup6\n        /* \"#utility.yul\":3882:3904   */\n      add\n        /* \"#utility.yul\":3861:3914   */\n      tag_183\n      jump\t// in\n    tag_291:\n        /* \"#utility.yul\":3851:3914   */\n      swap2\n      pop\n        /* \"#utility.yul\":3807:3924   */\n      pop\n        /* \"#utility.yul\":3602:3931   */\n      swap3\n      swap2\n      pop\n      pop\n      jump\t// out\n        /* \"#utility.yul\":3937:4073   */\n    tag_194:\n        /* \"#utility.yul\":4026:4032   */\n      0x00\n        /* \"#utility.yul\":4060:4065   */\n      dup2\n        /* \"#utility.yul\":4054:4066   */\n      mload\n        /* \"#utility.yul\":4044:4066   */\n      swap1\n      pop\n        /* \"#utility.yul\":3937:4073   */\n      swap2\n      swap1\n      pop\n      jump\t// out\n        /* \"#utility.yul\":4079:4285   */\n    tag_195:\n        /* \"#utility.yul\":4200:4211   */\n      0x00\n        /* \"#utility.yul\":4234:4240   */\n      dup3\n        /* \"#utility.yul\":4229:4232   */\n      dup3\n        /* \"#utility.yul\":4222:4241   */\n      mstore\n        /* \"#utility.yul\":4274:4278   */\n      0x20\n        /* \"#utility.yul\":4269:4272   */\n      dup3\n        /* \"#utility.yul\":4265:4279   */\n      add\n        /* \"#utility.yul\":4250:4279   */\n      swap1\n      pop\n        /* \"#utility.yul\":4079:4285   */\n      swap3\n      swap2\n      pop\n      pop\n      jump\t// out\n        /* \"#utility.yul\":4291:4445   */\n    tag_196:\n        /* \"#utility.yul\":4380:4384   */\n      0x00\n        /* \"#utility.yul\":4403:4406   */\n      dup2\n        /* \"#utility.yul\":4395:4406   */\n      swap1\n      pop\n        /* \"#utility.yul\":4433:4437   */\n      0x20\n        /* \"#utility.yul\":4428:4431   */\n      dup3\n        /* \"#utility.yul\":4424:4438   */\n      add\n        /* \"#utility.yul\":4416:4438   */\n      swap1\n      pop\n        /* \"#utility.yul\":4291:4445   */\n      swap2\n      swap1\n      pop\n      jump\t// out\n        /* \"#utility.yul\":4451:4559   */\n    tag_197:\n        /* \"#utility.yul\":4528:4552   */\n      tag_296\n        /* \"#utility.yul\":4546:4551   */\n      dup2\n        /* \"#utility.yul\":4528:4552   */\n      tag_184\n      jump\t// in\n    tag_296:\n        /* \"#utility.yul\":4523:4526   */\n      dup3\n        /* \"#utility.yul\":4516:4553   */\n      mstore\n        /* \"#utility.yul\":4451:4559   */\n      pop\n      pop\n      jump\t// out\n        /* \"#utility.yul\":4565:4673   */\n    tag_198:\n        /* \"#utility.yul\":4642:4666   */\n      tag_298\n        /* \"#utility.yul\":4660:4665   */\n      dup2\n        /* \"#utility.yul\":4642:4666   */\n      tag_181\n      jump\t// in\n    tag_298:\n        /* \"#utility.yul\":4637:4640   */\n      dup3\n        /* \"#utility.yul\":4630:4667   */\n      mstore\n        /* \"#utility.yul\":4565:4673   */\n      pop\n      pop\n      jump\t// out\n        /* \"#utility.yul\":4679:4838   */\n    tag_199:\n        /* \"#utility.yul\":4753:4764   */\n      0x00\n        /* \"#utility.yul\":4787:4793   */\n      dup3\n        /* \"#utility.yul\":4782:4785   */\n      dup3\n        /* \"#utility.yul\":4775:4794   */\n      mstore\n        /* \"#utility.yul\":4827:4831   */\n      0x20\n        /* \"#utility.yul\":4822:4825   */\n      dup3\n        /* \"#utility.yul\":4818:4832   */\n      add\n        /* \"#utility.yul\":4803:4832   */\n      swap1\n      pop\n        /* \"#utility.yul\":4679:4838   */\n      swap3\n      swap2\n      pop\n      pop\n      jump\t// out\n        /* \"#utility.yul\":4844:5201   */\n    tag_200:\n        /* \"#utility.yul\":4922:4925   */\n      0x00\n        /* \"#utility.yul\":4950:4989   */\n      tag_301\n        /* \"#utility.yul\":4983:4988   */\n      dup3\n        /* \"#utility.yul\":4950:4989   */\n      tag_189\n      jump\t// in\n    tag_301:\n        /* \"#utility.yul\":5005:5066   */\n      tag_302\n        /* \"#utility.yul\":5059:5065   */\n      dup2\n        /* \"#utility.yul\":5054:5057   */\n      dup6\n        /* \"#utility.yul\":5005:5066   */\n      tag_199\n      jump\t// in\n    tag_302:\n        /* \"#utility.yul\":4998:5066   */\n      swap4\n      pop\n        /* \"#utility.yul\":5075:5140   */\n      tag_303\n        /* \"#utility.yul\":5133:5139   */\n      dup2\n        /* \"#utility.yul\":5128:5131   */\n      dup6\n        /* \"#utility.yul\":5121:5125   */\n      0x20\n        /* \"#utility.yul\":5114:5119   */\n      dup7\n        /* \"#utility.yul\":5110:5126   */\n      add\n        /* \"#utility.yul\":5075:5140   */\n      tag_191\n      jump\t// in\n    tag_303:\n        /* \"#utility.yul\":5165:5194   */\n      tag_304\n        /* \"#utility.yul\":5187:5193   */\n      dup2\n        /* \"#utility.yul\":5165:5194   */\n      tag_192\n      jump\t// in\n    tag_304:\n        /* \"#utility.yul\":5160:5163   */\n      dup5\n        /* \"#utility.yul\":5156:5195   */\n      add\n        /* \"#utility.yul\":5149:5195   */\n      swap2\n      pop\n        /* \"#utility.yul\":4926:5201   */\n      pop\n        /* \"#utility.yul\":4844:5201   */\n      swap3\n      swap2\n      pop\n      pop\n      jump\t// out\n        /* \"#utility.yul\":5259:6380   */\n    tag_201:\n        /* \"#utility.yul\":5362:5365   */\n      0x00\n        /* \"#utility.yul\":5398:5402   */\n      0xa0\n        /* \"#utility.yul\":5393:5396   */\n      dup4\n        /* \"#utility.yul\":5389:5403   */\n      add\n        /* \"#utility.yul\":5483:5487   */\n      0x00\n        /* \"#utility.yul\":5476:5481   */\n      dup4\n        /* \"#utility.yul\":5472:5488   */\n      add\n        /* \"#utility.yul\":5466:5489   */\n      mload\n        /* \"#utility.yul\":5502:5565   */\n      tag_306\n        /* \"#utility.yul\":5559:5563   */\n      0x00\n        /* \"#utility.yul\":5554:5557   */\n      dup7\n        /* \"#utility.yul\":5550:5564   */\n      add\n        /* \"#utility.yul\":5536:5548   */\n      dup3\n        /* \"#utility.yul\":5502:5565   */\n      tag_197\n      jump\t// in\n    tag_306:\n        /* \"#utility.yul\":5413:5575   */\n      pop\n        /* \"#utility.yul\":5659:5663   */\n      0x20\n        /* \"#utility.yul\":5652:5657   */\n      dup4\n        /* \"#utility.yul\":5648:5664   */\n      add\n        /* \"#utility.yul\":5642:5665   */\n      mload\n        /* \"#utility.yul\":5678:5741   */\n      tag_307\n        /* \"#utility.yul\":5735:5739   */\n      0x20\n        /* \"#utility.yul\":5730:5733   */\n      dup7\n        /* \"#utility.yul\":5726:5740   */\n      add\n        /* \"#utility.yul\":5712:5724   */\n      dup3\n        /* \"#utility.yul\":5678:5741   */\n      tag_198\n      jump\t// in\n    tag_307:\n        /* \"#utility.yul\":5585:5751   */\n      pop\n        /* \"#utility.yul\":5836:5840   */\n      0x40\n        /* \"#utility.yul\":5829:5834   */\n      dup4\n        /* \"#utility.yul\":5825:5841   */\n      add\n        /* \"#utility.yul\":5819:5842   */\n      mload\n        /* \"#utility.yul\":5889:5892   */\n      dup5\n        /* \"#utility.yul\":5883:5887   */\n      dup3\n        /* \"#utility.yul\":5879:5893   */\n      sub\n        /* \"#utility.yul\":5872:5876   */\n      0x40\n        /* \"#utility.yul\":5867:5870   */\n      dup7\n        /* \"#utility.yul\":5863:5877   */\n      add\n        /* \"#utility.yul\":5856:5894   */\n      mstore\n        /* \"#utility.yul\":5915:5988   */\n      tag_308\n        /* \"#utility.yul\":5983:5987   */\n      dup3\n        /* \"#utility.yul\":5969:5981   */\n      dup3\n        /* \"#utility.yul\":5915:5988   */\n      tag_200\n      jump\t// in\n    tag_308:\n        /* \"#utility.yul\":5907:5988   */\n      swap2\n      pop\n        /* \"#utility.yul\":5761:5999   */\n      pop\n        /* \"#utility.yul\":6086:6090   */\n      0x60\n        /* \"#utility.yul\":6079:6084   */\n      dup4\n        /* \"#utility.yul\":6075:6091   */\n      add\n        /* \"#utility.yul\":6069:6092   */\n      mload\n        /* \"#utility.yul\":6105:6168   */\n      tag_309\n        /* \"#utility.yul\":6162:6166   */\n      0x60\n        /* \"#utility.yul\":6157:6160   */\n      dup7\n        /* \"#utility.yul\":6153:6167   */\n      add\n        /* \"#utility.yul\":6139:6151   */\n      dup3\n        /* \"#utility.yul\":6105:6168   */\n      tag_197\n      jump\t// in\n    tag_309:\n        /* \"#utility.yul\":6009:6178   */\n      pop\n        /* \"#utility.yul\":6261:6265   */\n      0x80\n        /* \"#utility.yul\":6254:6259   */\n      dup4\n        /* \"#utility.yul\":6250:6266   */\n      add\n        /* \"#utility.yul\":6244:6267   */\n      mload\n        /* \"#utility.yul\":6280:6343   */\n      tag_310\n        /* \"#utility.yul\":6337:6341   */\n      0x80\n        /* \"#utility.yul\":6332:6335   */\n      dup7\n        /* \"#utility.yul\":6328:6342   */\n      add\n        /* \"#utility.yul\":6314:6326   */\n      dup3\n        /* \"#utility.yul\":6280:6343   */\n      tag_197\n      jump\t// in\n    tag_310:\n        /* \"#utility.yul\":6188:6353   */\n      pop\n        /* \"#utility.yul\":6370:6374   */\n      dup1\n        /* \"#utility.yul\":6363:6374   */\n      swap2\n      pop\n        /* \"#utility.yul\":5367:6380   */\n      pop\n        /* \"#utility.yul\":5259:6380   */\n      swap3\n      swap2\n      pop\n      pop\n      jump\t// out\n        /* \"#utility.yul\":6386:6630   */\n    tag_202:\n        /* \"#utility.yul\":6499:6509   */\n      0x00\n        /* \"#utility.yul\":6534:6624   */\n      tag_312\n        /* \"#utility.yul\":6620:6623   */\n      dup4\n        /* \"#utility.yul\":6612:6618   */\n      dup4\n        /* \"#utility.yul\":6534:6624   */\n      tag_201\n      jump\t// in\n    tag_312:\n        /* \"#utility.yul\":6520:6624   */\n      swap1\n      pop\n        /* \"#utility.yul\":6386:6630   */\n      swap3\n      swap2\n      pop\n      pop\n      jump\t// out\n        /* \"#utility.yul\":6636:6771   */\n    tag_203:\n        /* \"#utility.yul\":6728:6732   */\n      0x00\n        /* \"#utility.yul\":6760:6764   */\n      0x20\n        /* \"#utility.yul\":6755:6758   */\n      dup3\n        /* \"#utility.yul\":6751:6765   */\n      add\n        /* \"#utility.yul\":6743:6765   */\n      swap1\n      pop\n        /* \"#utility.yul\":6636:6771   */\n      swap2\n      swap1\n      pop\n      jump\t// out\n        /* \"#utility.yul\":6833:7920   */\n    tag_204:\n        /* \"#utility.yul\":6996:6999   */\n      0x00\n        /* \"#utility.yul\":7025:7101   */\n      tag_315\n        /* \"#utility.yul\":7095:7100   */\n      dup3\n        /* \"#utility.yul\":7025:7101   */\n      tag_194\n      jump\t// in\n    tag_315:\n        /* \"#utility.yul\":7117:7225   */\n      tag_316\n        /* \"#utility.yul\":7218:7224   */\n      dup2\n        /* \"#utility.yul\":7213:7216   */\n      dup6\n        /* \"#utility.yul\":7117:7225   */\n      tag_195\n      jump\t// in\n    tag_316:\n        /* \"#utility.yul\":7110:7225   */\n      swap4\n      pop\n        /* \"#utility.yul\":7251:7254   */\n      dup4\n        /* \"#utility.yul\":7296:7300   */\n      0x20\n        /* \"#utility.yul\":7288:7294   */\n      dup3\n        /* \"#utility.yul\":7284:7301   */\n      mul\n        /* \"#utility.yul\":7279:7282   */\n      dup6\n        /* \"#utility.yul\":7275:7302   */\n      add\n        /* \"#utility.yul\":7326:7404   */\n      tag_317\n        /* \"#utility.yul\":7398:7403   */\n      dup6\n        /* \"#utility.yul\":7326:7404   */\n      tag_196\n      jump\t// in\n    tag_317:\n        /* \"#utility.yul\":7427:7434   */\n      dup1\n        /* \"#utility.yul\":7458:7459   */\n      0x00\n        /* \"#utility.yul\":7443:7875   */\n    tag_318:\n        /* \"#utility.yul\":7468:7474   */\n      dup6\n        /* \"#utility.yul\":7465:7466   */\n      dup2\n        /* \"#utility.yul\":7462:7475   */\n      lt\n        /* \"#utility.yul\":7443:7875   */\n      iszero\n      tag_320\n      jumpi\n        /* \"#utility.yul\":7539:7548   */\n      dup5\n        /* \"#utility.yul\":7533:7537   */\n      dup5\n        /* \"#utility.yul\":7529:7549   */\n      sub\n        /* \"#utility.yul\":7524:7527   */\n      dup10\n        /* \"#utility.yul\":7517:7550   */\n      mstore\n        /* \"#utility.yul\":7590:7596   */\n      dup2\n        /* \"#utility.yul\":7584:7597   */\n      mload\n        /* \"#utility.yul\":7618:7726   */\n      tag_321\n        /* \"#utility.yul\":7721:7725   */\n      dup6\n        /* \"#utility.yul\":7706:7719   */\n      dup3\n        /* \"#utility.yul\":7618:7726   */\n      tag_202\n      jump\t// in\n    tag_321:\n        /* \"#utility.yul\":7610:7726   */\n      swap5\n      pop\n        /* \"#utility.yul\":7749:7831   */\n      tag_322\n        /* \"#utility.yul\":7824:7830   */\n      dup4\n        /* \"#utility.yul\":7749:7831   */\n      tag_203\n      jump\t// in\n    tag_322:\n        /* \"#utility.yul\":7739:7831   */\n      swap3\n      pop\n        /* \"#utility.yul\":7860:7864   */\n      0x20\n        /* \"#utility.yul\":7855:7858   */\n      dup11\n        /* \"#utility.yul\":7851:7865   */\n      add\n        /* \"#utility.yul\":7844:7865   */\n      swap10\n      pop\n        /* \"#utility.yul\":7503:7875   */\n      pop\n        /* \"#utility.yul\":7490:7491   */\n      0x01\n        /* \"#utility.yul\":7487:7488   */\n      dup2\n        /* \"#utility.yul\":7483:7492   */\n      add\n        /* \"#utility.yul\":7478:7492   */\n      swap1\n      pop\n        /* \"#utility.yul\":7443:7875   */\n      jump(tag_318)\n    tag_320:\n        /* \"#utility.yul\":7447:7461   */\n      pop\n        /* \"#utility.yul\":7891:7895   */\n      dup3\n        /* \"#utility.yul\":7884:7895   */\n      swap8\n      pop\n        /* \"#utility.yul\":7911:7914   */\n      dup8\n        /* \"#utility.yul\":7904:7914   */\n      swap6\n      pop\n        /* \"#utility.yul\":7001:7920   */\n      pop\n      pop\n      pop\n      pop\n      pop\n        /* \"#utility.yul\":6833:7920   */\n      swap3\n      swap2\n      pop\n      pop\n      jump\t// out\n        /* \"#utility.yul\":7926:8387   */\n    tag_27:\n        /* \"#utility.yul\":8113:8117   */\n      0x00\n        /* \"#utility.yul\":8151:8153   */\n      0x20\n        /* \"#utility.yul\":8140:8149   */\n      dup3\n        /* \"#utility.yul\":8136:8154   */\n      add\n        /* \"#utility.yul\":8128:8154   */\n      swap1\n      pop\n        /* \"#utility.yul\":8200:8209   */\n      dup2\n        /* \"#utility.yul\":8194:8198   */\n      dup2\n        /* \"#utility.yul\":8190:8210   */\n      sub\n        /* \"#utility.yul\":8186:8187   */\n      0x00\n        /* \"#utility.yul\":8175:8184   */\n      dup4\n        /* \"#utility.yul\":8171:8188   */\n      add\n        /* \"#utility.yul\":8164:8211   */\n      mstore\n        /* \"#utility.yul\":8228:8380   */\n      tag_324\n        /* \"#utility.yul\":8375:8379   */\n      dup2\n        /* \"#utility.yul\":8366:8372   */\n      dup5\n        /* \"#utility.yul\":8228:8380   */\n      tag_204\n      jump\t// in\n    tag_324:\n        /* \"#utility.yul\":8220:8380   */\n      swap1\n      pop\n        /* \"#utility.yul\":7926:8387   */\n      swap3\n      swap2\n      pop\n      pop\n      jump\t// out\n        /* \"#utility.yul\":8393:8482   */\n    tag_205:\n        /* \"#utility.yul\":8429:8436   */\n      0x00\n        /* \"#utility.yul\":8469:8475   */\n      0xffff\n        /* \"#utility.yul\":8462:8467   */\n      dup3\n        /* \"#utility.yul\":8458:8476   */\n      and\n        /* \"#utility.yul\":8447:8476   */\n      swap1\n      pop\n        /* \"#utility.yul\":8393:8482   */\n      swap2\n      swap1\n      pop\n      jump\t// out\n        /* \"#utility.yul\":8488:8608   */\n    tag_206:\n        /* \"#utility.yul\":8560:8583   */\n      tag_327\n        /* \"#utility.yul\":8577:8582   */\n      dup2\n        /* \"#utility.yul\":8560:8583   */\n      tag_205\n      jump\t// in\n    tag_327:\n        /* \"#utility.yul\":8553:8558   */\n      dup2\n        /* \"#utility.yul\":8550:8584   */\n      eq\n        /* \"#utility.yul\":8540:8602   */\n      tag_328\n      jumpi\n        /* \"#utility.yul\":8598:8599   */\n      0x00\n        /* \"#utility.yul\":8595:8596   */\n      0x00\n        /* \"#utility.yul\":8588:8600   */\n      revert\n        /* \"#utility.yul\":8540:8602   */\n    tag_328:\n        /* \"#utility.yul\":8488:8608   */\n      pop\n      jump\t// out\n        /* \"#utility.yul\":8614:8751   */\n    tag_207:\n        /* \"#utility.yul\":8659:8664   */\n      0x00\n        /* \"#utility.yul\":8697:8703   */\n      dup2\n        /* \"#utility.yul\":8684:8704   */\n      calldataload\n        /* \"#utility.yul\":8675:8704   */\n      swap1\n      pop\n        /* \"#utility.yul\":8713:8745   */\n      tag_330\n        /* \"#utility.yul\":8739:8744   */\n      dup2\n        /* \"#utility.yul\":8713:8745   */\n      tag_206\n      jump\t// in\n    tag_330:\n        /* \"#utility.yul\":8614:8751   */\n      swap3\n      swap2\n      pop\n      pop\n      jump\t// out\n        /* \"#utility.yul\":8757:9084   */\n    tag_33:\n        /* \"#utility.yul\":8815:8821   */\n      0x00\n        /* \"#utility.yul\":8864:8866   */\n      0x20\n        /* \"#utility.yul\":8852:8861   */\n      dup3\n        /* \"#utility.yul\":8843:8850   */\n      dup5\n        /* \"#utility.yul\":8839:8862   */\n      sub\n        /* \"#utility.yul\":8835:8867   */\n      slt\n        /* \"#utility.yul\":8832:8951   */\n      iszero\n      tag_332\n      jumpi\n        /* \"#utility.yul\":8870:8949   */\n      tag_333\n      tag_178\n      jump\t// in\n    tag_333:\n        /* \"#utility.yul\":8832:8951   */\n    tag_332:\n        /* \"#utility.yul\":8990:8991   */\n      0x00\n        /* \"#utility.yul\":9015:9067   */\n      tag_334\n        /* \"#utility.yul\":9059:9066   */\n      dup5\n        /* \"#utility.yul\":9050:9056   */\n      dup3\n        /* \"#utility.yul\":9039:9048   */\n      dup6\n        /* \"#utility.yul\":9035:9057   */\n      add\n        /* \"#utility.yul\":9015:9067   */\n      tag_207\n      jump\t// in\n    tag_334:\n        /* \"#utility.yul\":9005:9067   */\n      swap2\n      pop\n        /* \"#utility.yul\":8961:9077   */\n      pop\n        /* \"#utility.yul\":8757:9084   */\n      swap3\n      swap2\n      pop\n      pop\n      jump\t// out\n        /* \"#utility.yul\":9090:9205   */\n    tag_208:\n        /* \"#utility.yul\":9175:9198   */\n      tag_336\n        /* \"#utility.yul\":9192:9197   */\n      dup2\n        /* \"#utility.yul\":9175:9198   */\n      tag_205\n      jump\t// in\n    tag_336:\n        /* \"#utility.yul\":9170:9173   */\n      dup3\n        /* \"#utility.yul\":9163:9199   */\n      mstore\n        /* \"#utility.yul\":9090:9205   */\n      pop\n      pop\n      jump\t// out\n        /* \"#utility.yul\":9211:9429   */\n    tag_41:\n        /* \"#utility.yul\":9302:9306   */\n      0x00\n        /* \"#utility.yul\":9340:9342   */\n      0x20\n        /* \"#utility.yul\":9329:9338   */\n      dup3\n        /* \"#utility.yul\":9325:9343   */\n      add\n        /* \"#utility.yul\":9317:9343   */\n      swap1\n      pop\n        /* \"#utility.yul\":9353:9422   */\n      tag_338\n        /* \"#utility.yul\":9419:9420   */\n      0x00\n        /* \"#utility.yul\":9408:9417   */\n      dup4\n        /* \"#utility.yul\":9404:9421   */\n      add\n        /* \"#utility.yul\":9395:9401   */\n      dup5\n        /* \"#utility.yul\":9353:9422   */\n      tag_208\n      jump\t// in\n    tag_338:\n        /* \"#utility.yul\":9211:9429   */\n      swap3\n      swap2\n      pop\n      pop\n      jump\t// out\n        /* \"#utility.yul\":9435:9552   */\n    tag_209:\n        /* \"#utility.yul\":9544:9545   */\n      0x00\n        /* \"#utility.yul\":9541:9542   */\n      0x00\n        /* \"#utility.yul\":9534:9546   */\n      revert\n        /* \"#utility.yul\":9558:9675   */\n    tag_210:\n        /* \"#utility.yul\":9667:9668   */\n      0x00\n        /* \"#utility.yul\":9664:9665   */\n      0x00\n        /* \"#utility.yul\":9657:9669   */\n      revert\n        /* \"#utility.yul\":9681:9861   */\n    tag_211:\n        /* \"#utility.yul\":9729:9806   */\n      0x4e487b7100000000000000000000000000000000000000000000000000000000\n        /* \"#utility.yul\":9726:9727   */\n      0x00\n        /* \"#utility.yul\":9719:9807   */\n      mstore\n        /* \"#utility.yul\":9826:9830   */\n      0x41\n        /* \"#utility.yul\":9823:9824   */\n      0x04\n        /* \"#utility.yul\":9816:9831   */\n      mstore\n        /* \"#utility.yul\":9850:9854   */\n      0x24\n        /* \"#utility.yul\":9847:9848   */\n      0x00\n        /* \"#utility.yul\":9840:9855   */\n      revert\n        /* \"#utility.yul\":9867:10148   */\n    tag_212:\n        /* \"#utility.yul\":9950:9977   */\n      tag_343\n        /* \"#utility.yul\":9972:9976   */\n      dup3\n        /* \"#utility.yul\":9950:9977   */\n      tag_192\n      jump\t// in\n    tag_343:\n        /* \"#utility.yul\":9942:9948   */\n      dup2\n        /* \"#utility.yul\":9938:9978   */\n      add\n        /* \"#utility.yul\":10080:10086   */\n      dup2\n        /* \"#utility.yul\":10068:10078   */\n      dup2\n        /* \"#utility.yul\":10065:10087   */\n      lt\n        /* \"#utility.yul\":10044:10062   */\n      0xffffffffffffffff\n        /* \"#utility.yul\":10032:10042   */\n      dup3\n        /* \"#utility.yul\":10029:10063   */\n      gt\n        /* \"#utility.yul\":10026:10088   */\n      or\n        /* \"#utility.yul\":10023:10111   */\n      iszero\n      tag_344\n      jumpi\n        /* \"#utility.yul\":10091:10109   */\n      tag_345\n      tag_211\n      jump\t// in\n    tag_345:\n        /* \"#utility.yul\":10023:10111   */\n    tag_344:\n        /* \"#utility.yul\":10131:10141   */\n      dup1\n        /* \"#utility.yul\":10127:10129   */\n      0x40\n        /* \"#utility.yul\":10120:10142   */\n      mstore\n        /* \"#utility.yul\":9910:10148   */\n      pop\n        /* \"#utility.yul\":9867:10148   */\n      pop\n      pop\n      jump\t// out\n        /* \"#utility.yul\":10154:10283   */\n    tag_213:\n        /* \"#utility.yul\":10188:10194   */\n      0x00\n        /* \"#utility.yul\":10215:10235   */\n      tag_347\n      tag_177\n      jump\t// in\n    tag_347:\n        /* \"#utility.yul\":10205:10235   */\n      swap1\n      pop\n        /* \"#utility.yul\":10244:10277   */\n      tag_348\n        /* \"#utility.yul\":10272:10276   */\n      dup3\n        /* \"#utility.yul\":10264:10270   */\n      dup3\n        /* \"#utility.yul\":10244:10277   */\n      tag_212\n      jump\t// in\n    tag_348:\n        /* \"#utility.yul\":10154:10283   */\n      swap2\n      swap1\n      pop\n      jump\t// out\n        /* \"#utility.yul\":10289:10597   */\n    tag_214:\n        /* \"#utility.yul\":10351:10355   */\n      0x00\n        /* \"#utility.yul\":10441:10459   */\n      0xffffffffffffffff\n        /* \"#utility.yul\":10433:10439   */\n      dup3\n        /* \"#utility.yul\":10430:10460   */\n      gt\n        /* \"#utility.yul\":10427:10483   */\n      iszero\n      tag_350\n      jumpi\n        /* \"#utility.yul\":10463:10481   */\n      tag_351\n      tag_211\n      jump\t// in\n    tag_351:\n        /* \"#utility.yul\":10427:10483   */\n    tag_350:\n        /* \"#utility.yul\":10501:10530   */\n      tag_352\n        /* \"#utility.yul\":10523:10529   */\n      dup3\n        /* \"#utility.yul\":10501:10530   */\n      tag_192\n      jump\t// in\n    tag_352:\n        /* \"#utility.yul\":10493:10530   */\n      swap1\n      pop\n        /* \"#utility.yul\":10585:10589   */\n      0x20\n        /* \"#utility.yul\":10579:10583   */\n      dup2\n        /* \"#utility.yul\":10575:10590   */\n      add\n        /* \"#utility.yul\":10567:10590   */\n      swap1\n      pop\n        /* \"#utility.yul\":10289:10597   */\n      swap2\n      swap1\n      pop\n      jump\t// out\n        /* \"#utility.yul\":10603:10751   */\n    tag_215:\n        /* \"#utility.yul\":10701:10707   */\n      dup3\n        /* \"#utility.yul\":10696:10699   */\n      dup2\n        /* \"#utility.yul\":10691:10694   */\n      dup4\n        /* \"#utility.yul\":10678:10708   */\n      calldatacopy\n        /* \"#utility.yul\":10742:10743   */\n      0x00\n        /* \"#utility.yul\":10733:10739   */\n      dup4\n        /* \"#utility.yul\":10728:10731   */\n      dup4\n        /* \"#utility.yul\":10724:10740   */\n      add\n        /* \"#utility.yul\":10717:10744   */\n      mstore\n        /* \"#utility.yul\":10603:10751   */\n      pop\n      pop\n      pop\n      jump\t// out\n        /* \"#utility.yul\":10757:11182   */\n    tag_216:\n        /* \"#utility.yul\":10835:10840   */\n      0x00\n        /* \"#utility.yul\":10860:10926   */\n      tag_355\n        /* \"#utility.yul\":10876:10925   */\n      tag_356\n        /* \"#utility.yul\":10918:10924   */\n      dup5\n        /* \"#utility.yul\":10876:10925   */\n      tag_214\n      jump\t// in\n    tag_356:\n        /* \"#utility.yul\":10860:10926   */\n      tag_213\n      jump\t// in\n    tag_355:\n        /* \"#utility.yul\":10851:10926   */\n      swap1\n      pop\n        /* \"#utility.yul\":10949:10955   */\n      dup3\n        /* \"#utility.yul\":10942:10947   */\n      dup2\n        /* \"#utility.yul\":10935:10956   */\n      mstore\n        /* \"#utility.yul\":10987:10991   */\n      0x20\n        /* \"#utility.yul\":10980:10985   */\n      dup2\n        /* \"#utility.yul\":10976:10992   */\n      add\n        /* \"#utility.yul\":11025:11028   */\n      dup5\n        /* \"#utility.yul\":11016:11022   */\n      dup5\n        /* \"#utility.yul\":11011:11014   */\n      dup5\n        /* \"#utility.yul\":11007:11023   */\n      add\n        /* \"#utility.yul\":11004:11029   */\n      gt\n        /* \"#utility.yul\":11001:11113   */\n      iszero\n      tag_357\n      jumpi\n        /* \"#utility.yul\":11032:11111   */\n      tag_358\n      tag_210\n      jump\t// in\n    tag_358:\n        /* \"#utility.yul\":11001:11113   */\n    tag_357:\n        /* \"#utility.yul\":11122:11176   */\n      tag_359\n        /* \"#utility.yul\":11169:11175   */\n      dup5\n        /* \"#utility.yul\":11164:11167   */\n      dup3\n        /* \"#utility.yul\":11159:11162   */\n      dup6\n        /* \"#utility.yul\":11122:11176   */\n      tag_215\n      jump\t// in\n    tag_359:\n        /* \"#utility.yul\":10841:11182   */\n      pop\n        /* \"#utility.yul\":10757:11182   */\n      swap4\n      swap3\n      pop\n      pop\n      pop\n      jump\t// out\n        /* \"#utility.yul\":11202:11542   */\n    tag_217:\n        /* \"#utility.yul\":11258:11263   */\n      0x00\n        /* \"#utility.yul\":11307:11310   */\n      dup3\n        /* \"#utility.yul\":11300:11304   */\n      0x1f\n        /* \"#utility.yul\":11292:11298   */\n      dup4\n        /* \"#utility.yul\":11288:11305   */\n      add\n        /* \"#utility.yul\":11284:11311   */\n      slt\n        /* \"#utility.yul\":11274:11396   */\n      tag_361\n      jumpi\n        /* \"#utility.yul\":11315:11394   */\n      tag_362\n      tag_209\n      jump\t// in\n    tag_362:\n        /* \"#utility.yul\":11274:11396   */\n    tag_361:\n        /* \"#utility.yul\":11432:11438   */\n      dup2\n        /* \"#utility.yul\":11419:11439   */\n      calldataload\n        /* \"#utility.yul\":11457:11536   */\n      tag_363\n        /* \"#utility.yul\":11532:11535   */\n      dup5\n        /* \"#utility.yul\":11524:11530   */\n      dup3\n        /* \"#utility.yul\":11517:11521   */\n      0x20\n        /* \"#utility.yul\":11509:11515   */\n      dup7\n        /* \"#utility.yul\":11505:11522   */\n      add\n        /* \"#utility.yul\":11457:11536   */\n      tag_216\n      jump\t// in\n    tag_363:\n        /* \"#utility.yul\":11448:11536   */\n      swap2\n      pop\n        /* \"#utility.yul\":11264:11542   */\n      pop\n        /* \"#utility.yul\":11202:11542   */\n      swap3\n      swap2\n      pop\n      pop\n      jump\t// out\n        /* \"#utility.yul\":11548:12057   */\n    tag_46:\n        /* \"#utility.yul\":11617:11623   */\n      0x00\n        /* \"#utility.yul\":11666:11668   */\n      0x20\n        /* \"#utility.yul\":11654:11663   */\n      dup3\n        /* \"#utility.yul\":11645:11652   */\n      dup5\n        /* \"#utility.yul\":11641:11664   */\n      sub\n        /* \"#utility.yul\":11637:11669   */\n      slt\n        /* \"#utility.yul\":11634:11753   */\n      iszero\n      tag_365\n      jumpi\n        /* \"#utility.yul\":11672:11751   */\n      tag_366\n      tag_178\n      jump\t// in\n    tag_366:\n        /* \"#utility.yul\":11634:11753   */\n    tag_365:\n        /* \"#utility.yul\":11820:11821   */\n      0x00\n        /* \"#utility.yul\":11809:11818   */\n      dup3\n        /* \"#utility.yul\":11805:11822   */\n      add\n        /* \"#utility.yul\":11792:11823   */\n      calldataload\n        /* \"#utility.yul\":11850:11868   */\n      0xffffffffffffffff\n        /* \"#utility.yul\":11842:11848   */\n      dup2\n        /* \"#utility.yul\":11839:11869   */\n      gt\n        /* \"#utility.yul\":11836:11953   */\n      iszero\n      tag_367\n      jumpi\n        /* \"#utility.yul\":11872:11951   */\n      tag_368\n      tag_179\n      jump\t// in\n    tag_368:\n        /* \"#utility.yul\":11836:11953   */\n    tag_367:\n        /* \"#utility.yul\":11977:12040   */\n      tag_369\n        /* \"#utility.yul\":12032:12039   */\n      dup5\n        /* \"#utility.yul\":12023:12029   */\n      dup3\n        /* \"#utility.yul\":12012:12021   */\n      dup6\n        /* \"#utility.yul\":12008:12030   */\n      add\n        /* \"#utility.yul\":11977:12040   */\n      tag_217\n      jump\t// in\n    tag_369:\n        /* \"#utility.yul\":11967:12040   */\n      swap2\n      pop\n        /* \"#utility.yul\":11763:12050   */\n      pop\n        /* \"#utility.yul\":11548:12057   */\n      swap3\n      swap2\n      pop\n      pop\n      jump\t// out\n        /* \"#utility.yul\":12063:12285   */\n    tag_52:\n        /* \"#utility.yul\":12156:12160   */\n      0x00\n        /* \"#utility.yul\":12194:12196   */\n      0x20\n        /* \"#utility.yul\":12183:12192   */\n      dup3\n        /* \"#utility.yul\":12179:12197   */\n      add\n        /* \"#utility.yul\":12171:12197   */\n      swap1\n      pop\n        /* \"#utility.yul\":12207:12278   */\n      tag_371\n        /* \"#utility.yul\":12275:12276   */\n      0x00\n        /* \"#utility.yul\":12264:12273   */\n      dup4\n        /* \"#utility.yul\":12260:12277   */\n      add\n        /* \"#utility.yul\":12251:12257   */\n      dup5\n        /* \"#utility.yul\":12207:12278   */\n      tag_187\n      jump\t// in\n    tag_371:\n        /* \"#utility.yul\":12063:12285   */\n      swap3\n      swap2\n      pop\n      pop\n      jump\t// out\n        /* \"#utility.yul\":12291:12513   */\n    tag_56:\n        /* \"#utility.yul\":12384:12388   */\n      0x00\n        /* \"#utility.yul\":12422:12424   */\n      0x20\n        /* \"#utility.yul\":12411:12420   */\n      dup3\n        /* \"#utility.yul\":12407:12425   */\n      add\n        /* \"#utility.yul\":12399:12425   */\n      swap1\n      pop\n        /* \"#utility.yul\":12435:12506   */\n      tag_373\n        /* \"#utility.yul\":12503:12504   */\n      0x00\n        /* \"#utility.yul\":12492:12501   */\n      dup4\n        /* \"#utility.yul\":12488:12505   */\n      add\n        /* \"#utility.yul\":12479:12485   */\n      dup5\n        /* \"#utility.yul\":12435:12506   */\n      tag_188\n      jump\t// in\n    tag_373:\n        /* \"#utility.yul\":12291:12513   */\n      swap3\n      swap2\n      pop\n      pop\n      jump\t// out\n        /* \"#utility.yul\":12519:12848   */\n    tag_59:\n        /* \"#utility.yul\":12578:12584   */\n      0x00\n        /* \"#utility.yul\":12627:12629   */\n      0x20\n        /* \"#utility.yul\":12615:12624   */\n      dup3\n        /* \"#utility.yul\":12606:12613   */\n      dup5\n        /* \"#utility.yul\":12602:12625   */\n      sub\n        /* \"#utility.yul\":12598:12630   */\n      slt\n        /* \"#utility.yul\":12595:12714   */\n      iszero\n      tag_375\n      jumpi\n        /* \"#utility.yul\":12633:12712   */\n      tag_376\n      tag_178\n      jump\t// in\n    tag_376:\n        /* \"#utility.yul\":12595:12714   */\n    tag_375:\n        /* \"#utility.yul\":12753:12754   */\n      0x00\n        /* \"#utility.yul\":12778:12831   */\n      tag_377\n        /* \"#utility.yul\":12823:12830   */\n      dup5\n        /* \"#utility.yul\":12814:12820   */\n      dup3\n        /* \"#utility.yul\":12803:12812   */\n      dup6\n        /* \"#utility.yul\":12799:12821   */\n      add\n        /* \"#utility.yul\":12778:12831   */\n      tag_186\n      jump\t// in\n    tag_377:\n        /* \"#utility.yul\":12768:12831   */\n      swap2\n      pop\n        /* \"#utility.yul\":12724:12841   */\n      pop\n        /* \"#utility.yul\":12519:12848   */\n      swap3\n      swap2\n      pop\n      pop\n      jump\t// out\n        /* \"#utility.yul\":12906:14037   */\n    tag_218:\n        /* \"#utility.yul\":13019:13022   */\n      0x00\n        /* \"#utility.yul\":13055:13059   */\n      0xa0\n        /* \"#utility.yul\":13050:13053   */\n      dup4\n        /* \"#utility.yul\":13046:13060   */\n      add\n        /* \"#utility.yul\":13140:13144   */\n      0x00\n        /* \"#utility.yul\":13133:13138   */\n      dup4\n        /* \"#utility.yul\":13129:13145   */\n      add\n        /* \"#utility.yul\":13123:13146   */\n      mload\n        /* \"#utility.yul\":13159:13222   */\n      tag_379\n        /* \"#utility.yul\":13216:13220   */\n      0x00\n        /* \"#utility.yul\":13211:13214   */\n      dup7\n        /* \"#utility.yul\":13207:13221   */\n      add\n        /* \"#utility.yul\":13193:13205   */\n      dup3\n        /* \"#utility.yul\":13159:13222   */\n      tag_197\n      jump\t// in\n    tag_379:\n        /* \"#utility.yul\":13070:13232   */\n      pop\n        /* \"#utility.yul\":13316:13320   */\n      0x20\n        /* \"#utility.yul\":13309:13314   */\n      dup4\n        /* \"#utility.yul\":13305:13321   */\n      add\n        /* \"#utility.yul\":13299:13322   */\n      mload\n        /* \"#utility.yul\":13335:13398   */\n      tag_380\n        /* \"#utility.yul\":13392:13396   */\n      0x20\n        /* \"#utility.yul\":13387:13390   */\n      dup7\n        /* \"#utility.yul\":13383:13397   */\n      add\n        /* \"#utility.yul\":13369:13381   */\n      dup3\n        /* \"#utility.yul\":13335:13398   */\n      tag_198\n      jump\t// in\n    tag_380:\n        /* \"#utility.yul\":13242:13408   */\n      pop\n        /* \"#utility.yul\":13493:13497   */\n      0x40\n        /* \"#utility.yul\":13486:13491   */\n      dup4\n        /* \"#utility.yul\":13482:13498   */\n      add\n        /* \"#utility.yul\":13476:13499   */\n      mload\n        /* \"#utility.yul\":13546:13549   */\n      dup5\n        /* \"#utility.yul\":13540:13544   */\n      dup3\n        /* \"#utility.yul\":13536:13550   */\n      sub\n        /* \"#utility.yul\":13529:13533   */\n      0x40\n        /* \"#utility.yul\":13524:13527   */\n      dup7\n        /* \"#utility.yul\":13520:13534   */\n      add\n        /* \"#utility.yul\":13513:13551   */\n      mstore\n        /* \"#utility.yul\":13572:13645   */\n      tag_381\n        /* \"#utility.yul\":13640:13644   */\n      dup3\n        /* \"#utility.yul\":13626:13638   */\n      dup3\n        /* \"#utility.yul\":13572:13645   */\n      tag_200\n      jump\t// in\n    tag_381:\n        /* \"#utility.yul\":13564:13645   */\n      swap2\n      pop\n        /* \"#utility.yul\":13418:13656   */\n      pop\n        /* \"#utility.yul\":13743:13747   */\n      0x60\n        /* \"#utility.yul\":13736:13741   */\n      dup4\n        /* \"#utility.yul\":13732:13748   */\n      add\n        /* \"#utility.yul\":13726:13749   */\n      mload\n        /* \"#utility.yul\":13762:13825   */\n      tag_382\n        /* \"#utility.yul\":13819:13823   */\n      0x60\n        /* \"#utility.yul\":13814:13817   */\n      dup7\n        /* \"#utility.yul\":13810:13824   */\n      add\n        /* \"#utility.yul\":13796:13808   */\n      dup3\n        /* \"#utility.yul\":13762:13825   */\n      tag_197\n      jump\t// in\n    tag_382:\n        /* \"#utility.yul\":13666:13835   */\n      pop\n        /* \"#utility.yul\":13918:13922   */\n      0x80\n        /* \"#utility.yul\":13911:13916   */\n      dup4\n        /* \"#utility.yul\":13907:13923   */\n      add\n        /* \"#utility.yul\":13901:13924   */\n      mload\n        /* \"#utility.yul\":13937:14000   */\n      tag_383\n        /* \"#utility.yul\":13994:13998   */\n      0x80\n        /* \"#utility.yul\":13989:13992   */\n      dup7\n        /* \"#utility.yul\":13985:13999   */\n      add\n        /* \"#utility.yul\":13971:13983   */\n      dup3\n        /* \"#utility.yul\":13937:14000   */\n      tag_197\n      jump\t// in\n    tag_383:\n        /* \"#utility.yul\":13845:14010   */\n      pop\n        /* \"#utility.yul\":14027:14031   */\n      dup1\n        /* \"#utility.yul\":14020:14031   */\n      swap2\n      pop\n        /* \"#utility.yul\":13024:14037   */\n      pop\n        /* \"#utility.yul\":12906:14037   */\n      swap3\n      swap2\n      pop\n      pop\n      jump\t// out\n        /* \"#utility.yul\":14043:14404   */\n    tag_62:\n        /* \"#utility.yul\":14180:14184   */\n      0x00\n        /* \"#utility.yul\":14218:14220   */\n      0x20\n        /* \"#utility.yul\":14207:14216   */\n      dup3\n        /* \"#utility.yul\":14203:14221   */\n      add\n        /* \"#utility.yul\":14195:14221   */\n      swap1\n      pop\n        /* \"#utility.yul\":14267:14276   */\n      dup2\n        /* \"#utility.yul\":14261:14265   */\n      dup2\n        /* \"#utility.yul\":14257:14277   */\n      sub\n        /* \"#utility.yul\":14253:14254   */\n      0x00\n        /* \"#utility.yul\":14242:14251   */\n      dup4\n        /* \"#utility.yul\":14238:14255   */\n      add\n        /* \"#utility.yul\":14231:14278   */\n      mstore\n        /* \"#utility.yul\":14295:14397   */\n      tag_385\n        /* \"#utility.yul\":14392:14396   */\n      dup2\n        /* \"#utility.yul\":14383:14389   */\n      dup5\n        /* \"#utility.yul\":14295:14397   */\n      tag_218\n      jump\t// in\n    tag_385:\n        /* \"#utility.yul\":14287:14397   */\n      swap1\n      pop\n        /* \"#utility.yul\":14043:14404   */\n      swap3\n      swap2\n      pop\n      pop\n      jump\t// out\n        /* \"#utility.yul\":14410:14590   */\n    tag_219:\n        /* \"#utility.yul\":14458:14535   */\n      0x4e487b7100000000000000000000000000000000000000000000000000000000\n        /* \"#utility.yul\":14455:14456   */\n      0x00\n        /* \"#utility.yul\":14448:14536   */\n      mstore\n        /* \"#utility.yul\":14555:14559   */\n      0x22\n        /* \"#utility.yul\":14552:14553   */\n      0x04\n        /* \"#utility.yul\":14545:14560   */\n      mstore\n        /* \"#utility.yul\":14579:14583   */\n      0x24\n        /* \"#utility.yul\":14576:14577   */\n      0x00\n        /* \"#utility.yul\":14569:14584   */\n      revert\n        /* \"#utility.yul\":14596:14916   */\n    tag_69:\n        /* \"#utility.yul\":14640:14646   */\n      0x00\n        /* \"#utility.yul\":14677:14678   */\n      0x02\n        /* \"#utility.yul\":14671:14675   */\n      dup3\n        /* \"#utility.yul\":14667:14679   */\n      div\n        /* \"#utility.yul\":14657:14679   */\n      swap1\n      pop\n        /* \"#utility.yul\":14724:14725   */\n      0x01\n        /* \"#utility.yul\":14718:14722   */\n      dup3\n        /* \"#utility.yul\":14714:14726   */\n      and\n        /* \"#utility.yul\":14745:14763   */\n      dup1\n        /* \"#utility.yul\":14735:14816   */\n      tag_388\n      jumpi\n        /* \"#utility.yul\":14801:14805   */\n      0x7f\n        /* \"#utility.yul\":14793:14799   */\n      dup3\n        /* \"#utility.yul\":14789:14806   */\n      and\n        /* \"#utility.yul\":14779:14806   */\n      swap2\n      pop\n        /* \"#utility.yul\":14735:14816   */\n    tag_388:\n        /* \"#utility.yul\":14863:14865   */\n      0x20\n        /* \"#utility.yul\":14855:14861   */\n      dup3\n        /* \"#utility.yul\":14852:14866   */\n      lt\n        /* \"#utility.yul\":14832:14850   */\n      dup2\n        /* \"#utility.yul\":14829:14867   */\n      sub\n        /* \"#utility.yul\":14826:14910   */\n      tag_389\n      jumpi\n        /* \"#utility.yul\":14882:14900   */\n      tag_390\n      tag_219\n      jump\t// in\n    tag_390:\n        /* \"#utility.yul\":14826:14910   */\n    tag_389:\n        /* \"#utility.yul\":14647:14916   */\n      pop\n        /* \"#utility.yul\":14596:14916   */\n      swap2\n      swap1\n      pop\n      jump\t// out\n        /* \"#utility.yul\":14922:15102   */\n    tag_86:\n        /* \"#utility.yul\":14970:15047   */\n      0x4e487b7100000000000000000000000000000000000000000000000000000000\n        /* \"#utility.yul\":14967:14968   */\n      0x00\n        /* \"#utility.yul\":14960:15048   */\n      mstore\n        /* \"#utility.yul\":15067:15071   */\n      0x32\n        /* \"#utility.yul\":15064:15065   */\n      0x04\n        /* \"#utility.yul\":15057:15072   */\n      mstore\n        /* \"#utility.yul\":15091:15095   */\n      0x24\n        /* \"#utility.yul\":15088:15089   */\n      0x00\n        /* \"#utility.yul\":15081:15096   */\n      revert\n        /* \"#utility.yul\":15108:15278   */\n    tag_220:\n        /* \"#utility.yul\":15248:15270   */\n      0x545745455420444f4553204e4f54204558495354000000000000000000000000\n        /* \"#utility.yul\":15244:15245   */\n      0x00\n        /* \"#utility.yul\":15236:15242   */\n      dup3\n        /* \"#utility.yul\":15232:15246   */\n      add\n        /* \"#utility.yul\":15225:15271   */\n      mstore\n        /* \"#utility.yul\":15108:15278   */\n      pop\n      jump\t// out\n        /* \"#utility.yul\":15284:15650   */\n    tag_221:\n        /* \"#utility.yul\":15426:15429   */\n      0x00\n        /* \"#utility.yul\":15447:15514   */\n      tag_394\n        /* \"#utility.yul\":15511:15513   */\n      0x14\n        /* \"#utility.yul\":15506:15509   */\n      dup4\n        /* \"#utility.yul\":15447:15514   */\n      tag_190\n      jump\t// in\n    tag_394:\n        /* \"#utility.yul\":15440:15514   */\n      swap2\n      pop\n        /* \"#utility.yul\":15523:15616   */\n      tag_395\n        /* \"#utility.yul\":15612:15615   */\n      dup3\n        /* \"#utility.yul\":15523:15616   */\n      tag_220\n      jump\t// in\n    tag_395:\n        /* \"#utility.yul\":15641:15643   */\n      0x20\n        /* \"#utility.yul\":15636:15639   */\n      dup3\n        /* \"#utility.yul\":15632:15644   */\n      add\n        /* \"#utility.yul\":15625:15644   */\n      swap1\n      pop\n        /* \"#utility.yul\":15284:15650   */\n      swap2\n      swap1\n      pop\n      jump\t// out\n        /* \"#utility.yul\":15656:16075   */\n    tag_90:\n        /* \"#utility.yul\":15822:15826   */\n      0x00\n        /* \"#utility.yul\":15860:15862   */\n      0x20\n        /* \"#utility.yul\":15849:15858   */\n      dup3\n        /* \"#utility.yul\":15845:15863   */\n      add\n        /* \"#utility.yul\":15837:15863   */\n      swap1\n      pop\n        /* \"#utility.yul\":15909:15918   */\n      dup2\n        /* \"#utility.yul\":15903:15907   */\n      dup2\n        /* \"#utility.yul\":15899:15919   */\n      sub\n        /* \"#utility.yul\":15895:15896   */\n      0x00\n        /* \"#utility.yul\":15884:15893   */\n      dup4\n        /* \"#utility.yul\":15880:15897   */\n      add\n        /* \"#utility.yul\":15873:15920   */\n      mstore\n        /* \"#utility.yul\":15937:16068   */\n      tag_397\n        /* \"#utility.yul\":16063:16067   */\n      dup2\n        /* \"#utility.yul\":15937:16068   */\n      tag_221\n      jump\t// in\n    tag_397:\n        /* \"#utility.yul\":15929:16068   */\n      swap1\n      pop\n        /* \"#utility.yul\":15656:16075   */\n      swap2\n      swap1\n      pop\n      jump\t// out\n        /* \"#utility.yul\":16081:16249   */\n    tag_222:\n        /* \"#utility.yul\":16221:16241   */\n      0x545745455420484153204e4f204c494b45530000000000000000000000000000\n        /* \"#utility.yul\":16217:16218   */\n      0x00\n        /* \"#utility.yul\":16209:16215   */\n      dup3\n        /* \"#utility.yul\":16205:16219   */\n      add\n        /* \"#utility.yul\":16198:16242   */\n      mstore\n        /* \"#utility.yul\":16081:16249   */\n      pop\n      jump\t// out\n        /* \"#utility.yul\":16255:16621   */\n    tag_223:\n        /* \"#utility.yul\":16397:16400   */\n      0x00\n        /* \"#utility.yul\":16418:16485   */\n      tag_400\n        /* \"#utility.yul\":16482:16484   */\n      0x12\n        /* \"#utility.yul\":16477:16480   */\n      dup4\n        /* \"#utility.yul\":16418:16485   */\n      tag_190\n      jump\t// in\n    tag_400:\n        /* \"#utility.yul\":16411:16485   */\n      swap2\n      pop\n        /* \"#utility.yul\":16494:16587   */\n      tag_401\n        /* \"#utility.yul\":16583:16586   */\n      dup3\n        /* \"#utility.yul\":16494:16587   */\n      tag_222\n      jump\t// in\n    tag_401:\n        /* \"#utility.yul\":16612:16614   */\n      0x20\n        /* \"#utility.yul\":16607:16610   */\n      dup3\n        /* \"#utility.yul\":16603:16615   */\n      add\n        /* \"#utility.yul\":16596:16615   */\n      swap1\n      pop\n        /* \"#utility.yul\":16255:16621   */\n      swap2\n      swap1\n      pop\n      jump\t// out\n        /* \"#utility.yul\":16627:17046   */\n    tag_96:\n        /* \"#utility.yul\":16793:16797   */\n      0x00\n        /* \"#utility.yul\":16831:16833   */\n      0x20\n        /* \"#utility.yul\":16820:16829   */\n      dup3\n        /* \"#utility.yul\":16816:16834   */\n      add\n        /* \"#utility.yul\":16808:16834   */\n      swap1\n      pop\n        /* \"#utility.yul\":16880:16889   */\n      dup2\n        /* \"#utility.yul\":16874:16878   */\n      dup2\n        /* \"#utility.yul\":16870:16890   */\n      sub\n        /* \"#utility.yul\":16866:16867   */\n      0x00\n        /* \"#utility.yul\":16855:16864   */\n      dup4\n        /* \"#utility.yul\":16851:16868   */\n      add\n        /* \"#utility.yul\":16844:16891   */\n      mstore\n        /* \"#utility.yul\":16908:17039   */\n      tag_403\n        /* \"#utility.yul\":17034:17038   */\n      dup2\n        /* \"#utility.yul\":16908:17039   */\n      tag_223\n      jump\t// in\n    tag_403:\n        /* \"#utility.yul\":16900:17039   */\n      swap1\n      pop\n        /* \"#utility.yul\":16627:17046   */\n      swap2\n      swap1\n      pop\n      jump\t// out\n        /* \"#utility.yul\":17052:17232   */\n    tag_224:\n        /* \"#utility.yul\":17100:17177   */\n      0x4e487b7100000000000000000000000000000000000000000000000000000000\n        /* \"#utility.yul\":17097:17098   */\n      0x00\n        /* \"#utility.yul\":17090:17178   */\n      mstore\n        /* \"#utility.yul\":17197:17201   */\n      0x11\n        /* \"#utility.yul\":17194:17195   */\n      0x04\n        /* \"#utility.yul\":17187:17202   */\n      mstore\n        /* \"#utility.yul\":17221:17225   */\n      0x24\n        /* \"#utility.yul\":17218:17219   */\n      0x00\n        /* \"#utility.yul\":17211:17226   */\n      revert\n        /* \"#utility.yul\":17238:17409   */\n    tag_101:\n        /* \"#utility.yul\":17277:17280   */\n      0x00\n        /* \"#utility.yul\":17300:17324   */\n      tag_406\n        /* \"#utility.yul\":17318:17323   */\n      dup3\n        /* \"#utility.yul\":17300:17324   */\n      tag_184\n      jump\t// in\n    tag_406:\n        /* \"#utility.yul\":17291:17324   */\n      swap2\n      pop\n        /* \"#utility.yul\":17346:17350   */\n      0x00\n        /* \"#utility.yul\":17339:17344   */\n      dup3\n        /* \"#utility.yul\":17336:17351   */\n      sub\n        /* \"#utility.yul\":17333:17374   */\n      tag_407\n      jumpi\n        /* \"#utility.yul\":17354:17372   */\n      tag_408\n      tag_224\n      jump\t// in\n    tag_408:\n        /* \"#utility.yul\":17333:17374   */\n    tag_407:\n        /* \"#utility.yul\":17401:17402   */\n      0x01\n        /* \"#utility.yul\":17394:17399   */\n      dup3\n        /* \"#utility.yul\":17390:17403   */\n      sub\n        /* \"#utility.yul\":17383:17403   */\n      swap1\n      pop\n        /* \"#utility.yul\":17238:17409   */\n      swap2\n      swap1\n      pop\n      jump\t// out\n        /* \"#utility.yul\":17415:17968   */\n    tag_106:\n        /* \"#utility.yul\":17592:17596   */\n      0x00\n        /* \"#utility.yul\":17630:17633   */\n      0x80\n        /* \"#utility.yul\":17619:17628   */\n      dup3\n        /* \"#utility.yul\":17615:17634   */\n      add\n        /* \"#utility.yul\":17607:17634   */\n      swap1\n      pop\n        /* \"#utility.yul\":17644:17715   */\n      tag_410\n        /* \"#utility.yul\":17712:17713   */\n      0x00\n        /* \"#utility.yul\":17701:17710   */\n      dup4\n        /* \"#utility.yul\":17697:17714   */\n      add\n        /* \"#utility.yul\":17688:17694   */\n      dup8\n        /* \"#utility.yul\":17644:17715   */\n      tag_188\n      jump\t// in\n    tag_410:\n        /* \"#utility.yul\":17725:17797   */\n      tag_411\n        /* \"#utility.yul\":17793:17795   */\n      0x20\n        /* \"#utility.yul\":17782:17791   */\n      dup4\n        /* \"#utility.yul\":17778:17796   */\n      add\n        /* \"#utility.yul\":17769:17775   */\n      dup7\n        /* \"#utility.yul\":17725:17797   */\n      tag_188\n      jump\t// in\n    tag_411:\n        /* \"#utility.yul\":17807:17879   */\n      tag_412\n        /* \"#utility.yul\":17875:17877   */\n      0x40\n        /* \"#utility.yul\":17864:17873   */\n      dup4\n        /* \"#utility.yul\":17860:17878   */\n      add\n        /* \"#utility.yul\":17851:17857   */\n      dup6\n        /* \"#utility.yul\":17807:17879   */\n      tag_187\n      jump\t// in\n    tag_412:\n        /* \"#utility.yul\":17889:17961   */\n      tag_413\n        /* \"#utility.yul\":17957:17959   */\n      0x60\n        /* \"#utility.yul\":17946:17955   */\n      dup4\n        /* \"#utility.yul\":17942:17960   */\n      add\n        /* \"#utility.yul\":17933:17939   */\n      dup5\n        /* \"#utility.yul\":17889:17961   */\n      tag_187\n      jump\t// in\n    tag_413:\n        /* \"#utility.yul\":17415:17968   */\n      swap6\n      swap5\n      pop\n      pop\n      pop\n      pop\n      pop\n      jump\t// out\n        /* \"#utility.yul\":17974:18207   */\n    tag_121:\n        /* \"#utility.yul\":18013:18016   */\n      0x00\n        /* \"#utility.yul\":18036:18060   */\n      tag_415\n        /* \"#utility.yul\":18054:18059   */\n      dup3\n        /* \"#utility.yul\":18036:18060   */\n      tag_184\n      jump\t// in\n    tag_415:\n        /* \"#utility.yul\":18027:18060   */\n      swap2\n      pop\n        /* \"#utility.yul\":18082:18148   */\n      0xffffffffffffffffffffffffffffffffffffffffffffffffffffffffffffffff\n        /* \"#utility.yul\":18075:18080   */\n      dup3\n        /* \"#utility.yul\":18072:18149   */\n      sub\n        /* \"#utility.yul\":18069:18172   */\n      tag_416\n      jumpi\n        /* \"#utility.yul\":18152:18170   */\n      tag_417\n      tag_224\n      jump\t// in\n    tag_417:\n        /* \"#utility.yul\":18069:18172   */\n    tag_416:\n        /* \"#utility.yul\":18199:18200   */\n      0x01\n        /* \"#utility.yul\":18192:18197   */\n      dup3\n        /* \"#utility.yul\":18188:18201   */\n      add\n        /* \"#utility.yul\":18181:18201   */\n      swap1\n      pop\n        /* \"#utility.yul\":17974:18207   */\n      swap2\n      swap1\n      pop\n      jump\t// out\n        /* \"#utility.yul\":18213:18385   */\n    tag_225:\n        /* \"#utility.yul\":18353:18377   */\n      0x547765657420697320746f6f206c6f6e672062726f2100000000000000000000\n        /* \"#utility.yul\":18349:18350   */\n      0x00\n        /* \"#utility.yul\":18341:18347   */\n      dup3\n        /* \"#utility.yul\":18337:18351   */\n      add\n        /* \"#utility.yul\":18330:18378   */\n      mstore\n        /* \"#utility.yul\":18213:18385   */\n      pop\n      jump\t// out\n        /* \"#utility.yul\":18391:18757   */\n    tag_226:\n        /* \"#utility.yul\":18533:18536   */\n      0x00\n        /* \"#utility.yul\":18554:18621   */\n      tag_420\n        /* \"#utility.yul\":18618:18620   */\n      0x16\n        /* \"#utility.yul\":18613:18616   */\n      dup4\n        /* \"#utility.yul\":18554:18621   */\n      tag_190\n      jump\t// in\n    tag_420:\n        /* \"#utility.yul\":18547:18621   */\n      swap2\n      pop\n        /* \"#utility.yul\":18630:18723   */\n      tag_421\n        /* \"#utility.yul\":18719:18722   */\n      dup3\n        /* \"#utility.yul\":18630:18723   */\n      tag_225\n      jump\t// in\n    tag_421:\n        /* \"#utility.yul\":18748:18750   */\n      0x20\n        /* \"#utility.yul\":18743:18746   */\n      dup3\n        /* \"#utility.yul\":18739:18751   */\n      add\n        /* \"#utility.yul\":18732:18751   */\n      swap1\n      pop\n        /* \"#utility.yul\":18391:18757   */\n      swap2\n      swap1\n      pop\n      jump\t// out\n        /* \"#utility.yul\":18763:19182   */\n    tag_134:\n        /* \"#utility.yul\":18929:18933   */\n      0x00\n        /* \"#utility.yul\":18967:18969   */\n      0x20\n        /* \"#utility.yul\":18956:18965   */\n      dup3\n        /* \"#utility.yul\":18952:18970   */\n      add\n        /* \"#utility.yul\":18944:18970   */\n      swap1\n      pop\n        /* \"#utility.yul\":19016:19025   */\n      dup2\n        /* \"#utility.yul\":19010:19014   */\n      dup2\n        /* \"#utility.yul\":19006:19026   */\n      sub\n        /* \"#utility.yul\":19002:19003   */\n      0x00\n        /* \"#utility.yul\":18991:19000   */\n      dup4\n        /* \"#utility.yul\":18987:19004   */\n      add\n        /* \"#utility.yul\":18980:19027   */\n      mstore\n        /* \"#utility.yul\":19044:19175   */\n      tag_423\n        /* \"#utility.yul\":19170:19174   */\n      dup2\n        /* \"#utility.yul\":19044:19175   */\n      tag_226\n      jump\t// in\n    tag_423:\n        /* \"#utility.yul\":19036:19175   */\n      swap1\n      pop\n        /* \"#utility.yul\":18763:19182   */\n      swap2\n      swap1\n      pop\n      jump\t// out\n        /* \"#utility.yul\":19188:19329   */\n    tag_227:\n        /* \"#utility.yul\":19237:19241   */\n      0x00\n        /* \"#utility.yul\":19260:19263   */\n      dup2\n        /* \"#utility.yul\":19252:19263   */\n      swap1\n      pop\n        /* \"#utility.yul\":19283:19286   */\n      dup2\n        /* \"#utility.yul\":19280:19281   */\n      0x00\n        /* \"#utility.yul\":19273:19287   */\n      mstore\n        /* \"#utility.yul\":19317:19321   */\n      0x20\n        /* \"#utility.yul\":19314:19315   */\n      0x00\n        /* \"#utility.yul\":19304:19322   */\n      keccak256\n        /* \"#utility.yul\":19296:19322   */\n      swap1\n      pop\n        /* \"#utility.yul\":19188:19329   */\n      swap2\n      swap1\n      pop\n      jump\t// out\n        /* \"#utility.yul\":19335:19428   */\n    tag_228:\n        /* \"#utility.yul\":19372:19378   */\n      0x00\n        /* \"#utility.yul\":19419:19421   */\n      0x20\n        /* \"#utility.yul\":19414:19416   */\n      0x1f\n        /* \"#utility.yul\":19407:19412   */\n      dup4\n        /* \"#utility.yul\":19403:19417   */\n      add\n        /* \"#utility.yul\":19399:19422   */\n      div\n        /* \"#utility.yul\":19389:19422   */\n      swap1\n      pop\n        /* \"#utility.yul\":19335:19428   */\n      swap2\n      swap1\n      pop\n      jump\t// out\n        /* \"#utility.yul\":19434:19541   */\n    tag_229:\n        /* \"#utility.yul\":19478:19486   */\n      0x00\n        /* \"#utility.yul\":19528:19533   */\n      dup3\n        /* \"#utility.yul\":19522:19526   */\n      dup3\n        /* \"#utility.yul\":19518:19534   */\n      shl\n        /* \"#utility.yul\":19497:19534   */\n      swap1\n      pop\n        /* \"#utility.yul\":19434:19541   */\n      swap3\n      swap2\n      pop\n      pop\n      jump\t// out\n        /* \"#utility.yul\":19547:19940   */\n    tag_230:\n        /* \"#utility.yul\":19616:19622   */\n      0x00\n        /* \"#utility.yul\":19666:19667   */\n      0x08\n        /* \"#utility.yul\":19654:19664   */\n      dup4\n        /* \"#utility.yul\":19650:19668   */\n      mul\n        /* \"#utility.yul\":19689:19786   */\n      tag_428\n        /* \"#utility.yul\":19719:19785   */\n      0xffffffffffffffffffffffffffffffffffffffffffffffffffffffffffffffff\n        /* \"#utility.yul\":19708:19717   */\n      dup3\n        /* \"#utility.yul\":19689:19786   */\n      tag_229\n      jump\t// in\n    tag_428:\n        /* \"#utility.yul\":19807:19846   */\n      tag_429\n        /* \"#utility.yul\":19837:19845   */\n      dup7\n        /* \"#utility.yul\":19826:19835   */\n      dup4\n        /* \"#utility.yul\":19807:19846   */\n      tag_229\n      jump\t// in\n    tag_429:\n        /* \"#utility.yul\":19795:19846   */\n      swap6\n      pop\n        /* \"#utility.yul\":19879:19883   */\n      dup1\n        /* \"#utility.yul\":19875:19884   */\n      not\n        /* \"#utility.yul\":19868:19873   */\n      dup5\n        /* \"#utility.yul\":19864:19885   */\n      and\n        /* \"#utility.yul\":19855:19885   */\n      swap4\n      pop\n        /* \"#utility.yul\":19928:19932   */\n      dup1\n        /* \"#utility.yul\":19918:19926   */\n      dup7\n        /* \"#utility.yul\":19914:19933   */\n      and\n        /* \"#utility.yul\":19907:19912   */\n      dup5\n        /* \"#utility.yul\":19904:19934   */\n      or\n        /* \"#utility.yul\":19894:19934   */\n      swap3\n      pop\n        /* \"#utility.yul\":19623:19940   */\n      pop\n      pop\n        /* \"#utility.yul\":19547:19940   */\n      swap4\n      swap3\n      pop\n      pop\n      pop\n      jump\t// out\n        /* \"#utility.yul\":19946:20006   */\n    tag_231:\n        /* \"#utility.yul\":19974:19977   */\n      0x00\n        /* \"#utility.yul\":19995:20000   */\n      dup2\n        /* \"#utility.yul\":19988:20000   */\n      swap1\n      pop\n        /* \"#utility.yul\":19946:20006   */\n      swap2\n      swap1\n      pop\n      jump\t// out\n        /* \"#utility.yul\":20012:20154   */\n    tag_232:\n        /* \"#utility.yul\":20062:20071   */\n      0x00\n        /* \"#utility.yul\":20095:20148   */\n      tag_432\n        /* \"#utility.yul\":20113:20147   */\n      tag_433\n        /* \"#utility.yul\":20122:20146   */\n      tag_434\n        /* \"#utility.yul\":20140:20145   */\n      dup5\n        /* \"#utility.yul\":20122:20146   */\n      tag_184\n      jump\t// in\n    tag_434:\n        /* \"#utility.yul\":20113:20147   */\n      tag_231\n      jump\t// in\n    tag_433:\n        /* \"#utility.yul\":20095:20148   */\n      tag_184\n      jump\t// in\n    tag_432:\n        /* \"#utility.yul\":20082:20148   */\n      swap1\n      pop\n        /* \"#utility.yul\":20012:20154   */\n      swap2\n      swap1\n      pop\n      jump\t// out\n        /* \"#utility.yul\":20160:20235   */\n    tag_233:\n        /* \"#utility.yul\":20203:20206   */\n      0x00\n        /* \"#utility.yul\":20224:20229   */\n      dup2\n        /* \"#utility.yul\":20217:20229   */\n      swap1\n      pop\n        /* \"#utility.yul\":20160:20235   */\n      swap2\n      swap1\n      pop\n      jump\t// out\n        /* \"#utility.yul\":20241:20510   */\n    tag_234:\n        /* \"#utility.yul\":20351:20390   */\n      tag_437\n        /* \"#utility.yul\":20382:20389   */\n      dup4\n        /* \"#utility.yul\":20351:20390   */\n      tag_232\n      jump\t// in\n    tag_437:\n        /* \"#utility.yul\":20412:20503   */\n      tag_438\n        /* \"#utility.yul\":20461:20502   */\n      tag_439\n        /* \"#utility.yul\":20485:20501   */\n      dup3\n        /* \"#utility.yul\":20461:20502   */\n      tag_233\n      jump\t// in\n    tag_439:\n        /* \"#utility.yul\":20453:20459   */\n      dup5\n        /* \"#utility.yul\":20446:20450   */\n      dup5\n        /* \"#utility.yul\":20440:20451   */\n      sload\n        /* \"#utility.yul\":20412:20503   */\n      tag_230\n      jump\t// in\n    tag_438:\n        /* \"#utility.yul\":20406:20410   */\n      dup3\n        /* \"#utility.yul\":20399:20504   */\n      sstore\n        /* \"#utility.yul\":20317:20510   */\n      pop\n        /* \"#utility.yul\":20241:20510   */\n      pop\n      pop\n      pop\n      jump\t// out\n        /* \"#utility.yul\":20516:20589   */\n    tag_235:\n        /* \"#utility.yul\":20561:20564   */\n      0x00\n        /* \"#utility.yul\":20582:20583   */\n      0x00\n        /* \"#utility.yul\":20575:20583   */\n      swap1\n      pop\n        /* \"#utility.yul\":20516:20589   */\n      swap1\n      jump\t// out\n        /* \"#utility.yul\":20595:20784   */\n    tag_236:\n        /* \"#utility.yul\":20672:20704   */\n      tag_442\n      tag_235\n      jump\t// in\n    tag_442:\n        /* \"#utility.yul\":20713:20778   */\n      tag_443\n        /* \"#utility.yul\":20771:20777   */\n      dup2\n        /* \"#utility.yul\":20763:20769   */\n      dup5\n        /* \"#utility.yul\":20757:20761   */\n      dup5\n        /* \"#utility.yul\":20713:20778   */\n      tag_234\n      jump\t// in\n    tag_443:\n        /* \"#utility.yul\":20648:20784   */\n      pop\n        /* \"#utility.yul\":20595:20784   */\n      pop\n      pop\n      jump\t// out\n        /* \"#utility.yul\":20790:20976   */\n    tag_237:\n        /* \"#utility.yul\":20850:20970   */\n    tag_445:\n        /* \"#utility.yul\":20867:20870   */\n      dup2\n        /* \"#utility.yul\":20860:20865   */\n      dup2\n        /* \"#utility.yul\":20857:20871   */\n      lt\n        /* \"#utility.yul\":20850:20970   */\n      iszero\n      tag_447\n      jumpi\n        /* \"#utility.yul\":20921:20960   */\n      tag_448\n        /* \"#utility.yul\":20958:20959   */\n      0x00\n        /* \"#utility.yul\":20951:20956   */\n      dup3\n        /* \"#utility.yul\":20921:20960   */\n      tag_236\n      jump\t// in\n    tag_448:\n        /* \"#utility.yul\":20894:20895   */\n      0x01\n        /* \"#utility.yul\":20887:20892   */\n      dup2\n        /* \"#utility.yul\":20883:20896   */\n      add\n        /* \"#utility.yul\":20874:20896   */\n      swap1\n      pop\n        /* \"#utility.yul\":20850:20970   */\n      jump(tag_445)\n    tag_447:\n        /* \"#utility.yul\":20790:20976   */\n      pop\n      pop\n      jump\t// out\n        /* \"#utility.yul\":20982:21525   */\n    tag_238:\n        /* \"#utility.yul\":21083:21085   */\n      0x1f\n        /* \"#utility.yul\":21078:21081   */\n      dup3\n        /* \"#utility.yul\":21075:21086   */\n      gt\n        /* \"#utility.yul\":21072:21518   */\n      iszero\n      tag_450\n      jumpi\n        /* \"#utility.yul\":21117:21155   */\n      tag_451\n        /* \"#utility.yul\":21149:21154   */\n      dup2\n        /* \"#utility.yul\":21117:21155   */\n      tag_227\n      jump\t// in\n    tag_451:\n        /* \"#utility.yul\":21201:21230   */\n      tag_452\n        /* \"#utility.yul\":21219:21229   */\n      dup5\n        /* \"#utility.yul\":21201:21230   */\n      tag_228\n      jump\t// in\n    tag_452:\n        /* \"#utility.yul\":21191:21199   */\n      dup2\n        /* \"#utility.yul\":21187:21231   */\n      add\n        /* \"#utility.yul\":21384:21386   */\n      0x20\n        /* \"#utility.yul\":21372:21382   */\n      dup6\n        /* \"#utility.yul\":21369:21387   */\n      lt\n        /* \"#utility.yul\":21366:21415   */\n      iszero\n      tag_453\n      jumpi\n        /* \"#utility.yul\":21405:21413   */\n      dup2\n        /* \"#utility.yul\":21390:21413   */\n      swap1\n      pop\n        /* \"#utility.yul\":21366:21415   */\n    tag_453:\n        /* \"#utility.yul\":21428:21508   */\n      tag_454\n        /* \"#utility.yul\":21484:21506   */\n      tag_455\n        /* \"#utility.yul\":21502:21505   */\n      dup6\n        /* \"#utility.yul\":21484:21506   */\n      tag_228\n      jump\t// in\n    tag_455:\n        /* \"#utility.yul\":21474:21482   */\n      dup4\n        /* \"#utility.yul\":21470:21507   */\n      add\n        /* \"#utility.yul\":21457:21468   */\n      dup3\n        /* \"#utility.yul\":21428:21508   */\n      tag_237\n      jump\t// in\n    tag_454:\n        /* \"#utility.yul\":21087:21518   */\n      pop\n      pop\n        /* \"#utility.yul\":21072:21518   */\n    tag_450:\n        /* \"#utility.yul\":20982:21525   */\n      pop\n      pop\n      pop\n      jump\t// out\n        /* \"#utility.yul\":21531:21648   */\n    tag_239:\n        /* \"#utility.yul\":21585:21593   */\n      0x00\n        /* \"#utility.yul\":21635:21640   */\n      dup3\n        /* \"#utility.yul\":21629:21633   */\n      dup3\n        /* \"#utility.yul\":21625:21641   */\n      shr\n        /* \"#utility.yul\":21604:21641   */\n      swap1\n      pop\n        /* \"#utility.yul\":21531:21648   */\n      swap3\n      swap2\n      pop\n      pop\n      jump\t// out\n        /* \"#utility.yul\":21654:21823   */\n    tag_240:\n        /* \"#utility.yul\":21698:21704   */\n      0x00\n        /* \"#utility.yul\":21731:21782   */\n      tag_458\n        /* \"#utility.yul\":21779:21780   */\n      0x00\n        /* \"#utility.yul\":21775:21781   */\n      not\n        /* \"#utility.yul\":21767:21772   */\n      dup5\n        /* \"#utility.yul\":21764:21765   */\n      0x08\n        /* \"#utility.yul\":21760:21773   */\n      mul\n        /* \"#utility.yul\":21731:21782   */\n      tag_239\n      jump\t// in\n    tag_458:\n        /* \"#utility.yul\":21727:21783   */\n      not\n        /* \"#utility.yul\":21812:21816   */\n      dup1\n        /* \"#utility.yul\":21806:21810   */\n      dup4\n        /* \"#utility.yul\":21802:21817   */\n      and\n        /* \"#utility.yul\":21792:21817   */\n      swap2\n      pop\n        /* \"#utility.yul\":21705:21823   */\n      pop\n        /* \"#utility.yul\":21654:21823   */\n      swap3\n      swap2\n      pop\n      pop\n      jump\t// out\n        /* \"#utility.yul\":21828:22123   */\n    tag_241:\n        /* \"#utility.yul\":21904:21908   */\n      0x00\n        /* \"#utility.yul\":22050:22079   */\n      tag_460\n        /* \"#utility.yul\":22075:22078   */\n      dup4\n        /* \"#utility.yul\":22069:22073   */\n      dup4\n        /* \"#utility.yul\":22050:22079   */\n      tag_240\n      jump\t// in\n    tag_460:\n        /* \"#utility.yul\":22042:22079   */\n      swap2\n      pop\n        /* \"#utility.yul\":22112:22115   */\n      dup3\n        /* \"#utility.yul\":22109:22110   */\n      0x02\n        /* \"#utility.yul\":22105:22116   */\n      mul\n        /* \"#utility.yul\":22099:22103   */\n      dup3\n        /* \"#utility.yul\":22096:22117   */\n      or\n        /* \"#utility.yul\":22088:22117   */\n      swap1\n      pop\n        /* \"#utility.yul\":21828:22123   */\n      swap3\n      swap2\n      pop\n      pop\n      jump\t// out\n        /* \"#utility.yul\":22128:23523   */\n    tag_137:\n        /* \"#utility.yul\":22245:22282   */\n      tag_462\n        /* \"#utility.yul\":22278:22281   */\n      dup3\n        /* \"#utility.yul\":22245:22282   */\n      tag_189\n      jump\t// in\n    tag_462:\n        /* \"#utility.yul\":22347:22365   */\n      0xffffffffffffffff\n        /* \"#utility.yul\":22339:22345   */\n      dup2\n        /* \"#utility.yul\":22336:22366   */\n      gt\n        /* \"#utility.yul\":22333:22389   */\n      iszero\n      tag_463\n      jumpi\n        /* \"#utility.yul\":22369:22387   */\n      tag_464\n      tag_211\n      jump\t// in\n    tag_464:\n        /* \"#utility.yul\":22333:22389   */\n    tag_463:\n        /* \"#utility.yul\":22413:22451   */\n      tag_465\n        /* \"#utility.yul\":22445:22449   */\n      dup3\n        /* \"#utility.yul\":22439:22450   */\n      sload\n        /* \"#utility.yul\":22413:22451   */\n      tag_69\n      jump\t// in\n    tag_465:\n        /* \"#utility.yul\":22498:22565   */\n      tag_466\n        /* \"#utility.yul\":22558:22564   */\n      dup3\n        /* \"#utility.yul\":22550:22556   */\n      dup3\n        /* \"#utility.yul\":22544:22548   */\n      dup6\n        /* \"#utility.yul\":22498:22565   */\n      tag_238\n      jump\t// in\n    tag_466:\n        /* \"#utility.yul\":22592:22593   */\n      0x00\n        /* \"#utility.yul\":22616:22620   */\n      0x20\n        /* \"#utility.yul\":22603:22620   */\n      swap1\n      pop\n        /* \"#utility.yul\":22648:22650   */\n      0x1f\n        /* \"#utility.yul\":22640:22646   */\n      dup4\n        /* \"#utility.yul\":22637:22651   */\n      gt\n        /* \"#utility.yul\":22665:22666   */\n      0x01\n        /* \"#utility.yul\":22660:23278   */\n      dup2\n      eq\n      tag_468\n      jumpi\n        /* \"#utility.yul\":23322:23323   */\n      0x00\n        /* \"#utility.yul\":23339:23345   */\n      dup5\n        /* \"#utility.yul\":23336:23413   */\n      iszero\n      tag_469\n      jumpi\n        /* \"#utility.yul\":23388:23397   */\n      dup3\n        /* \"#utility.yul\":23383:23386   */\n      dup8\n        /* \"#utility.yul\":23379:23398   */\n      add\n        /* \"#utility.yul\":23373:23399   */\n      mload\n        /* \"#utility.yul\":23364:23399   */\n      swap1\n      pop\n        /* \"#utility.yul\":23336:23413   */\n    tag_469:\n        /* \"#utility.yul\":23439:23506   */\n      tag_470\n        /* \"#utility.yul\":23499:23505   */\n      dup6\n        /* \"#utility.yul\":23492:23497   */\n      dup3\n        /* \"#utility.yul\":23439:23506   */\n      tag_241\n      jump\t// in\n    tag_470:\n        /* \"#utility.yul\":23433:23437   */\n      dup7\n        /* \"#utility.yul\":23426:23507   */\n      sstore\n        /* \"#utility.yul\":23295:23517   */\n      pop\n        /* \"#utility.yul\":22630:23517   */\n      jump(tag_467)\n        /* \"#utility.yul\":22660:23278   */\n    tag_468:\n        /* \"#utility.yul\":22712:22716   */\n      0x1f\n        /* \"#utility.yul\":22708:22717   */\n      not\n        /* \"#utility.yul\":22700:22706   */\n      dup5\n        /* \"#utility.yul\":22696:22718   */\n      and\n        /* \"#utility.yul\":22746:22783   */\n      tag_471\n        /* \"#utility.yul\":22778:22782   */\n      dup7\n        /* \"#utility.yul\":22746:22783   */\n      tag_227\n      jump\t// in\n    tag_471:\n        /* \"#utility.yul\":22805:22806   */\n      0x00\n        /* \"#utility.yul\":22819:23027   */\n    tag_472:\n        /* \"#utility.yul\":22833:22840   */\n      dup3\n        /* \"#utility.yul\":22830:22831   */\n      dup2\n        /* \"#utility.yul\":22827:22841   */\n      lt\n        /* \"#utility.yul\":22819:23027   */\n      iszero\n      tag_474\n      jumpi\n        /* \"#utility.yul\":22912:22921   */\n      dup5\n        /* \"#utility.yul\":22907:22910   */\n      dup10\n        /* \"#utility.yul\":22903:22922   */\n      add\n        /* \"#utility.yul\":22897:22923   */\n      mload\n        /* \"#utility.yul\":22889:22895   */\n      dup3\n        /* \"#utility.yul\":22882:22924   */\n      sstore\n        /* \"#utility.yul\":22963:22964   */\n      0x01\n        /* \"#utility.yul\":22955:22961   */\n      dup3\n        /* \"#utility.yul\":22951:22965   */\n      add\n        /* \"#utility.yul\":22941:22965   */\n      swap2\n      pop\n        /* \"#utility.yul\":23010:23012   */\n      0x20\n        /* \"#utility.yul\":22999:23008   */\n      dup6\n        /* \"#utility.yul\":22995:23013   */\n      add\n        /* \"#utility.yul\":22982:23013   */\n      swap5\n      pop\n        /* \"#utility.yul\":22856:22860   */\n      0x20\n        /* \"#utility.yul\":22853:22854   */\n      dup2\n        /* \"#utility.yul\":22849:22861   */\n      add\n        /* \"#utility.yul\":22844:22861   */\n      swap1\n      pop\n        /* \"#utility.yul\":22819:23027   */\n      jump(tag_472)\n    tag_474:\n        /* \"#utility.yul\":23055:23061   */\n      dup7\n        /* \"#utility.yul\":23046:23053   */\n      dup4\n        /* \"#utility.yul\":23043:23062   */\n      lt\n        /* \"#utility.yul\":23040:23219   */\n      iszero\n      tag_475\n      jumpi\n        /* \"#utility.yul\":23113:23122   */\n      dup5\n        /* \"#utility.yul\":23108:23111   */\n      dup10\n        /* \"#utility.yul\":23104:23123   */\n      add\n        /* \"#utility.yul\":23098:23124   */\n      mload\n        /* \"#utility.yul\":23156:23204   */\n      tag_476\n        /* \"#utility.yul\":23198:23202   */\n      0x1f\n        /* \"#utility.yul\":23190:23196   */\n      dup10\n        /* \"#utility.yul\":23186:23203   */\n      and\n        /* \"#utility.yul\":23175:23184   */\n      dup3\n        /* \"#utility.yul\":23156:23204   */\n      tag_240\n      jump\t// in\n    tag_476:\n        /* \"#utility.yul\":23148:23154   */\n      dup4\n        /* \"#utility.yul\":23141:23205   */\n      sstore\n        /* \"#utility.yul\":23063:23219   */\n      pop\n        /* \"#utility.yul\":23040:23219   */\n    tag_475:\n        /* \"#utility.yul\":23265:23266   */\n      0x01\n        /* \"#utility.yul\":23261:23262   */\n      0x02\n        /* \"#utility.yul\":23253:23259   */\n      dup9\n        /* \"#utility.yul\":23249:23263   */\n      mul\n        /* \"#utility.yul\":23245:23267   */\n      add\n        /* \"#utility.yul\":23239:23243   */\n      dup9\n        /* \"#utility.yul\":23232:23268   */\n      sstore\n        /* \"#utility.yul\":22667:23278   */\n      pop\n      pop\n      pop\n        /* \"#utility.yul\":22630:23517   */\n    tag_467:\n      pop\n        /* \"#utility.yul\":22220:23523   */\n      pop\n      pop\n      pop\n        /* \"#utility.yul\":22128:23523   */\n      pop\n      pop\n      jump\t// out\n        /* \"#utility.yul\":23529:24173   */\n    tag_139:\n        /* \"#utility.yul\":23726:23730   */\n      0x00\n        /* \"#utility.yul\":23764:23767   */\n      0x80\n        /* \"#utility.yul\":23753:23762   */\n      dup3\n        /* \"#utility.yul\":23749:23768   */\n      add\n        /* \"#utility.yul\":23741:23768   */\n      swap1\n      pop\n        /* \"#utility.yul\":23778:23849   */\n      tag_478\n        /* \"#utility.yul\":23846:23847   */\n      0x00\n        /* \"#utility.yul\":23835:23844   */\n      dup4\n        /* \"#utility.yul\":23831:23848   */\n      add\n        /* \"#utility.yul\":23822:23828   */\n      dup8\n        /* \"#utility.yul\":23778:23849   */\n      tag_187\n      jump\t// in\n    tag_478:\n        /* \"#utility.yul\":23859:23931   */\n      tag_479\n        /* \"#utility.yul\":23927:23929   */\n      0x20\n        /* \"#utility.yul\":23916:23925   */\n      dup4\n        /* \"#utility.yul\":23912:23930   */\n      add\n        /* \"#utility.yul\":23903:23909   */\n      dup7\n        /* \"#utility.yul\":23859:23931   */\n      tag_188\n      jump\t// in\n    tag_479:\n        /* \"#utility.yul\":23978:23987   */\n      dup2\n        /* \"#utility.yul\":23972:23976   */\n      dup2\n        /* \"#utility.yul\":23968:23988   */\n      sub\n        /* \"#utility.yul\":23963:23965   */\n      0x40\n        /* \"#utility.yul\":23952:23961   */\n      dup4\n        /* \"#utility.yul\":23948:23966   */\n      add\n        /* \"#utility.yul\":23941:23989   */\n      mstore\n        /* \"#utility.yul\":24006:24084   */\n      tag_480\n        /* \"#utility.yul\":24079:24083   */\n      dup2\n        /* \"#utility.yul\":24070:24076   */\n      dup6\n        /* \"#utility.yul\":24006:24084   */\n      tag_193\n      jump\t// in\n    tag_480:\n        /* \"#utility.yul\":23998:24084   */\n      swap1\n      pop\n        /* \"#utility.yul\":24094:24166   */\n      tag_481\n        /* \"#utility.yul\":24162:24164   */\n      0x60\n        /* \"#utility.yul\":24151:24160   */\n      dup4\n        /* \"#utility.yul\":24147:24165   */\n      add\n        /* \"#utility.yul\":24138:24144   */\n      dup5\n        /* \"#utility.yul\":24094:24166   */\n      tag_187\n      jump\t// in\n    tag_481:\n        /* \"#utility.yul\":23529:24173   */\n      swap6\n      swap5\n      pop\n      pop\n      pop\n      pop\n      pop\n      jump\t// out\n        /* \"#utility.yul\":24179:24370   */\n    tag_148:\n        /* \"#utility.yul\":24219:24222   */\n      0x00\n        /* \"#utility.yul\":24238:24258   */\n      tag_483\n        /* \"#utility.yul\":24256:24257   */\n      dup3\n        /* \"#utility.yul\":24238:24258   */\n      tag_184\n      jump\t// in\n    tag_483:\n        /* \"#utility.yul\":24233:24258   */\n      swap2\n      pop\n        /* \"#utility.yul\":24272:24292   */\n      tag_484\n        /* \"#utility.yul\":24290:24291   */\n      dup4\n        /* \"#utility.yul\":24272:24292   */\n      tag_184\n      jump\t// in\n    tag_484:\n        /* \"#utility.yul\":24267:24292   */\n      swap3\n      pop\n        /* \"#utility.yul\":24315:24316   */\n      dup3\n        /* \"#utility.yul\":24312:24313   */\n      dup3\n        /* \"#utility.yul\":24308:24317   */\n      add\n        /* \"#utility.yul\":24301:24317   */\n      swap1\n      pop\n        /* \"#utility.yul\":24336:24339   */\n      dup1\n        /* \"#utility.yul\":24333:24334   */\n      dup3\n        /* \"#utility.yul\":24330:24340   */\n      gt\n        /* \"#utility.yul\":24327:24363   */\n      iszero\n      tag_485\n      jumpi\n        /* \"#utility.yul\":24343:24361   */\n      tag_486\n      tag_224\n      jump\t// in\n    tag_486:\n        /* \"#utility.yul\":24327:24363   */\n    tag_485:\n        /* \"#utility.yul\":24179:24370   */\n      swap3\n      swap2\n      pop\n      pop\n      jump\t// out\n        /* \"#utility.yul\":24376:24601   */\n    tag_242:\n        /* \"#utility.yul\":24516:24550   */\n      0x4f776e61626c653a206e6577206f776e657220697320746865207a65726f2061\n        /* \"#utility.yul\":24512:24513   */\n      0x00\n        /* \"#utility.yul\":24504:24510   */\n      dup3\n        /* \"#utility.yul\":24500:24514   */\n      add\n        /* \"#utility.yul\":24493:24551   */\n      mstore\n        /* \"#utility.yul\":24585:24593   */\n      0x6464726573730000000000000000000000000000000000000000000000000000\n        /* \"#utility.yul\":24580:24582   */\n      0x20\n        /* \"#utility.yul\":24572:24578   */\n      dup3\n        /* \"#utility.yul\":24568:24583   */\n      add\n        /* \"#utility.yul\":24561:24594   */\n      mstore\n        /* \"#utility.yul\":24376:24601   */\n      pop\n      jump\t// out\n        /* \"#utility.yul\":24607:24973   */\n    tag_243:\n        /* \"#utility.yul\":24749:24752   */\n      0x00\n        /* \"#utility.yul\":24770:24837   */\n      tag_489\n        /* \"#utility.yul\":24834:24836   */\n      0x26\n        /* \"#utility.yul\":24829:24832   */\n      dup4\n        /* \"#utility.yul\":24770:24837   */\n      tag_190\n      jump\t// in\n    tag_489:\n        /* \"#utility.yul\":24763:24837   */\n      swap2\n      pop\n        /* \"#utility.yul\":24846:24939   */\n      tag_490\n        /* \"#utility.yul\":24935:24938   */\n      dup3\n        /* \"#utility.yul\":24846:24939   */\n      tag_242\n      jump\t// in\n    tag_490:\n        /* \"#utility.yul\":24964:24966   */\n      0x40\n        /* \"#utility.yul\":24959:24962   */\n      dup3\n        /* \"#utility.yul\":24955:24967   */\n      add\n        /* \"#utility.yul\":24948:24967   */\n      swap1\n      pop\n        /* \"#utility.yul\":24607:24973   */\n      swap2\n      swap1\n      pop\n      jump\t// out\n        /* \"#utility.yul\":24979:25398   */\n    tag_166:\n        /* \"#utility.yul\":25145:25149   */\n      0x00\n        /* \"#utility.yul\":25183:25185   */\n      0x20\n        /* \"#utility.yul\":25172:25181   */\n      dup3\n        /* \"#utility.yul\":25168:25186   */\n      add\n        /* \"#utility.yul\":25160:25186   */\n      swap1\n      pop\n        /* \"#utility.yul\":25232:25241   */\n      dup2\n        /* \"#utility.yul\":25226:25230   */\n      dup2\n        /* \"#utility.yul\":25222:25242   */\n      sub\n        /* \"#utility.yul\":25218:25219   */\n      0x00\n        /* \"#utility.yul\":25207:25216   */\n      dup4\n        /* \"#utility.yul\":25203:25220   */\n      add\n        /* \"#utility.yul\":25196:25243   */\n      mstore\n        /* \"#utility.yul\":25260:25391   */\n      tag_492\n        /* \"#utility.yul\":25386:25390   */\n      dup2\n        /* \"#utility.yul\":25260:25391   */\n      tag_243\n      jump\t// in\n    tag_492:\n        /* \"#utility.yul\":25252:25391   */\n      swap1\n      pop\n        /* \"#utility.yul\":24979:25398   */\n      swap2\n      swap1\n      pop\n      jump\t// out\n        /* \"#utility.yul\":25404:25586   */\n    tag_244:\n        /* \"#utility.yul\":25544:25578   */\n      0x4f776e61626c653a2063616c6c6572206973206e6f7420746865206f776e6572\n        /* \"#utility.yul\":25540:25541   */\n      0x00\n        /* \"#utility.yul\":25532:25538   */\n      dup3\n        /* \"#utility.yul\":25528:25542   */\n      add\n        /* \"#utility.yul\":25521:25579   */\n      mstore\n        /* \"#utility.yul\":25404:25586   */\n      pop\n      jump\t// out\n        /* \"#utility.yul\":25592:25958   */\n    tag_245:\n        /* \"#utility.yul\":25734:25737   */\n      0x00\n        /* \"#utility.yul\":25755:25822   */\n      tag_495\n        /* \"#utility.yul\":25819:25821   */\n      0x20\n        /* \"#utility.yul\":25814:25817   */\n      dup4\n        /* \"#utility.yul\":25755:25822   */\n      tag_190\n      jump\t// in\n    tag_495:\n        /* \"#utility.yul\":25748:25822   */\n      swap2\n      pop\n        /* \"#utility.yul\":25831:25924   */\n      tag_496\n        /* \"#utility.yul\":25920:25923   */\n      dup3\n        /* \"#utility.yul\":25831:25924   */\n      tag_244\n      jump\t// in\n    tag_496:\n        /* \"#utility.yul\":25949:25951   */\n      0x20\n        /* \"#utility.yul\":25944:25947   */\n      dup3\n        /* \"#utility.yul\":25940:25952   */\n      add\n        /* \"#utility.yul\":25933:25952   */\n      swap1\n      pop\n        /* \"#utility.yul\":25592:25958   */\n      swap2\n      swap1\n      pop\n      jump\t// out\n        /* \"#utility.yul\":25964:26383   */\n    tag_174:\n        /* \"#utility.yul\":26130:26134   */\n      0x00\n        /* \"#utility.yul\":26168:26170   */\n      0x20\n        /* \"#utility.yul\":26157:26166   */\n      dup3\n        /* \"#utility.yul\":26153:26171   */\n      add\n        /* \"#utility.yul\":26145:26171   */\n      swap1\n      pop\n        /* \"#utility.yul\":26217:26226   */\n      dup2\n        /* \"#utility.yul\":26211:26215   */\n      dup2\n        /* \"#utility.yul\":26207:26227   */\n      sub\n        /* \"#utility.yul\":26203:26204   */\n      0x00\n        /* \"#utility.yul\":26192:26201   */\n      dup4\n        /* \"#utility.yul\":26188:26205   */\n      add\n        /* \"#utility.yul\":26181:26228   */\n      mstore\n        /* \"#utility.yul\":26245:26376   */\n      tag_498\n        /* \"#utility.yul\":26371:26375   */\n      dup2\n        /* \"#utility.yul\":26245:26376   */\n      tag_245\n      jump\t// in\n    tag_498:\n        /* \"#utility.yul\":26237:26376   */\n      swap1\n      pop\n        /* \"#utility.yul\":25964:26383   */\n      swap2\n      swap1\n      pop\n      jump\t// out\n\n    auxdata: 0xa2646970667358221220a59561661de336a6499eee0fb3fd44cb87da07c07711d68a980becb0771fc83c64736f6c634300081e0033\n}\n",
				"bytecode": {
					"linkReferences": {},
					"object": "60806040526101185f60146101000a81548161ffff021916908361ffff16021790555034801561002d575f5ffd5b5061004a61003f61004f60201b60201c565b61005660201b60201c565b610117565b5f33905090565b5f5f5f9054906101000a900473ffffffffffffffffffffffffffffffffffffffff169050815f5f6101000a81548173ffffffffffffffffffffffffffffffffffffffff021916908373ffffffffffffffffffffffffffffffffffffffff1602179055508173ffffffffffffffffffffffffffffffffffffffff168173ffffffffffffffffffffffffffffffffffffffff167f8be0079c531659141344cd1fd0a4f28419497f9722a3daafe3b4186f6b6457e060405160405180910390a35050565b611ceb806101245f395ff3fe608060405234801561000f575f5ffd5b50600436106100b2575f3560e01c8063715018a61161006f578063715018a61461018c5780637c9cd2bc14610196578063820785cc146101b25780638da5cb5b146101e2578063c3ad5ecb14610200578063f2fde38b14610230576100b2565b806305a1b4a9146100b657806312e7ee1c146100ea5780633d9b569f1461011a57806358bfa4ab1461013657806363378216146101525780636eb107971461016e575b5f5ffd5b6100d060048036038101906100cb9190611043565b61024c565b6040516100e195949392919061110f565b60405180910390f35b61010460048036038101906100ff9190611167565b61033d565b6040516101119190611326565b60405180910390f35b610134600480360381019061012f9190611043565b6104d8565b005b610150600480360381019061014b919061137d565b610729565b005b61016c60048036038101906101679190611043565b610750565b005b610176610901565b60405161018391906113b7565b60405180910390f35b610194610914565b005b6101b060048036038101906101ab91906114fc565b610927565b005b6101cc60048036038101906101c79190611167565b610b2c565b6040516101d99190611543565b60405180910390f35b6101ea610bfe565b6040516101f7919061155c565b60405180910390f35b61021a60048036038101906102159190611575565b610c25565b6040516102279190611613565b60405180910390f35b61024a60048036038101906102459190611167565b610d9c565b005b6001602052815f5260405f208181548110610265575f80fd5b905f5260205f2090600502015f9150915050805f015490806001015f9054906101000a900473ffffffffffffffffffffffffffffffffffffffff16908060020180546102b090611660565b80601f01602080910402602001604051908101604052809291908181526020018280546102dc90611660565b80156103275780601f106102fe57610100808354040283529160200191610327565b820191905f5260205f20905b81548152906001019060200180831161030a57829003601f168201915b5050505050908060030154908060040154905085565b606060015f8373ffffffffffffffffffffffffffffffffffffffff1673ffffffffffffffffffffffffffffffffffffffff1681526020019081526020015f20805480602002602001604051908101604052809291908181526020015f905b828210156104cd578382905f5260205f2090600502016040518060a00160405290815f8201548152602001600182015f9054906101000a900473ffffffffffffffffffffffffffffffffffffffff1673ffffffffffffffffffffffffffffffffffffffff1673ffffffffffffffffffffffffffffffffffffffff16815260200160028201805461042a90611660565b80601f016020809104026020016040519081016040528092919081815260200182805461045690611660565b80156104a15780601f10610478576101008083540402835291602001916104a1565b820191905f5260205f20905b81548152906001019060200180831161048457829003601f168201915b50505050508152602001600382015481526020016004820154815250508152602001906001019061039b565b505050509050919050565b8060015f8473ffffffffffffffffffffffffffffffffffffffff1673ffffffffffffffffffffffffffffffffffffffff1681526020019081526020015f20828154811061052857610527611690565b5b905f5260205f2090600502015f015414610577576040517f08c379a000000000000000000000000000000000000000000000000000000000815260040161056e90611707565b60405180910390fd5b5f60015f8473ffffffffffffffffffffffffffffffffffffffff1673ffffffffffffffffffffffffffffffffffffffff1681526020019081526020015f2082815481106105c7576105c6611690565b5b905f5260205f2090600502016004015411610617576040517f08c379a000000000000000000000000000000000000000000000000000000000815260040161060e9061176f565b60405180910390fd5b60015f8373ffffffffffffffffffffffffffffffffffffffff1673ffffffffffffffffffffffffffffffffffffffff1681526020019081526020015f20818154811061066657610665611690565b5b905f5260205f2090600502016004015f815480929190610685906117ba565b91905055507f762c2616349603ac16eba0de8e6141b79129a07ab63bd99e0a80b3a47171694333838360015f8773ffffffffffffffffffffffffffffffffffffffff1673ffffffffffffffffffffffffffffffffffffffff1681526020019081526020015f2085815481106106fd576106fc611690565b5b905f5260205f2090600502016004015460405161071d94939291906117e1565b60405180910390a15050565b610731610e1e565b805f60146101000a81548161ffff021916908361ffff16021790555050565b8060015f8473ffffffffffffffffffffffffffffffffffffffff1673ffffffffffffffffffffffffffffffffffffffff1681526020019081526020015f2082815481106107a05761079f611690565b5b905f5260205f2090600502015f0154146107ef576040517f08c379a00000000000000000000000000000000000000000000000000000000081526004016107e690611707565b60405180910390fd5b60015f8373ffffffffffffffffffffffffffffffffffffffff1673ffffffffffffffffffffffffffffffffffffffff1681526020019081526020015f20818154811061083e5761083d611690565b5b905f5260205f2090600502016004015f81548092919061085d90611824565b91905055507fe8a76fc0f16d11a00d1e93b689b63d76cf60af914dd3d915375dc41d01a0c3c833838360015f8773ffffffffffffffffffffffffffffffffffffffff1673ffffffffffffffffffffffffffffffffffffffff1681526020019081526020015f2085815481106108d5576108d4611690565b5b905f5260205f209060050201600401546040516108f594939291906117e1565b60405180910390a15050565b5f60149054906101000a900461ffff1681565b61091c610e1e565b6109255f610e9c565b565b5f60149054906101000a900461ffff1661ffff168151111561097e576040517f08c379a0000000000000000000000000000000000000000000000000000000008152600401610975906118b5565b60405180910390fd5b5f6040518060a0016040528060015f3373ffffffffffffffffffffffffffffffffffffffff1673ffffffffffffffffffffffffffffffffffffffff1681526020019081526020015f208054905081526020013373ffffffffffffffffffffffffffffffffffffffff1681526020018381526020014281526020015f815250905060015f3373ffffffffffffffffffffffffffffffffffffffff1673ffffffffffffffffffffffffffffffffffffffff1681526020019081526020015f2081908060018154018082558091505060019003905f5260205f2090600502015f909190919091505f820151815f01556020820151816001015f6101000a81548173ffffffffffffffffffffffffffffffffffffffff021916908373ffffffffffffffffffffffffffffffffffffffff1602179055506040820151816002019081610ac59190611a73565b50606082015181600301556080820151816004015550507f16fd3c13e9d46923e0a8bce11c7b473ec508a72e6c96cd2404b29ce972afc29e815f0151826020015183604001518460600151604051610b209493929190611b42565b60405180910390a15050565b5f5f5f5f90505b60015f8573ffffffffffffffffffffffffffffffffffffffff1673ffffffffffffffffffffffffffffffffffffffff1681526020019081526020015f2080549050811015610bf45760015f8573ffffffffffffffffffffffffffffffffffffffff1673ffffffffffffffffffffffffffffffffffffffff1681526020019081526020015f208181548110610bca57610bc9611690565b5b905f5260205f2090600502016004015482610be59190611b8c565b91508080600101915050610b33565b5080915050919050565b5f5f5f9054906101000a900473ffffffffffffffffffffffffffffffffffffffff16905090565b610c2d610f64565b60015f3373ffffffffffffffffffffffffffffffffffffffff1673ffffffffffffffffffffffffffffffffffffffff1681526020019081526020015f208281548110610c7c57610c7b611690565b5b905f5260205f2090600502016040518060a00160405290815f8201548152602001600182015f9054906101000a900473ffffffffffffffffffffffffffffffffffffffff1673ffffffffffffffffffffffffffffffffffffffff1673ffffffffffffffffffffffffffffffffffffffff168152602001600282018054610d0190611660565b80601f0160208091040260200160405190810160405280929190818152602001828054610d2d90611660565b8015610d785780601f10610d4f57610100808354040283529160200191610d78565b820191905f5260205f20905b815481529060010190602001808311610d5b57829003601f168201915b50505050508152602001600382015481526020016004820154815250509050919050565b610da4610e1e565b5f73ffffffffffffffffffffffffffffffffffffffff168173ffffffffffffffffffffffffffffffffffffffff1603610e12576040517f08c379a0000000000000000000000000000000000000000000000000000000008152600401610e0990611c2f565b60405180910390fd5b610e1b81610e9c565b50565b610e26610f5d565b73ffffffffffffffffffffffffffffffffffffffff16610e44610bfe565b73ffffffffffffffffffffffffffffffffffffffff1614610e9a576040517f08c379a0000000000000000000000000000000000000000000000000000000008152600401610e9190611c97565b60405180910390fd5b565b5f5f5f9054906101000a900473ffffffffffffffffffffffffffffffffffffffff169050815f5f6101000a81548173ffffffffffffffffffffffffffffffffffffffff021916908373ffffffffffffffffffffffffffffffffffffffff1602179055508173ffffffffffffffffffffffffffffffffffffffff168173ffffffffffffffffffffffffffffffffffffffff167f8be0079c531659141344cd1fd0a4f28419497f9722a3daafe3b4186f6b6457e060405160405180910390a35050565b5f33905090565b6040518060a001604052805f81526020015f73ffffffffffffffffffffffffffffffffffffffff168152602001606081526020015f81526020015f81525090565b5f604051905090565b5f5ffd5b5f5ffd5b5f73ffffffffffffffffffffffffffffffffffffffff82169050919050565b5f610fdf82610fb6565b9050919050565b610fef81610fd5565b8114610ff9575f5ffd5b50565b5f8135905061100a81610fe6565b92915050565b5f819050919050565b61102281611010565b811461102c575f5ffd5b50565b5f8135905061103d81611019565b92915050565b5f5f6040838503121561105957611058610fae565b5b5f61106685828601610ffc565b92505060206110778582860161102f565b9150509250929050565b61108a81611010565b82525050565b61109981610fd5565b82525050565b5f81519050919050565b5f82825260208201905092915050565b8281835e5f83830152505050565b5f601f19601f8301169050919050565b5f6110e18261109f565b6110eb81856110a9565b93506110fb8185602086016110b9565b611104816110c7565b840191505092915050565b5f60a0820190506111225f830188611081565b61112f6020830187611090565b818103604083015261114181866110d7565b90506111506060830185611081565b61115d6080830184611081565b9695505050505050565b5f6020828403121561117c5761117b610fae565b5b5f61118984828501610ffc565b91505092915050565b5f81519050919050565b5f82825260208201905092915050565b5f819050602082019050919050565b6111c481611010565b82525050565b6111d381610fd5565b82525050565b5f82825260208201905092915050565b5f6111f38261109f565b6111fd81856111d9565b935061120d8185602086016110b9565b611216816110c7565b840191505092915050565b5f60a083015f8301516112365f8601826111bb565b50602083015161124960208601826111ca565b506040830151848203604086015261126182826111e9565b915050606083015161127660608601826111bb565b50608083015161128960808601826111bb565b508091505092915050565b5f61129f8383611221565b905092915050565b5f602082019050919050565b5f6112bd82611192565b6112c7818561119c565b9350836020820285016112d9856111ac565b805f5b8581101561131457848403895281516112f58582611294565b9450611300836112a7565b925060208a019950506001810190506112dc565b50829750879550505050505092915050565b5f6020820190508181035f83015261133e81846112b3565b905092915050565b5f61ffff82169050919050565b61135c81611346565b8114611366575f5ffd5b50565b5f8135905061137781611353565b92915050565b5f6020828403121561139257611391610fae565b5b5f61139f84828501611369565b91505092915050565b6113b181611346565b82525050565b5f6020820190506113ca5f8301846113a8565b92915050565b5f5ffd5b5f5ffd5b7f4e487b71000000000000000000000000000000000000000000000000000000005f52604160045260245ffd5b61140e826110c7565b810181811067ffffffffffffffff8211171561142d5761142c6113d8565b5b80604052505050565b5f61143f610fa5565b905061144b8282611405565b919050565b5f67ffffffffffffffff82111561146a576114696113d8565b5b611473826110c7565b9050602081019050919050565b828183375f83830152505050565b5f6114a061149b84611450565b611436565b9050828152602081018484840111156114bc576114bb6113d4565b5b6114c7848285611480565b509392505050565b5f82601f8301126114e3576114e26113d0565b5b81356114f384826020860161148e565b91505092915050565b5f6020828403121561151157611510610fae565b5b5f82013567ffffffffffffffff81111561152e5761152d610fb2565b5b61153a848285016114cf565b91505092915050565b5f6020820190506115565f830184611081565b92915050565b5f60208201905061156f5f830184611090565b92915050565b5f6020828403121561158a57611589610fae565b5b5f6115978482850161102f565b91505092915050565b5f60a083015f8301516115b55f8601826111bb565b5060208301516115c860208601826111ca565b50604083015184820360408601526115e082826111e9565b91505060608301516115f560608601826111bb565b50608083015161160860808601826111bb565b508091505092915050565b5f6020820190508181035f83015261162b81846115a0565b905092915050565b7f4e487b71000000000000000000000000000000000000000000000000000000005f52602260045260245ffd5b5f600282049050600182168061167757607f821691505b60208210810361168a57611689611633565b5b50919050565b7f4e487b71000000000000000000000000000000000000000000000000000000005f52603260045260245ffd5b7f545745455420444f4553204e4f542045584953540000000000000000000000005f82015250565b5f6116f16014836110a9565b91506116fc826116bd565b602082019050919050565b5f6020820190508181035f83015261171e816116e5565b9050919050565b7f545745455420484153204e4f204c494b455300000000000000000000000000005f82015250565b5f6117596012836110a9565b915061176482611725565b602082019050919050565b5f6020820190508181035f8301526117868161174d565b9050919050565b7f4e487b71000000000000000000000000000000000000000000000000000000005f52601160045260245ffd5b5f6117c482611010565b91505f82036117d6576117d561178d565b5b600182039050919050565b5f6080820190506117f45f830187611090565b6118016020830186611090565b61180e6040830185611081565b61181b6060830184611081565b95945050505050565b5f61182e82611010565b91507fffffffffffffffffffffffffffffffffffffffffffffffffffffffffffffffff82036118605761185f61178d565b5b600182019050919050565b7f547765657420697320746f6f206c6f6e672062726f21000000000000000000005f82015250565b5f61189f6016836110a9565b91506118aa8261186b565b602082019050919050565b5f6020820190508181035f8301526118cc81611893565b9050919050565b5f819050815f5260205f209050919050565b5f6020601f8301049050919050565b5f82821b905092915050565b5f6008830261192f7fffffffffffffffffffffffffffffffffffffffffffffffffffffffffffffffff826118f4565b61193986836118f4565b95508019841693508086168417925050509392505050565b5f819050919050565b5f61197461196f61196a84611010565b611951565b611010565b9050919050565b5f819050919050565b61198d8361195a565b6119a16119998261197b565b848454611900565b825550505050565b5f5f905090565b6119b86119a9565b6119c3818484611984565b505050565b5b818110156119e6576119db5f826119b0565b6001810190506119c9565b5050565b601f821115611a2b576119fc816118d3565b611a05846118e5565b81016020851015611a14578190505b611a28611a20856118e5565b8301826119c8565b50505b505050565b5f82821c905092915050565b5f611a4b5f1984600802611a30565b1980831691505092915050565b5f611a638383611a3c565b9150826002028217905092915050565b611a7c8261109f565b67ffffffffffffffff811115611a9557611a946113d8565b5b611a9f8254611660565b611aaa8282856119ea565b5f60209050601f831160018114611adb575f8415611ac9578287015190505b611ad38582611a58565b865550611b3a565b601f198416611ae9866118d3565b5f5b82811015611b1057848901518255600182019150602085019450602081019050611aeb565b86831015611b2d5784890151611b29601f891682611a3c565b8355505b6001600288020188555050505b505050505050565b5f608082019050611b555f830187611081565b611b626020830186611090565b8181036040830152611b7481856110d7565b9050611b836060830184611081565b95945050505050565b5f611b9682611010565b9150611ba183611010565b9250828201905080821115611bb957611bb861178d565b5b92915050565b7f4f776e61626c653a206e6577206f776e657220697320746865207a65726f20615f8201527f6464726573730000000000000000000000000000000000000000000000000000602082015250565b5f611c196026836110a9565b9150611c2482611bbf565b604082019050919050565b5f6020820190508181035f830152611c4681611c0d565b9050919050565b7f4f776e61626c653a2063616c6c6572206973206e6f7420746865206f776e65725f82015250565b5f611c816020836110a9565b9150611c8c82611c4d565b602082019050919050565b5f6020820190508181035f830152611cae81611c75565b905091905056fea2646970667358221220a59561661de336a6499eee0fb3fd44cb87da07c07711d68a980becb0771fc83c64736f6c634300081e0033",
					"opcodes": "PUSH1 0x80 PUSH1 0x40 MSTORE PUSH2 0x118 PUSH0 PUSH1 0x14 PUSH2 0x100 EXP DUP2 SLOAD DUP2 PUSH2 0xFFFF MUL NOT AND SWAP1 DUP4 PUSH2 0xFFFF AND MUL OR SWAP1 SSTORE POP CALLVALUE DUP1 ISZERO PUSH2 0x2D JUMPI PUSH0 PUSH0 REVERT JUMPDEST POP PUSH2 0x4A PUSH2 0x3F PUSH2 0x4F PUSH1 0x20 SHL PUSH1 0x20 SHR JUMP JUMPDEST PUSH2 0x56 PUSH1 0x20 SHL PUSH1 0x20 SHR JUMP JUMPDEST PUSH2 0x117 JUMP JUMPDEST PUSH0 CALLER SWAP1 POP SWAP1 JUMP JUMPDEST PUSH0 PUSH0 PUSH0 SWAP1 SLOAD SWAP1 PUSH2 0x100 EXP SWAP1 DIV PUSH20 0xFFFFFFFFFFFFFFFFFFFFFFFFFFFFFFFFFFFFFFFF AND SWAP1 POP DUP2 PUSH0 PUSH0 PUSH2 0x100 EXP DUP2 SLOAD DUP2 PUSH20 0xFFFFFFFFFFFFFFFFFFFFFFFFFFFFFFFFFFFFFFFF MUL NOT AND SWAP1 DUP4 PUSH20 0xFFFFFFFFFFFFFFFFFFFFFFFFFFFFFFFFFFFFFFFF AND MUL OR SWAP1 SSTORE POP DUP2 PUSH20 0xFFFFFFFFFFFFFFFFFFFFFFFFFFFFFFFFFFFFFFFF AND DUP2 PUSH20 0xFFFFFFFFFFFFFFFFFFFFFFFFFFFFFFFFFFFFFFFF AND PUSH32 0x8BE0079C531659141344CD1FD0A4F28419497F9722A3DAAFE3B4186F6B6457E0 PUSH1 0x40 MLOAD PUSH1 0x40 MLOAD DUP1 SWAP2 SUB SWAP1 LOG3 POP POP JUMP JUMPDEST PUSH2 0x1CEB DUP1 PUSH2 0x124 PUSH0 CODECOPY PUSH0 RETURN INVALID PUSH1 0x80 PUSH1 0x40 MSTORE CALLVALUE DUP1 ISZERO PUSH2 0xF JUMPI PUSH0 PUSH0 REVERT JUMPDEST POP PUSH1 0x4 CALLDATASIZE LT PUSH2 0xB2 JUMPI PUSH0 CALLDATALOAD PUSH1 0xE0 SHR DUP1 PUSH4 0x715018A6 GT PUSH2 0x6F JUMPI DUP1 PUSH4 0x715018A6 EQ PUSH2 0x18C JUMPI DUP1 PUSH4 0x7C9CD2BC EQ PUSH2 0x196 JUMPI DUP1 PUSH4 0x820785CC EQ PUSH2 0x1B2 JUMPI DUP1 PUSH4 0x8DA5CB5B EQ PUSH2 0x1E2 JUMPI DUP1 PUSH4 0xC3AD5ECB EQ PUSH2 0x200 JUMPI DUP1 PUSH4 0xF2FDE38B EQ PUSH2 0x230 JUMPI PUSH2 0xB2 JUMP JUMPDEST DUP1 PUSH4 0x5A1B4A9 EQ PUSH2 0xB6 JUMPI DUP1 PUSH4 0x12E7EE1C EQ PUSH2 0xEA JUMPI DUP1 PUSH4 0x3D9B569F EQ PUSH2 0x11A JUMPI DUP1 PUSH4 0x58BFA4AB EQ PUSH2 0x136 JUMPI DUP1 PUSH4 0x63378216 EQ PUSH2 0x152 JUMPI DUP1 PUSH4 0x6EB10797 EQ PUSH2 0x16E JUMPI JUMPDEST PUSH0 PUSH0 REVERT JUMPDEST PUSH2 0xD0 PUSH1 0x4 DUP1 CALLDATASIZE SUB DUP2 ADD SWAP1 PUSH2 0xCB SWAP2 SWAP1 PUSH2 0x1043 JUMP JUMPDEST PUSH2 0x24C JUMP JUMPDEST PUSH1 0x40 MLOAD PUSH2 0xE1 SWAP6 SWAP5 SWAP4 SWAP3 SWAP2 SWAP1 PUSH2 0x110F JUMP JUMPDEST PUSH1 0x40 MLOAD DUP1 SWAP2 SUB SWAP1 RETURN JUMPDEST PUSH2 0x104 PUSH1 0x4 DUP1 CALLDATASIZE SUB DUP2 ADD SWAP1 PUSH2 0xFF SWAP2 SWAP1 PUSH2 0x1167 JUMP JUMPDEST PUSH2 0x33D JUMP JUMPDEST PUSH1 0x40 MLOAD PUSH2 0x111 SWAP2 SWAP1 PUSH2 0x1326 JUMP JUMPDEST PUSH1 0x40 MLOAD DUP1 SWAP2 SUB SWAP1 RETURN JUMPDEST PUSH2 0x134 PUSH1 0x4 DUP1 CALLDATASIZE SUB DUP2 ADD SWAP1 PUSH2 0x12F SWAP2 SWAP1 PUSH2 0x1043 JUMP JUMPDEST PUSH2 0x4D8 JUMP JUMPDEST STOP JUMPDEST PUSH2 0x150 PUSH1 0x4 DUP1 CALLDATASIZE SUB DUP2 ADD SWAP1 PUSH2 0x14B SWAP2 SWAP1 PUSH2 0x137D JUMP JUMPDEST PUSH2 0x729 JUMP JUMPDEST STOP JUMPDEST PUSH2 0x16C PUSH1 0x4 DUP1 CALLDATASIZE SUB DUP2 ADD SWAP1 PUSH2 0x167 SWAP2 SWAP1 PUSH2 0x1043 JUMP JUMPDEST PUSH2 0x750 JUMP JUMPDEST STOP JUMPDEST PUSH2 0x176 PUSH2 0x901 JUMP JUMPDEST PUSH1 0x40 MLOAD PUSH2 0x183 SWAP2 SWAP1 PUSH2 0x13B7 JUMP JUMPDEST PUSH1 0x40 MLOAD DUP1 SWAP2 SUB SWAP1 RETURN JUMPDEST PUSH2 0x194 PUSH2 0x914 JUMP JUMPDEST STOP JUMPDEST PUSH2 0x1B0 PUSH1 0x4 DUP1 CALLDATASIZE SUB DUP2 ADD SWAP1 PUSH2 0x1AB SWAP2 SWAP1 PUSH2 0x14FC JUMP JUMPDEST PUSH2 0x927 JUMP JUMPDEST STOP JUMPDEST PUSH2 0x1CC PUSH1 0x4 DUP1 CALLDATASIZE SUB DUP2 ADD SWAP1 PUSH2 0x1C7 SWAP2 SWAP1 PUSH2 0x1167 JUMP JUMPDEST PUSH2 0xB2C JUMP JUMPDEST PUSH1 0x40 MLOAD PUSH2 0x1D9 SWAP2 SWAP1 PUSH2 0x1543 JUMP JUMPDEST PUSH1 0x40 MLOAD DUP1 SWAP2 SUB SWAP1 RETURN JUMPDEST PUSH2 0x1EA PUSH2 0xBFE JUMP JUMPDEST PUSH1 0x40 MLOAD PUSH2 0x1F7 SWAP2 SWAP1 PUSH2 0x155C JUMP JUMPDEST PUSH1 0x40 MLOAD DUP1 SWAP2 SUB SWAP1 RETURN JUMPDEST PUSH2 0x21A PUSH1 0x4 DUP1 CALLDATASIZE SUB DUP2 ADD SWAP1 PUSH2 0x215 SWAP2 SWAP1 PUSH2 0x1575 JUMP JUMPDEST PUSH2 0xC25 JUMP JUMPDEST PUSH1 0x40 MLOAD PUSH2 0x227 SWAP2 SWAP1 PUSH2 0x1613 JUMP JUMPDEST PUSH1 0x40 MLOAD DUP1 SWAP2 SUB SWAP1 RETURN JUMPDEST PUSH2 0x24A PUSH1 0x4 DUP1 CALLDATASIZE SUB DUP2 ADD SWAP1 PUSH2 0x245 SWAP2 SWAP1 PUSH2 0x1167 JUMP JUMPDEST PUSH2 0xD9C JUMP JUMPDEST STOP JUMPDEST PUSH1 0x1 PUSH1 0x20 MSTORE DUP2 PUSH0 MSTORE PUSH1 0x40 PUSH0 KECCAK256 DUP2 DUP2 SLOAD DUP2 LT PUSH2 0x265 JUMPI PUSH0 DUP1 REVERT JUMPDEST SWAP1 PUSH0 MSTORE PUSH1 0x20 PUSH0 KECCAK256 SWAP1 PUSH1 0x5 MUL ADD PUSH0 SWAP2 POP SWAP2 POP POP DUP1 PUSH0 ADD SLOAD SWAP1 DUP1 PUSH1 0x1 ADD PUSH0 SWAP1 SLOAD SWAP1 PUSH2 0x100 EXP SWAP1 DIV PUSH20 0xFFFFFFFFFFFFFFFFFFFFFFFFFFFFFFFFFFFFFFFF AND SWAP1 DUP1 PUSH1 0x2 ADD DUP1 SLOAD PUSH2 0x2B0 SWAP1 PUSH2 0x1660 JUMP JUMPDEST DUP1 PUSH1 0x1F ADD PUSH1 0x20 DUP1 SWAP2 DIV MUL PUSH1 0x20 ADD PUSH1 0x40 MLOAD SWAP1 DUP2 ADD PUSH1 0x40 MSTORE DUP1 SWAP3 SWAP2 SWAP1 DUP2 DUP2 MSTORE PUSH1 0x20 ADD DUP3 DUP1 SLOAD PUSH2 0x2DC SWAP1 PUSH2 0x1660 JUMP JUMPDEST DUP1 ISZERO PUSH2 0x327 JUMPI DUP1 PUSH1 0x1F LT PUSH2 0x2FE JUMPI PUSH2 0x100 DUP1 DUP4 SLOAD DIV MUL DUP4 MSTORE SWAP2 PUSH1 0x20 ADD SWAP2 PUSH2 0x327 JUMP JUMPDEST DUP3 ADD SWAP2 SWAP1 PUSH0 MSTORE PUSH1 0x20 PUSH0 KECCAK256 SWAP1 JUMPDEST DUP2 SLOAD DUP2 MSTORE SWAP1 PUSH1 0x1 ADD SWAP1 PUSH1 0x20 ADD DUP1 DUP4 GT PUSH2 0x30A JUMPI DUP3 SWAP1 SUB PUSH1 0x1F AND DUP3 ADD SWAP2 JUMPDEST POP POP POP POP POP SWAP1 DUP1 PUSH1 0x3 ADD SLOAD SWAP1 DUP1 PUSH1 0x4 ADD SLOAD SWAP1 POP DUP6 JUMP JUMPDEST PUSH1 0x60 PUSH1 0x1 PUSH0 DUP4 PUSH20 0xFFFFFFFFFFFFFFFFFFFFFFFFFFFFFFFFFFFFFFFF AND PUSH20 0xFFFFFFFFFFFFFFFFFFFFFFFFFFFFFFFFFFFFFFFF AND DUP2 MSTORE PUSH1 0x20 ADD SWAP1 DUP2 MSTORE PUSH1 0x20 ADD PUSH0 KECCAK256 DUP1 SLOAD DUP1 PUSH1 0x20 MUL PUSH1 0x20 ADD PUSH1 0x40 MLOAD SWAP1 DUP2 ADD PUSH1 0x40 MSTORE DUP1 SWAP3 SWAP2 SWAP1 DUP2 DUP2 MSTORE PUSH1 0x20 ADD PUSH0 SWAP1 JUMPDEST DUP3 DUP3 LT ISZERO PUSH2 0x4CD JUMPI DUP4 DUP3 SWAP1 PUSH0 MSTORE PUSH1 0x20 PUSH0 KECCAK256 SWAP1 PUSH1 0x5 MUL ADD PUSH1 0x40 MLOAD DUP1 PUSH1 0xA0 ADD PUSH1 0x40 MSTORE SWAP1 DUP2 PUSH0 DUP3 ADD SLOAD DUP2 MSTORE PUSH1 0x20 ADD PUSH1 0x1 DUP3 ADD PUSH0 SWAP1 SLOAD SWAP1 PUSH2 0x100 EXP SWAP1 DIV PUSH20 0xFFFFFFFFFFFFFFFFFFFFFFFFFFFFFFFFFFFFFFFF AND PUSH20 0xFFFFFFFFFFFFFFFFFFFFFFFFFFFFFFFFFFFFFFFF AND PUSH20 0xFFFFFFFFFFFFFFFFFFFFFFFFFFFFFFFFFFFFFFFF AND DUP2 MSTORE PUSH1 0x20 ADD PUSH1 0x2 DUP3 ADD DUP1 SLOAD PUSH2 0x42A SWAP1 PUSH2 0x1660 JUMP JUMPDEST DUP1 PUSH1 0x1F ADD PUSH1 0x20 DUP1 SWAP2 DIV MUL PUSH1 0x20 ADD PUSH1 0x40 MLOAD SWAP1 DUP2 ADD PUSH1 0x40 MSTORE DUP1 SWAP3 SWAP2 SWAP1 DUP2 DUP2 MSTORE PUSH1 0x20 ADD DUP3 DUP1 SLOAD PUSH2 0x456 SWAP1 PUSH2 0x1660 JUMP JUMPDEST DUP1 ISZERO PUSH2 0x4A1 JUMPI DUP1 PUSH1 0x1F LT PUSH2 0x478 JUMPI PUSH2 0x100 DUP1 DUP4 SLOAD DIV MUL DUP4 MSTORE SWAP2 PUSH1 0x20 ADD SWAP2 PUSH2 0x4A1 JUMP JUMPDEST DUP3 ADD SWAP2 SWAP1 PUSH0 MSTORE PUSH1 0x20 PUSH0 KECCAK256 SWAP1 JUMPDEST DUP2 SLOAD DUP2 MSTORE SWAP1 PUSH1 0x1 ADD SWAP1 PUSH1 0x20 ADD DUP1 DUP4 GT PUSH2 0x484 JUMPI DUP3 SWAP1 SUB PUSH1 0x1F AND DUP3 ADD SWAP2 JUMPDEST POP POP POP POP POP DUP2 MSTORE PUSH1 0x20 ADD PUSH1 0x3 DUP3 ADD SLOAD DUP2 MSTORE PUSH1 0x20 ADD PUSH1 0x4 DUP3 ADD SLOAD DUP2 MSTORE POP POP DUP2 MSTORE PUSH1 0x20 ADD SWAP1 PUSH1 0x1 ADD SWAP1 PUSH2 0x39B JUMP JUMPDEST POP POP POP POP SWAP1 POP SWAP2 SWAP1 POP JUMP JUMPDEST DUP1 PUSH1 0x1 PUSH0 DUP5 PUSH20 0xFFFFFFFFFFFFFFFFFFFFFFFFFFFFFFFFFFFFFFFF AND PUSH20 0xFFFFFFFFFFFFFFFFFFFFFFFFFFFFFFFFFFFFFFFF AND DUP2 MSTORE PUSH1 0x20 ADD SWAP1 DUP2 MSTORE PUSH1 0x20 ADD PUSH0 KECCAK256 DUP3 DUP2 SLOAD DUP2 LT PUSH2 0x528 JUMPI PUSH2 0x527 PUSH2 0x1690 JUMP JUMPDEST JUMPDEST SWAP1 PUSH0 MSTORE PUSH1 0x20 PUSH0 KECCAK256 SWAP1 PUSH1 0x5 MUL ADD PUSH0 ADD SLOAD EQ PUSH2 0x577 JUMPI PUSH1 0x40 MLOAD PUSH32 0x8C379A000000000000000000000000000000000000000000000000000000000 DUP2 MSTORE PUSH1 0x4 ADD PUSH2 0x56E SWAP1 PUSH2 0x1707 JUMP JUMPDEST PUSH1 0x40 MLOAD DUP1 SWAP2 SUB SWAP1 REVERT JUMPDEST PUSH0 PUSH1 0x1 PUSH0 DUP5 PUSH20 0xFFFFFFFFFFFFFFFFFFFFFFFFFFFFFFFFFFFFFFFF AND PUSH20 0xFFFFFFFFFFFFFFFFFFFFFFFFFFFFFFFFFFFFFFFF AND DUP2 MSTORE PUSH1 0x20 ADD SWAP1 DUP2 MSTORE PUSH1 0x20 ADD PUSH0 KECCAK256 DUP3 DUP2 SLOAD DUP2 LT PUSH2 0x5C7 JUMPI PUSH2 0x5C6 PUSH2 0x1690 JUMP JUMPDEST JUMPDEST SWAP1 PUSH0 MSTORE PUSH1 0x20 PUSH0 KECCAK256 SWAP1 PUSH1 0x5 MUL ADD PUSH1 0x4 ADD SLOAD GT PUSH2 0x617 JUMPI PUSH1 0x40 MLOAD PUSH32 0x8C379A000000000000000000000000000000000000000000000000000000000 DUP2 MSTORE PUSH1 0x4 ADD PUSH2 0x60E SWAP1 PUSH2 0x176F JUMP JUMPDEST PUSH1 0x40 MLOAD DUP1 SWAP2 SUB SWAP1 REVERT JUMPDEST PUSH1 0x1 PUSH0 DUP4 PUSH20 0xFFFFFFFFFFFFFFFFFFFFFFFFFFFFFFFFFFFFFFFF AND PUSH20 0xFFFFFFFFFFFFFFFFFFFFFFFFFFFFFFFFFFFFFFFF AND DUP2 MSTORE PUSH1 0x20 ADD SWAP1 DUP2 MSTORE PUSH1 0x20 ADD PUSH0 KECCAK256 DUP2 DUP2 SLOAD DUP2 LT PUSH2 0x666 JUMPI PUSH2 0x665 PUSH2 0x1690 JUMP JUMPDEST JUMPDEST SWAP1 PUSH0 MSTORE PUSH1 0x20 PUSH0 KECCAK256 SWAP1 PUSH1 0x5 MUL ADD PUSH1 0x4 ADD PUSH0 DUP2 SLOAD DUP1 SWAP3 SWAP2 SWAP1 PUSH2 0x685 SWAP1 PUSH2 0x17BA JUMP JUMPDEST SWAP2 SWAP1 POP SSTORE POP PUSH32 0x762C2616349603AC16EBA0DE8E6141B79129A07AB63BD99E0A80B3A471716943 CALLER DUP4 DUP4 PUSH1 0x1 PUSH0 DUP8 PUSH20 0xFFFFFFFFFFFFFFFFFFFFFFFFFFFFFFFFFFFFFFFF AND PUSH20 0xFFFFFFFFFFFFFFFFFFFFFFFFFFFFFFFFFFFFFFFF AND DUP2 MSTORE PUSH1 0x20 ADD SWAP1 DUP2 MSTORE PUSH1 0x20 ADD PUSH0 KECCAK256 DUP6 DUP2 SLOAD DUP2 LT PUSH2 0x6FD JUMPI PUSH2 0x6FC PUSH2 0x1690 JUMP JUMPDEST JUMPDEST SWAP1 PUSH0 MSTORE PUSH1 0x20 PUSH0 KECCAK256 SWAP1 PUSH1 0x5 MUL ADD PUSH1 0x4 ADD SLOAD PUSH1 0x40 MLOAD PUSH2 0x71D SWAP5 SWAP4 SWAP3 SWAP2 SWAP1 PUSH2 0x17E1 JUMP JUMPDEST PUSH1 0x40 MLOAD DUP1 SWAP2 SUB SWAP1 LOG1 POP POP JUMP JUMPDEST PUSH2 0x731 PUSH2 0xE1E JUMP JUMPDEST DUP1 PUSH0 PUSH1 0x14 PUSH2 0x100 EXP DUP2 SLOAD DUP2 PUSH2 0xFFFF MUL NOT AND SWAP1 DUP4 PUSH2 0xFFFF AND MUL OR SWAP1 SSTORE POP POP JUMP JUMPDEST DUP1 PUSH1 0x1 PUSH0 DUP5 PUSH20 0xFFFFFFFFFFFFFFFFFFFFFFFFFFFFFFFFFFFFFFFF AND PUSH20 0xFFFFFFFFFFFFFFFFFFFFFFFFFFFFFFFFFFFFFFFF AND DUP2 MSTORE PUSH1 0x20 ADD SWAP1 DUP2 MSTORE PUSH1 0x20 ADD PUSH0 KECCAK256 DUP3 DUP2 SLOAD DUP2 LT PUSH2 0x7A0 JUMPI PUSH2 0x79F PUSH2 0x1690 JUMP JUMPDEST JUMPDEST SWAP1 PUSH0 MSTORE PUSH1 0x20 PUSH0 KECCAK256 SWAP1 PUSH1 0x5 MUL ADD PUSH0 ADD SLOAD EQ PUSH2 0x7EF JUMPI PUSH1 0x40 MLOAD PUSH32 0x8C379A000000000000000000000000000000000000000000000000000000000 DUP2 MSTORE PUSH1 0x4 ADD PUSH2 0x7E6 SWAP1 PUSH2 0x1707 JUMP JUMPDEST PUSH1 0x40 MLOAD DUP1 SWAP2 SUB SWAP1 REVERT JUMPDEST PUSH1 0x1 PUSH0 DUP4 PUSH20 0xFFFFFFFFFFFFFFFFFFFFFFFFFFFFFFFFFFFFFFFF AND PUSH20 0xFFFFFFFFFFFFFFFFFFFFFFFFFFFFFFFFFFFFFFFF AND DUP2 MSTORE PUSH1 0x20 ADD SWAP1 DUP2 MSTORE PUSH1 0x20 ADD PUSH0 KECCAK256 DUP2 DUP2 SLOAD DUP2 LT PUSH2 0x83E JUMPI PUSH2 0x83D PUSH2 0x1690 JUMP JUMPDEST JUMPDEST SWAP1 PUSH0 MSTORE PUSH1 0x20 PUSH0 KECCAK256 SWAP1 PUSH1 0x5 MUL ADD PUSH1 0x4 ADD PUSH0 DUP2 SLOAD DUP1 SWAP3 SWAP2 SWAP1 PUSH2 0x85D SWAP1 PUSH2 0x1824 JUMP JUMPDEST SWAP2 SWAP1 POP SSTORE POP PUSH32 0xE8A76FC0F16D11A00D1E93B689B63D76CF60AF914DD3D915375DC41D01A0C3C8 CALLER DUP4 DUP4 PUSH1 0x1 PUSH0 DUP8 PUSH20 0xFFFFFFFFFFFFFFFFFFFFFFFFFFFFFFFFFFFFFFFF AND PUSH20 0xFFFFFFFFFFFFFFFFFFFFFFFFFFFFFFFFFFFFFFFF AND DUP2 MSTORE PUSH1 0x20 ADD SWAP1 DUP2 MSTORE PUSH1 0x20 ADD PUSH0 KECCAK256 DUP6 DUP2 SLOAD DUP2 LT PUSH2 0x8D5 JUMPI PUSH2 0x8D4 PUSH2 0x1690 JUMP JUMPDEST JUMPDEST SWAP1 PUSH0 MSTORE PUSH1 0x20 PUSH0 KECCAK256 SWAP1 PUSH1 0x5 MUL ADD PUSH1 0x4 ADD SLOAD PUSH1 0x40 MLOAD PUSH2 0x8F5 SWAP5 SWAP4 SWAP3 SWAP2 SWAP1 PUSH2 0x17E1 JUMP JUMPDEST PUSH1 0x40 MLOAD DUP1 SWAP2 SUB SWAP1 LOG1 POP POP JUMP JUMPDEST PUSH0 PUSH1 0x14 SWAP1 SLOAD SWAP1 PUSH2 0x100 EXP SWAP1 DIV PUSH2 0xFFFF AND DUP2 JUMP JUMPDEST PUSH2 0x91C PUSH2 0xE1E JUMP JUMPDEST PUSH2 0x925 PUSH0 PUSH2 0xE9C JUMP JUMPDEST JUMP JUMPDEST PUSH0 PUSH1 0x14 SWAP1 SLOAD SWAP1 PUSH2 0x100 EXP SWAP1 DIV PUSH2 0xFFFF AND PUSH2 0xFFFF AND DUP2 MLOAD GT ISZERO PUSH2 0x97E JUMPI PUSH1 0x40 MLOAD PUSH32 0x8C379A000000000000000000000000000000000000000000000000000000000 DUP2 MSTORE PUSH1 0x4 ADD PUSH2 0x975 SWAP1 PUSH2 0x18B5 JUMP JUMPDEST PUSH1 0x40 MLOAD DUP1 SWAP2 SUB SWAP1 REVERT JUMPDEST PUSH0 PUSH1 0x40 MLOAD DUP1 PUSH1 0xA0 ADD PUSH1 0x40 MSTORE DUP1 PUSH1 0x1 PUSH0 CALLER PUSH20 0xFFFFFFFFFFFFFFFFFFFFFFFFFFFFFFFFFFFFFFFF AND PUSH20 0xFFFFFFFFFFFFFFFFFFFFFFFFFFFFFFFFFFFFFFFF AND DUP2 MSTORE PUSH1 0x20 ADD SWAP1 DUP2 MSTORE PUSH1 0x20 ADD PUSH0 KECCAK256 DUP1 SLOAD SWAP1 POP DUP2 MSTORE PUSH1 0x20 ADD CALLER PUSH20 0xFFFFFFFFFFFFFFFFFFFFFFFFFFFFFFFFFFFFFFFF AND DUP2 MSTORE PUSH1 0x20 ADD DUP4 DUP2 MSTORE PUSH1 0x20 ADD TIMESTAMP DUP2 MSTORE PUSH1 0x20 ADD PUSH0 DUP2 MSTORE POP SWAP1 POP PUSH1 0x1 PUSH0 CALLER PUSH20 0xFFFFFFFFFFFFFFFFFFFFFFFFFFFFFFFFFFFFFFFF AND PUSH20 0xFFFFFFFFFFFFFFFFFFFFFFFFFFFFFFFFFFFFFFFF AND DUP2 MSTORE PUSH1 0x20 ADD SWAP1 DUP2 MSTORE PUSH1 0x20 ADD PUSH0 KECCAK256 DUP2 SWAP1 DUP1 PUSH1 0x1 DUP2 SLOAD ADD DUP1 DUP3 SSTORE DUP1 SWAP2 POP POP PUSH1 0x1 SWAP1 SUB SWAP1 PUSH0 MSTORE PUSH1 0x20 PUSH0 KECCAK256 SWAP1 PUSH1 0x5 MUL ADD PUSH0 SWAP1 SWAP2 SWAP1 SWAP2 SWAP1 SWAP2 POP PUSH0 DUP3 ADD MLOAD DUP2 PUSH0 ADD SSTORE PUSH1 0x20 DUP3 ADD MLOAD DUP2 PUSH1 0x1 ADD PUSH0 PUSH2 0x100 EXP DUP2 SLOAD DUP2 PUSH20 0xFFFFFFFFFFFFFFFFFFFFFFFFFFFFFFFFFFFFFFFF MUL NOT AND SWAP1 DUP4 PUSH20 0xFFFFFFFFFFFFFFFFFFFFFFFFFFFFFFFFFFFFFFFF AND MUL OR SWAP1 SSTORE POP PUSH1 0x40 DUP3 ADD MLOAD DUP2 PUSH1 0x2 ADD SWAP1 DUP2 PUSH2 0xAC5 SWAP2 SWAP1 PUSH2 0x1A73 JUMP JUMPDEST POP PUSH1 0x60 DUP3 ADD MLOAD DUP2 PUSH1 0x3 ADD SSTORE PUSH1 0x80 DUP3 ADD MLOAD DUP2 PUSH1 0x4 ADD SSTORE POP POP PUSH32 0x16FD3C13E9D46923E0A8BCE11C7B473EC508A72E6C96CD2404B29CE972AFC29E DUP2 PUSH0 ADD MLOAD DUP3 PUSH1 0x20 ADD MLOAD DUP4 PUSH1 0x40 ADD MLOAD DUP5 PUSH1 0x60 ADD MLOAD PUSH1 0x40 MLOAD PUSH2 0xB20 SWAP5 SWAP4 SWAP3 SWAP2 SWAP1 PUSH2 0x1B42 JUMP JUMPDEST PUSH1 0x40 MLOAD DUP1 SWAP2 SUB SWAP1 LOG1 POP POP JUMP JUMPDEST PUSH0 PUSH0 PUSH0 PUSH0 SWAP1 POP JUMPDEST PUSH1 0x1 PUSH0 DUP6 PUSH20 0xFFFFFFFFFFFFFFFFFFFFFFFFFFFFFFFFFFFFFFFF AND PUSH20 0xFFFFFFFFFFFFFFFFFFFFFFFFFFFFFFFFFFFFFFFF AND DUP2 MSTORE PUSH1 0x20 ADD SWAP1 DUP2 MSTORE PUSH1 0x20 ADD PUSH0 KECCAK256 DUP1 SLOAD SWAP1 POP DUP2 LT ISZERO PUSH2 0xBF4 JUMPI PUSH1 0x1 PUSH0 DUP6 PUSH20 0xFFFFFFFFFFFFFFFFFFFFFFFFFFFFFFFFFFFFFFFF AND PUSH20 0xFFFFFFFFFFFFFFFFFFFFFFFFFFFFFFFFFFFFFFFF AND DUP2 MSTORE PUSH1 0x20 ADD SWAP1 DUP2 MSTORE PUSH1 0x20 ADD PUSH0 KECCAK256 DUP2 DUP2 SLOAD DUP2 LT PUSH2 0xBCA JUMPI PUSH2 0xBC9 PUSH2 0x1690 JUMP JUMPDEST JUMPDEST SWAP1 PUSH0 MSTORE PUSH1 0x20 PUSH0 KECCAK256 SWAP1 PUSH1 0x5 MUL ADD PUSH1 0x4 ADD SLOAD DUP3 PUSH2 0xBE5 SWAP2 SWAP1 PUSH2 0x1B8C JUMP JUMPDEST SWAP2 POP DUP1 DUP1 PUSH1 0x1 ADD SWAP2 POP POP PUSH2 0xB33 JUMP JUMPDEST POP DUP1 SWAP2 POP POP SWAP2 SWAP1 POP JUMP JUMPDEST PUSH0 PUSH0 PUSH0 SWAP1 SLOAD SWAP1 PUSH2 0x100 EXP SWAP1 DIV PUSH20 0xFFFFFFFFFFFFFFFFFFFFFFFFFFFFFFFFFFFFFFFF AND SWAP1 POP SWAP1 JUMP JUMPDEST PUSH2 0xC2D PUSH2 0xF64 JUMP JUMPDEST PUSH1 0x1 PUSH0 CALLER PUSH20 0xFFFFFFFFFFFFFFFFFFFFFFFFFFFFFFFFFFFFFFFF AND PUSH20 0xFFFFFFFFFFFFFFFFFFFFFFFFFFFFFFFFFFFFFFFF AND DUP2 MSTORE PUSH1 0x20 ADD SWAP1 DUP2 MSTORE PUSH1 0x20 ADD PUSH0 KECCAK256 DUP3 DUP2 SLOAD DUP2 LT PUSH2 0xC7C JUMPI PUSH2 0xC7B PUSH2 0x1690 JUMP JUMPDEST JUMPDEST SWAP1 PUSH0 MSTORE PUSH1 0x20 PUSH0 KECCAK256 SWAP1 PUSH1 0x5 MUL ADD PUSH1 0x40 MLOAD DUP1 PUSH1 0xA0 ADD PUSH1 0x40 MSTORE SWAP1 DUP2 PUSH0 DUP3 ADD SLOAD DUP2 MSTORE PUSH1 0x20 ADD PUSH1 0x1 DUP3 ADD PUSH0 SWAP1 SLOAD SWAP1 PUSH2 0x100 EXP SWAP1 DIV PUSH20 0xFFFFFFFFFFFFFFFFFFFFFFFFFFFFFFFFFFFFFFFF AND PUSH20 0xFFFFFFFFFFFFFFFFFFFFFFFFFFFFFFFFFFFFFFFF AND PUSH20 0xFFFFFFFFFFFFFFFFFFFFFFFFFFFFFFFFFFFFFFFF AND DUP2 MSTORE PUSH1 0x20 ADD PUSH1 0x2 DUP3 ADD DUP1 SLOAD PUSH2 0xD01 SWAP1 PUSH2 0x1660 JUMP JUMPDEST DUP1 PUSH1 0x1F ADD PUSH1 0x20 DUP1 SWAP2 DIV MUL PUSH1 0x20 ADD PUSH1 0x40 MLOAD SWAP1 DUP2 ADD PUSH1 0x40 MSTORE DUP1 SWAP3 SWAP2 SWAP1 DUP2 DUP2 MSTORE PUSH1 0x20 ADD DUP3 DUP1 SLOAD PUSH2 0xD2D SWAP1 PUSH2 0x1660 JUMP JUMPDEST DUP1 ISZERO PUSH2 0xD78 JUMPI DUP1 PUSH1 0x1F LT PUSH2 0xD4F JUMPI PUSH2 0x100 DUP1 DUP4 SLOAD DIV MUL DUP4 MSTORE SWAP2 PUSH1 0x20 ADD SWAP2 PUSH2 0xD78 JUMP JUMPDEST DUP3 ADD SWAP2 SWAP1 PUSH0 MSTORE PUSH1 0x20 PUSH0 KECCAK256 SWAP1 JUMPDEST DUP2 SLOAD DUP2 MSTORE SWAP1 PUSH1 0x1 ADD SWAP1 PUSH1 0x20 ADD DUP1 DUP4 GT PUSH2 0xD5B JUMPI DUP3 SWAP1 SUB PUSH1 0x1F AND DUP3 ADD SWAP2 JUMPDEST POP POP POP POP POP DUP2 MSTORE PUSH1 0x20 ADD PUSH1 0x3 DUP3 ADD SLOAD DUP2 MSTORE PUSH1 0x20 ADD PUSH1 0x4 DUP3 ADD SLOAD DUP2 MSTORE POP POP SWAP1 POP SWAP2 SWAP1 POP JUMP JUMPDEST PUSH2 0xDA4 PUSH2 0xE1E JUMP JUMPDEST PUSH0 PUSH20 0xFFFFFFFFFFFFFFFFFFFFFFFFFFFFFFFFFFFFFFFF AND DUP2 PUSH20 0xFFFFFFFFFFFFFFFFFFFFFFFFFFFFFFFFFFFFFFFF AND SUB PUSH2 0xE12 JUMPI PUSH1 0x40 MLOAD PUSH32 0x8C379A000000000000000000000000000000000000000000000000000000000 DUP2 MSTORE PUSH1 0x4 ADD PUSH2 0xE09 SWAP1 PUSH2 0x1C2F JUMP JUMPDEST PUSH1 0x40 MLOAD DUP1 SWAP2 SUB SWAP1 REVERT JUMPDEST PUSH2 0xE1B DUP2 PUSH2 0xE9C JUMP JUMPDEST POP JUMP JUMPDEST PUSH2 0xE26 PUSH2 0xF5D JUMP JUMPDEST PUSH20 0xFFFFFFFFFFFFFFFFFFFFFFFFFFFFFFFFFFFFFFFF AND PUSH2 0xE44 PUSH2 0xBFE JUMP JUMPDEST PUSH20 0xFFFFFFFFFFFFFFFFFFFFFFFFFFFFFFFFFFFFFFFF AND EQ PUSH2 0xE9A JUMPI PUSH1 0x40 MLOAD PUSH32 0x8C379A000000000000000000000000000000000000000000000000000000000 DUP2 MSTORE PUSH1 0x4 ADD PUSH2 0xE91 SWAP1 PUSH2 0x1C97 JUMP JUMPDEST PUSH1 0x40 MLOAD DUP1 SWAP2 SUB SWAP1 REVERT JUMPDEST JUMP JUMPDEST PUSH0 PUSH0 PUSH0 SWAP1 SLOAD SWAP1 PUSH2 0x100 EXP SWAP1 DIV PUSH20 0xFFFFFFFFFFFFFFFFFFFFFFFFFFFFFFFFFFFFFFFF AND SWAP1 POP DUP2 PUSH0 PUSH0 PUSH2 0x100 EXP DUP2 SLOAD DUP2 PUSH20 0xFFFFFFFFFFFFFFFFFFFFFFFFFFFFFFFFFFFFFFFF MUL NOT AND SWAP1 DUP4 PUSH20 0xFFFFFFFFFFFFFFFFFFFFFFFFFFFFFFFFFFFFFFFF AND MUL OR SWAP1 SSTORE POP DUP2 PUSH20 0xFFFFFFFFFFFFFFFFFFFFFFFFFFFFFFFFFFFFFFFF AND DUP2 PUSH20 0xFFFFFFFFFFFFFFFFFFFFFFFFFFFFFFFFFFFFFFFF AND PUSH32 0x8BE0079C531659141344CD1FD0A4F28419497F9722A3DAAFE3B4186F6B6457E0 PUSH1 0x40 MLOAD PUSH1 0x40 MLOAD DUP1 SWAP2 SUB SWAP1 LOG3 POP POP JUMP JUMPDEST PUSH0 CALLER SWAP1 POP SWAP1 JUMP JUMPDEST PUSH1 0x40 MLOAD DUP1 PUSH1 0xA0 ADD PUSH1 0x40 MSTORE DUP1 PUSH0 DUP2 MSTORE PUSH1 0x20 ADD PUSH0 PUSH20 0xFFFFFFFFFFFFFFFFFFFFFFFFFFFFFFFFFFFFFFFF AND DUP2 MSTORE PUSH1 0x20 ADD PUSH1 0x60 DUP2 MSTORE PUSH1 0x20 ADD PUSH0 DUP2 MSTORE PUSH1 0x20 ADD PUSH0 DUP2 MSTORE POP SWAP1 JUMP JUMPDEST PUSH0 PUSH1 0x40 MLOAD SWAP1 POP SWAP1 JUMP JUMPDEST PUSH0 PUSH0 REVERT JUMPDEST PUSH0 PUSH0 REVERT JUMPDEST PUSH0 PUSH20 0xFFFFFFFFFFFFFFFFFFFFFFFFFFFFFFFFFFFFFFFF DUP3 AND SWAP1 POP SWAP2 SWAP1 POP JUMP JUMPDEST PUSH0 PUSH2 0xFDF DUP3 PUSH2 0xFB6 JUMP JUMPDEST SWAP1 POP SWAP2 SWAP1 POP JUMP JUMPDEST PUSH2 0xFEF DUP2 PUSH2 0xFD5 JUMP JUMPDEST DUP2 EQ PUSH2 0xFF9 JUMPI PUSH0 PUSH0 REVERT JUMPDEST POP JUMP JUMPDEST PUSH0 DUP2 CALLDATALOAD SWAP1 POP PUSH2 0x100A DUP2 PUSH2 0xFE6 JUMP JUMPDEST SWAP3 SWAP2 POP POP JUMP JUMPDEST PUSH0 DUP2 SWAP1 POP SWAP2 SWAP1 POP JUMP JUMPDEST PUSH2 0x1022 DUP2 PUSH2 0x1010 JUMP JUMPDEST DUP2 EQ PUSH2 0x102C JUMPI PUSH0 PUSH0 REVERT JUMPDEST POP JUMP JUMPDEST PUSH0 DUP2 CALLDATALOAD SWAP1 POP PUSH2 0x103D DUP2 PUSH2 0x1019 JUMP JUMPDEST SWAP3 SWAP2 POP POP JUMP JUMPDEST PUSH0 PUSH0 PUSH1 0x40 DUP4 DUP6 SUB SLT ISZERO PUSH2 0x1059 JUMPI PUSH2 0x1058 PUSH2 0xFAE JUMP JUMPDEST JUMPDEST PUSH0 PUSH2 0x1066 DUP6 DUP3 DUP7 ADD PUSH2 0xFFC JUMP JUMPDEST SWAP3 POP POP PUSH1 0x20 PUSH2 0x1077 DUP6 DUP3 DUP7 ADD PUSH2 0x102F JUMP JUMPDEST SWAP2 POP POP SWAP3 POP SWAP3 SWAP1 POP JUMP JUMPDEST PUSH2 0x108A DUP2 PUSH2 0x1010 JUMP JUMPDEST DUP3 MSTORE POP POP JUMP JUMPDEST PUSH2 0x1099 DUP2 PUSH2 0xFD5 JUMP JUMPDEST DUP3 MSTORE POP POP JUMP JUMPDEST PUSH0 DUP2 MLOAD SWAP1 POP SWAP2 SWAP1 POP JUMP JUMPDEST PUSH0 DUP3 DUP3 MSTORE PUSH1 0x20 DUP3 ADD SWAP1 POP SWAP3 SWAP2 POP POP JUMP JUMPDEST DUP3 DUP2 DUP4 MCOPY PUSH0 DUP4 DUP4 ADD MSTORE POP POP POP JUMP JUMPDEST PUSH0 PUSH1 0x1F NOT PUSH1 0x1F DUP4 ADD AND SWAP1 POP SWAP2 SWAP1 POP JUMP JUMPDEST PUSH0 PUSH2 0x10E1 DUP3 PUSH2 0x109F JUMP JUMPDEST PUSH2 0x10EB DUP2 DUP6 PUSH2 0x10A9 JUMP JUMPDEST SWAP4 POP PUSH2 0x10FB DUP2 DUP6 PUSH1 0x20 DUP7 ADD PUSH2 0x10B9 JUMP JUMPDEST PUSH2 0x1104 DUP2 PUSH2 0x10C7 JUMP JUMPDEST DUP5 ADD SWAP2 POP POP SWAP3 SWAP2 POP POP JUMP JUMPDEST PUSH0 PUSH1 0xA0 DUP3 ADD SWAP1 POP PUSH2 0x1122 PUSH0 DUP4 ADD DUP9 PUSH2 0x1081 JUMP JUMPDEST PUSH2 0x112F PUSH1 0x20 DUP4 ADD DUP8 PUSH2 0x1090 JUMP JUMPDEST DUP2 DUP2 SUB PUSH1 0x40 DUP4 ADD MSTORE PUSH2 0x1141 DUP2 DUP7 PUSH2 0x10D7 JUMP JUMPDEST SWAP1 POP PUSH2 0x1150 PUSH1 0x60 DUP4 ADD DUP6 PUSH2 0x1081 JUMP JUMPDEST PUSH2 0x115D PUSH1 0x80 DUP4 ADD DUP5 PUSH2 0x1081 JUMP JUMPDEST SWAP7 SWAP6 POP POP POP POP POP POP JUMP JUMPDEST PUSH0 PUSH1 0x20 DUP3 DUP5 SUB SLT ISZERO PUSH2 0x117C JUMPI PUSH2 0x117B PUSH2 0xFAE JUMP JUMPDEST JUMPDEST PUSH0 PUSH2 0x1189 DUP5 DUP3 DUP6 ADD PUSH2 0xFFC JUMP JUMPDEST SWAP2 POP POP SWAP3 SWAP2 POP POP JUMP JUMPDEST PUSH0 DUP2 MLOAD SWAP1 POP SWAP2 SWAP1 POP JUMP JUMPDEST PUSH0 DUP3 DUP3 MSTORE PUSH1 0x20 DUP3 ADD SWAP1 POP SWAP3 SWAP2 POP POP JUMP JUMPDEST PUSH0 DUP2 SWAP1 POP PUSH1 0x20 DUP3 ADD SWAP1 POP SWAP2 SWAP1 POP JUMP JUMPDEST PUSH2 0x11C4 DUP2 PUSH2 0x1010 JUMP JUMPDEST DUP3 MSTORE POP POP JUMP JUMPDEST PUSH2 0x11D3 DUP2 PUSH2 0xFD5 JUMP JUMPDEST DUP3 MSTORE POP POP JUMP JUMPDEST PUSH0 DUP3 DUP3 MSTORE PUSH1 0x20 DUP3 ADD SWAP1 POP SWAP3 SWAP2 POP POP JUMP JUMPDEST PUSH0 PUSH2 0x11F3 DUP3 PUSH2 0x109F JUMP JUMPDEST PUSH2 0x11FD DUP2 DUP6 PUSH2 0x11D9 JUMP JUMPDEST SWAP4 POP PUSH2 0x120D DUP2 DUP6 PUSH1 0x20 DUP7 ADD PUSH2 0x10B9 JUMP JUMPDEST PUSH2 0x1216 DUP2 PUSH2 0x10C7 JUMP JUMPDEST DUP5 ADD SWAP2 POP POP SWAP3 SWAP2 POP POP JUMP JUMPDEST PUSH0 PUSH1 0xA0 DUP4 ADD PUSH0 DUP4 ADD MLOAD PUSH2 0x1236 PUSH0 DUP7 ADD DUP3 PUSH2 0x11BB JUMP JUMPDEST POP PUSH1 0x20 DUP4 ADD MLOAD PUSH2 0x1249 PUSH1 0x20 DUP7 ADD DUP3 PUSH2 0x11CA JUMP JUMPDEST POP PUSH1 0x40 DUP4 ADD MLOAD DUP5 DUP3 SUB PUSH1 0x40 DUP7 ADD MSTORE PUSH2 0x1261 DUP3 DUP3 PUSH2 0x11E9 JUMP JUMPDEST SWAP2 POP POP PUSH1 0x60 DUP4 ADD MLOAD PUSH2 0x1276 PUSH1 0x60 DUP7 ADD DUP3 PUSH2 0x11BB JUMP JUMPDEST POP PUSH1 0x80 DUP4 ADD MLOAD PUSH2 0x1289 PUSH1 0x80 DUP7 ADD DUP3 PUSH2 0x11BB JUMP JUMPDEST POP DUP1 SWAP2 POP POP SWAP3 SWAP2 POP POP JUMP JUMPDEST PUSH0 PUSH2 0x129F DUP4 DUP4 PUSH2 0x1221 JUMP JUMPDEST SWAP1 POP SWAP3 SWAP2 POP POP JUMP JUMPDEST PUSH0 PUSH1 0x20 DUP3 ADD SWAP1 POP SWAP2 SWAP1 POP JUMP JUMPDEST PUSH0 PUSH2 0x12BD DUP3 PUSH2 0x1192 JUMP JUMPDEST PUSH2 0x12C7 DUP2 DUP6 PUSH2 0x119C JUMP JUMPDEST SWAP4 POP DUP4 PUSH1 0x20 DUP3 MUL DUP6 ADD PUSH2 0x12D9 DUP6 PUSH2 0x11AC JUMP JUMPDEST DUP1 PUSH0 JUMPDEST DUP6 DUP2 LT ISZERO PUSH2 0x1314 JUMPI DUP5 DUP5 SUB DUP10 MSTORE DUP2 MLOAD PUSH2 0x12F5 DUP6 DUP3 PUSH2 0x1294 JUMP JUMPDEST SWAP5 POP PUSH2 0x1300 DUP4 PUSH2 0x12A7 JUMP JUMPDEST SWAP3 POP PUSH1 0x20 DUP11 ADD SWAP10 POP POP PUSH1 0x1 DUP2 ADD SWAP1 POP PUSH2 0x12DC JUMP JUMPDEST POP DUP3 SWAP8 POP DUP8 SWAP6 POP POP POP POP POP POP SWAP3 SWAP2 POP POP JUMP JUMPDEST PUSH0 PUSH1 0x20 DUP3 ADD SWAP1 POP DUP2 DUP2 SUB PUSH0 DUP4 ADD MSTORE PUSH2 0x133E DUP2 DUP5 PUSH2 0x12B3 JUMP JUMPDEST SWAP1 POP SWAP3 SWAP2 POP POP JUMP JUMPDEST PUSH0 PUSH2 0xFFFF DUP3 AND SWAP1 POP SWAP2 SWAP1 POP JUMP JUMPDEST PUSH2 0x135C DUP2 PUSH2 0x1346 JUMP JUMPDEST DUP2 EQ PUSH2 0x1366 JUMPI PUSH0 PUSH0 REVERT JUMPDEST POP JUMP JUMPDEST PUSH0 DUP2 CALLDATALOAD SWAP1 POP PUSH2 0x1377 DUP2 PUSH2 0x1353 JUMP JUMPDEST SWAP3 SWAP2 POP POP JUMP JUMPDEST PUSH0 PUSH1 0x20 DUP3 DUP5 SUB SLT ISZERO PUSH2 0x1392 JUMPI PUSH2 0x1391 PUSH2 0xFAE JUMP JUMPDEST JUMPDEST PUSH0 PUSH2 0x139F DUP5 DUP3 DUP6 ADD PUSH2 0x1369 JUMP JUMPDEST SWAP2 POP POP SWAP3 SWAP2 POP POP JUMP JUMPDEST PUSH2 0x13B1 DUP2 PUSH2 0x1346 JUMP JUMPDEST DUP3 MSTORE POP POP JUMP JUMPDEST PUSH0 PUSH1 0x20 DUP3 ADD SWAP1 POP PUSH2 0x13CA PUSH0 DUP4 ADD DUP5 PUSH2 0x13A8 JUMP JUMPDEST SWAP3 SWAP2 POP POP JUMP JUMPDEST PUSH0 PUSH0 REVERT JUMPDEST PUSH0 PUSH0 REVERT JUMPDEST PUSH32 0x4E487B7100000000000000000000000000000000000000000000000000000000 PUSH0 MSTORE PUSH1 0x41 PUSH1 0x4 MSTORE PUSH1 0x24 PUSH0 REVERT JUMPDEST PUSH2 0x140E DUP3 PUSH2 0x10C7 JUMP JUMPDEST DUP2 ADD DUP2 DUP2 LT PUSH8 0xFFFFFFFFFFFFFFFF DUP3 GT OR ISZERO PUSH2 0x142D JUMPI PUSH2 0x142C PUSH2 0x13D8 JUMP JUMPDEST JUMPDEST DUP1 PUSH1 0x40 MSTORE POP POP POP JUMP JUMPDEST PUSH0 PUSH2 0x143F PUSH2 0xFA5 JUMP JUMPDEST SWAP1 POP PUSH2 0x144B DUP3 DUP3 PUSH2 0x1405 JUMP JUMPDEST SWAP2 SWAP1 POP JUMP JUMPDEST PUSH0 PUSH8 0xFFFFFFFFFFFFFFFF DUP3 GT ISZERO PUSH2 0x146A JUMPI PUSH2 0x1469 PUSH2 0x13D8 JUMP JUMPDEST JUMPDEST PUSH2 0x1473 DUP3 PUSH2 0x10C7 JUMP JUMPDEST SWAP1 POP PUSH1 0x20 DUP2 ADD SWAP1 POP SWAP2 SWAP1 POP JUMP JUMPDEST DUP3 DUP2 DUP4 CALLDATACOPY PUSH0 DUP4 DUP4 ADD MSTORE POP POP POP JUMP JUMPDEST PUSH0 PUSH2 0x14A0 PUSH2 0x149B DUP5 PUSH2 0x1450 JUMP JUMPDEST PUSH2 0x1436 JUMP JUMPDEST SWAP1 POP DUP3 DUP2 MSTORE PUSH1 0x20 DUP2 ADD DUP5 DUP5 DUP5 ADD GT ISZERO PUSH2 0x14BC JUMPI PUSH2 0x14BB PUSH2 0x13D4 JUMP JUMPDEST JUMPDEST PUSH2 0x14C7 DUP5 DUP3 DUP6 PUSH2 0x1480 JUMP JUMPDEST POP SWAP4 SWAP3 POP POP POP JUMP JUMPDEST PUSH0 DUP3 PUSH1 0x1F DUP4 ADD SLT PUSH2 0x14E3 JUMPI PUSH2 0x14E2 PUSH2 0x13D0 JUMP JUMPDEST JUMPDEST DUP2 CALLDATALOAD PUSH2 0x14F3 DUP5 DUP3 PUSH1 0x20 DUP7 ADD PUSH2 0x148E JUMP JUMPDEST SWAP2 POP POP SWAP3 SWAP2 POP POP JUMP JUMPDEST PUSH0 PUSH1 0x20 DUP3 DUP5 SUB SLT ISZERO PUSH2 0x1511 JUMPI PUSH2 0x1510 PUSH2 0xFAE JUMP JUMPDEST JUMPDEST PUSH0 DUP3 ADD CALLDATALOAD PUSH8 0xFFFFFFFFFFFFFFFF DUP2 GT ISZERO PUSH2 0x152E JUMPI PUSH2 0x152D PUSH2 0xFB2 JUMP JUMPDEST JUMPDEST PUSH2 0x153A DUP5 DUP3 DUP6 ADD PUSH2 0x14CF JUMP JUMPDEST SWAP2 POP POP SWAP3 SWAP2 POP POP JUMP JUMPDEST PUSH0 PUSH1 0x20 DUP3 ADD SWAP1 POP PUSH2 0x1556 PUSH0 DUP4 ADD DUP5 PUSH2 0x1081 JUMP JUMPDEST SWAP3 SWAP2 POP POP JUMP JUMPDEST PUSH0 PUSH1 0x20 DUP3 ADD SWAP1 POP PUSH2 0x156F PUSH0 DUP4 ADD DUP5 PUSH2 0x1090 JUMP JUMPDEST SWAP3 SWAP2 POP POP JUMP JUMPDEST PUSH0 PUSH1 0x20 DUP3 DUP5 SUB SLT ISZERO PUSH2 0x158A JUMPI PUSH2 0x1589 PUSH2 0xFAE JUMP JUMPDEST JUMPDEST PUSH0 PUSH2 0x1597 DUP5 DUP3 DUP6 ADD PUSH2 0x102F JUMP JUMPDEST SWAP2 POP POP SWAP3 SWAP2 POP POP JUMP JUMPDEST PUSH0 PUSH1 0xA0 DUP4 ADD PUSH0 DUP4 ADD MLOAD PUSH2 0x15B5 PUSH0 DUP7 ADD DUP3 PUSH2 0x11BB JUMP JUMPDEST POP PUSH1 0x20 DUP4 ADD MLOAD PUSH2 0x15C8 PUSH1 0x20 DUP7 ADD DUP3 PUSH2 0x11CA JUMP JUMPDEST POP PUSH1 0x40 DUP4 ADD MLOAD DUP5 DUP3 SUB PUSH1 0x40 DUP7 ADD MSTORE PUSH2 0x15E0 DUP3 DUP3 PUSH2 0x11E9 JUMP JUMPDEST SWAP2 POP POP PUSH1 0x60 DUP4 ADD MLOAD PUSH2 0x15F5 PUSH1 0x60 DUP7 ADD DUP3 PUSH2 0x11BB JUMP JUMPDEST POP PUSH1 0x80 DUP4 ADD MLOAD PUSH2 0x1608 PUSH1 0x80 DUP7 ADD DUP3 PUSH2 0x11BB JUMP JUMPDEST POP DUP1 SWAP2 POP POP SWAP3 SWAP2 POP POP JUMP JUMPDEST PUSH0 PUSH1 0x20 DUP3 ADD SWAP1 POP DUP2 DUP2 SUB PUSH0 DUP4 ADD MSTORE PUSH2 0x162B DUP2 DUP5 PUSH2 0x15A0 JUMP JUMPDEST SWAP1 POP SWAP3 SWAP2 POP POP JUMP JUMPDEST PUSH32 0x4E487B7100000000000000000000000000000000000000000000000000000000 PUSH0 MSTORE PUSH1 0x22 PUSH1 0x4 MSTORE PUSH1 0x24 PUSH0 REVERT JUMPDEST PUSH0 PUSH1 0x2 DUP3 DIV SWAP1 POP PUSH1 0x1 DUP3 AND DUP1 PUSH2 0x1677 JUMPI PUSH1 0x7F DUP3 AND SWAP2 POP JUMPDEST PUSH1 0x20 DUP3 LT DUP2 SUB PUSH2 0x168A JUMPI PUSH2 0x1689 PUSH2 0x1633 JUMP JUMPDEST JUMPDEST POP SWAP2 SWAP1 POP JUMP JUMPDEST PUSH32 0x4E487B7100000000000000000000000000000000000000000000000000000000 PUSH0 MSTORE PUSH1 0x32 PUSH1 0x4 MSTORE PUSH1 0x24 PUSH0 REVERT JUMPDEST PUSH32 0x545745455420444F4553204E4F54204558495354000000000000000000000000 PUSH0 DUP3 ADD MSTORE POP JUMP JUMPDEST PUSH0 PUSH2 0x16F1 PUSH1 0x14 DUP4 PUSH2 0x10A9 JUMP JUMPDEST SWAP2 POP PUSH2 0x16FC DUP3 PUSH2 0x16BD JUMP JUMPDEST PUSH1 0x20 DUP3 ADD SWAP1 POP SWAP2 SWAP1 POP JUMP JUMPDEST PUSH0 PUSH1 0x20 DUP3 ADD SWAP1 POP DUP2 DUP2 SUB PUSH0 DUP4 ADD MSTORE PUSH2 0x171E DUP2 PUSH2 0x16E5 JUMP JUMPDEST SWAP1 POP SWAP2 SWAP1 POP JUMP JUMPDEST PUSH32 0x545745455420484153204E4F204C494B45530000000000000000000000000000 PUSH0 DUP3 ADD MSTORE POP JUMP JUMPDEST PUSH0 PUSH2 0x1759 PUSH1 0x12 DUP4 PUSH2 0x10A9 JUMP JUMPDEST SWAP2 POP PUSH2 0x1764 DUP3 PUSH2 0x1725 JUMP JUMPDEST PUSH1 0x20 DUP3 ADD SWAP1 POP SWAP2 SWAP1 POP JUMP JUMPDEST PUSH0 PUSH1 0x20 DUP3 ADD SWAP1 POP DUP2 DUP2 SUB PUSH0 DUP4 ADD MSTORE PUSH2 0x1786 DUP2 PUSH2 0x174D JUMP JUMPDEST SWAP1 POP SWAP2 SWAP1 POP JUMP JUMPDEST PUSH32 0x4E487B7100000000000000000000000000000000000000000000000000000000 PUSH0 MSTORE PUSH1 0x11 PUSH1 0x4 MSTORE PUSH1 0x24 PUSH0 REVERT JUMPDEST PUSH0 PUSH2 0x17C4 DUP3 PUSH2 0x1010 JUMP JUMPDEST SWAP2 POP PUSH0 DUP3 SUB PUSH2 0x17D6 JUMPI PUSH2 0x17D5 PUSH2 0x178D JUMP JUMPDEST JUMPDEST PUSH1 0x1 DUP3 SUB SWAP1 POP SWAP2 SWAP1 POP JUMP JUMPDEST PUSH0 PUSH1 0x80 DUP3 ADD SWAP1 POP PUSH2 0x17F4 PUSH0 DUP4 ADD DUP8 PUSH2 0x1090 JUMP JUMPDEST PUSH2 0x1801 PUSH1 0x20 DUP4 ADD DUP7 PUSH2 0x1090 JUMP JUMPDEST PUSH2 0x180E PUSH1 0x40 DUP4 ADD DUP6 PUSH2 0x1081 JUMP JUMPDEST PUSH2 0x181B PUSH1 0x60 DUP4 ADD DUP5 PUSH2 0x1081 JUMP JUMPDEST SWAP6 SWAP5 POP POP POP POP POP JUMP JUMPDEST PUSH0 PUSH2 0x182E DUP3 PUSH2 0x1010 JUMP JUMPDEST SWAP2 POP PUSH32 0xFFFFFFFFFFFFFFFFFFFFFFFFFFFFFFFFFFFFFFFFFFFFFFFFFFFFFFFFFFFFFFFF DUP3 SUB PUSH2 0x1860 JUMPI PUSH2 0x185F PUSH2 0x178D JUMP JUMPDEST JUMPDEST PUSH1 0x1 DUP3 ADD SWAP1 POP SWAP2 SWAP1 POP JUMP JUMPDEST PUSH32 0x547765657420697320746F6F206C6F6E672062726F2100000000000000000000 PUSH0 DUP3 ADD MSTORE POP JUMP JUMPDEST PUSH0 PUSH2 0x189F PUSH1 0x16 DUP4 PUSH2 0x10A9 JUMP JUMPDEST SWAP2 POP PUSH2 0x18AA DUP3 PUSH2 0x186B JUMP JUMPDEST PUSH1 0x20 DUP3 ADD SWAP1 POP SWAP2 SWAP1 POP JUMP JUMPDEST PUSH0 PUSH1 0x20 DUP3 ADD SWAP1 POP DUP2 DUP2 SUB PUSH0 DUP4 ADD MSTORE PUSH2 0x18CC DUP2 PUSH2 0x1893 JUMP JUMPDEST SWAP1 POP SWAP2 SWAP1 POP JUMP JUMPDEST PUSH0 DUP2 SWAP1 POP DUP2 PUSH0 MSTORE PUSH1 0x20 PUSH0 KECCAK256 SWAP1 POP SWAP2 SWAP1 POP JUMP JUMPDEST PUSH0 PUSH1 0x20 PUSH1 0x1F DUP4 ADD DIV SWAP1 POP SWAP2 SWAP1 POP JUMP JUMPDEST PUSH0 DUP3 DUP3 SHL SWAP1 POP SWAP3 SWAP2 POP POP JUMP JUMPDEST PUSH0 PUSH1 0x8 DUP4 MUL PUSH2 0x192F PUSH32 0xFFFFFFFFFFFFFFFFFFFFFFFFFFFFFFFFFFFFFFFFFFFFFFFFFFFFFFFFFFFFFFFF DUP3 PUSH2 0x18F4 JUMP JUMPDEST PUSH2 0x1939 DUP7 DUP4 PUSH2 0x18F4 JUMP JUMPDEST SWAP6 POP DUP1 NOT DUP5 AND SWAP4 POP DUP1 DUP7 AND DUP5 OR SWAP3 POP POP POP SWAP4 SWAP3 POP POP POP JUMP JUMPDEST PUSH0 DUP2 SWAP1 POP SWAP2 SWAP1 POP JUMP JUMPDEST PUSH0 PUSH2 0x1974 PUSH2 0x196F PUSH2 0x196A DUP5 PUSH2 0x1010 JUMP JUMPDEST PUSH2 0x1951 JUMP JUMPDEST PUSH2 0x1010 JUMP JUMPDEST SWAP1 POP SWAP2 SWAP1 POP JUMP JUMPDEST PUSH0 DUP2 SWAP1 POP SWAP2 SWAP1 POP JUMP JUMPDEST PUSH2 0x198D DUP4 PUSH2 0x195A JUMP JUMPDEST PUSH2 0x19A1 PUSH2 0x1999 DUP3 PUSH2 0x197B JUMP JUMPDEST DUP5 DUP5 SLOAD PUSH2 0x1900 JUMP JUMPDEST DUP3 SSTORE POP POP POP POP JUMP JUMPDEST PUSH0 PUSH0 SWAP1 POP SWAP1 JUMP JUMPDEST PUSH2 0x19B8 PUSH2 0x19A9 JUMP JUMPDEST PUSH2 0x19C3 DUP2 DUP5 DUP5 PUSH2 0x1984 JUMP JUMPDEST POP POP POP JUMP JUMPDEST JUMPDEST DUP2 DUP2 LT ISZERO PUSH2 0x19E6 JUMPI PUSH2 0x19DB PUSH0 DUP3 PUSH2 0x19B0 JUMP JUMPDEST PUSH1 0x1 DUP2 ADD SWAP1 POP PUSH2 0x19C9 JUMP JUMPDEST POP POP JUMP JUMPDEST PUSH1 0x1F DUP3 GT ISZERO PUSH2 0x1A2B JUMPI PUSH2 0x19FC DUP2 PUSH2 0x18D3 JUMP JUMPDEST PUSH2 0x1A05 DUP5 PUSH2 0x18E5 JUMP JUMPDEST DUP2 ADD PUSH1 0x20 DUP6 LT ISZERO PUSH2 0x1A14 JUMPI DUP2 SWAP1 POP JUMPDEST PUSH2 0x1A28 PUSH2 0x1A20 DUP6 PUSH2 0x18E5 JUMP JUMPDEST DUP4 ADD DUP3 PUSH2 0x19C8 JUMP JUMPDEST POP POP JUMPDEST POP POP POP JUMP JUMPDEST PUSH0 DUP3 DUP3 SHR SWAP1 POP SWAP3 SWAP2 POP POP JUMP JUMPDEST PUSH0 PUSH2 0x1A4B PUSH0 NOT DUP5 PUSH1 0x8 MUL PUSH2 0x1A30 JUMP JUMPDEST NOT DUP1 DUP4 AND SWAP2 POP POP SWAP3 SWAP2 POP POP JUMP JUMPDEST PUSH0 PUSH2 0x1A63 DUP4 DUP4 PUSH2 0x1A3C JUMP JUMPDEST SWAP2 POP DUP3 PUSH1 0x2 MUL DUP3 OR SWAP1 POP SWAP3 SWAP2 POP POP JUMP JUMPDEST PUSH2 0x1A7C DUP3 PUSH2 0x109F JUMP JUMPDEST PUSH8 0xFFFFFFFFFFFFFFFF DUP2 GT ISZERO PUSH2 0x1A95 JUMPI PUSH2 0x1A94 PUSH2 0x13D8 JUMP JUMPDEST JUMPDEST PUSH2 0x1A9F DUP3 SLOAD PUSH2 0x1660 JUMP JUMPDEST PUSH2 0x1AAA DUP3 DUP3 DUP6 PUSH2 0x19EA JUMP JUMPDEST PUSH0 PUSH1 0x20 SWAP1 POP PUSH1 0x1F DUP4 GT PUSH1 0x1 DUP2 EQ PUSH2 0x1ADB JUMPI PUSH0 DUP5 ISZERO PUSH2 0x1AC9 JUMPI DUP3 DUP8 ADD MLOAD SWAP1 POP JUMPDEST PUSH2 0x1AD3 DUP6 DUP3 PUSH2 0x1A58 JUMP JUMPDEST DUP7 SSTORE POP PUSH2 0x1B3A JUMP JUMPDEST PUSH1 0x1F NOT DUP5 AND PUSH2 0x1AE9 DUP7 PUSH2 0x18D3 JUMP JUMPDEST PUSH0 JUMPDEST DUP3 DUP2 LT ISZERO PUSH2 0x1B10 JUMPI DUP5 DUP10 ADD MLOAD DUP3 SSTORE PUSH1 0x1 DUP3 ADD SWAP2 POP PUSH1 0x20 DUP6 ADD SWAP5 POP PUSH1 0x20 DUP2 ADD SWAP1 POP PUSH2 0x1AEB JUMP JUMPDEST DUP7 DUP4 LT ISZERO PUSH2 0x1B2D JUMPI DUP5 DUP10 ADD MLOAD PUSH2 0x1B29 PUSH1 0x1F DUP10 AND DUP3 PUSH2 0x1A3C JUMP JUMPDEST DUP4 SSTORE POP JUMPDEST PUSH1 0x1 PUSH1 0x2 DUP9 MUL ADD DUP9 SSTORE POP POP POP JUMPDEST POP POP POP POP POP POP JUMP JUMPDEST PUSH0 PUSH1 0x80 DUP3 ADD SWAP1 POP PUSH2 0x1B55 PUSH0 DUP4 ADD DUP8 PUSH2 0x1081 JUMP JUMPDEST PUSH2 0x1B62 PUSH1 0x20 DUP4 ADD DUP7 PUSH2 0x1090 JUMP JUMPDEST DUP2 DUP2 SUB PUSH1 0x40 DUP4 ADD MSTORE PUSH2 0x1B74 DUP2 DUP6 PUSH2 0x10D7 JUMP JUMPDEST SWAP1 POP PUSH2 0x1B83 PUSH1 0x60 DUP4 ADD DUP5 PUSH2 0x1081 JUMP JUMPDEST SWAP6 SWAP5 POP POP POP POP POP JUMP JUMPDEST PUSH0 PUSH2 0x1B96 DUP3 PUSH2 0x1010 JUMP JUMPDEST SWAP2 POP PUSH2 0x1BA1 DUP4 PUSH2 0x1010 JUMP JUMPDEST SWAP3 POP DUP3 DUP3 ADD SWAP1 POP DUP1 DUP3 GT ISZERO PUSH2 0x1BB9 JUMPI PUSH2 0x1BB8 PUSH2 0x178D JUMP JUMPDEST JUMPDEST SWAP3 SWAP2 POP POP JUMP JUMPDEST PUSH32 0x4F776E61626C653A206E6577206F776E657220697320746865207A65726F2061 PUSH0 DUP3 ADD MSTORE PUSH32 0x6464726573730000000000000000000000000000000000000000000000000000 PUSH1 0x20 DUP3 ADD MSTORE POP JUMP JUMPDEST PUSH0 PUSH2 0x1C19 PUSH1 0x26 DUP4 PUSH2 0x10A9 JUMP JUMPDEST SWAP2 POP PUSH2 0x1C24 DUP3 PUSH2 0x1BBF JUMP JUMPDEST PUSH1 0x40 DUP3 ADD SWAP1 POP SWAP2 SWAP1 POP JUMP JUMPDEST PUSH0 PUSH1 0x20 DUP3 ADD SWAP1 POP DUP2 DUP2 SUB PUSH0 DUP4 ADD MSTORE PUSH2 0x1C46 DUP2 PUSH2 0x1C0D JUMP JUMPDEST SWAP1 POP SWAP2 SWAP1 POP JUMP JUMPDEST PUSH32 0x4F776E61626C653A2063616C6C6572206973206E6F7420746865206F776E6572 PUSH0 DUP3 ADD MSTORE POP JUMP JUMPDEST PUSH0 PUSH2 0x1C81 PUSH1 0x20 DUP4 PUSH2 0x10A9 JUMP JUMPDEST SWAP2 POP PUSH2 0x1C8C DUP3 PUSH2 0x1C4D JUMP JUMPDEST PUSH1 0x20 DUP3 ADD SWAP1 POP SWAP2 SWAP1 POP JUMP JUMPDEST PUSH0 PUSH1 0x20 DUP3 ADD SWAP1 POP DUP2 DUP2 SUB PUSH0 DUP4 ADD MSTORE PUSH2 0x1CAE DUP2 PUSH2 0x1C75 JUMP JUMPDEST SWAP1 POP SWAP2 SWAP1 POP JUMP INVALID LOG2 PUSH5 0x6970667358 0x22 SLT KECCAK256 0xA5 SWAP6 PUSH2 0x661D CALLF 0x36A6 BLOBHASH SWAP15 RETURNCONTRACT 0xF 0xB3 REVERT PREVRANDAO 0xCB DUP8 0xDA SMOD 0xC0 PUSH24 0x11D68A980BECB0771FC83C64736F6C634300081E00330000 "
				},
				"gasEstimates": {
					"creation": {
						"codeDepositCost": "1480600",
						"executionCost": "infinite",
						"totalCost": "infinite"
					},
					"external": {
						"MAX_TWEET_LENGTH()": "2627",
						"changeTweetLength(uint16)": "27050",
						"createTweet(string)": "infinite",
						"getAllTweets(address)": "infinite",
						"getTotalLikes(address)": "infinite",
						"getTweet(uint256)": "infinite",
						"likeTweet(address,uint256)": "infinite",
						"owner()": "2580",
						"renounceOwnership()": "30387",
						"transferOwnership(address)": "30838",
						"tweets(address,uint256)": "infinite",
						"unlikeTweet(address,uint256)": "infinite"
					}
				},
				"methodIdentifiers": {
					"MAX_TWEET_LENGTH()": "6eb10797",
					"changeTweetLength(uint16)": "58bfa4ab",
					"createTweet(string)": "7c9cd2bc",
					"getAllTweets(address)": "12e7ee1c",
					"getTotalLikes(address)": "820785cc",
					"getTweet(uint256)": "c3ad5ecb",
					"likeTweet(address,uint256)": "63378216",
					"owner()": "8da5cb5b",
					"renounceOwnership()": "715018a6",
					"transferOwnership(address)": "f2fde38b",
					"tweets(address,uint256)": "05a1b4a9",
					"unlikeTweet(address,uint256)": "3d9b569f"
				}
			},
			"storageLayout": {
				"storage": [
					{
						"astId": 7,
						"contract": "ultimate-solidity-course-for-complete-beginners-main/Exercises/26-Twitter-Inheritance-Exercise.sol:Twitter",
						"label": "_owner",
						"offset": 0,
						"slot": "0",
						"type": "t_address"
					},
					{
						"astId": 142,
						"contract": "ultimate-solidity-course-for-complete-beginners-main/Exercises/26-Twitter-Inheritance-Exercise.sol:Twitter",
						"label": "MAX_TWEET_LENGTH",
						"offset": 20,
						"slot": "0",
						"type": "t_uint16"
					},
					{
						"astId": 159,
						"contract": "ultimate-solidity-course-for-complete-beginners-main/Exercises/26-Twitter-Inheritance-Exercise.sol:Twitter",
						"label": "tweets",
						"offset": 0,
						"slot": "1",
						"type": "t_mapping(t_address,t_array(t_struct(Tweet)153_storage)dyn_storage)"
					}
				],
				"types": {
					"t_address": {
						"encoding": "inplace",
						"label": "address",
						"numberOfBytes": "20"
					},
					"t_array(t_struct(Tweet)153_storage)dyn_storage": {
						"base": "t_struct(Tweet)153_storage",
						"encoding": "dynamic_array",
						"label": "struct Twitter.Tweet[]",
						"numberOfBytes": "32"
					},
					"t_mapping(t_address,t_array(t_struct(Tweet)153_storage)dyn_storage)": {
						"encoding": "mapping",
						"key": "t_address",
						"label": "mapping(address => struct Twitter.Tweet[])",
						"numberOfBytes": "32",
						"value": "t_array(t_struct(Tweet)153_storage)dyn_storage"
					},
					"t_string_storage": {
						"encoding": "bytes",
						"label": "string",
						"numberOfBytes": "32"
					},
					"t_struct(Tweet)153_storage": {
						"encoding": "inplace",
						"label": "struct Twitter.Tweet",
						"members": [
							{
								"astId": 144,
								"contract": "ultimate-solidity-course-for-complete-beginners-main/Exercises/26-Twitter-Inheritance-Exercise.sol:Twitter",
								"label": "id",
								"offset": 0,
								"slot": "0",
								"type": "t_uint256"
							},
							{
								"astId": 146,
								"contract": "ultimate-solidity-course-for-complete-beginners-main/Exercises/26-Twitter-Inheritance-Exercise.sol:Twitter",
								"label": "author",
								"offset": 0,
								"slot": "1",
								"type": "t_address"
							},
							{
								"astId": 148,
								"contract": "ultimate-solidity-course-for-complete-beginners-main/Exercises/26-Twitter-Inheritance-Exercise.sol:Twitter",
								"label": "content",
								"offset": 0,
								"slot": "2",
								"type": "t_string_storage"
							},
							{
								"astId": 150,
								"contract": "ultimate-solidity-course-for-complete-beginners-main/Exercises/26-Twitter-Inheritance-Exercise.sol:Twitter",
								"label": "timestamp",
								"offset": 0,
								"slot": "3",
								"type": "t_uint256"
							},
							{
								"astId": 152,
								"contract": "ultimate-solidity-course-for-complete-beginners-main/Exercises/26-Twitter-Inheritance-Exercise.sol:Twitter",
								"label": "likes",
								"offset": 0,
								"slot": "4",
								"type": "t_uint256"
							}
						],
						"numberOfBytes": "160"
					},
					"t_uint16": {
						"encoding": "inplace",
						"label": "uint16",
						"numberOfBytes": "2"
					},
					"t_uint256": {
						"encoding": "inplace",
						"label": "uint256",
						"numberOfBytes": "32"
					}
				}
			},
			"userdoc": {
				"kind": "user",
				"methods": {},
				"version": 1
			}
		}
	}
}